{
  "address": "0x03688D459F172B058d39241456Ae213FC4E26941",
  "abi": [
    {
      "inputs": [],
      "name": "AlreadyDeployed",
      "type": "error"
    },
    {
      "anonymous": false,
      "inputs": [
        {
          "indexed": false,
          "internalType": "address",
          "name": "feeCollector",
          "type": "address"
        }
      ],
      "name": "FeeCollectorChanged",
      "type": "event"
    },
    {
      "anonymous": false,
      "inputs": [
        {
          "indexed": true,
          "internalType": "address",
          "name": "previousOwner",
          "type": "address"
        },
        {
          "indexed": true,
          "internalType": "address",
          "name": "newOwner",
          "type": "address"
        }
      ],
      "name": "OwnershipTransferred",
      "type": "event"
    },
    {
      "anonymous": false,
      "inputs": [
        {
          "indexed": false,
          "internalType": "address",
          "name": "unlockerImpl",
          "type": "address"
        },
        {
          "indexed": false,
          "internalType": "address",
          "name": "futureTokenImpl",
          "type": "address"
        },
        {
          "indexed": false,
          "internalType": "address",
          "name": "trackerTokenImpl",
          "type": "address"
        },
        {
          "indexed": false,
          "internalType": "address",
          "name": "beaconManagerImpl",
          "type": "address"
        },
        {
          "indexed": false,
          "internalType": "address",
          "name": "feeCollector",
          "type": "address"
        }
      ],
      "name": "TTUDeployerInitialized",
      "type": "event"
    },
    {
      "anonymous": false,
      "inputs": [
        {
          "indexed": false,
          "internalType": "address",
          "name": "by",
          "type": "address"
        },
        {
          "indexed": false,
          "internalType": "string",
          "name": "projectId",
          "type": "string"
        },
        {
          "indexed": false,
          "internalType": "address",
          "name": "unlocker",
          "type": "address"
        },
        {
          "indexed": false,
          "internalType": "address",
          "name": "futureToken",
          "type": "address"
        },
        {
          "indexed": false,
          "internalType": "address",
          "name": "trackerToken",
          "type": "address"
        }
      ],
      "name": "TokenTableSuiteDeployed",
      "type": "event"
    },
    {
      "inputs": [],
      "name": "beaconManager",
      "outputs": [
        {
          "internalType": "contract TTUV2BeaconManager",
          "name": "",
          "type": "address"
        }
      ],
      "stateMutability": "view",
      "type": "function"
    },
    {
      "inputs": [
        {
          "internalType": "address",
          "name": "projectToken",
          "type": "address"
        },
        {
          "internalType": "string",
          "name": "projectId",
          "type": "string"
        },
        {
          "internalType": "bool",
          "name": "disableAutoUpgrade",
          "type": "bool"
        },
        {
          "internalType": "bool",
          "name": "allowTransferableFT",
          "type": "bool"
        }
      ],
      "name": "deployTTSuite",
      "outputs": [
        {
          "internalType": "contract ITokenTableUnlockerV2",
          "name": "",
          "type": "address"
        },
        {
          "internalType": "contract ITTFutureTokenV2",
          "name": "",
          "type": "address"
        },
        {
          "internalType": "contract ITTTrackerTokenV2",
          "name": "",
          "type": "address"
        }
      ],
      "stateMutability": "nonpayable",
      "type": "function"
    },
    {
      "inputs": [],
      "name": "feeCollector",
      "outputs": [
        {
          "internalType": "contract ITTUFeeCollector",
          "name": "",
          "type": "address"
        }
      ],
      "stateMutability": "view",
      "type": "function"
    },
    {
      "inputs": [],
      "name": "owner",
      "outputs": [
        {
          "internalType": "address",
          "name": "",
          "type": "address"
        }
      ],
      "stateMutability": "view",
      "type": "function"
    },
    {
      "inputs": [
        {
          "internalType": "string",
          "name": "",
          "type": "string"
        }
      ],
      "name": "registry",
      "outputs": [
        {
          "internalType": "bool",
          "name": "",
          "type": "bool"
        }
      ],
      "stateMutability": "view",
      "type": "function"
    },
    {
      "inputs": [],
      "name": "renounceOwnership",
      "outputs": [],
      "stateMutability": "nonpayable",
      "type": "function"
    },
    {
      "inputs": [
        {
          "internalType": "contract TTUV2BeaconManager",
          "name": "_beaconManager",
          "type": "address"
        }
      ],
      "name": "setBeaconManager",
      "outputs": [],
      "stateMutability": "nonpayable",
      "type": "function"
    },
    {
      "inputs": [
        {
          "internalType": "contract ITTUFeeCollector",
          "name": "feeCollector_",
          "type": "address"
        }
      ],
      "name": "setFeeCollector",
      "outputs": [],
      "stateMutability": "nonpayable",
      "type": "function"
    },
    {
      "inputs": [
        {
          "internalType": "address",
          "name": "newOwner",
          "type": "address"
        }
      ],
      "name": "transferOwnership",
      "outputs": [],
      "stateMutability": "nonpayable",
      "type": "function"
    }
  ],
  "transactionHash": "0x0a569fd2a0803651c4c7004787b398e291e98c9c23ea31eabab32281fa0fbea6",
  "args": [],
  "numDeployments": 1,
  "solcInputHash": "021a07a15f9bce891ed814f5bd0e945a",
  "bytecode": "0x608060405234801561001057600080fd5b5061001a3361001f565b61006f565b600080546001600160a01b038381166001600160a01b0319831681178455604051919092169283917f8be0079c531659141344cd1fd0a4f28419497f9722a3daafe3b4186f6b6457e09190a35050565b61179b8061007e6000396000f3fe60806040523480156200001157600080fd5b50600436106200009f5760003560e01c8063a29e2d99116200006e578063a29e2d991462000135578063a42dce801462000177578063c415b95c146200018e578063d30b5ef414620001a2578063f2fde38b14620001b957600080fd5b80635a4fba0214620000a4578063715018a614620000d55780638da5cb5b14620000e157806392a296c914620000f3575b600080fd5b600154620000b8906001600160a01b031681565b6040516001600160a01b0390911681526020015b60405180910390f35b620000df620001d0565b005b6000546001600160a01b0316620000b8565b620001246200010436600462000bbd565b805160208183018101805160038252928201919093012091525460ff1681565b6040519015158152602001620000cc565b6200014c6200014636600462000c9f565b620001e8565b604080516001600160a01b0394851681529284166020840152921691810191909152606001620000cc565b620000df6200018836600462000d51565b62000944565b600254620000b8906001600160a01b031681565b620000df620001b336600462000d51565b620009a2565b620000df620001ca36600462000d51565b620009ce565b620001da62000a51565b620001e6600062000aad565b565b6000806000600387876040516200020192919062000d78565b9081526040519081900360200190205460ff1615620002335760405163a6ef0ba160e01b815260040160405180910390fd5b6001600388886040516200024992919062000d78565b908152604051908190036020019020805491151560ff19909216919091179055600080808715620005405760015460408051631e3997bf60e21b8152905162000351926001600160a01b0316916378e65efc9160048083019260209291908290030181865afa158015620002c1573d6000803e3d6000fd5b505050506040513d601f19601f82011682018060405250810190620002e7919062000d88565b6001600160a01b0316635c60da1b6040518163ffffffff1660e01b8152600401602060405180830381865afa15801562000325573d6000803e3d6000fd5b505050506040513d601f19601f820116820180604052508101906200034b919062000d88565b62000afd565b60405163400ada7560e01b81526001600160a01b038d8116600483015289151560248301529194509084169063400ada7590604401600060405180830381600087803b158015620003a157600080fd5b505af1158015620003b6573d6000803e3d6000fd5b5050505062000412600160009054906101000a90046001600160a01b03166001600160a01b031663ec5319876040518163ffffffff1660e01b8152600401602060405180830381865afa158015620002c1573d6000803e3d6000fd5b60405163c0c53b8b60e01b81526001600160a01b038d8116600483015285811660248301523060448301529193509083169063c0c53b8b90606401600060405180830381600087803b1580156200046857600080fd5b505af11580156200047d573d6000803e3d6000fd5b50505050620004d9600160009054906101000a90046001600160a01b03166001600160a01b031663d63ea2c56040518163ffffffff1660e01b8152600401602060405180830381865afa158015620002c1573d6000803e3d6000fd5b60405163189acdbd60e31b81526001600160a01b0384811660048301529192509082169063c4d66de890602401600060405180830381600087803b1580156200052157600080fd5b505af115801562000536573d6000803e3d6000fd5b5050505062000839565b600160009054906101000a90046001600160a01b03166001600160a01b03166378e65efc6040518163ffffffff1660e01b8152600401602060405180830381865afa15801562000594573d6000803e3d6000fd5b505050506040513d601f19601f82011682018060405250810190620005ba919062000d88565b604080516001600160a01b038e16602482015289151560448083019190915282518083039091018152606490910182526020810180516001600160e01b031663400ada7560e01b1790529051620006119062000b99565b6200061e92919062000da8565b604051809103906000f0801580156200063b573d6000803e3d6000fd5b509250600160009054906101000a90046001600160a01b03166001600160a01b031663ec5319876040518163ffffffff1660e01b8152600401602060405180830381865afa15801562000692573d6000803e3d6000fd5b505050506040513d601f19601f82011682018060405250810190620006b8919062000d88565b604080516001600160a01b038e81166024830152861660448201523060648083019190915282518083039091018152608490910182526020810180516001600160e01b031663c0c53b8b60e01b1790529051620007159062000b99565b6200072292919062000da8565b604051809103906000f0801580156200073f573d6000803e3d6000fd5b509150600160009054906101000a90046001600160a01b03166001600160a01b031663d63ea2c56040518163ffffffff1660e01b8152600401602060405180830381865afa15801562000796573d6000803e3d6000fd5b505050506040513d601f19601f82011682018060405250810190620007bc919062000d88565b604080516001600160a01b03851660248083019190915282518083039091018152604490910182526020810180516001600160e01b031663189acdbd60e31b17905290516200080b9062000b99565b6200081892919062000da8565b604051809103906000f08015801562000835573d6000803e3d6000fd5b5090505b60405163f2fde38b60e01b81523360048201526001600160a01b0383169063f2fde38b90602401600060405180830381600087803b1580156200087b57600080fd5b505af115801562000890573d6000803e3d6000fd5b5050604051630ab148ff60e31b81526001600160a01b0385811660048301528616925063558a47f89150602401600060405180830381600087803b158015620008d857600080fd5b505af1158015620008ed573d6000803e3d6000fd5b505050507f17df396a3d7d1aee90dda3191f7e75531702775925951ea64827321bbc37412c338b8b8587866040516200092c9695949392919062000e08565b60405180910390a1909a919950975095505050505050565b6200094e62000a51565b600280546001600160a01b0319166001600160a01b0383169081179091556040519081527f9c1996a14d26c3ecd833c10222d012447ef07b09b15000f3a34318ff039c0bdc9060200160405180910390a150565b620009ac62000a51565b600180546001600160a01b0319166001600160a01b0392909216919091179055565b620009d862000a51565b6001600160a01b03811662000a435760405162461bcd60e51b815260206004820152602660248201527f4f776e61626c653a206e6577206f776e657220697320746865207a65726f206160448201526564647265737360d01b60648201526084015b60405180910390fd5b62000a4e8162000aad565b50565b6000546001600160a01b03163314620001e65760405162461bcd60e51b815260206004820181905260248201527f4f776e61626c653a2063616c6c6572206973206e6f7420746865206f776e6572604482015260640162000a3a565b600080546001600160a01b038381166001600160a01b0319831681178455604051919092169283917f8be0079c531659141344cd1fd0a4f28419497f9722a3daafe3b4186f6b6457e09190a35050565b6000763d602d80600a3d3981f3363d3d373d3d3d363d730000008260601b60e81c176000526e5af43d82803e903d91602b57fd5bf38260781b17602052603760096000f090506001600160a01b03811662000b945760405162461bcd60e51b8152602060048201526016602482015275115490cc4c4d8dce8818dc99585d194819985a5b195960521b604482015260640162000a3a565b919050565b6109008062000e6683390190565b634e487b7160e01b600052604160045260246000fd5b60006020828403121562000bd057600080fd5b813567ffffffffffffffff8082111562000be957600080fd5b818401915084601f83011262000bfe57600080fd5b81358181111562000c135762000c1362000ba7565b604051601f8201601f19908116603f0116810190838211818310171562000c3e5762000c3e62000ba7565b8160405282815287602084870101111562000c5857600080fd5b826020860160208301376000928101602001929092525095945050505050565b6001600160a01b038116811462000a4e57600080fd5b8035801515811462000b9457600080fd5b60008060008060006080868803121562000cb857600080fd5b853562000cc58162000c78565b9450602086013567ffffffffffffffff8082111562000ce357600080fd5b818801915088601f83011262000cf857600080fd5b81358181111562000d0857600080fd5b89602082850101111562000d1b57600080fd5b60208301965080955050505062000d356040870162000c8e565b915062000d456060870162000c8e565b90509295509295909350565b60006020828403121562000d6457600080fd5b813562000d718162000c78565b9392505050565b8183823760009101908152919050565b60006020828403121562000d9b57600080fd5b815162000d718162000c78565b60018060a01b038316815260006020604081840152835180604085015260005b8181101562000de65785810183015185820160600152820162000dc8565b506000606082860101526060601f19601f830116850101925050509392505050565b6001600160a01b03878116825260a0602083018190528201869052600090868860c0850137600060c0888501810191909152958116604084015293841660608301525091166080820152601f909201601f1916909101019291505056fe60806040526040516109003803806109008339810160408190526100229161045b565b61002e82826000610035565b5050610585565b61003e83610100565b6040516001600160a01b038416907f1cf3b03a6cf19fa2baba4df148e9dcabedea7f8a5c07840e207e5c089be95d3e90600090a260008251118061007f5750805b156100fb576100f9836001600160a01b0316635c60da1b6040518163ffffffff1660e01b8152600401602060405180830381865afa1580156100c5573d6000803e3d6000fd5b505050506040513d601f19601f820116820180604052508101906100e9919061051b565b836102a360201b6100291760201c565b505b505050565b610113816102cf60201b6100551760201c565b6101725760405162461bcd60e51b815260206004820152602560248201527f455243313936373a206e657720626561636f6e206973206e6f74206120636f6e6044820152641d1c9858dd60da1b60648201526084015b60405180910390fd5b6101e6816001600160a01b0316635c60da1b6040518163ffffffff1660e01b8152600401602060405180830381865afa1580156101b3573d6000803e3d6000fd5b505050506040513d601f19601f820116820180604052508101906101d7919061051b565b6102cf60201b6100551760201c565b61024b5760405162461bcd60e51b815260206004820152603060248201527f455243313936373a20626561636f6e20696d706c656d656e746174696f6e206960448201526f1cc81b9bdd08184818dbdb9d1c9858dd60821b6064820152608401610169565b806102827fa3f0ad74e5423aebfd80d3ef4346578335a9a72aeaee59ff6cb3582b35133d5060001b6102de60201b6100641760201c565b80546001600160a01b0319166001600160a01b039290921691909117905550565b60606102c883836040518060600160405280602781526020016108d9602791396102e1565b9392505050565b6001600160a01b03163b151590565b90565b6060600080856001600160a01b0316856040516102fe9190610536565b600060405180830381855af49150503d8060008114610339576040519150601f19603f3d011682016040523d82523d6000602084013e61033e565b606091505b5090925090506103508683838761035a565b9695505050505050565b606083156103c95782516000036103c2576001600160a01b0385163b6103c25760405162461bcd60e51b815260206004820152601d60248201527f416464726573733a2063616c6c20746f206e6f6e2d636f6e74726163740000006044820152606401610169565b50816103d3565b6103d383836103db565b949350505050565b8151156103eb5781518083602001fd5b8060405162461bcd60e51b81526004016101699190610552565b80516001600160a01b038116811461041c57600080fd5b919050565b634e487b7160e01b600052604160045260246000fd5b60005b8381101561045257818101518382015260200161043a565b50506000910152565b6000806040838503121561046e57600080fd5b61047783610405565b60208401519092506001600160401b038082111561049457600080fd5b818501915085601f8301126104a857600080fd5b8151818111156104ba576104ba610421565b604051601f8201601f19908116603f011681019083821181831017156104e2576104e2610421565b816040528281528860208487010111156104fb57600080fd5b61050c836020830160208801610437565b80955050505050509250929050565b60006020828403121561052d57600080fd5b6102c882610405565b60008251610548818460208701610437565b9190910192915050565b6020815260008251806020840152610571816040850160208701610437565b601f01601f19169190910160400192915050565b610345806105946000396000f3fe60806040523661001357610011610017565b005b6100115b610027610022610067565b610100565b565b606061004e83836040518060600160405280602781526020016102e960279139610124565b9392505050565b6001600160a01b03163b151590565b90565b600061009a7fa3f0ad74e5423aebfd80d3ef4346578335a9a72aeaee59ff6cb3582b35133d50546001600160a01b031690565b6001600160a01b0316635c60da1b6040518163ffffffff1660e01b8152600401602060405180830381865afa1580156100d7573d6000803e3d6000fd5b505050506040513d601f19601f820116820180604052508101906100fb919061024c565b905090565b3660008037600080366000845af43d6000803e80801561011f573d6000f35b3d6000fd5b6060600080856001600160a01b0316856040516101419190610299565b600060405180830381855af49150503d806000811461017c576040519150601f19603f3d011682016040523d82523d6000602084013e610181565b606091505b50915091506101928683838761019c565b9695505050505050565b60608315610210578251600003610209576001600160a01b0385163b6102095760405162461bcd60e51b815260206004820152601d60248201527f416464726573733a2063616c6c20746f206e6f6e2d636f6e747261637400000060448201526064015b60405180910390fd5b508161021a565b61021a8383610222565b949350505050565b8151156102325781518083602001fd5b8060405162461bcd60e51b815260040161020091906102b5565b60006020828403121561025e57600080fd5b81516001600160a01b038116811461004e57600080fd5b60005b83811015610290578181015183820152602001610278565b50506000910152565b600082516102ab818460208701610275565b9190910192915050565b60208152600082518060208401526102d4816040850160208701610275565b601f01601f1916919091016040019291505056fe416464726573733a206c6f772d6c6576656c2064656c65676174652063616c6c206661696c6564a264697066735822122022a6bf5ebbb7518c40e703958b5c8e4d70ca6715c1e1ccf9e9591bfc86e066d164736f6c63430008110033416464726573733a206c6f772d6c6576656c2064656c65676174652063616c6c206661696c6564a2646970667358221220351acad60da563f05f621bdfa00684f73c72b5ee7ffac215d752ebe0b78dba9a64736f6c63430008110033",
  "devdoc": {
    "kind": "dev",
    "methods": {
      "deployTTSuite(address,string,bool,bool)": {
        "details": "Emits: TokenTableSuiteDeployed. Throws: AlreadyDeployed().",
        "params": {
          "allowTransferableFT": "Allow FutureToken to be transferable.",
          "disableAutoUpgrade": "When set to false, a Clone instead of a BeaconProxy is created to prevent future upgradeability.",
          "projectId": "A unique projectId (otherwise will revert).",
          "projectToken": "The project token."
        }
      },
      "owner()": {
        "details": "Returns the address of the current owner."
      },
      "renounceOwnership()": {
        "details": "Leaves the contract without owner. It will not be possible to call `onlyOwner` functions anymore. Can only be called by the current owner. NOTE: Renouncing ownership will leave the contract without an owner, thereby removing any functionality that is only available to the owner."
      },
      "transferOwnership(address)": {
        "details": "Transfers ownership of the contract to a new account (`newOwner`). Can only be called by the current owner."
      }
    },
    "stateVariables": {
      "feeCollector": {
        "details": "Exposes the fee collector variable."
      }
    },
    "version": 1
  },
  "userdoc": {
    "kind": "user",
    "methods": {
      "deployTTSuite(address,string,bool,bool)": {
        "notice": "Deploys and configures a new set of TokenTable products."
      }
    },
    "version": 1
  },
  "storageLayout": {
    "storage": [
      {
        "astId": 707,
        "contract": "contracts/proxy/TTUDeployerLite.sol:TTUDeployerLite",
        "label": "_owner",
        "offset": 0,
        "slot": "0",
        "type": "t_address"
      },
      {
        "astId": 6058,
        "contract": "contracts/proxy/TTUDeployerLite.sol:TTUDeployerLite",
        "label": "beaconManager",
        "offset": 0,
        "slot": "1",
        "type": "t_contract(TTUV2BeaconManager)6434"
      },
      {
        "astId": 6062,
        "contract": "contracts/proxy/TTUDeployerLite.sol:TTUDeployerLite",
        "label": "feeCollector",
        "offset": 0,
        "slot": "2",
        "type": "t_contract(ITTUFeeCollector)5511"
      },
      {
        "astId": 6066,
        "contract": "contracts/proxy/TTUDeployerLite.sol:TTUDeployerLite",
        "label": "registry",
        "offset": 0,
        "slot": "3",
        "type": "t_mapping(t_string_memory_ptr,t_bool)"
      }
    ],
    "types": {
      "t_address": {
        "encoding": "inplace",
        "label": "address",
        "numberOfBytes": "20"
      },
      "t_bool": {
        "encoding": "inplace",
        "label": "bool",
        "numberOfBytes": "1"
      },
      "t_contract(ITTUFeeCollector)5511": {
        "encoding": "inplace",
        "label": "contract ITTUFeeCollector",
        "numberOfBytes": "20"
      },
      "t_contract(TTUV2BeaconManager)6434": {
        "encoding": "inplace",
        "label": "contract TTUV2BeaconManager",
        "numberOfBytes": "20"
      },
      "t_mapping(t_string_memory_ptr,t_bool)": {
        "encoding": "mapping",
        "key": "t_string_memory_ptr",
        "label": "mapping(string => bool)",
        "numberOfBytes": "32",
        "value": "t_bool"
      },
      "t_string_memory_ptr": {
        "encoding": "bytes",
        "label": "string",
        "numberOfBytes": "32"
      }
    }
  }
}