{
  "address": "0x759ac3CA33FeeAfB8C41aEbC8687A7Bd849Fc87a",
  "abi": [
    {
      "inputs": [],
      "stateMutability": "nonpayable",
      "type": "constructor"
    },
    {
      "inputs": [
        {
          "internalType": "uint256",
          "name": "deltaAmountClaimable",
          "type": "uint256"
        },
        {
          "internalType": "uint256",
          "name": "amountDeposited",
          "type": "uint256"
        }
      ],
      "name": "InsufficientDeposit",
      "type": "error"
    },
    {
      "inputs": [],
      "name": "InvalidPresetFormat",
      "type": "error"
    },
    {
      "inputs": [],
      "name": "InvalidSkipAmount",
      "type": "error"
    },
    {
      "inputs": [],
      "name": "NotPermissioned",
      "type": "error"
    },
    {
      "inputs": [],
      "name": "PresetDoesNotExist",
      "type": "error"
    },
    {
      "inputs": [],
      "name": "PresetExists",
      "type": "error"
    },
    {
      "inputs": [],
      "name": "TokenSet",
      "type": "error"
    },
    {
      "anonymous": false,
      "inputs": [
        {
          "indexed": false,
          "internalType": "uint256",
          "name": "actualId",
          "type": "uint256"
        },
        {
          "indexed": false,
          "internalType": "uint256",
          "name": "amountUnlockedLeftover",
          "type": "uint256"
        },
        {
          "indexed": false,
          "internalType": "uint256",
          "name": "amountRefunded",
          "type": "uint256"
        },
        {
          "indexed": false,
          "internalType": "address",
          "name": "refundFounderAddress",
          "type": "address"
        }
      ],
      "name": "ActualCancelled",
      "type": "event"
    },
    {
      "anonymous": false,
      "inputs": [
        {
          "indexed": false,
          "internalType": "bytes32",
          "name": "presetId",
          "type": "bytes32"
        },
        {
          "indexed": false,
          "internalType": "uint256",
          "name": "actualId",
          "type": "uint256"
        }
      ],
      "name": "ActualCreated",
      "type": "event"
    },
    {
      "anonymous": false,
      "inputs": [
        {
          "indexed": false,
          "internalType": "uint8",
          "name": "version",
          "type": "uint8"
        }
      ],
      "name": "Initialized",
      "type": "event"
    },
    {
      "anonymous": false,
      "inputs": [
        {
          "indexed": true,
          "internalType": "address",
          "name": "previousOwner",
          "type": "address"
        },
        {
          "indexed": true,
          "internalType": "address",
          "name": "newOwner",
          "type": "address"
        }
      ],
      "name": "OwnershipTransferred",
      "type": "event"
    },
    {
      "anonymous": false,
      "inputs": [
        {
          "indexed": false,
          "internalType": "bytes32",
          "name": "presetId",
          "type": "bytes32"
        }
      ],
      "name": "PresetCreated",
      "type": "event"
    },
    {
      "anonymous": false,
      "inputs": [
        {
          "indexed": false,
          "internalType": "uint256",
          "name": "actualId",
          "type": "uint256"
        },
        {
          "indexed": false,
          "internalType": "address",
          "name": "caller",
          "type": "address"
        },
        {
          "indexed": false,
          "internalType": "address",
          "name": "to",
          "type": "address"
        },
        {
          "indexed": false,
          "internalType": "uint256",
          "name": "amount",
          "type": "uint256"
        }
      ],
      "name": "TokensClaimed",
      "type": "event"
    },
    {
      "anonymous": false,
      "inputs": [
        {
          "indexed": false,
          "internalType": "uint256",
          "name": "actualId",
          "type": "uint256"
        },
        {
          "indexed": false,
          "internalType": "uint256",
          "name": "amount",
          "type": "uint256"
        }
      ],
      "name": "TokensDeposited",
      "type": "event"
    },
    {
      "anonymous": false,
      "inputs": [
        {
          "indexed": false,
          "internalType": "uint256",
          "name": "actualId",
          "type": "uint256"
        },
        {
          "indexed": false,
          "internalType": "address",
          "name": "by",
          "type": "address"
        },
        {
          "indexed": false,
          "internalType": "uint256",
          "name": "amount",
          "type": "uint256"
        }
      ],
      "name": "TokensWithdrawn",
      "type": "event"
    },
    {
      "inputs": [],
      "name": "BIPS_PRECISION",
      "outputs": [
        {
          "internalType": "uint256",
          "name": "",
          "type": "uint256"
        }
      ],
      "stateMutability": "view",
      "type": "function"
    },
    {
      "inputs": [],
      "name": "accessControlDelegate",
      "outputs": [
        {
          "internalType": "contract ITTAccessControlDelegate",
          "name": "",
          "type": "address"
        }
      ],
      "stateMutability": "view",
      "type": "function"
    },
    {
      "inputs": [
        {
          "internalType": "uint256",
          "name": "",
          "type": "uint256"
        }
      ],
      "name": "amountUnlockedLeftoverForActuals",
      "outputs": [
        {
          "internalType": "uint256",
          "name": "",
          "type": "uint256"
        }
      ],
      "stateMutability": "view",
      "type": "function"
    },
    {
      "inputs": [
        {
          "internalType": "uint256[]",
          "name": "actualId",
          "type": "uint256[]"
        },
        {
          "internalType": "address[]",
          "name": "overrideRecipient",
          "type": "address[]"
        }
      ],
      "name": "batchClaim",
      "outputs": [],
      "stateMutability": "nonpayable",
      "type": "function"
    },
    {
      "inputs": [
        {
          "internalType": "address[]",
          "name": "recipient",
          "type": "address[]"
        },
        {
          "internalType": "bytes32[]",
          "name": "presetId",
          "type": "bytes32[]"
        },
        {
          "internalType": "uint256[]",
          "name": "startTimestampAbsolute",
          "type": "uint256[]"
        },
        {
          "internalType": "uint256[]",
          "name": "amountSkipped",
          "type": "uint256[]"
        },
        {
          "internalType": "uint256[]",
          "name": "totalAmount",
          "type": "uint256[]"
        },
        {
          "internalType": "uint256[]",
          "name": "amountDepositingNow",
          "type": "uint256[]"
        }
      ],
      "name": "batchCreateActual",
      "outputs": [],
      "stateMutability": "nonpayable",
      "type": "function"
    },
    {
      "inputs": [
        {
          "internalType": "bytes32[]",
          "name": "presetId",
          "type": "bytes32[]"
        },
        {
          "internalType": "uint256[][]",
          "name": "linearStartTimestampsRelative",
          "type": "uint256[][]"
        },
        {
          "internalType": "uint256[]",
          "name": "linearEndTimestampRelative",
          "type": "uint256[]"
        },
        {
          "internalType": "uint256[][]",
          "name": "linearBips",
          "type": "uint256[][]"
        },
        {
          "internalType": "uint256[][]",
          "name": "numOfUnlocksForEachLinear",
          "type": "uint256[][]"
        }
      ],
      "name": "batchCreatePreset",
      "outputs": [],
      "stateMutability": "nonpayable",
      "type": "function"
    },
    {
      "inputs": [
        {
          "internalType": "uint256[]",
          "name": "actualId",
          "type": "uint256[]"
        },
        {
          "internalType": "uint256[]",
          "name": "amount",
          "type": "uint256[]"
        }
      ],
      "name": "batchDeposit",
      "outputs": [],
      "stateMutability": "nonpayable",
      "type": "function"
    },
    {
      "inputs": [
        {
          "internalType": "uint256",
          "name": "actualId",
          "type": "uint256"
        }
      ],
      "name": "calculateAmountClaimable",
      "outputs": [
        {
          "internalType": "uint256",
          "name": "deltaAmountClaimable",
          "type": "uint256"
        },
        {
          "internalType": "uint256",
          "name": "updatedAmountClaimed",
          "type": "uint256"
        }
      ],
      "stateMutability": "view",
      "type": "function"
    },
    {
      "inputs": [
        {
          "internalType": "uint256",
          "name": "actualId",
          "type": "uint256"
        },
        {
          "internalType": "address",
          "name": "refundFounderAddress",
          "type": "address"
        }
      ],
      "name": "cancel",
      "outputs": [
        {
          "internalType": "uint256",
          "name": "amountUnlockedLeftover",
          "type": "uint256"
        },
        {
          "internalType": "uint256",
          "name": "amountRefunded",
          "type": "uint256"
        }
      ],
      "stateMutability": "nonpayable",
      "type": "function"
    },
    {
      "inputs": [
        {
          "internalType": "uint256",
          "name": "actualId",
          "type": "uint256"
        },
        {
          "internalType": "address",
          "name": "overrideRecipient",
          "type": "address"
        }
      ],
      "name": "claim",
      "outputs": [],
      "stateMutability": "nonpayable",
      "type": "function"
    },
    {
      "inputs": [
        {
          "internalType": "uint256",
          "name": "actualId",
          "type": "uint256"
        },
        {
          "internalType": "address",
          "name": "overrideRecipient",
          "type": "address"
        }
      ],
      "name": "claimCancelledActual",
      "outputs": [],
      "stateMutability": "nonpayable",
      "type": "function"
    },
    {
      "inputs": [
        {
          "internalType": "address",
          "name": "recipient",
          "type": "address"
        },
        {
          "internalType": "bytes32",
          "name": "presetId",
          "type": "bytes32"
        },
        {
          "internalType": "uint256",
          "name": "startTimestampAbsolute",
          "type": "uint256"
        },
        {
          "internalType": "uint256",
          "name": "amountSkipped",
          "type": "uint256"
        },
        {
          "internalType": "uint256",
          "name": "totalAmount",
          "type": "uint256"
        },
        {
          "internalType": "uint256",
          "name": "amountDepositingNow",
          "type": "uint256"
        }
      ],
      "name": "createActual",
      "outputs": [],
      "stateMutability": "nonpayable",
      "type": "function"
    },
    {
      "inputs": [
        {
          "internalType": "bytes32",
          "name": "presetId",
          "type": "bytes32"
        },
        {
          "internalType": "uint256[]",
          "name": "linearStartTimestampsRelative",
          "type": "uint256[]"
        },
        {
          "internalType": "uint256",
          "name": "linearEndTimestampRelative",
          "type": "uint256"
        },
        {
          "internalType": "uint256[]",
          "name": "linearBips",
          "type": "uint256[]"
        },
        {
          "internalType": "uint256[]",
          "name": "numOfUnlocksForEachLinear",
          "type": "uint256[]"
        }
      ],
      "name": "createPreset",
      "outputs": [],
      "stateMutability": "nonpayable",
      "type": "function"
    },
    {
      "inputs": [],
      "name": "deployer",
      "outputs": [
        {
          "internalType": "contract ITTUDeployer",
          "name": "",
          "type": "address"
        }
      ],
      "stateMutability": "view",
      "type": "function"
    },
    {
      "inputs": [
        {
          "internalType": "uint256",
          "name": "actualId",
          "type": "uint256"
        },
        {
          "internalType": "uint256",
          "name": "amount",
          "type": "uint256"
        }
      ],
      "name": "deposit",
      "outputs": [],
      "stateMutability": "nonpayable",
      "type": "function"
    },
    {
      "inputs": [],
      "name": "disableAccessControlDelegate",
      "outputs": [],
      "stateMutability": "nonpayable",
      "type": "function"
    },
    {
      "inputs": [],
      "name": "disableCancel",
      "outputs": [],
      "stateMutability": "nonpayable",
      "type": "function"
    },
    {
      "inputs": [],
      "name": "disableHook",
      "outputs": [],
      "stateMutability": "nonpayable",
      "type": "function"
    },
    {
      "inputs": [],
      "name": "futureToken",
      "outputs": [
        {
          "internalType": "contract ITTFutureTokenV2",
          "name": "",
          "type": "address"
        }
      ],
      "stateMutability": "view",
      "type": "function"
    },
    {
      "inputs": [
        {
          "internalType": "bytes32",
          "name": "presetId",
          "type": "bytes32"
        }
      ],
      "name": "getEncodedPreset",
      "outputs": [
        {
          "internalType": "bytes",
          "name": "",
          "type": "bytes"
        }
      ],
      "stateMutability": "view",
      "type": "function"
    },
    {
      "inputs": [],
      "name": "getProjectToken",
      "outputs": [
        {
          "internalType": "address",
          "name": "",
          "type": "address"
        }
      ],
      "stateMutability": "view",
      "type": "function"
    },
    {
      "inputs": [],
      "name": "hook",
      "outputs": [
        {
          "internalType": "contract ITTHook",
          "name": "",
          "type": "address"
        }
      ],
      "stateMutability": "view",
      "type": "function"
    },
    {
      "inputs": [
        {
          "internalType": "address",
          "name": "projectToken",
          "type": "address"
        },
        {
          "internalType": "address",
          "name": "futureToken_",
          "type": "address"
        },
        {
          "internalType": "address",
          "name": "deployer_",
          "type": "address"
        }
      ],
      "name": "initialize",
      "outputs": [],
      "stateMutability": "nonpayable",
      "type": "function"
    },
    {
      "inputs": [
        {
          "internalType": "address",
          "name": "projectToken",
          "type": "address"
        }
      ],
      "name": "initializeProjectToken",
      "outputs": [],
      "stateMutability": "nonpayable",
      "type": "function"
    },
    {
      "inputs": [],
      "name": "isAccessControllable",
      "outputs": [
        {
          "internalType": "bool",
          "name": "",
          "type": "bool"
        }
      ],
      "stateMutability": "view",
      "type": "function"
    },
    {
      "inputs": [],
      "name": "isCancelable",
      "outputs": [
        {
          "internalType": "bool",
          "name": "",
          "type": "bool"
        }
      ],
      "stateMutability": "view",
      "type": "function"
    },
    {
      "inputs": [],
      "name": "isHookable",
      "outputs": [
        {
          "internalType": "bool",
          "name": "",
          "type": "bool"
        }
      ],
      "stateMutability": "view",
      "type": "function"
    },
    {
      "inputs": [],
      "name": "owner",
      "outputs": [
        {
          "internalType": "address",
          "name": "",
          "type": "address"
        }
      ],
      "stateMutability": "view",
      "type": "function"
    },
    {
      "inputs": [],
      "name": "renounceOwnership",
      "outputs": [],
      "stateMutability": "nonpayable",
      "type": "function"
    },
    {
      "inputs": [
        {
          "internalType": "address",
          "name": "accessControlDelegate_",
          "type": "address"
        }
      ],
      "name": "setAccessControlDelegate",
      "outputs": [],
      "stateMutability": "nonpayable",
      "type": "function"
    },
    {
      "inputs": [
        {
          "internalType": "address",
          "name": "hook_",
          "type": "address"
        }
      ],
      "name": "setHook",
      "outputs": [],
      "stateMutability": "nonpayable",
      "type": "function"
    },
    {
      "inputs": [
        {
          "internalType": "address",
          "name": "newOwner",
          "type": "address"
        }
      ],
      "name": "transferOwnership",
      "outputs": [],
      "stateMutability": "nonpayable",
      "type": "function"
    },
    {
      "inputs": [
        {
          "internalType": "uint256",
          "name": "",
          "type": "uint256"
        }
      ],
      "name": "unlockingScheduleActuals",
      "outputs": [
        {
          "internalType": "bytes32",
          "name": "presetId",
          "type": "bytes32"
        },
        {
          "internalType": "uint256",
          "name": "startTimestampAbsolute",
          "type": "uint256"
        },
        {
          "internalType": "uint256",
          "name": "amountClaimed",
          "type": "uint256"
        },
        {
          "internalType": "uint256",
          "name": "amountDeposited",
          "type": "uint256"
        },
        {
          "internalType": "uint256",
          "name": "totalAmount",
          "type": "uint256"
        }
      ],
      "stateMutability": "view",
      "type": "function"
    },
    {
      "inputs": [
        {
          "internalType": "uint256",
          "name": "actualId",
          "type": "uint256"
        },
        {
          "internalType": "uint256",
          "name": "amount",
          "type": "uint256"
        }
      ],
      "name": "withdrawDeposit",
      "outputs": [],
      "stateMutability": "nonpayable",
      "type": "function"
    }
  ],
  "transactionHash": "0xa58cb57921d749ae0d9b6fb854bbb26ff6be6f456ede127cd275445c6b7a1709",
  "args": [],
  "numDeployments": 1,
  "solcInputHash": "1133705dfb9c4732ed6ca7b34882e862",
  "bytecode": "0x60806040523480156200001157600080fd5b506200001c62000022565b620000e4565b600054610100900460ff16156200008f5760405162461bcd60e51b815260206004820152602760248201527f496e697469616c697a61626c653a20636f6e747261637420697320696e697469604482015266616c697a696e6760c81b606482015260840160405180910390fd5b60005460ff9081161015620000e2576000805460ff191660ff9081179091556040519081527f7f26b83ff96e1f2b6a682f133852f6798a09c465da95921460cefb38474024989060200160405180910390a15b565b61337f80620000f46000396000f3fe608060405234801561001057600080fd5b50600436106102065760003560e01c80637733e0fb1161011a578063bae04c9a116100ad578063d8fb068b1161007c578063d8fb068b1461045e578063ddd5e1b214610471578063e2bbb15814610484578063e301b8b514610497578063f2fde38b146104fc57600080fd5b8063bae04c9a14610412578063bfc56c3f14610425578063c0c53b8b14610438578063d5f394881461044b57600080fd5b80638d17c825116100e95780638d17c825146103c45780638da5cb5b146103e4578063a2c6df4f146103ec578063adad72f3146103ff57600080fd5b80637733e0fb1461038d5780637d4e4e8c146103955780637f5a7c7b146103a9578063882a0810146103bc57600080fd5b806338616d8c1161019d5780634837c5961161016c5780634837c5961461033b5780635550ac471461034c57806357d682c41461035f5780636efcc14e14610372578063715018a61461038557600080fd5b806338616d8c146102c25780633aa4327c146102d55780633dfd38731461030057806342734d451461031357600080fd5b80631bffb491116101d95780631bffb491146102685780631f50e2ba1461027c5780632788dbed1461028f5780632de1d431146102a257600080fd5b806301c3c8601461020b578063084d2b9b146102345780631153352c1461024b57806317a69da414610260575b600080fd5b609b5461021f90600160a81b900460ff1681565b60405190151581526020015b60405180910390f35b61023d61271081565b60405190815260200161022b565b61025e6102593660046128bb565b61050f565b005b61025e610572565b609b5461021f90600160a01b900460ff1681565b61025e61028a3660046128d8565b6105c9565b61025e61029d36600461294d565b610750565b6102b56102b03660046129b9565b610803565b60405161022b9190612a22565b61025e6102d03660046128bb565b610968565b6099546102e8906001600160a01b031681565b6040516001600160a01b03909116815260200161022b565b61025e61030e3660046128bb565b6109b4565b6103266103213660046129b9565b610a2e565b6040805192835260208301919091520161022b565b6065546001600160a01b03166102e8565b61025e61035a36600461294d565b610e40565b61032661036d3660046128d8565b610ee3565b61025e610380366004612b0b565b6110d5565b61025e6111e2565b61025e6111ec565b609b5461021f90600160b01b900460ff1681565b609b546102e8906001600160a01b031681565b61025e61122e565b61023d6103d23660046129b9565b609e6020526000908152604090205481565b6102e8611280565b61025e6103fa366004612c21565b611299565b61025e61040d366004612c6d565b6112e4565b61025e610420366004612d1a565b6113c5565b61025e610433366004612dbc565b611482565b61025e610446366004612ea3565b6115e3565b6098546102e8906001600160a01b031681565b609a546102e8906001600160a01b031681565b61025e61047f3660046128d8565b61174f565b61025e610492366004612d1a565b6117ae565b6104d46104a53660046129b9565b609d60205260009081526040902080546001820154600283015460038401546004909401549293919290919085565b604080519586526020860194909452928401919091526060830152608082015260a00161022b565b61025e61050a3660046128bb565b6117f1565b6105176117fa565b609b54600160a81b900460ff1661054157604051637f63bd0f60e01b815260040160405180910390fd5b609a80546001600160a01b0319166001600160a01b03831617905561056f630454cd4b60e21b600036611859565b50565b604080516020810190915260008152610597906305e9a76960e21b90335b60016118d9565b609b805460ff60b01b191690556105b76305e9a76960e21b600036611859565b609b80546001600160a01b0319169055565b6105d1611be2565b61061e631f50e2ba60e01b83836040516020016106019291909182526001600160a01b0316602082015260400190565b6040516020818303038152906040526106173390565b60006118d9565b60006001600160a01b0382166106a2576099546040516331a9108f60e11b8152600481018590526001600160a01b0390911690636352211e90602401602060405180830381865afa158015610677573d6000803e3d6000fd5b505050506040513d601f19601f8201168201806040525081019061069b9190612eee565b90506106a5565b50805b6000838152609e6020526040812080549190556106df82826106cf6065546001600160a01b031690565b6001600160a01b03169190611c3b565b604080518581523360208201526001600160a01b038416818301526060810183905290517f9c4945d842cc8c6704877a0defcd9ab09f6d77b24a369a95c2610506c6c38ee79181900360800190a1610740630fa8715d60e11b600036611859565b505061074c6001606655565b5050565b610758611be2565b61077a632788dbed60e01b858585856040516020016106019493929190612f3d565b60005b838110156107df576107cd85858381811061079a5761079a612fa2565b905060200201358484848181106107b3576107b3612fa2565b90506020020160208101906107c891906128bb565b611ca5565b806107d781612fce565b91505061077d565b506107f3632788dbed60e01b600036611859565b6107fd6001606655565b50505050565b6000818152609c602090815260408083208151815460a09481028201850190935260808101838152606095949193849284919084018282801561086557602002820191906000526020600020905b815481526020019060010190808311610851575b5050505050815260200160018201548152602001600282018054806020026020016040519081016040528092919081815260200182805480156108c757602002820191906000526020600020905b8154815260200190600101908083116108b3575b505050505081526020016003820180548060200260200160405190810160405280929190818152602001828054801561091f57602002820191906000526020600020905b81548152602001906001019080831161090b575b505050505081525050905080600001518160200151826040015183606001516040516020016109519493929190613022565b604051602081830303815290604052915050919050565b6065546001600160a01b031615610992576040516311f9360560e31b815260040160405180910390fd5b606580546001600160a01b0319166001600160a01b0392909216919091179055565b609b54600160b01b900460ff166109de57604051637f63bd0f60e01b815260040160405180910390fd5b604080516020810190915260008152610a0090633dfd387360e01b9033610590565b609b80546001600160a01b0319166001600160a01b03831617905561056f633dfd387360e01b600036611859565b6000818152609d60209081526040808320815160a08082018452825480835260018401548387015260028401548386015260038401546060840152600490930154608080840191909152928652609c85528386208451815496870281018301909552928401858152869592948694909390928492918491840182828015610ad457602002820191906000526020600020905b815481526020019060010190808311610ac0575b505050505081526020016001820154815260200160028201805480602002602001604051908101604052809291908181526020018280548015610b3657602002820191906000526020600020905b815481526020019060010190808311610b22575b5050505050815260200160038201805480602002602001604051908101604052809291908181526020018280548015610b8e57602002820191906000526020600020905b815481526020019060010190808311610b7a575b50505050508152505090506000808360200151421015610bba5750505060400151600094909350915050565b6000846020015142610bcc9190613061565b9050600092505b835151831015610c20578084600001518481518110610bf457610bf4612fa2565b602002602001015111610c0957829150610c0e565b610c20565b82610c1881612fce565b935050610bd3565b600092505b81831015610c6a5783604001518381518110610c4357610c43612fa2565b602002602001015186610c56919061307a565b955082610c6281612fce565b935050610c25565b835151600090610c7c90600190613061565b8303610cc05784518051610c9290600190613061565b81518110610ca257610ca2612fa2565b60200260200101518560200151610cb99190613061565b9050610d13565b8451805184908110610cd457610cd4612fa2565b60200260200101518560000151846001610cee919061307a565b81518110610cfe57610cfe612fa2565b6020026020010151610d109190613061565b90505b600085606001518481518110610d2b57610d2b612fa2565b602002602001015182610d3e919061308d565b9050600086600001518581518110610d5857610d58612fa2565b602002602001015184610d6b9190613061565b90506000610d79838361308d565b905087606001518681518110610d9157610d91612fa2565b60200260200101518189604001518881518110610db057610db0612fa2565b6020026020010151610dc291906130af565b610dcc919061308d565b610dd6908b61307a565b995061271089608001518b610deb91906130af565b610df5919061308d565b995088608001518a1115610e0b57886080015199505b8989604001511115610e205760009a50610e32565b6040890151610e2f908b613061565b9a505b505050505050505050915091565b610e78635550ac4760e01b85858585604051602001610e6294939291906130c6565b6040516020818303038152906040526105903390565b60005b83811015610ecf57610ebd858583818110610e9857610e98612fa2565b90506020020135848484818110610eb157610eb1612fa2565b90506020020135611d0c565b80610ec781612fce565b915050610e7b565b506107fd635550ac4760e01b600036611859565b600080610eee611be2565b609b54600160a01b900460ff16610f1857604051637f63bd0f60e01b815260040160405180910390fd5b610f486357d682c460e01b8585604051602001610e629291909182526001600160a01b0316602082015260400190565b610f5184610a2e565b506000858152609e6020526040812080549294508492909190610f7590849061307a565b90915550506000848152609d6020908152604091829020825160a081018452815481526001820154928101929092526002810154928201929092526003820154606082018190526004909201546080820152908311156110015760608101516040516312e1fa3760e11b8152610ff8918591600401918252602082015260400190565b60405180910390fd5b82816060018181516110139190613061565b9052506060810151915061103484836106cf6065546001600160a01b031690565b60408051868152602081018590529081018390526001600160a01b03851660608201527fd16afe7af99c1463a26fb2e837ad180ef355fe9e0810e2250f83d90f960b629c9060800160405180910390a16000858152609d602052604081208181556001810182905560028101829055600381018290556004018190556110c3906315f5a0b160e21b9036611859565b506110ce6001606655565b9250929050565b6040805160208101909152600081526110f79063377e60a760e11b9033610590565b60005b888110156111c1576111af8c8c8381811061111757611117612fa2565b905060200201602081019061112c91906128bb565b8b8b8481811061113e5761113e612fa2565b905060200201358a8a8581811061115757611157612fa2565b9050602002013589898681811061117057611170612fa2565b9050602002013588888781811061118957611189612fa2565b905060200201358787815181106111a2576111a2612fa2565b6020026020010151611d9a565b806111b981612fce565b9150506110fa565b506111d563377e60a760e11b600036611859565b5050505050505050505050565b6111ea611f2c565b565b60408051602081019091526000815261120e90637733e0fb60e01b9033610590565b609b805460ff60a01b191690556111ea637733e0fb60e01b600036611859565b60408051602081019091526000815261125090630882a08160e41b9033610590565b609b805460ff60a81b19169055609a80546001600160a01b03191690556111ea630882a08160e41b600036611859565b60006112946033546001600160a01b031690565b905090565b6040805160208101909152600081526112bb9063a2c6df4f60e01b9033610590565b6112c9868686868686611d9a565b6112dc63a2c6df4f60e01b600036611859565b505050505050565b6040805160208101909152600081526113069063adad72f360e01b9033610590565b6113a88888888080602002602001604051908101604052809392919081815260200183836020028082843760009201919091525050604080516020808b0282810182019093528a82528c94509092508a918a9182919085019084908082843760009201919091525050604080516020808b0282810182019093528a82529093508a925089918291850190849080828437600092019190915250611f3e92505050565b6113bb63adad72f360e01b600036611859565b5050505050505050565b60408051602081018490529081018290526113eb90635d70264d60e11b90606001610e62565b6000828152609d602052604081206003810180549192849261140e908490613061565b9091555061142b905033836106cf6065546001600160a01b031690565b6040805184815233602082015280820184905290517f3f5fbaf86658fdadee77f1d46e7f8a72424ad9839eda6a1dc6eb0a4228e4226e9181900360600190a161147d635d70264d60e11b600036611859565b505050565b6040805160208101909152600081526114a49063bfc56c3f60e01b9033610590565b60005b888110156115c4576115b28a8a838181106114c4576114c4612fa2565b905060200201358989848181106114dd576114dd612fa2565b90506020028101906114ef91906130ed565b808060200260200160405190810160405280939291908181526020018383602002808284376000920191909152508b92508a915086905081811061153557611535612fa2565b9050602002013587878681811061154e5761154e612fa2565b905060200281019061156091906130ed565b8080602002602001604051908101604052809392919081815260200183836020028082843760009201919091525050885189925088915081106115a5576115a5612fa2565b6020026020010151611f3e565b806115bc81612fce565b9150506114a7565b506115d863bfc56c3f60e01b600036611859565b505050505050505050565b600054610100900460ff16158080156116035750600054600160ff909116105b8061161d5750303b15801561161d575060005460ff166001145b6116805760405162461bcd60e51b815260206004820152602e60248201527f496e697469616c697a61626c653a20636f6e747261637420697320616c72656160448201526d191e481a5b9a5d1a585b1a5e995960921b6064820152608401610ff8565b6000805460ff1916600117905580156116a3576000805461ff0019166101001790555b6116ab61205b565b6116b48461208b565b609980546001600160a01b038086166001600160a01b03199283161790925560988054928516929091169190911790556116ec6120b2565b609b805462ffffff60a01b19166201010160a01b17905580156107fd576000805461ff0019169055604051600181527f7f26b83ff96e1f2b6a682f133852f6798a09c465da95921460cefb3847402498906020015b60405180910390a150505050565b611757611be2565b61178763ddd5e1b260e01b83836040516020016106019291909182526001600160a01b0316602082015260400190565b6117918282611ca5565b6117a4636eeaf0d960e11b600036611859565b61074c6001606655565b60408051602081018490529081018290526117d490631c57762b60e31b90606001610e62565b6117de8282611d0c565b61074c631c57762b60e31b600036611859565b61056f816120d9565b33611803611280565b6001600160a01b0316146111ea5760405162461bcd60e51b815260206004820181905260248201527f4f776e61626c653a2063616c6c6572206973206e6f7420746865206f776e65726044820152606401610ff8565b609b546001600160a01b031661186e57505050565b609b546001600160a01b03166374a14fd4848484336040518563ffffffff1660e01b81526004016118a29493929190613137565b600060405180830381600087803b1580156118bc57600080fd5b505af11580156118d0573d6000803e3d6000fd5b50505050505050565b609a546001600160a01b0316611b50576001600160e01b03198416630fa8715d60e11b148061191857506001600160e01b03198416636eeaf0d960e11b145b156119d5576000838060200190518101906119339190613189565b509050336099546040516331a9108f60e11b8152600481018490526001600160a01b039283169290911690636352211e90602401602060405180830381865afa158015611984573d6000803e3d6000fd5b505050506040513d601f19601f820116820180604052508101906119a89190612eee565b6001600160a01b0316146119cf57604051637f63bd0f60e01b815260040160405180910390fd5b50611ade565b63d877241360e01b6001600160e01b0319851601611ade57600083806020019051810190611a039190613209565b50905060005b8151811015611adb57609954825133916001600160a01b031690636352211e90859085908110611a3b57611a3b612fa2565b60200260200101516040518263ffffffff1660e01b8152600401611a6191815260200190565b602060405180830381865afa158015611a7e573d6000803e3d6000fd5b505050506040513d601f19601f82011682018060405250810190611aa29190612eee565b6001600160a01b031614611ac957604051637f63bd0f60e01b815260040160405180910390fd5b80611ad381612fce565b915050611a09565b50505b808015611b035750611aee611280565b6001600160a01b0316336001600160a01b0316145b6107fd57808015611b2d5750611b17611280565b6001600160a01b0316336001600160a01b031614155b15611b4b57604051637f63bd0f60e01b815260040160405180910390fd5b6107fd565b609a5460405163d975021d60e01b81526001600160a01b039091169063d975021d90611b849087908790879060040161326d565b602060405180830381865afa158015611ba1573d6000803e3d6000fd5b505050506040513d601f19601f82011682018060405250810190611bc591906132a7565b6107fd57604051637f63bd0f60e01b815260040160405180910390fd5b600260665403611c345760405162461bcd60e51b815260206004820152601f60248201527f5265656e7472616e637947756172643a207265656e7472616e742063616c6c006044820152606401610ff8565b6002606655565b6040516001600160a01b03831660248201526044810182905261147d90849063a9059cbb60e01b906064015b60408051601f198184030181529190526020810180516001600160e01b03166001600160e01b03199093169290921790915261214f565b6001606655565b600080611cb28484612221565b915091507f9c4945d842cc8c6704877a0defcd9ab09f6d77b24a369a95c2610506c6c38ee784611cdf3390565b604080519283526001600160a01b0391821660208401529084169082015260608101849052608001611741565b6000828152609d60205260409020611d43333084611d326065546001600160a01b031690565b6001600160a01b031692919061253b565b81816003016000828254611d57919061307a565b909155505060408051848152602081018490527f41fb7ad419fc7623dde1142cd095a12727aa6965ab1d484a6d0d9327403d98ba910160405180910390a1505050565b6099546040516340d097c360e01b81526001600160a01b03888116600483015260009216906340d097c3906024016020604051808303816000875af1158015611de7573d6000803e3d6000fd5b505050506040513d601f19601f82011682018060405250810190611e0b91906132c9565b6000818152609d602090815260408083208a8452609c90925290912091925090611e3481612573565b15611e52576040516303be3a3760e21b815260040160405180910390fd5b848610611e72576040516378c0fc4360e01b815260040160405180910390fd5b87825560018201879055600282018690556004820185905560408051898152602081018590527f836cf6e4827fcb14b6226db1383bbae421b3ff8545414c8e5609bb709baae421910160405180910390a183156115d85760038201849055611ee8333086611d326065546001600160a01b031690565b60408051848152602081018690527f41fb7ad419fc7623dde1142cd095a12727aa6965ab1d484a6d0d9327403d98ba910160405180910390a1505050505050505050565b611f346117fa565b6111ea60006125ad565b6000858152609c60205260409020611f5590612573565b611f7257604051631f2ec56d60e21b815260040160405180910390fd5b604080516080810182528581526020810185905290810183905260608101829052611f9c816125ff565b611fb9576040516303be3a3760e21b815260040160405180910390fd5b6000868152609c60209081526040909120825180518493611fde928492910190612846565b506020828101516001830155604083015180516120019260028501920190612846565b506060820151805161201d916003840191602090910190612846565b50506040518781527fdb70f000fd1b55bab727e36e3adf29333c24708fae670635637944d26e8c579e915060200160405180910390a1505050505050565b600054610100900460ff166120825760405162461bcd60e51b8152600401610ff8906132e2565b6111ea336125ad565b600054610100900460ff166109925760405162461bcd60e51b8152600401610ff8906132e2565b600054610100900460ff16611c9e5760405162461bcd60e51b8152600401610ff8906132e2565b6120e16117fa565b6001600160a01b0381166121465760405162461bcd60e51b815260206004820152602660248201527f4f776e61626c653a206e6577206f776e657220697320746865207a65726f206160448201526564647265737360d01b6064820152608401610ff8565b61056f816125ad565b60006121a4826040518060400160405280602081526020017f5361666545524332303a206c6f772d6c6576656c2063616c6c206661696c6564815250856001600160a01b03166126b69092919063ffffffff16565b80519091501561147d57808060200190518101906121c291906132a7565b61147d5760405162461bcd60e51b815260206004820152602a60248201527f5361666545524332303a204552433230206f7065726174696f6e20646964206e6044820152691bdd081cdd58d8d9595960b21b6064820152608401610ff8565b60008060008061223086610a2e565b6000888152609d60205260409020600281018290556003810154929450909250908311156122815760038101546040516312e1fa3760e11b8152610ff8918591600401918252602082015260400190565b828160030160008282546122959190613061565b90915550506001600160a01b03861661231c576099546040516331a9108f60e11b8152600481018990526001600160a01b0390911690636352211e90602401602060405180830381865afa1580156122f1573d6000803e3d6000fd5b505050506040513d601f19601f820116820180604052508101906123159190612eee565b9350612320565b8593505b6098546001600160a01b03161561251757609854604080516331056e5760e21b815290516000926001600160a01b03169163c415b95c916004808301926020929190829003018187875af115801561237c573d6000803e3d6000fd5b505050506040513d601f19601f820116820180604052508101906123a09190612eee565b6040516313b7ae0d60e21b8152306004820152602481018690526001600160a01b039190911690634edeb83490604401602060405180830381865afa1580156123ed573d6000803e3d6000fd5b505050506040513d601f19601f8201168201806040525081019061241191906132c9565b90508015612515576124238185613061565b9350612515609860009054906101000a90046001600160a01b03166001600160a01b031663c415b95c6040518163ffffffff1660e01b81526004016020604051808303816000875af115801561247d573d6000803e3d6000fd5b505050506040513d601f19601f820116820180604052508101906124a19190612eee565b6001600160a01b0316638da5cb5b6040518163ffffffff1660e01b8152600401602060405180830381865afa1580156124de573d6000803e3d6000fd5b505050506040513d601f19601f820116820180604052508101906125029190612eee565b826106cf6065546001600160a01b031690565b505b61252e84846106cf6065546001600160a01b031690565b8294505050509250929050565b6040516001600160a01b03808516602483015283166044820152606481018290526107fd9085906323b872dd60e01b90608401611c67565b60018101546003820154825460028401546000939291612592916130af565b61259c91906130af565b6125a691906130af565b1592915050565b603380546001600160a01b038381166001600160a01b0319831681179093556040519116919082907f8be0079c531659141344cd1fd0a4f28419497f9722a3daafe3b4186f6b6457e090600090a35050565b60008060005b83604001515181101561264f578360400151818151811061262857612628612fa2565b60200260200101518261263b919061307a565b91508061264781612fce565b915050612605565b50612710811480156126675750825151604084015151145b801561269d575060208301518351805161268390600190613061565b8151811061269357612693612fa2565b6020026020010151105b80156126af5750825151606084015151145b9392505050565b60606126c584846000856126cd565b949350505050565b60608247101561272e5760405162461bcd60e51b815260206004820152602660248201527f416464726573733a20696e73756666696369656e742062616c616e636520666f6044820152651c8818d85b1b60d21b6064820152608401610ff8565b600080866001600160a01b0316858760405161274a919061332d565b60006040518083038185875af1925050503d8060008114612787576040519150601f19603f3d011682016040523d82523d6000602084013e61278c565b606091505b509150915061279d878383876127a8565b979650505050505050565b60608315612817578251600003612810576001600160a01b0385163b6128105760405162461bcd60e51b815260206004820152601d60248201527f416464726573733a2063616c6c20746f206e6f6e2d636f6e74726163740000006044820152606401610ff8565b50816126c5565b6126c5838381511561282c5781518083602001fd5b8060405162461bcd60e51b8152600401610ff89190612a22565b828054828255906000526020600020908101928215612881579160200282015b82811115612881578251825591602001919060010190612866565b5061288d929150612891565b5090565b5b8082111561288d5760008155600101612892565b6001600160a01b038116811461056f57600080fd5b6000602082840312156128cd57600080fd5b81356126af816128a6565b600080604083850312156128eb57600080fd5b8235915060208301356128fd816128a6565b809150509250929050565b60008083601f84011261291a57600080fd5b50813567ffffffffffffffff81111561293257600080fd5b6020830191508360208260051b85010111156110ce57600080fd5b6000806000806040858703121561296357600080fd5b843567ffffffffffffffff8082111561297b57600080fd5b61298788838901612908565b909650945060208701359150808211156129a057600080fd5b506129ad87828801612908565b95989497509550505050565b6000602082840312156129cb57600080fd5b5035919050565b60005b838110156129ed5781810151838201526020016129d5565b50506000910152565b60008151808452612a0e8160208601602086016129d2565b601f01601f19169290920160200192915050565b6020815260006126af60208301846129f6565b634e487b7160e01b600052604160045260246000fd5b604051601f8201601f1916810167ffffffffffffffff81118282101715612a7457612a74612a35565b604052919050565b600067ffffffffffffffff821115612a9657612a96612a35565b5060051b60200190565b600082601f830112612ab157600080fd5b81356020612ac6612ac183612a7c565b612a4b565b82815260059290921b84018101918181019086841115612ae557600080fd5b8286015b84811015612b005780358352918301918301612ae9565b509695505050505050565b600080600080600080600080600080600060c08c8e031215612b2c57600080fd5b67ffffffffffffffff808d351115612b4357600080fd5b612b508e8e358f01612908565b909c509a5060208d0135811015612b6657600080fd5b612b768e60208f01358f01612908565b909a50985060408d0135811015612b8c57600080fd5b612b9c8e60408f01358f01612908565b909850965060608d0135811015612bb257600080fd5b612bc28e60608f01358f01612908565b909650945060808d0135811015612bd857600080fd5b612be88e60808f01358f01612908565b909450925060a08d0135811015612bfe57600080fd5b50612c0f8d60a08e01358e01612aa0565b90509295989b509295989b9093969950565b60008060008060008060c08789031215612c3a57600080fd5b8635612c45816128a6565b9860208801359850604088013597606081013597506080810135965060a00135945092505050565b60008060008060008060008060a0898b031215612c8957600080fd5b88359750602089013567ffffffffffffffff80821115612ca857600080fd5b612cb48c838d01612908565b909950975060408b0135965060608b0135915080821115612cd457600080fd5b612ce08c838d01612908565b909650945060808b0135915080821115612cf957600080fd5b50612d068b828c01612908565b999c989b5096995094979396929594505050565b60008060408385031215612d2d57600080fd5b50508035926020909101359150565b600082601f830112612d4d57600080fd5b81356020612d5d612ac183612a7c565b82815260059290921b84018101918181019086841115612d7c57600080fd5b8286015b84811015612b0057803567ffffffffffffffff811115612da05760008081fd5b612dae8986838b0101612aa0565b845250918301918301612d80565b600080600080600080600080600060a08a8c031215612dda57600080fd5b893567ffffffffffffffff80821115612df257600080fd5b612dfe8d838e01612908565b909b50995060208c0135915080821115612e1757600080fd5b612e238d838e01612908565b909950975060408c0135915080821115612e3c57600080fd5b612e488d838e01612908565b909750955060608c0135915080821115612e6157600080fd5b612e6d8d838e01612908565b909550935060808c0135915080821115612e8657600080fd5b50612e938c828d01612d3c565b9150509295985092959850929598565b600080600060608486031215612eb857600080fd5b8335612ec3816128a6565b92506020840135612ed3816128a6565b91506040840135612ee3816128a6565b809150509250925092565b600060208284031215612f0057600080fd5b81516126af816128a6565b81835260006001600160fb1b03831115612f2457600080fd5b8260051b80836020870137939093016020019392505050565b604081526000612f51604083018688612f0b565b8281036020848101919091528482528591810160005b86811015612f95578335612f7a816128a6565b6001600160a01b031682529282019290820190600101612f67565b5098975050505050505050565b634e487b7160e01b600052603260045260246000fd5b634e487b7160e01b600052601160045260246000fd5b600060018201612fe057612fe0612fb8565b5060010190565b600081518084526020808501945080840160005b8381101561301757815187529582019590820190600101612ffb565b509495945050505050565b6080815260006130356080830187612fe7565b856020840152828103604084015261304d8186612fe7565b9050828103606084015261279d8185612fe7565b8181038181111561307457613074612fb8565b92915050565b8082018082111561307457613074612fb8565b6000826130aa57634e487b7160e01b600052601260045260246000fd5b500490565b808202811582820484141761307457613074612fb8565b6040815260006130da604083018688612f0b565b828103602084015261279d818587612f0b565b6000808335601e1984360301811261310457600080fd5b83018035915067ffffffffffffffff82111561311f57600080fd5b6020019150600581901b36038213156110ce57600080fd5b63ffffffff60e01b85168152606060208201528260608201528284608083013760008184016080908101919091526001600160a01b03929092166040820152601f909201601f19169091010192915050565b6000806040838503121561319c57600080fd5b8251915060208301516128fd816128a6565b600082601f8301126131bf57600080fd5b815160206131cf612ac183612a7c565b82815260059290921b840181019181810190868411156131ee57600080fd5b8286015b84811015612b0057805183529183019183016131f2565b6000806040838503121561321c57600080fd5b825167ffffffffffffffff8082111561323457600080fd5b613240868387016131ae565b9350602085015191508082111561325657600080fd5b50613263858286016131ae565b9150509250929050565b63ffffffff60e01b8416815260606020820152600061328f60608301856129f6565b905060018060a01b0383166040830152949350505050565b6000602082840312156132b957600080fd5b815180151581146126af57600080fd5b6000602082840312156132db57600080fd5b5051919050565b6020808252602b908201527f496e697469616c697a61626c653a20636f6e7472616374206973206e6f74206960408201526a6e697469616c697a696e6760a81b606082015260800190565b6000825161333f8184602087016129d2565b919091019291505056fea264697066735822122076b554f775158c86af5b13cc9b49273cddf9a294c8312e45f9ea9dc8e3ec7d3f64736f6c63430008110033",
  "devdoc": {
    "kind": "dev",
    "methods": {
      "calculateAmountClaimable(uint256)": {
        "details": "This is the most complex part of the smart contract. Quite a bit of calculations are performed here.",
        "params": {
          "actualId": "The ID of the actual unlocking schedule that we are working with."
        },
        "returns": {
          "deltaAmountClaimable": "Amount of tokens claimable right now.",
          "updatedAmountClaimed": "New total amount of tokens claimed. This is the sum of all previously claimed tokens and deltaAmountClaimable."
        }
      },
      "cancel(uint256,address)": {
        "details": "Emits: ActualCancelled. - Only callable by the owner if no access control delegate is set. If delegate is set, access by anyone other than the owner depends on the return value of the delegate.",
        "params": {
          "actualId": "The ID of the actual unlocking schedule that we are intending to cancel.",
          "refundFounderAddress": "The address that the locked tokens will be sent to. This does not have to be a founder's address. Using the zero address means withdraw to sender's address."
        }
      },
      "claim(uint256,address)": {
        "details": "Emits: TokensClaimed. - Only callable by the owner of the FutureToken if no access control delegate is set. If delegate is set, access by anyone other than the FutureToken owner depends on the return value of the delegate.",
        "params": {
          "actualId": "The ID of the actual unlocking schedule that we are intending to claim from.",
          "overrideRecipient": "If we want to send the claimed tokens to an address other than the owner of the FutureToken. This MUST pass through access control, otherwise it will revert. If we want to send the claimed tokens to the owner of the FutureToken (default behavior), pass in `ethers.constants.AddressZero`."
        }
      },
      "claimCancelledActual(uint256,address)": {
        "details": "Emits: TokensClaimed. - Only callable by the owner of the FutureToken if no access control delegate is set. If delegate is set, access by anyone other than the FutureToken owner depends on the return value of the delegate.",
        "params": {
          "actualId": "The ID of the actual unlocking schedule that we are intending to claim from.",
          "overrideRecipient": "If we want to send the claimed tokens to an address other than the owner of the FutureToken. This MUST pass through access control, otherwise it will revert. If we want to send the claimed tokens to the owner of the FutureToken (default behavior), pass in `ethers.constants.AddressZero`."
        }
      },
      "createActual(address,bytes32,uint256,uint256,uint256,uint256)": {
        "details": "Emits: ActualCreated, TokensDeposited (only if amountDepositingNow > 0). - A FutureToken is minted in the process w/ tokenId == actualId; - If amountDepositingNow > 0, the caller must call approve() on the project token first so safeTransfer() does not revert - There is no minimum deposit - Only callable by the owner if no access control delegate is set. If delegate is set, access by anyone other than the owner depends on the return value of the delegate.",
        "params": {
          "amountDepositingNow": "You can deposit some amount of tokens when creating the actual schedule for convenience. If the amount deposited is insufficient when the stakeholder attempts to claim, the transaction will revert.",
          "amountSkipped": "If the project is being transferred into TokenTable from a different platform, we can skip over what's already been unlocked to keep the progress consistent.",
          "presetId": "The ID of the preset we are trying to create. This is determined off-chain and it can be anything that doesn't exist yet.",
          "recipient": "The address of the stakeholder. A FutureToken will be minted to that address.",
          "startTimestampAbsolute": "When the unlocking schedule should start in UNIX epoch timestamp (seconds). Cannot be in the past.",
          "totalAmount": "The total amount of tokens to be unlocked."
        }
      },
      "createPreset(bytes32,uint256[],uint256,uint256[],uint256[])": {
        "details": "Emits: PresetCreated. - Only callable by the owner if no access control delegate is set. If delegate is set, access by anyone other than the owner depends on the return value of the delegate.",
        "params": {
          "linearBips": "Basis points (percentage of the total amount unlocked) for each linear period. This must add up to BIPS_PRECISION.",
          "linearEndTimestampRelative": "The relative end timestamp of the entire linear unlocking schedule.",
          "linearStartTimestampsRelative": "The relative start timestamps of linear periods.",
          "numOfUnlocksForEachLinear": "The number of unlocks for each linear unlocking period. The minimum value is 1 (unchecked).",
          "presetId": "The ID of the preset we are trying to create. This is determined off-chain and it can be anything that doesn't exist yet."
        }
      },
      "deposit(uint256,uint256)": {
        "details": "Emits: TokensDeposited. - The caller must call approve() on the project token first so safeTransfer() does not revert. - There is no minimum deposit. - Only callable by the owner if no access control delegate is set. If delegate is set, access by anyone other than the owner depends on the return value of the delegate.",
        "params": {
          "actualId": "The ID of the actual unlocking schedule that we are intending to deposit into.",
          "amount": "The amount of project tokens to be deposited."
        }
      },
      "getEncodedPreset(bytes32)": {
        "details": "To decode in JS, use:  ethers.utils.defaultAbiCoder.decode(      ['uint256[]', 'uint256', 'uint256[]', 'uint256[]'],      encodedPreset  )",
        "params": {
          "presetId": "The ID of the preset we are trying to read."
        }
      },
      "initialize(address,address,address)": {
        "details": "Exposing the initializer."
      },
      "setAccessControlDelegate(address)": {
        "details": "Only callable by the owner."
      },
      "withdrawDeposit(uint256,uint256)": {
        "details": "Emits: TokensWithdrawn. - Only callable by the owner if no access control delegate is set. If delegate is set, access by anyone other than the owner depends on the return value of the delegate.",
        "params": {
          "actualId": "The ID of the actual unlocking schedule that we are intending to withdraw from.",
          "amount": "The amount of project tokens to be withdrawn."
        }
      }
    },
    "stateVariables": {
      "isAccessControllable": {
        "details": "Exposes the public variable."
      },
      "isCancelable": {
        "details": "Exposes the public variable."
      },
      "isHookable": {
        "details": "Exposes the public variable."
      }
    },
    "version": 1
  },
  "userdoc": {
    "kind": "user",
    "methods": {
      "calculateAmountClaimable(uint256)": {
        "notice": "Calculates the amount of unlocked tokens that have yet to be claimed in an actual unlocking schedule."
      },
      "cancel(uint256,address)": {
        "notice": "Cancels an actual unlocking schedule effective immediately. Tokens not yet claimed but already unlocked will be tallied."
      },
      "claim(uint256,address)": {
        "notice": "Claims claimable tokens for the specified actualId. If the caller is the owner of the actualId or has permission, then the tokens can be claimed to a different address (as specified in args)"
      },
      "claimCancelledActual(uint256,address)": {
        "notice": "Claims claimable tokens for the specified CANCELLED actualId. If the caller is the owner of the actualId or has permission, then the tokens can be claimed to a different address (as specified in args)"
      },
      "createActual(address,bytes32,uint256,uint256,uint256,uint256)": {
        "notice": "Creates an actual unlocking schedule based on a preset."
      },
      "createPreset(bytes32,uint256[],uint256,uint256[],uint256[])": {
        "notice": "Creates an unlocking schedule preset template."
      },
      "deposit(uint256,uint256)": {
        "notice": "Makes a deposit into an actual unlocking schedule."
      },
      "disableAccessControlDelegate()": {
        "notice": "Permanently disables the access control delegate."
      },
      "disableCancel()": {
        "notice": "Permanently disables the cancel() function."
      },
      "disableHook()": {
        "notice": "Permanently disables the hook."
      },
      "getEncodedPreset(bytes32)": {
        "notice": "Returns an ABI-encoded preset, as nested objects cannot be returned directly in Solidity."
      },
      "setAccessControlDelegate(address)": {
        "notice": "Sets the access control delegate used to control claim behavior."
      },
      "withdrawDeposit(uint256,uint256)": {
        "notice": "Withdraws existing locked deposit from an actual schedule."
      }
    },
    "version": 1
  },
  "storageLayout": {
    "storage": [
      {
        "astId": 138,
        "contract": "contracts/core/TokenTableUnlockerV2.sol:TokenTableUnlockerV2",
        "label": "_initialized",
        "offset": 0,
        "slot": "0",
        "type": "t_uint8"
      },
      {
        "astId": 141,
        "contract": "contracts/core/TokenTableUnlockerV2.sol:TokenTableUnlockerV2",
        "label": "_initializing",
        "offset": 1,
        "slot": "0",
        "type": "t_bool"
      },
      {
        "astId": 698,
        "contract": "contracts/core/TokenTableUnlockerV2.sol:TokenTableUnlockerV2",
        "label": "__gap",
        "offset": 0,
        "slot": "1",
        "type": "t_array(t_uint256)50_storage"
      },
      {
        "astId": 10,
        "contract": "contracts/core/TokenTableUnlockerV2.sol:TokenTableUnlockerV2",
        "label": "_owner",
        "offset": 0,
        "slot": "51",
        "type": "t_address"
      },
      {
        "astId": 130,
        "contract": "contracts/core/TokenTableUnlockerV2.sol:TokenTableUnlockerV2",
        "label": "__gap",
        "offset": 0,
        "slot": "52",
        "type": "t_array(t_uint256)49_storage"
      },
      {
        "astId": 2812,
        "contract": "contracts/core/TokenTableUnlockerV2.sol:TokenTableUnlockerV2",
        "label": "_projectToken",
        "offset": 0,
        "slot": "101",
        "type": "t_address"
      },
      {
        "astId": 314,
        "contract": "contracts/core/TokenTableUnlockerV2.sol:TokenTableUnlockerV2",
        "label": "_status",
        "offset": 0,
        "slot": "102",
        "type": "t_uint256"
      },
      {
        "astId": 372,
        "contract": "contracts/core/TokenTableUnlockerV2.sol:TokenTableUnlockerV2",
        "label": "__gap",
        "offset": 0,
        "slot": "103",
        "type": "t_array(t_uint256)49_storage"
      },
      {
        "astId": 2901,
        "contract": "contracts/core/TokenTableUnlockerV2.sol:TokenTableUnlockerV2",
        "label": "deployer",
        "offset": 0,
        "slot": "152",
        "type": "t_contract(ITTUDeployer)4899"
      },
      {
        "astId": 2904,
        "contract": "contracts/core/TokenTableUnlockerV2.sol:TokenTableUnlockerV2",
        "label": "futureToken",
        "offset": 0,
        "slot": "153",
        "type": "t_contract(ITTFutureTokenV2)4807"
      },
      {
        "astId": 2907,
        "contract": "contracts/core/TokenTableUnlockerV2.sol:TokenTableUnlockerV2",
        "label": "accessControlDelegate",
        "offset": 0,
        "slot": "154",
        "type": "t_contract(ITTAccessControlDelegate)4770"
      },
      {
        "astId": 2910,
        "contract": "contracts/core/TokenTableUnlockerV2.sol:TokenTableUnlockerV2",
        "label": "hook",
        "offset": 0,
        "slot": "155",
        "type": "t_contract(ITTHook)4821"
      },
      {
        "astId": 2913,
        "contract": "contracts/core/TokenTableUnlockerV2.sol:TokenTableUnlockerV2",
        "label": "isCancelable",
        "offset": 20,
        "slot": "155",
        "type": "t_bool"
      },
      {
        "astId": 2916,
        "contract": "contracts/core/TokenTableUnlockerV2.sol:TokenTableUnlockerV2",
        "label": "isAccessControllable",
        "offset": 21,
        "slot": "155",
        "type": "t_bool"
      },
      {
        "astId": 2919,
        "contract": "contracts/core/TokenTableUnlockerV2.sol:TokenTableUnlockerV2",
        "label": "isHookable",
        "offset": 22,
        "slot": "155",
        "type": "t_bool"
      },
      {
        "astId": 2924,
        "contract": "contracts/core/TokenTableUnlockerV2.sol:TokenTableUnlockerV2",
        "label": "_unlockingSchedulePresets",
        "offset": 0,
        "slot": "156",
        "type": "t_mapping(t_bytes32,t_struct(UnlockingSchedulePreset)5218_storage)"
      },
      {
        "astId": 2929,
        "contract": "contracts/core/TokenTableUnlockerV2.sol:TokenTableUnlockerV2",
        "label": "unlockingScheduleActuals",
        "offset": 0,
        "slot": "157",
        "type": "t_mapping(t_uint256,t_struct(UnlockingScheduleActual)5229_storage)"
      },
      {
        "astId": 2933,
        "contract": "contracts/core/TokenTableUnlockerV2.sol:TokenTableUnlockerV2",
        "label": "amountUnlockedLeftoverForActuals",
        "offset": 0,
        "slot": "158",
        "type": "t_mapping(t_uint256,t_uint256)"
      }
    ],
    "types": {
      "t_address": {
        "encoding": "inplace",
        "label": "address",
        "numberOfBytes": "20"
      },
      "t_array(t_uint256)49_storage": {
        "base": "t_uint256",
        "encoding": "inplace",
        "label": "uint256[49]",
        "numberOfBytes": "1568"
      },
      "t_array(t_uint256)50_storage": {
        "base": "t_uint256",
        "encoding": "inplace",
        "label": "uint256[50]",
        "numberOfBytes": "1600"
      },
      "t_array(t_uint256)dyn_storage": {
        "base": "t_uint256",
        "encoding": "dynamic_array",
        "label": "uint256[]",
        "numberOfBytes": "32"
      },
      "t_bool": {
        "encoding": "inplace",
        "label": "bool",
        "numberOfBytes": "1"
      },
      "t_bytes32": {
        "encoding": "inplace",
        "label": "bytes32",
        "numberOfBytes": "32"
      },
      "t_contract(ITTAccessControlDelegate)4770": {
        "encoding": "inplace",
        "label": "contract ITTAccessControlDelegate",
        "numberOfBytes": "20"
      },
      "t_contract(ITTFutureTokenV2)4807": {
        "encoding": "inplace",
        "label": "contract ITTFutureTokenV2",
        "numberOfBytes": "20"
      },
      "t_contract(ITTHook)4821": {
        "encoding": "inplace",
        "label": "contract ITTHook",
        "numberOfBytes": "20"
      },
      "t_contract(ITTUDeployer)4899": {
        "encoding": "inplace",
        "label": "contract ITTUDeployer",
        "numberOfBytes": "20"
      },
      "t_mapping(t_bytes32,t_struct(UnlockingSchedulePreset)5218_storage)": {
        "encoding": "mapping",
        "key": "t_bytes32",
        "label": "mapping(bytes32 => struct UnlockingSchedulePreset)",
        "numberOfBytes": "32",
        "value": "t_struct(UnlockingSchedulePreset)5218_storage"
      },
      "t_mapping(t_uint256,t_struct(UnlockingScheduleActual)5229_storage)": {
        "encoding": "mapping",
        "key": "t_uint256",
        "label": "mapping(uint256 => struct UnlockingScheduleActual)",
        "numberOfBytes": "32",
        "value": "t_struct(UnlockingScheduleActual)5229_storage"
      },
      "t_mapping(t_uint256,t_uint256)": {
        "encoding": "mapping",
        "key": "t_uint256",
        "label": "mapping(uint256 => uint256)",
        "numberOfBytes": "32",
        "value": "t_uint256"
      },
      "t_struct(UnlockingScheduleActual)5229_storage": {
        "encoding": "inplace",
        "label": "struct UnlockingScheduleActual",
        "members": [
          {
            "astId": 5220,
            "contract": "contracts/core/TokenTableUnlockerV2.sol:TokenTableUnlockerV2",
            "label": "presetId",
            "offset": 0,
            "slot": "0",
            "type": "t_bytes32"
          },
          {
            "astId": 5222,
            "contract": "contracts/core/TokenTableUnlockerV2.sol:TokenTableUnlockerV2",
            "label": "startTimestampAbsolute",
            "offset": 0,
            "slot": "1",
            "type": "t_uint256"
          },
          {
            "astId": 5224,
            "contract": "contracts/core/TokenTableUnlockerV2.sol:TokenTableUnlockerV2",
            "label": "amountClaimed",
            "offset": 0,
            "slot": "2",
            "type": "t_uint256"
          },
          {
            "astId": 5226,
            "contract": "contracts/core/TokenTableUnlockerV2.sol:TokenTableUnlockerV2",
            "label": "amountDeposited",
            "offset": 0,
            "slot": "3",
            "type": "t_uint256"
          },
          {
            "astId": 5228,
            "contract": "contracts/core/TokenTableUnlockerV2.sol:TokenTableUnlockerV2",
            "label": "totalAmount",
            "offset": 0,
            "slot": "4",
            "type": "t_uint256"
          }
        ],
        "numberOfBytes": "160"
      },
      "t_struct(UnlockingSchedulePreset)5218_storage": {
        "encoding": "inplace",
        "label": "struct UnlockingSchedulePreset",
        "members": [
          {
            "astId": 5209,
            "contract": "contracts/core/TokenTableUnlockerV2.sol:TokenTableUnlockerV2",
            "label": "linearStartTimestampsRelative",
            "offset": 0,
            "slot": "0",
            "type": "t_array(t_uint256)dyn_storage"
          },
          {
            "astId": 5211,
            "contract": "contracts/core/TokenTableUnlockerV2.sol:TokenTableUnlockerV2",
            "label": "linearEndTimestampRelative",
            "offset": 0,
            "slot": "1",
            "type": "t_uint256"
          },
          {
            "astId": 5214,
            "contract": "contracts/core/TokenTableUnlockerV2.sol:TokenTableUnlockerV2",
            "label": "linearBips",
            "offset": 0,
            "slot": "2",
            "type": "t_array(t_uint256)dyn_storage"
          },
          {
            "astId": 5217,
            "contract": "contracts/core/TokenTableUnlockerV2.sol:TokenTableUnlockerV2",
            "label": "numOfUnlocksForEachLinear",
            "offset": 0,
            "slot": "3",
            "type": "t_array(t_uint256)dyn_storage"
          }
        ],
        "numberOfBytes": "128"
      },
      "t_uint256": {
        "encoding": "inplace",
        "label": "uint256",
        "numberOfBytes": "32"
      },
      "t_uint8": {
        "encoding": "inplace",
        "label": "uint8",
        "numberOfBytes": "1"
      }
    }
  }
}