{
  "address": "0x8D92827CdB67A503e9FB21B28a58F9dAb36B4973",
  "abi": [
    {
      "inputs": [],
      "stateMutability": "nonpayable",
      "type": "constructor"
    },
    {
      "inputs": [],
      "name": "AlreadyDeployed",
      "type": "error"
    },
    {
      "anonymous": false,
      "inputs": [
        {
          "indexed": false,
          "internalType": "address",
          "name": "feeCollector",
          "type": "address"
        }
      ],
      "name": "FeeCollectorChanged",
      "type": "event"
    },
    {
      "anonymous": false,
      "inputs": [
        {
          "indexed": true,
          "internalType": "address",
          "name": "previousOwner",
          "type": "address"
        },
        {
          "indexed": true,
          "internalType": "address",
          "name": "newOwner",
          "type": "address"
        }
      ],
      "name": "OwnershipTransferred",
      "type": "event"
    },
    {
      "anonymous": false,
      "inputs": [
        {
          "indexed": false,
          "internalType": "address",
          "name": "unlockerImpl",
          "type": "address"
        },
        {
          "indexed": false,
          "internalType": "address",
          "name": "futureTokenImpl",
          "type": "address"
        },
        {
          "indexed": false,
          "internalType": "address",
          "name": "trackerTokenImpl",
          "type": "address"
        },
        {
          "indexed": false,
          "internalType": "address",
          "name": "beaconManagerImpl",
          "type": "address"
        },
        {
          "indexed": false,
          "internalType": "address",
          "name": "feeCollector",
          "type": "address"
        }
      ],
      "name": "TTUDeployerInitialized",
      "type": "event"
    },
    {
      "anonymous": false,
      "inputs": [
        {
          "indexed": false,
          "internalType": "address",
          "name": "by",
          "type": "address"
        },
        {
          "indexed": false,
          "internalType": "string",
          "name": "projectId",
          "type": "string"
        },
        {
          "indexed": false,
          "internalType": "address",
          "name": "unlocker",
          "type": "address"
        },
        {
          "indexed": false,
          "internalType": "address",
          "name": "futureToken",
          "type": "address"
        },
        {
          "indexed": false,
          "internalType": "address",
          "name": "trackerToken",
          "type": "address"
        }
      ],
      "name": "TokenTableSuiteDeployed",
      "type": "event"
    },
    {
      "inputs": [],
      "name": "beaconManager",
      "outputs": [
        {
          "internalType": "contract TTUV2BeaconManager",
          "name": "",
          "type": "address"
        }
      ],
      "stateMutability": "view",
      "type": "function"
    },
    {
      "inputs": [
        {
          "internalType": "contract IERC20Metadata",
          "name": "projectToken",
          "type": "address"
        },
        {
          "internalType": "string",
          "name": "projectId",
          "type": "string"
        },
        {
          "internalType": "bool",
          "name": "disableAutoUpgrade",
          "type": "bool"
        }
      ],
      "name": "deployTTSuite",
      "outputs": [
        {
          "internalType": "contract TokenTableUnlockerV2",
          "name": "",
          "type": "address"
        },
        {
          "internalType": "contract TTFutureTokenV2",
          "name": "",
          "type": "address"
        },
        {
          "internalType": "contract TTTrackerTokenV2",
          "name": "",
          "type": "address"
        }
      ],
      "stateMutability": "nonpayable",
      "type": "function"
    },
    {
      "inputs": [],
      "name": "feeCollector",
      "outputs": [
        {
          "internalType": "contract TTUFeeCollector",
          "name": "",
          "type": "address"
        }
      ],
      "stateMutability": "view",
      "type": "function"
    },
    {
      "inputs": [],
      "name": "owner",
      "outputs": [
        {
          "internalType": "address",
          "name": "",
          "type": "address"
        }
      ],
      "stateMutability": "view",
      "type": "function"
    },
    {
      "inputs": [
        {
          "internalType": "string",
          "name": "",
          "type": "string"
        }
      ],
      "name": "registry",
      "outputs": [
        {
          "internalType": "bool",
          "name": "",
          "type": "bool"
        }
      ],
      "stateMutability": "view",
      "type": "function"
    },
    {
      "inputs": [],
      "name": "renounceOwnership",
      "outputs": [],
      "stateMutability": "nonpayable",
      "type": "function"
    },
    {
      "inputs": [
        {
          "internalType": "contract TTUFeeCollector",
          "name": "feeCollector_",
          "type": "address"
        }
      ],
      "name": "setFeeCollector",
      "outputs": [],
      "stateMutability": "nonpayable",
      "type": "function"
    },
    {
      "inputs": [
        {
          "internalType": "address",
          "name": "newOwner",
          "type": "address"
        }
      ],
      "name": "transferOwnership",
      "outputs": [],
      "stateMutability": "nonpayable",
      "type": "function"
    }
  ],
  "transactionHash": "0xa1b0040ed6a86a6eee2952602037184cdc8946589a5b00d97c7ff64480dd6c74",
  "args": [],
  "numDeployments": 1,
  "solcInputHash": "a16b5371dff0575975784e597b11805a",
  "bytecode": "0x60a06040523480156200001157600080fd5b506200001d3362000214565b60006040516200002d9062000264565b604051809103906000f0801580156200004a573d6000803e3d6000fd5b50905060006040516200005d9062000272565b604051809103906000f0801580156200007a573d6000803e3d6000fd5b50905060006040516200008d9062000280565b604051809103906000f080158015620000aa573d6000803e3d6000fd5b509050828282604051620000be906200028e565b6001600160a01b03938416815291831660208301529091166040820152606001604051809103906000f080158015620000fb573d6000803e3d6000fd5b506001600160a01b031660805260405162000116906200029c565b604051809103906000f08015801562000133573d6000803e3d6000fd5b50600180546001600160a01b0319166001600160a01b0392909216918217905560405163f2fde38b60e01b815233600482015263f2fde38b90602401600060405180830381600087803b1580156200018a57600080fd5b505af11580156200019f573d6000803e3d6000fd5b505060808051600154604080516001600160a01b03808b168252808a16602083015280891692820192909252928116606084015216918101919091527fd08459a68d1cdb2ba9364289f79498efec4aea7eb78ca84f2beee05ccfa7454c925060a001905060405180910390a1505050620002aa565b600080546001600160a01b038381166001600160a01b0319831681178455604051919092169283917f8be0079c531659141344cd1fd0a4f28419497f9722a3daafe3b4186f6b6457e09190a35050565b612baa8062001a6d83390190565b611f27806200461783390190565b610c94806200653e83390190565b610c3f80620071d283390190565b6108158062007e1183390190565b60805161177e620002ef60003960008181609e015281816102c90152818161041d015281816104ef015281816105b5015281816106b601526107c5015261177e6000f3fe60806040523480156200001157600080fd5b5060043610620000935760003560e01c8063a42dce801162000062578063a42dce80146200013d578063b0cb71071462000154578063c415b95c1462000196578063f2fde38b14620001aa57600080fd5b80635a4fba021462000098578063715018a614620000dd5780638da5cb5b14620000e957806392a296c914620000fb575b600080fd5b620000c07f000000000000000000000000000000000000000000000000000000000000000081565b6040516001600160a01b0390911681526020015b60405180910390f35b620000e7620001c1565b005b6000546001600160a01b0316620000c0565b6200012c6200010c36600462000bbe565b805160208183018101805160028252928201919093012091525460ff1681565b6040519015158152602001620000d4565b620000e76200014e36600462000c8f565b620001d9565b6200016b6200016536600462000cb6565b62000237565b604080516001600160a01b0394851681529284166020840152921691810191909152606001620000d4565b600154620000c0906001600160a01b031681565b620000e7620001bb36600462000c8f565b620009cf565b620001cb62000a52565b620001d7600062000aae565b565b620001e362000a52565b600180546001600160a01b0319166001600160a01b0383169081179091556040519081527f9c1996a14d26c3ecd833c10222d012447ef07b09b15000f3a34318ff039c0bdc9060200160405180910390a150565b6000806000600286866040516200025092919062000d5b565b9081526040519081900360200190205460ff1615620002825760405163a6ef0ba160e01b815260040160405180910390fd5b6001600287876040516200029892919062000d5b565b908152604051908190036020019020805491151560ff19909216919091179055600080808615620005b357620003b67f00000000000000000000000000000000000000000000000000000000000000006001600160a01b03166378e65efc6040518163ffffffff1660e01b8152600401602060405180830381865afa15801562000326573d6000803e3d6000fd5b505050506040513d601f19601f820116820180604052508101906200034c919062000d6b565b6001600160a01b0316635c60da1b6040518163ffffffff1660e01b8152600401602060405180830381865afa1580156200038a573d6000803e3d6000fd5b505050506040513d601f19601f82011682018060405250810190620003b0919062000d6b565b62000afe565b60405163189acdbd60e31b81526001600160a01b038c811660048301529194509084169063c4d66de890602401600060405180830381600087803b158015620003fe57600080fd5b505af115801562000413573d6000803e3d6000fd5b505050506200047a7f00000000000000000000000000000000000000000000000000000000000000006001600160a01b031663ec5319876040518163ffffffff1660e01b8152600401602060405180830381865afa15801562000326573d6000803e3d6000fd5b60405163c0c53b8b60e01b81526001600160a01b038c8116600483015285811660248301523060448301529193509083169063c0c53b8b90606401600060405180830381600087803b158015620004d057600080fd5b505af1158015620004e5573d6000803e3d6000fd5b505050506200054c7f00000000000000000000000000000000000000000000000000000000000000006001600160a01b031663de6a3bd46040518163ffffffff1660e01b8152600401602060405180830381865afa15801562000326573d6000803e3d6000fd5b60405163189acdbd60e31b81526001600160a01b0384811660048301529192509082169063c4d66de890602401600060405180830381600087803b1580156200059457600080fd5b505af1158015620005a9573d6000803e3d6000fd5b50505050620008c5565b7f00000000000000000000000000000000000000000000000000000000000000006001600160a01b03166378e65efc6040518163ffffffff1660e01b8152600401602060405180830381865afa15801562000612573d6000803e3d6000fd5b505050506040513d601f19601f8201168201806040525081019062000638919062000d6b565b604080516001600160a01b038d1660248083019190915282518083039091018152604490910182526020810180516001600160e01b031663189acdbd60e31b1790529051620006879062000b9a565b6200069492919062000d8b565b604051809103906000f080158015620006b1573d6000803e3d6000fd5b5092507f00000000000000000000000000000000000000000000000000000000000000006001600160a01b031663ec5319876040518163ffffffff1660e01b8152600401602060405180830381865afa15801562000713573d6000803e3d6000fd5b505050506040513d601f19601f8201168201806040525081019062000739919062000d6b565b604080516001600160a01b038d81166024830152861660448201523060648083019190915282518083039091018152608490910182526020810180516001600160e01b031663c0c53b8b60e01b1790529051620007969062000b9a565b620007a392919062000d8b565b604051809103906000f080158015620007c0573d6000803e3d6000fd5b5091507f00000000000000000000000000000000000000000000000000000000000000006001600160a01b031663de6a3bd46040518163ffffffff1660e01b8152600401602060405180830381865afa15801562000822573d6000803e3d6000fd5b505050506040513d601f19601f8201168201806040525081019062000848919062000d6b565b604080516001600160a01b03851660248083019190915282518083039091018152604490910182526020810180516001600160e01b031663189acdbd60e31b1790529051620008979062000b9a565b620008a492919062000d8b565b604051809103906000f080158015620008c1573d6000803e3d6000fd5b5090505b60405163f2fde38b60e01b81523360048201526001600160a01b0383169063f2fde38b90602401600060405180830381600087803b1580156200090757600080fd5b505af11580156200091c573d6000803e3d6000fd5b5050604051630ab148ff60e31b81526001600160a01b0385811660048301528616925063558a47f89150602401600060405180830381600087803b1580156200096457600080fd5b505af115801562000979573d6000803e3d6000fd5b505050507f17df396a3d7d1aee90dda3191f7e75531702775925951ea64827321bbc37412c338a8a858786604051620009b89695949392919062000deb565b60405180910390a190999198509650945050505050565b620009d962000a52565b6001600160a01b03811662000a445760405162461bcd60e51b815260206004820152602660248201527f4f776e61626c653a206e6577206f776e657220697320746865207a65726f206160448201526564647265737360d01b60648201526084015b60405180910390fd5b62000a4f8162000aae565b50565b6000546001600160a01b03163314620001d75760405162461bcd60e51b815260206004820181905260248201527f4f776e61626c653a2063616c6c6572206973206e6f7420746865206f776e6572604482015260640162000a3b565b600080546001600160a01b038381166001600160a01b0319831681178455604051919092169283917f8be0079c531659141344cd1fd0a4f28419497f9722a3daafe3b4186f6b6457e09190a35050565b6000763d602d80600a3d3981f3363d3d373d3d3d363d730000008260601b60e81c176000526e5af43d82803e903d91602b57fd5bf38260781b17602052603760096000f090506001600160a01b03811662000b955760405162461bcd60e51b8152602060048201526016602482015275115490cc4c4d8dce8818dc99585d194819985a5b195960521b604482015260640162000a3b565b919050565b6109008062000e4983390190565b634e487b7160e01b600052604160045260246000fd5b60006020828403121562000bd157600080fd5b813567ffffffffffffffff8082111562000bea57600080fd5b818401915084601f83011262000bff57600080fd5b81358181111562000c145762000c1462000ba8565b604051601f8201601f19908116603f0116810190838211818310171562000c3f5762000c3f62000ba8565b8160405282815287602084870101111562000c5957600080fd5b826020860160208301376000928101602001929092525095945050505050565b6001600160a01b038116811462000a4f57600080fd5b60006020828403121562000ca257600080fd5b813562000caf8162000c79565b9392505050565b6000806000806060858703121562000ccd57600080fd5b843562000cda8162000c79565b9350602085013567ffffffffffffffff8082111562000cf857600080fd5b818701915087601f83011262000d0d57600080fd5b81358181111562000d1d57600080fd5b88602082850101111562000d3057600080fd5b6020830195508094505050506040850135801515811462000d5057600080fd5b939692955090935050565b8183823760009101908152919050565b60006020828403121562000d7e57600080fd5b815162000caf8162000c79565b60018060a01b038316815260006020604081840152835180604085015260005b8181101562000dc95785810183015185820160600152820162000dab565b506000606082860101526060601f19601f830116850101925050509392505050565b6001600160a01b03878116825260a0602083018190528201869052600090868860c0850137600060c0888501810191909152958116604084015293841660608301525091166080820152601f909201601f1916909101019291505056fe60806040526040516109003803806109008339810160408190526100229161045b565b61002e82826000610035565b5050610585565b61003e83610100565b6040516001600160a01b038416907f1cf3b03a6cf19fa2baba4df148e9dcabedea7f8a5c07840e207e5c089be95d3e90600090a260008251118061007f5750805b156100fb576100f9836001600160a01b0316635c60da1b6040518163ffffffff1660e01b8152600401602060405180830381865afa1580156100c5573d6000803e3d6000fd5b505050506040513d601f19601f820116820180604052508101906100e9919061051b565b836102a360201b6100291760201c565b505b505050565b610113816102cf60201b6100551760201c565b6101725760405162461bcd60e51b815260206004820152602560248201527f455243313936373a206e657720626561636f6e206973206e6f74206120636f6e6044820152641d1c9858dd60da1b60648201526084015b60405180910390fd5b6101e6816001600160a01b0316635c60da1b6040518163ffffffff1660e01b8152600401602060405180830381865afa1580156101b3573d6000803e3d6000fd5b505050506040513d601f19601f820116820180604052508101906101d7919061051b565b6102cf60201b6100551760201c565b61024b5760405162461bcd60e51b815260206004820152603060248201527f455243313936373a20626561636f6e20696d706c656d656e746174696f6e206960448201526f1cc81b9bdd08184818dbdb9d1c9858dd60821b6064820152608401610169565b806102827fa3f0ad74e5423aebfd80d3ef4346578335a9a72aeaee59ff6cb3582b35133d5060001b6102de60201b6100641760201c565b80546001600160a01b0319166001600160a01b039290921691909117905550565b60606102c883836040518060600160405280602781526020016108d9602791396102e1565b9392505050565b6001600160a01b03163b151590565b90565b6060600080856001600160a01b0316856040516102fe9190610536565b600060405180830381855af49150503d8060008114610339576040519150601f19603f3d011682016040523d82523d6000602084013e61033e565b606091505b5090925090506103508683838761035a565b9695505050505050565b606083156103c95782516000036103c2576001600160a01b0385163b6103c25760405162461bcd60e51b815260206004820152601d60248201527f416464726573733a2063616c6c20746f206e6f6e2d636f6e74726163740000006044820152606401610169565b50816103d3565b6103d383836103db565b949350505050565b8151156103eb5781518083602001fd5b8060405162461bcd60e51b81526004016101699190610552565b80516001600160a01b038116811461041c57600080fd5b919050565b634e487b7160e01b600052604160045260246000fd5b60005b8381101561045257818101518382015260200161043a565b50506000910152565b6000806040838503121561046e57600080fd5b61047783610405565b60208401519092506001600160401b038082111561049457600080fd5b818501915085601f8301126104a857600080fd5b8151818111156104ba576104ba610421565b604051601f8201601f19908116603f011681019083821181831017156104e2576104e2610421565b816040528281528860208487010111156104fb57600080fd5b61050c836020830160208801610437565b80955050505050509250929050565b60006020828403121561052d57600080fd5b6102c882610405565b60008251610548818460208701610437565b9190910192915050565b6020815260008251806020840152610571816040850160208701610437565b601f01601f19169190910160400192915050565b610345806105946000396000f3fe60806040523661001357610011610017565b005b6100115b610027610022610067565b610100565b565b606061004e83836040518060600160405280602781526020016102e960279139610124565b9392505050565b6001600160a01b03163b151590565b90565b600061009a7fa3f0ad74e5423aebfd80d3ef4346578335a9a72aeaee59ff6cb3582b35133d50546001600160a01b031690565b6001600160a01b0316635c60da1b6040518163ffffffff1660e01b8152600401602060405180830381865afa1580156100d7573d6000803e3d6000fd5b505050506040513d601f19601f820116820180604052508101906100fb919061024c565b905090565b3660008037600080366000845af43d6000803e80801561011f573d6000f35b3d6000fd5b6060600080856001600160a01b0316856040516101419190610299565b600060405180830381855af49150503d806000811461017c576040519150601f19603f3d011682016040523d82523d6000602084013e610181565b606091505b50915091506101928683838761019c565b9695505050505050565b60608315610210578251600003610209576001600160a01b0385163b6102095760405162461bcd60e51b815260206004820152601d60248201527f416464726573733a2063616c6c20746f206e6f6e2d636f6e747261637400000060448201526064015b60405180910390fd5b508161021a565b61021a8383610222565b949350505050565b8151156102325781518083602001fd5b8060405162461bcd60e51b815260040161020091906102b5565b60006020828403121561025e57600080fd5b81516001600160a01b038116811461004e57600080fd5b60005b83811015610290578181015183820152602001610278565b50506000910152565b600082516102ab818460208701610275565b9190910192915050565b60208152600082518060208401526102d4816040850160208701610275565b601f01601f1916919091016040019291505056fe416464726573733a206c6f772d6c6576656c2064656c65676174652063616c6c206661696c6564a264697066735822122022a6bf5ebbb7518c40e703958b5c8e4d70ca6715c1e1ccf9e9591bfc86e066d164736f6c63430008110033416464726573733a206c6f772d6c6576656c2064656c65676174652063616c6c206661696c6564a2646970667358221220386e5076cc3a37ac40e674f93c6e59afb6b13ab49b19708bf7f2d5cfb9c41d7064736f6c63430008110033608060405234801561001057600080fd5b50612b8a806100206000396000f3fe608060405234801561001057600080fd5b50600436106101735760003560e01c80638da5cb5b116100de578063c0c53b8b11610097578063ddd5e1b211610071578063ddd5e1b214610333578063e2bbb15814610346578063e301b8b514610359578063f2fde38b146103be57600080fd5b8063c0c53b8b146102fa578063d5f394881461030d578063d8fb068b1461032057600080fd5b80638da5cb5b146102945780639a8a0592146102a5578063a2c6df4f146102ae578063adad72f3146102c1578063b10b4d4c146102d4578063bfc56c3f146102e757600080fd5b806342734d451161013057806342734d451461021a5780634837c596146102425780635550ac471461025357806357d682c4146102665780636efcc14e14610279578063715018a61461028c57600080fd5b8063084d2b9b146101785780631153352c146101945780632788dbed146101a95780632de1d431146101bc57806338616d8c146101dc5780633aa4327c146101ef575b600080fd5b61018161271081565b6040519081526020015b60405180910390f35b6101a76101a23660046121bd565b6103d1565b005b6101a76101b736600461221f565b6103fb565b6101cf6101ca36600461228b565b6104ba565b60405161018b91906122f4565b6101a76101ea3660046121bd565b61061f565b609a54610202906001600160a01b031681565b6040516001600160a01b03909116815260200161018b565b61022d61022836600461228b565b61066b565b6040805192835260208301919091520161018b565b6066546001600160a01b0316610202565b6101a761026136600461221f565b610a5f565b61022d610274366004612307565b610afe565b6101a761028736600461240d565b610c75565b6101a7610d70565b6033546001600160a01b0316610202565b61018160655481565b6101a76102bc366004612523565b610d84565b6101a76102cf36600461256f565b610dbd565b6101a76102e236600461261c565b610e8c565b6101a76102f53660046126d4565b610f5f565b6101a76103083660046127bb565b6110ae565b609954610202906001600160a01b031681565b609b54610202906001600160a01b031681565b6101a7610341366004612307565b611208565b6101a7610354366004612806565b611250565b61039661036736600461228b565b609d60205260009081526040902080546001820154600283015460038401546004909401549293919290919085565b604080519586526020860194909452928401919091526060830152608082015260a00161018b565b6101a76103cc3660046121bd565b611279565b6103d96112f2565b609b80546001600160a01b0319166001600160a01b0392909216919091179055565b61040361134c565b6104446000632788dbed60e01b86868686604051602001610427949392919061285a565b60405160208183030381529060405261043d3390565b60006113a5565b60005b838110156104a957610497858583818110610464576104646128bf565b9050602002013584848481811061047d5761047d6128bf565b905060200201602081019061049291906121bd565b6114c1565b806104a1816128eb565b915050610447565b506104b46001606755565b50505050565b6000818152609c602090815260408083208151815460a09481028201850190935260808101838152606095949193849284919084018282801561051c57602002820191906000526020600020905b815481526020019060010190808311610508575b50505050508152602001600182015481526020016002820180548060200260200160405190810160405280929190818152602001828054801561057e57602002820191906000526020600020905b81548152602001906001019080831161056a575b50505050508152602001600382018054806020026020016040519081016040528092919081815260200182805480156105d657602002820191906000526020600020905b8154815260200190600101908083116105c2575b50505050508152505090508060000151816020015182604001518360600151604051602001610608949392919061293f565b604051602081830303815290604052915050919050565b6066546001600160a01b031615610649576040516311f9360560e31b815260040160405180910390fd5b606680546001600160a01b0319166001600160a01b0392909216919091179055565b6000818152609d60209081526040808320815160a08082018452825480835260018401548387015260028401548386015260038401546060840152600490930154608080840191909152928652609c8552838620845181549687028101830190955292840185815286959294869490939092849291849184018282801561071157602002820191906000526020600020905b8154815260200190600101908083116106fd575b50505050508152602001600182015481526020016002820180548060200260200160405190810160405280929190818152602001828054801561077357602002820191906000526020600020905b81548152602001906001019080831161075f575b50505050508152602001600382018054806020026020016040519081016040528092919081815260200182805480156107cb57602002820191906000526020600020905b8154815260200190600101908083116107b7575b505050505081525050905060008060008460200151426107eb919061297e565b9050600092505b83515183101561083f578084600001518481518110610813576108136128bf565b6020026020010151116108285782915061082d565b61083f565b82610837816128eb565b9350506107f2565b600092505b818310156108895783604001518381518110610862576108626128bf565b6020026020010151866108759190612997565b955082610881816128eb565b935050610844565b83515160009061089b9060019061297e565b83036108df57845180516108b19060019061297e565b815181106108c1576108c16128bf565b602002602001015185602001516108d8919061297e565b9050610932565b84518051849081106108f3576108f36128bf565b6020026020010151856000015184600161090d9190612997565b8151811061091d5761091d6128bf565b602002602001015161092f919061297e565b90505b60008560600151848151811061094a5761094a6128bf565b60200260200101518261095d91906129aa565b9050600086600001518581518110610977576109776128bf565b60200260200101518461098a919061297e565b9050600061099883836129aa565b9050876060015186815181106109b0576109b06128bf565b602002602001015181896040015188815181106109cf576109cf6128bf565b60200260200101516109e191906129cc565b6109eb91906129aa565b6109f5908b612997565b995061271089608001518b610a0a91906129cc565b610a1491906129aa565b995088608001518a1115610a2a57886080015199505b8989604001511115610a3f5760009a50610a51565b6040890151610a4e908b61297e565b9a505b505050505050505050915091565b610aa06000635550ac4760e01b86868686604051602001610a8394939291906129e3565b604051602081830303815290604052610a993390565b60016113a5565b60005b83811015610af757610ae5858583818110610ac057610ac06128bf565b90506020020135848484818110610ad957610ad96128bf565b905060200201356115f3565b80610aef816128eb565b915050610aa3565b5050505050565b600080610b0961134c565b604080516001600160a01b0385166020820152610b31918691632788dbed60e01b9101610a83565b6000610b3e856000611681565b6000878152609d6020908152604091829020825160a0810184528154815260018201549281019290925260028101549282018390526003810154606083015260040154608082018190529396509193509091610b9a919061297e565b9250610bc38584610bb36066546001600160a01b031690565b6001600160a01b03169190611979565b604080518781526001600160a01b03841660208201819052818301526060810186905290517f9c4945d842cc8c6704877a0defcd9ab09f6d77b24a369a95c2610506c6c38ee79181900360800190a160408051878152602081018690529081018490526001600160a01b03861660608201527fd16afe7af99c1463a26fb2e837ad180ef355fe9e0810e2250f83d90f960b629c9060800160405180910390a15050610c6e6001606755565b9250929050565b60408051602081019091526000808252610c989163377e60a760e11b9033610a99565b60005b88811015610d6257610d508c8c83818110610cb857610cb86128bf565b9050602002016020810190610ccd91906121bd565b8b8b84818110610cdf57610cdf6128bf565b905060200201358a8a85818110610cf857610cf86128bf565b90506020020135898986818110610d1157610d116128bf565b90506020020135888887818110610d2a57610d2a6128bf565b90506020020135878781518110610d4357610d436128bf565b60200260200101516119e1565b80610d5a816128eb565b915050610c9b565b505050505050505050505050565b610d786112f2565b610d826000611b9d565b565b60408051602081019091526000808252610da79163a2c6df4f60e01b9033610a99565b610db58686868686866119e1565b505050505050565b60408051602081019091526000808252610de09163adad72f360e01b9033610a99565b610e828888888080602002602001604051908101604052809392919081815260200183836020028082843760009201919091525050604080516020808b0282810182019093528a82528c94509092508a918a9182919085019084908082843760009201919091525050604080516020808b0282810182019093528a82529093508a925089918291850190849080828437600092019190915250611bef92505050565b5050505050505050565b604080516001600160a01b0384166020820152908101829052610ebc908490632c42d35360e21b90606001610a83565b6000838152609d6020526040812060038101805491928492610edf90849061297e565b909155503390506001600160a01b03841615610ef85750825b610f0f8184610bb36066546001600160a01b031690565b604080518681526001600160a01b03831660208201529081018490527f3f5fbaf86658fdadee77f1d46e7f8a72424ad9839eda6a1dc6eb0a4228e4226e9060600160405180910390a15050505050565b60408051602081019091526000808252610f829163bfc56c3f60e01b9033610a99565b60005b888110156110a2576110908a8a83818110610fa257610fa26128bf565b90506020020135898984818110610fbb57610fbb6128bf565b9050602002810190610fcd9190612a0a565b808060200260200160405190810160405280939291908181526020018383602002808284376000920191909152508b92508a9150869050818110611013576110136128bf565b9050602002013587878681811061102c5761102c6128bf565b905060200281019061103e9190612a0a565b808060200260200160405190810160405280939291908181526020018383602002808284376000920191909152505088518992508891508110611083576110836128bf565b6020026020010151611bef565b8061109a816128eb565b915050610f85565b50505050505050505050565b600054610100900460ff16158080156110ce5750600054600160ff909116105b806110e85750303b1580156110e8575060005460ff166001145b6111505760405162461bcd60e51b815260206004820152602e60248201527f496e697469616c697a61626c653a20636f6e747261637420697320616c72656160448201526d191e481a5b9a5d1a585b1a5e995960921b60648201526084015b60405180910390fd5b6000805460ff191660011790558015611173576000805461ff0019166101001790555b61117b611d0c565b61118484611d3f565b609a80546001600160a01b038086166001600160a01b03199283161790925560998054928516929091169190911790556111bc611d66565b80156104b4576000805461ff0019169055604051600181527f7f26b83ff96e1f2b6a682f133852f6798a09c465da95921460cefb3847402498906020015b60405180910390a150505050565b61121061134c565b604080516001600160a01b0383166020820152611238918491636eeaf0d960e11b9101610427565b61124282826114c1565b61124c6001606755565b5050565b61126f8263e2bbb15860e01b83604051602001610a8391815260200190565b61124c82826115f3565b6112816112f2565b6001600160a01b0381166112e65760405162461bcd60e51b815260206004820152602660248201527f4f776e61626c653a206e6577206f776e657220697320746865207a65726f206160448201526564647265737360d01b6064820152608401611147565b6112ef81611b9d565b50565b6033546001600160a01b03163314610d825760405162461bcd60e51b815260206004820181905260248201527f4f776e61626c653a2063616c6c6572206973206e6f7420746865206f776e65726044820152606401611147565b60026067540361139e5760405162461bcd60e51b815260206004820152601f60248201527f5265656e7472616e637947756172643a207265656e7472616e742063616c6c006044820152606401611147565b6002606755565b609b546001600160a01b031661140b578080156113cc57506033546001600160a01b031633145b610af7578080156113e857506033546001600160a01b03163314155b1561140657604051637f63bd0f60e01b815260040160405180910390fd5b610af7565b609b54604051632c68941960e21b81526001600160a01b039091169063b1a2506490611441908890889088908890600401612a54565b602060405180830381865afa15801561145e573d6000803e3d6000fd5b505050506040513d601f19601f820116820180604052508101906114829190612a95565b1580156114a357508080156114a157506033546001600160a01b031633145b155b15610af757604051637f63bd0f60e01b815260040160405180910390fd5b33609a546040516331a9108f60e11b8152600481018590526001600160a01b039283169290911690636352211e90602401602060405180830381865afa15801561150f573d6000803e3d6000fd5b505050506040513d601f19601f820116820180604052508101906115339190612ab7565b6001600160a01b0316141580156115535750609b546001600160a01b0316155b801561156757506001600160a01b03811615155b1561158557604051637f63bd0f60e01b815260040160405180910390fd5b6000806115928484611681565b915091507f9c4945d842cc8c6704877a0defcd9ab09f6d77b24a369a95c2610506c6c38ee7846115bf3390565b604080519283526001600160a01b03918216602084015290841690820152606081018490526080016111fa565b6001606755565b6000828152609d6020526040902061162a3330846116196066546001600160a01b031690565b6001600160a01b0316929190611d8d565b8181600301600082825461163e9190612997565b909155505060408051848152602081018490527f41fb7ad419fc7623dde1142cd095a12727aa6965ab1d484a6d0d9327403d98ba910160405180910390a1505050565b6000806000806116908661066b565b6000888152609d60205260409020600281018290556003810154929450909250908311156116e15760038101546040516312e1fa3760e11b8152611147918591600401918252602082015260400190565b6001600160a01b03861661176357609a546040516331a9108f60e11b8152600481018990526001600160a01b0390911690636352211e90602401602060405180830381865afa158015611738573d6000803e3d6000fd5b505050506040513d601f19601f8201168201806040525081019061175c9190612ab7565b9350611767565b8593505b6099546001600160a01b03161561195557609954604080516331056e5760e21b815290516000926001600160a01b03169163c415b95c9160048083019260209291908290030181865afa1580156117c2573d6000803e3d6000fd5b505050506040513d601f19601f820116820180604052508101906117e69190612ab7565b6040516313b7ae0d60e21b8152306004820152602481018690526001600160a01b039190911690634edeb83490604401602060405180830381865afa158015611833573d6000803e3d6000fd5b505050506040513d601f19601f820116820180604052508101906118579190612ad4565b9050611863818561297e565b9350611953609960009054906101000a90046001600160a01b03166001600160a01b031663c415b95c6040518163ffffffff1660e01b8152600401602060405180830381865afa1580156118bb573d6000803e3d6000fd5b505050506040513d601f19601f820116820180604052508101906118df9190612ab7565b6001600160a01b0316638da5cb5b6040518163ffffffff1660e01b8152600401602060405180830381865afa15801561191c573d6000803e3d6000fd5b505050506040513d601f19601f820116820180604052508101906119409190612ab7565b82610bb36066546001600160a01b031690565b505b61196c8484610bb36066546001600160a01b031690565b8294505050509250929050565b6040516001600160a01b0383166024820152604481018290526119dc90849063a9059cbb60e01b906064015b60408051601f198184030181529190526020810180516001600160e01b03166001600160e01b031990931692909217909152611dc5565b505050565b609a546040516340d097c360e01b81526001600160a01b03888116600483015260009216906340d097c3906024016020604051808303816000875af1158015611a2e573d6000803e3d6000fd5b505050506040513d601f19601f82011682018060405250810190611a529190612ad4565b90504285108015611a61575083155b15611a7f576040516313634e8d60e11b815260040160405180910390fd5b6000818152609d60209081526040808320898452609c909252909120611aa481611e97565b15611ac2576040516303be3a3760e21b815260040160405180910390fd5b848610611ae2576040516378c0fc4360e01b815260040160405180910390fd5b87825560018201879055600282018690556004820185905560408051898152602081018590527f836cf6e4827fcb14b6226db1383bbae421b3ff8545414c8e5609bb709baae421910160405180910390a18315611b925760038201849055611b583330866116196066546001600160a01b031690565b60408051848152602081018690527f41fb7ad419fc7623dde1142cd095a12727aa6965ab1d484a6d0d9327403d98ba910160405180910390a15b505050505050505050565b603380546001600160a01b038381166001600160a01b0319831681179093556040519116919082907f8be0079c531659141344cd1fd0a4f28419497f9722a3daafe3b4186f6b6457e090600090a35050565b6000858152609c60205260409020611c0690611e97565b611c2357604051631f2ec56d60e21b815260040160405180910390fd5b604080516080810182528581526020810185905290810183905260608101829052611c4d81611ed1565b611c6a576040516303be3a3760e21b815260040160405180910390fd5b6000868152609c60209081526040909120825180518493611c8f928492910190612148565b50602082810151600183015560408301518051611cb29260028501920190612148565b5060608201518051611cce916003840191602090910190612148565b50506040518781527fdb70f000fd1b55bab727e36e3adf29333c24708fae670635637944d26e8c579e915060200160405180910390a1505050505050565b600054610100900460ff16611d335760405162461bcd60e51b815260040161114790612aed565b46606555610d82611f88565b600054610100900460ff166106495760405162461bcd60e51b815260040161114790612aed565b600054610100900460ff166115ec5760405162461bcd60e51b815260040161114790612aed565b6040516001600160a01b03808516602483015283166044820152606481018290526104b49085906323b872dd60e01b906084016119a5565b6000611e1a826040518060400160405280602081526020017f5361666545524332303a206c6f772d6c6576656c2063616c6c206661696c6564815250856001600160a01b0316611fb89092919063ffffffff16565b8051909150156119dc5780806020019051810190611e389190612a95565b6119dc5760405162461bcd60e51b815260206004820152602a60248201527f5361666545524332303a204552433230206f7065726174696f6e20646964206e6044820152691bdd081cdd58d8d9595960b21b6064820152608401611147565b60018101546003820154825460028401546000939291611eb6916129cc565b611ec091906129cc565b611eca91906129cc565b1592915050565b60008060005b836040015151811015611f215783604001518181518110611efa57611efa6128bf565b602002602001015182611f0d9190612997565b915080611f19816128eb565b915050611ed7565b5061271081148015611f395750825151604084015151145b8015611f6f5750602083015183518051611f559060019061297e565b81518110611f6557611f656128bf565b6020026020010151105b8015611f815750825151606084015151145b9392505050565b600054610100900460ff16611faf5760405162461bcd60e51b815260040161114790612aed565b610d8233611b9d565b6060611fc78484600085611fcf565b949350505050565b6060824710156120305760405162461bcd60e51b815260206004820152602660248201527f416464726573733a20696e73756666696369656e742062616c616e636520666f6044820152651c8818d85b1b60d21b6064820152608401611147565b600080866001600160a01b0316858760405161204c9190612b38565b60006040518083038185875af1925050503d8060008114612089576040519150601f19603f3d011682016040523d82523d6000602084013e61208e565b606091505b509150915061209f878383876120aa565b979650505050505050565b60608315612119578251600003612112576001600160a01b0385163b6121125760405162461bcd60e51b815260206004820152601d60248201527f416464726573733a2063616c6c20746f206e6f6e2d636f6e74726163740000006044820152606401611147565b5081611fc7565b611fc7838381511561212e5781518083602001fd5b8060405162461bcd60e51b815260040161114791906122f4565b828054828255906000526020600020908101928215612183579160200282015b82811115612183578251825591602001919060010190612168565b5061218f929150612193565b5090565b5b8082111561218f5760008155600101612194565b6001600160a01b03811681146112ef57600080fd5b6000602082840312156121cf57600080fd5b8135611f81816121a8565b60008083601f8401126121ec57600080fd5b50813567ffffffffffffffff81111561220457600080fd5b6020830191508360208260051b8501011115610c6e57600080fd5b6000806000806040858703121561223557600080fd5b843567ffffffffffffffff8082111561224d57600080fd5b612259888389016121da565b9096509450602087013591508082111561227257600080fd5b5061227f878288016121da565b95989497509550505050565b60006020828403121561229d57600080fd5b5035919050565b60005b838110156122bf5781810151838201526020016122a7565b50506000910152565b600081518084526122e08160208601602086016122a4565b601f01601f19169290920160200192915050565b602081526000611f8160208301846122c8565b6000806040838503121561231a57600080fd5b82359150602083013561232c816121a8565b809150509250929050565b634e487b7160e01b600052604160045260246000fd5b604051601f8201601f1916810167ffffffffffffffff8111828210171561237657612376612337565b604052919050565b600067ffffffffffffffff82111561239857612398612337565b5060051b60200190565b600082601f8301126123b357600080fd5b813560206123c86123c38361237e565b61234d565b82815260059290921b840181019181810190868411156123e757600080fd5b8286015b8481101561240257803583529183019183016123eb565b509695505050505050565b600080600080600080600080600080600060c08c8e03121561242e57600080fd5b67ffffffffffffffff808d35111561244557600080fd5b6124528e8e358f016121da565b909c509a5060208d013581101561246857600080fd5b6124788e60208f01358f016121da565b909a50985060408d013581101561248e57600080fd5b61249e8e60408f01358f016121da565b909850965060608d01358110156124b457600080fd5b6124c48e60608f01358f016121da565b909650945060808d01358110156124da57600080fd5b6124ea8e60808f01358f016121da565b909450925060a08d013581101561250057600080fd5b506125118d60a08e01358e016123a2565b90509295989b509295989b9093969950565b60008060008060008060c0878903121561253c57600080fd5b8635612547816121a8565b9860208801359850604088013597606081013597506080810135965060a00135945092505050565b60008060008060008060008060a0898b03121561258b57600080fd5b88359750602089013567ffffffffffffffff808211156125aa57600080fd5b6125b68c838d016121da565b909950975060408b0135965060608b01359150808211156125d657600080fd5b6125e28c838d016121da565b909650945060808b01359150808211156125fb57600080fd5b506126088b828c016121da565b999c989b5096995094979396929594505050565b60008060006060848603121561263157600080fd5b833592506020840135612643816121a8565b929592945050506040919091013590565b600082601f83011261266557600080fd5b813560206126756123c38361237e565b82815260059290921b8401810191818101908684111561269457600080fd5b8286015b8481101561240257803567ffffffffffffffff8111156126b85760008081fd5b6126c68986838b01016123a2565b845250918301918301612698565b600080600080600080600080600060a08a8c0312156126f257600080fd5b893567ffffffffffffffff8082111561270a57600080fd5b6127168d838e016121da565b909b50995060208c013591508082111561272f57600080fd5b61273b8d838e016121da565b909950975060408c013591508082111561275457600080fd5b6127608d838e016121da565b909750955060608c013591508082111561277957600080fd5b6127858d838e016121da565b909550935060808c013591508082111561279e57600080fd5b506127ab8c828d01612654565b9150509295985092959850929598565b6000806000606084860312156127d057600080fd5b83356127db816121a8565b925060208401356127eb816121a8565b915060408401356127fb816121a8565b809150509250925092565b6000806040838503121561281957600080fd5b50508035926020909101359150565b81835260006001600160fb1b0383111561284157600080fd5b8260051b80836020870137939093016020019392505050565b60408152600061286e604083018688612828565b8281036020848101919091528482528591810160005b868110156128b2578335612897816121a8565b6001600160a01b031682529282019290820190600101612884565b5098975050505050505050565b634e487b7160e01b600052603260045260246000fd5b634e487b7160e01b600052601160045260246000fd5b6000600182016128fd576128fd6128d5565b5060010190565b600081518084526020808501945080840160005b8381101561293457815187529582019590820190600101612918565b509495945050505050565b6080815260006129526080830187612904565b856020840152828103604084015261296a8186612904565b9050828103606084015261209f8185612904565b81810381811115612991576129916128d5565b92915050565b80820180821115612991576129916128d5565b6000826129c757634e487b7160e01b600052601260045260246000fd5b500490565b8082028115828204841417612991576129916128d5565b6040815260006129f7604083018688612828565b828103602084015261209f818587612828565b6000808335601e19843603018112612a2157600080fd5b83018035915067ffffffffffffffff821115612a3c57600080fd5b6020019150600581901b3603821315610c6e57600080fd5b84815263ffffffff60e01b84166020820152608060408201526000612a7c60808301856122c8565b905060018060a01b038316606083015295945050505050565b600060208284031215612aa757600080fd5b81518015158114611f8157600080fd5b600060208284031215612ac957600080fd5b8151611f81816121a8565b600060208284031215612ae657600080fd5b5051919050565b6020808252602b908201527f496e697469616c697a61626c653a20636f6e7472616374206973206e6f74206960408201526a6e697469616c697a696e6760a81b606082015260800190565b60008251612b4a8184602087016122a4565b919091019291505056fea2646970667358221220a6c29060c83a3a06dcb59ce04167626b74dc12e41a0cb5a0751d750ed5529d2464736f6c63430008110033608060405234801561001057600080fd5b50611f07806100206000396000f3fe6080604052600436106101405760003560e01c80636352211e116100b6578063b88d4fde1161006f578063b88d4fde14610381578063c23dc68f14610394578063c4d66de8146103c1578063c87b56dd146103e1578063d207019314610401578063e985e9c51461043657600080fd5b80636352211e146102bf57806370a08231146102df5780638462151c146102ff57806395d89b411461032c57806399a2557a14610341578063a22cb4651461036157600080fd5b80631ba538cd116101085780631ba538cd1461020c57806323b872dd1461022c57806340d097c31461023f57806342842e0e1461025f578063558a47f8146102725780635bbb21771461029257600080fd5b806301ffc9a71461014557806306fdde031461017a578063081812fc1461019c578063095ea7b3146101d457806318160ddd146101e9575b600080fd5b34801561015157600080fd5b5061016561016036600461178b565b610456565b60405190151581526020015b60405180910390f35b34801561018657600080fd5b5061018f6104a8565b60405161017191906117f8565b3480156101a857600080fd5b506101bc6101b736600461180b565b610543565b6040516001600160a01b039091168152602001610171565b6101e76101e2366004611839565b610590565b005b3480156101f557600080fd5b506101fe6105a0565b604051908152602001610171565b34801561021857600080fd5b506000546101bc906001600160a01b031681565b6101e761023a366004611865565b6105bf565b34801561024b57600080fd5b506101fe61025a3660046118a6565b6107b6565b6101e761026d366004611865565b6107fb565b34801561027e57600080fd5b506101e761028d3660046118a6565b61081b565b34801561029e57600080fd5b506102b26102ad3660046118c3565b610866565b6040516101719190611975565b3480156102cb57600080fd5b506101bc6102da36600461180b565b610932565b3480156102eb57600080fd5b506101fe6102fa3660046118a6565b61093d565b34801561030b57600080fd5b5061031f61031a3660046118a6565b6109a6565b60405161017191906119b7565b34801561033857600080fd5b5061018f610aaf565b34801561034d57600080fd5b5061031f61035c3660046119ef565b610ac7565b34801561036d57600080fd5b506101e761037c366004611a24565b610c40565b6101e761038f366004611ad1565b610cbd565b3480156103a057600080fd5b506103b46103af36600461180b565b610d07565b6040516101719190611b80565b3480156103cd57600080fd5b506101e76103dc3660046118a6565b610d83565b3480156103ed57600080fd5b5061018f6103fc36600461180b565b610fa3565b34801561040d57600080fd5b5061042161041c36600461180b565b611033565b60408051928352602083019190915201610171565b34801561044257600080fd5b50610165610451366004611b8e565b6110bf565b60006301ffc9a760e01b6001600160e01b03198316148061048757506380ac58cd60e01b6001600160e01b03198316145b806104a25750635b5e139f60e01b6001600160e01b03198316145b92915050565b60606104b26110fc565b60020180546104c090611bbc565b80601f01602080910402602001604051908101604052809291908181526020018280546104ec90611bbc565b80156105395780601f1061050e57610100808354040283529160200191610539565b820191906000526020600020905b81548152906001019060200180831161051c57829003601f168201915b5050505050905090565b600061054e82611120565b61056b576040516333d1c03960e21b815260040160405180910390fd5b6105736110fc565b60009283526006016020525060409020546001600160a01b031690565b61059c8282600161115c565b5050565b6000806105ab6110fc565b600101546105b76110fc565b540303919050565b60006105ca82611211565b9050836001600160a01b0316816001600160a01b0316146105fd5760405162a1148160e81b815260040160405180910390fd5b600080610609846112b5565b9150915061062e81876106193390565b6001600160a01b039081169116811491141790565b6106595761063c86336110bf565b61065957604051632ce44b5f60e11b815260040160405180910390fd5b6001600160a01b03851661068057604051633a954ecd60e21b815260040160405180910390fd5b801561068b57600082555b6106936110fc565b6001600160a01b03871660009081526005919091016020526040902080546000190190556106bf6110fc565b6001600160a01b03861660008181526005929092016020526040909120805460010190554260a01b17600160e11b176106f66110fc565b60008681526004919091016020526040812091909155600160e11b8416900361076c57600184016107256110fc565b60008281526004919091016020526040812054900361076a576107466110fc565b54811461076a57836107566110fc565b600083815260049190910160205260409020555b505b83856001600160a01b0316876001600160a01b03167fddf252ad1be2c89b69c2b068fc378daa952ba7f163c4a11628f55a4df523b3ef60405160405180910390a45b505050505050565b600080546001600160a01b031633146107e1576040516282b42960e81b815260040160405180910390fd5b6107e96112dd565b90506107f68260016112ed565b919050565b61081683838360405180602001604052806000815250610cbd565b505050565b6000546001600160a01b031615610844576040516282b42960e81b815260040160405180910390fd5b600080546001600160a01b0319166001600160a01b0392909216919091179055565b60608160008167ffffffffffffffff81111561088457610884611a62565b6040519080825280602002602001820160405280156108d657816020015b6040805160808101825260008082526020808301829052928201819052606082015282526000199092019101816108a25790505b50905060005b828114610929576109048686838181106108f8576108f8611bf6565b90506020020135610d07565b82828151811061091657610916611bf6565b60209081029190910101526001016108dc565b50949350505050565b60006104a282611211565b60006001600160a01b038216610966576040516323d3ad8160e21b815260040160405180910390fd5b67ffffffffffffffff6109776110fc565b6005016000846001600160a01b03166001600160a01b0316815260200190815260200160002054169050919050565b606060008060006109b68561093d565b905060008167ffffffffffffffff8111156109d3576109d3611a62565b6040519080825280602002602001820160405280156109fc578160200160208202803683370190505b509050610a2960408051608081018252600080825260208201819052918101829052606081019190915290565b60005b838614610aa357610a3c81611307565b91508160400151610a9b5781516001600160a01b031615610a5c57815194505b876001600160a01b0316856001600160a01b031603610a9b5780838780600101985081518110610a8e57610a8e611bf6565b6020026020010181815250505b600101610a2c565b50909695505050505050565b6060610ab96110fc565b60030180546104c090611bbc565b6060818310610ae957604051631960ccad60e11b815260040160405180910390fd5b600080610af46112dd565b905080841115610b02578093505b6000610b0d8761093d565b905084861015610b2c5785850381811015610b26578091505b50610b30565b5060005b60008167ffffffffffffffff811115610b4b57610b4b611a62565b604051908082528060200260200182016040528015610b74578160200160208202803683370190505b50905081600003610b8a579350610c3992505050565b6000610b9588610d07565b905060008160400151610ba6575080515b885b888114158015610bb85750848714155b15610c2d57610bc681611307565b92508260400151610c255782516001600160a01b031615610be657825191505b8a6001600160a01b0316826001600160a01b031603610c255780848880600101995081518110610c1857610c18611bf6565b6020026020010181815250505b600101610ba8565b50505092835250909150505b9392505050565b80610c496110fc565b336000818152600792909201602090815260408084206001600160a01b03881680865290835293819020805460ff19169515159590951790945592518415158152919290917f17307eab39ab6107e8899845ad3d59bd9653f200f220920489ca2b5937696c31910160405180910390a35050565b610cc88484846105bf565b6001600160a01b0383163b15610d0157610ce48484848461134e565b610d01576040516368d2bf6b60e11b815260040160405180910390fd5b50505050565b6040805160808082018352600080835260208084018290528385018290526060808501839052855193840186528284529083018290529382018190529281019290925290610d536112dd565b8310610d5f5792915050565b610d6883611307565b9050806040015115610d7a5792915050565b610c3983611439565b600080516020611eb283398151915254610100900460ff16610db857600080516020611eb28339815191525460ff1615610dbc565b303b155b610e335760405162461bcd60e51b815260206004820152603760248201527f455243373231415f5f496e697469616c697a61626c653a20636f6e747261637460448201527f20697320616c726561647920696e697469616c697a656400000000000000000060648201526084015b60405180910390fd5b600080516020611eb283398151915254610100900460ff16158015610e6f57600080516020611eb2833981519152805461ffff19166101011790555b610f81826001600160a01b03166306fdde036040518163ffffffff1660e01b8152600401600060405180830381865afa158015610eb0573d6000803e3d6000fd5b505050506040513d6000823e601f3d908101601f19168201604052610ed89190810190611c0c565b604051602001610ee89190611c83565b604051602081830303815290604052836001600160a01b03166395d89b416040518163ffffffff1660e01b8152600401600060405180830381865afa158015610f35573d6000803e3d6000fd5b505050506040513d6000823e601f3d908101601f19168201604052610f5d9190810190611c0c565b604051602001610f6d9190611cb2565b60405160208183030381529060405261146e565b801561059c575050600080516020611eb2833981519152805461ff0019169055565b6060610fae82611120565b610fcb57604051630a14c4b560e41b815260040160405180910390fd5b6000610fe260408051602081019091526000815290565b905080516000036110025760405180602001604052806000815250610c39565b8061100c8461152e565b60405160200161101d929190611cdd565b6040516020818303038152906040529392505050565b600080546040516342734d4560e01b8152600481018490528291829182916001600160a01b0316906342734d45906024016040805180830381865afa158015611080573d6000803e3d6000fd5b505050506040513d601f19601f820116820180604052508101906110a49190611d0c565b90945084925090506110b68282611d30565b92505050915091565b60006110c96110fc565b6001600160a01b039384166000908152600791909101602090815260408083209490951682529290925250205460ff1690565b7f2569078dfb4b0305704d3008e7403993ae9601b85f7ae5e742de3de8f8011c4090565b600061112a6110fc565b54821080156104a25750600160e01b6111416110fc565b60008481526004919091016020526040902054161592915050565b600061116783610932565b905081156111a657336001600160a01b038216146111a65761118981336110bf565b6111a6576040516367d9dca160e11b815260040160405180910390fd5b836111af6110fc565b6000858152600691909101602052604080822080546001600160a01b0319166001600160a01b0394851617905551859287811692908516917f8c5be1e5ebec7d5bd14f71427d1e84f3dd0314c0f7b2291e5b200ac8c7c3b9259190a450505050565b600061121b6110fc565b600083815260049190910160205260408120549150600160e01b8216900361129c57806000036107f65761124d6110fc565b54821061126d57604051636f96cda160e11b815260040160405180910390fd5b6112756110fc565b60001990920160008181526004939093016020526040909220549050801561126d57919050565b604051636f96cda160e11b815260040160405180910390fd5b60008060006112c26110fc565b60009485526006016020525050604090912080549092909150565b60006112e76110fc565b54919050565b61059c828260405180602001604052806000815250611572565b6040805160808101825260008082526020820181905291810182905260608101919091526104a26113366110fc565b600084815260049190910160205260409020546115ef565b604051630a85bd0160e11b81526000906001600160a01b0385169063150b7a0290611383903390899088908890600401611d51565b6020604051808303816000875af19250505080156113be575060408051601f3d908101601f191682019092526113bb91810190611d8e565b60015b61141c573d8080156113ec576040519150601f19603f3d011682016040523d82523d6000602084013e6113f1565b606091505b508051600003611414576040516368d2bf6b60e11b815260040160405180910390fd5b805181602001fd5b6001600160e01b031916630a85bd0160e11b149050949350505050565b6040805160808101825260008082526020820181905291810182905260608101919091526104a261146983611211565b6115ef565b600080516020611eb283398151915254610100900460ff166114ef5760405162461bcd60e51b815260206004820152603460248201527f455243373231415f5f496e697469616c697a61626c653a20636f6e7472616374604482015273206973206e6f7420696e697469616c697a696e6760601b6064820152608401610e2a565b816114f86110fc565b600201906115069082611df1565b50806115106110fc565b6003019061151e9082611df1565b5060006115296110fc565b555050565b606060a06040510180604052602081039150506000815280825b600183039250600a81066030018353600a9004806115485750819003601f19909101908152919050565b61157c8383611637565b6001600160a01b0383163b156108165760006115966110fc565b5490508281035b6115b0600086838060010194508661134e565b6115cd576040516368d2bf6b60e11b815260040160405180910390fd5b81811061159d57816115dd6110fc565b54146115e857600080fd5b5050505050565b604080516080810182526001600160a01b038316815260a083901c67ffffffffffffffff166020820152600160e01b831615159181019190915260e89190911c606082015290565b60006116416110fc565b54905060008290036116665760405163b562e8dd60e01b815260040160405180910390fd5b68010000000000000001820261167a6110fc565b6001600160a01b038516600081815260059290920160205260409091208054929092019091554260a01b6001841460e11b17176116b56110fc565b600083815260049190910160205260408120919091556001600160a01b0384169083830190839083907fddf252ad1be2c89b69c2b068fc378daa952ba7f163c4a11628f55a4df523b3ef8180a4600183015b81811461173f57808360007fddf252ad1be2c89b69c2b068fc378daa952ba7f163c4a11628f55a4df523b3ef600080a4600101611707565b508160000361176057604051622e076360e81b815260040160405180910390fd5b806117696110fc565b55506108169050565b6001600160e01b03198116811461178857600080fd5b50565b60006020828403121561179d57600080fd5b8135610c3981611772565b60005b838110156117c35781810151838201526020016117ab565b50506000910152565b600081518084526117e48160208601602086016117a8565b601f01601f19169290920160200192915050565b602081526000610c3960208301846117cc565b60006020828403121561181d57600080fd5b5035919050565b6001600160a01b038116811461178857600080fd5b6000806040838503121561184c57600080fd5b823561185781611824565b946020939093013593505050565b60008060006060848603121561187a57600080fd5b833561188581611824565b9250602084013561189581611824565b929592945050506040919091013590565b6000602082840312156118b857600080fd5b8135610c3981611824565b600080602083850312156118d657600080fd5b823567ffffffffffffffff808211156118ee57600080fd5b818501915085601f83011261190257600080fd5b81358181111561191157600080fd5b8660208260051b850101111561192657600080fd5b60209290920196919550909350505050565b80516001600160a01b0316825260208082015167ffffffffffffffff169083015260408082015115159083015260609081015162ffffff16910152565b6020808252825182820181905260009190848201906040850190845b81811015610aa3576119a4838551611938565b9284019260809290920191600101611991565b6020808252825182820181905260009190848201906040850190845b81811015610aa3578351835292840192918401916001016119d3565b600080600060608486031215611a0457600080fd5b8335611a0f81611824565b95602085013595506040909401359392505050565b60008060408385031215611a3757600080fd5b8235611a4281611824565b915060208301358015158114611a5757600080fd5b809150509250929050565b634e487b7160e01b600052604160045260246000fd5b604051601f8201601f1916810167ffffffffffffffff81118282101715611aa157611aa1611a62565b604052919050565b600067ffffffffffffffff821115611ac357611ac3611a62565b50601f01601f191660200190565b60008060008060808587031215611ae757600080fd5b8435611af281611824565b93506020850135611b0281611824565b925060408501359150606085013567ffffffffffffffff811115611b2557600080fd5b8501601f81018713611b3657600080fd5b8035611b49611b4482611aa9565b611a78565b818152886020838501011115611b5e57600080fd5b8160208401602083013760006020838301015280935050505092959194509250565b608081016104a28284611938565b60008060408385031215611ba157600080fd5b8235611bac81611824565b91506020830135611a5781611824565b600181811c90821680611bd057607f821691505b602082108103611bf057634e487b7160e01b600052602260045260246000fd5b50919050565b634e487b7160e01b600052603260045260246000fd5b600060208284031215611c1e57600080fd5b815167ffffffffffffffff811115611c3557600080fd5b8201601f81018413611c4657600080fd5b8051611c54611b4482611aa9565b818152856020838501011115611c6957600080fd5b611c7a8260208301602086016117a8565b95945050505050565b660233aba3ab932960cd1b815260008251611ca58160078501602087016117a8565b9190910160070192915050565b6246542d60e81b815260008251611cd08160038501602087016117a8565b9190910160030192915050565b60008351611cef8184602088016117a8565b835190830190611d038183602088016117a8565b01949350505050565b60008060408385031215611d1f57600080fd5b505080516020909101519092909150565b818103818111156104a257634e487b7160e01b600052601160045260246000fd5b6001600160a01b0385811682528416602082015260408101839052608060608201819052600090611d84908301846117cc565b9695505050505050565b600060208284031215611da057600080fd5b8151610c3981611772565b601f82111561081657600081815260208120601f850160051c81016020861015611dd25750805b601f850160051c820191505b818110156107ae57828155600101611dde565b815167ffffffffffffffff811115611e0b57611e0b611a62565b611e1f81611e198454611bbc565b84611dab565b602080601f831160018114611e545760008415611e3c5750858301515b600019600386901b1c1916600185901b1785556107ae565b600085815260208120601f198616915b82811015611e8357888601518255948401946001909101908401611e64565b5085821015611ea15787850151600019600388901b60f8161c191681555b5050505050600190811b0190555056feee151c8401928dc223602bb187aff91b9a56c7cae5476ef1b3287b085a16c85fa2646970667358221220ed2b3d59522b6574015c048da60a86c74af7c3d80aa93fd6705686100a42113964736f6c63430008110033608060405234801561001057600080fd5b50610c74806100206000396000f3fe608060405234801561001057600080fd5b50600436106100a95760003560e01c806370a082311161007157806370a082311461013657806395d89b4114610149578063a9059cbb146100cc578063ae2dd74314610151578063c4d66de814610182578063dd62ed3e1461019757600080fd5b806306fdde03146100ae578063095ea7b3146100cc57806318160ddd146100ef57806323b872dd14610105578063313ce5671461011c575b600080fd5b6100b66101a5565b6040516100c39190610879565b60405180910390f35b6100df6100da3660046108c4565b6102a7565b60405190151581526020016100c3565b6100f76102b0565b6040519081526020016100c3565b6100df6101133660046108f0565b60009392505050565b610124610397565b60405160ff90911681526020016100c3565b6100f7610144366004610931565b610470565b6100b6610637565b60005461016a906201000090046001600160a01b031681565b6040516001600160a01b0390911681526020016100c3565b610195610190366004610931565b610725565b005b6100f76100da366004610955565b6060600060029054906101000a90046001600160a01b03166001600160a01b0316634837c5966040518163ffffffff1660e01b8152600401602060405180830381865afa1580156101fa573d6000803e3d6000fd5b505050506040513d601f19601f8201168201806040525081019061021e919061098e565b6001600160a01b03166306fdde036040518163ffffffff1660e01b8152600401600060405180830381865afa15801561025b573d6000803e3d6000fd5b505050506040513d6000823e601f3d908101601f1916820160405261028391908101906109f2565b6040516020016102939190610a86565b604051602081830303815290604052905090565b60005b92915050565b60008060029054906101000a90046001600160a01b03166001600160a01b0316634837c5966040518163ffffffff1660e01b8152600401602060405180830381865afa158015610304573d6000803e3d6000fd5b505050506040513d601f19601f82011682018060405250810190610328919061098e565b6040516370a0823160e01b81523060048201526001600160a01b0391909116906370a0823190602401602060405180830381865afa15801561036e573d6000803e3d6000fd5b505050506040513d601f19601f820116820180604052508101906103929190610ab6565b905090565b60008060029054906101000a90046001600160a01b03166001600160a01b0316634837c5966040518163ffffffff1660e01b8152600401602060405180830381865afa1580156103eb573d6000803e3d6000fd5b505050506040513d601f19601f8201168201806040525081019061040f919061098e565b6001600160a01b031663313ce5676040518163ffffffff1660e01b8152600401602060405180830381865afa15801561044c573d6000803e3d6000fd5b505050506040513d601f19601f820116820180604052508101906103929190610acf565b60008060008060029054906101000a90046001600160a01b03166001600160a01b0316633aa4327c6040518163ffffffff1660e01b8152600401602060405180830381865afa1580156104c7573d6000803e3d6000fd5b505050506040513d601f19601f820116820180604052508101906104eb919061098e565b604051632118854760e21b81526001600160a01b038681166004830152919250600091831690638462151c90602401600060405180830381865afa158015610537573d6000803e3d6000fd5b505050506040513d6000823e601f3d908101601f1916820160405261055f9190810190610af2565b905060005b815181101561062d5760008060029054906101000a90046001600160a01b03166001600160a01b03166342734d458484815181106105a4576105a4610b98565b60200260200101516040518263ffffffff1660e01b81526004016105ca91815260200190565b6040805180830381865afa1580156105e6573d6000803e3d6000fd5b505050506040513d601f19601f8201168201806040525081019061060a9190610bae565b5090506106178186610be8565b945050808061062590610bfb565b915050610564565b5091949350505050565b6060600060029054906101000a90046001600160a01b03166001600160a01b0316634837c5966040518163ffffffff1660e01b8152600401602060405180830381865afa15801561068c573d6000803e3d6000fd5b505050506040513d601f19601f820116820180604052508101906106b0919061098e565b6001600160a01b03166395d89b416040518163ffffffff1660e01b8152600401600060405180830381865afa1580156106ed573d6000803e3d6000fd5b505050506040513d6000823e601f3d908101601f1916820160405261071591908101906109f2565b6040516020016102939190610c14565b600054610100900460ff16158080156107455750600054600160ff909116105b8061075f5750303b15801561075f575060005460ff166001145b6107c65760405162461bcd60e51b815260206004820152602e60248201527f496e697469616c697a61626c653a20636f6e747261637420697320616c72656160448201526d191e481a5b9a5d1a585b1a5e995960921b606482015260840160405180910390fd5b6000805460ff1916600117905580156107e9576000805461ff0019166101001790555b6000805462010000600160b01b031916620100006001600160a01b038516021790558015610851576000805461ff0019169055604051600181527f7f26b83ff96e1f2b6a682f133852f6798a09c465da95921460cefb38474024989060200160405180910390a15b5050565b60005b83811015610870578181015183820152602001610858565b50506000910152565b6020815260008251806020840152610898816040850160208701610855565b601f01601f19169190910160400192915050565b6001600160a01b03811681146108c157600080fd5b50565b600080604083850312156108d757600080fd5b82356108e2816108ac565b946020939093013593505050565b60008060006060848603121561090557600080fd5b8335610910816108ac565b92506020840135610920816108ac565b929592945050506040919091013590565b60006020828403121561094357600080fd5b813561094e816108ac565b9392505050565b6000806040838503121561096857600080fd5b8235610973816108ac565b91506020830135610983816108ac565b809150509250929050565b6000602082840312156109a057600080fd5b815161094e816108ac565b634e487b7160e01b600052604160045260246000fd5b604051601f8201601f1916810167ffffffffffffffff811182821017156109ea576109ea6109ab565b604052919050565b600060208284031215610a0457600080fd5b815167ffffffffffffffff80821115610a1c57600080fd5b818401915084601f830112610a3057600080fd5b815181811115610a4257610a426109ab565b610a55601f8201601f19166020016109c1565b9150808252856020828501011115610a6c57600080fd5b610a7d816020840160208601610855565b50949350505050565b6702a3930b1b5b2b9160c51b815260008251610aa9816008850160208701610855565b9190910160080192915050565b600060208284031215610ac857600080fd5b5051919050565b600060208284031215610ae157600080fd5b815160ff8116811461094e57600080fd5b60006020808385031215610b0557600080fd5b825167ffffffffffffffff80821115610b1d57600080fd5b818501915085601f830112610b3157600080fd5b815181811115610b4357610b436109ab565b8060051b9150610b548483016109c1565b8181529183018401918481019088841115610b6e57600080fd5b938501935b83851015610b8c57845182529385019390850190610b73565b98975050505050505050565b634e487b7160e01b600052603260045260246000fd5b60008060408385031215610bc157600080fd5b505080516020909101519092909150565b634e487b7160e01b600052601160045260246000fd5b808201808211156102aa576102aa610bd2565b600060018201610c0d57610c0d610bd2565b5060010190565b61542d60f01b815260008251610c31816002850160208701610855565b919091016002019291505056fea26469706673582212200bcde262629ad01e959b71ac970a169b499fc6d7befe33863028db5fe622043264736f6c6343000811003360e060405234801561001057600080fd5b50604051610c3f380380610c3f83398101604081905261002f91610270565b6100383361011d565b8260405161004590610247565b6001600160a01b039091168152602001604051809103906000f080158015610071573d6000803e3d6000fd5b506001600160a01b0316608052604051829061008c90610247565b6001600160a01b039091168152602001604051809103906000f0801580156100b8573d6000803e3d6000fd5b506001600160a01b031660a05260405181906100d390610247565b6001600160a01b039091168152602001604051809103906000f0801580156100ff573d6000803e3d6000fd5b506001600160a01b031660c0526101153261016d565b5050506102b3565b600080546001600160a01b038381166001600160a01b0319831681178455604051919092169283917f8be0079c531659141344cd1fd0a4f28419497f9722a3daafe3b4186f6b6457e09190a35050565b6101756101eb565b6001600160a01b0381166101df5760405162461bcd60e51b815260206004820152602660248201527f4f776e61626c653a206e6577206f776e657220697320746865207a65726f206160448201526564647265737360d01b60648201526084015b60405180910390fd5b6101e88161011d565b50565b6000546001600160a01b031633146102455760405162461bcd60e51b815260206004820181905260248201527f4f776e61626c653a2063616c6c6572206973206e6f7420746865206f776e657260448201526064016101d6565b565b6104e48061075b83390190565b80516001600160a01b038116811461026b57600080fd5b919050565b60008060006060848603121561028557600080fd5b61028e84610254565b925061029c60208501610254565b91506102aa60408501610254565b90509250925092565b60805160a05160c0516104656102f660003960008181610134015261023e01526000818160cd01526102a801526000818161015b01526101b701526104656000f3fe608060405234801561001057600080fd5b50600436106100935760003560e01c80638da5cb5b116100665780638da5cb5b1461010b578063a47bee7f1461011c578063de6a3bd41461012f578063ec53198714610156578063f2fde38b1461017d57600080fd5b8063182e591414610098578063468b6a49146100ad578063715018a6146100c057806378e65efc146100c8575b600080fd5b6100ab6100a63660046103ff565b610190565b005b6100ab6100bb3660046103ff565b610217565b6100ab61026d565b6100ef7f000000000000000000000000000000000000000000000000000000000000000081565b6040516001600160a01b03909116815260200160405180910390f35b6000546001600160a01b03166100ef565b6100ab61012a3660046103ff565b610281565b6100ef7f000000000000000000000000000000000000000000000000000000000000000081565b6100ef7f000000000000000000000000000000000000000000000000000000000000000081565b6100ab61018b3660046103ff565b6102d7565b610198610355565b604051631b2ce7f360e11b81526001600160a01b0382811660048301527f00000000000000000000000000000000000000000000000000000000000000001690633659cfe6906024015b600060405180830381600087803b1580156101fc57600080fd5b505af1158015610210573d6000803e3d6000fd5b5050505050565b61021f610355565b604051631b2ce7f360e11b81526001600160a01b0382811660048301527f00000000000000000000000000000000000000000000000000000000000000001690633659cfe6906024016101e2565b610275610355565b61027f60006103af565b565b610289610355565b604051631b2ce7f360e11b81526001600160a01b0382811660048301527f00000000000000000000000000000000000000000000000000000000000000001690633659cfe6906024016101e2565b6102df610355565b6001600160a01b0381166103495760405162461bcd60e51b815260206004820152602660248201527f4f776e61626c653a206e6577206f776e657220697320746865207a65726f206160448201526564647265737360d01b60648201526084015b60405180910390fd5b610352816103af565b50565b6000546001600160a01b0316331461027f5760405162461bcd60e51b815260206004820181905260248201527f4f776e61626c653a2063616c6c6572206973206e6f7420746865206f776e65726044820152606401610340565b600080546001600160a01b038381166001600160a01b0319831681178455604051919092169283917f8be0079c531659141344cd1fd0a4f28419497f9722a3daafe3b4186f6b6457e09190a35050565b60006020828403121561041157600080fd5b81356001600160a01b038116811461042857600080fd5b939250505056fea2646970667358221220ce74177c9780f92990a3abeb2f92b5090bf48bd5430b033502aa8f9e00b92b2e64736f6c63430008110033608060405234801561001057600080fd5b506040516104e43803806104e483398101604081905261002f91610151565b61003833610047565b61004181610097565b50610181565b600080546001600160a01b038381166001600160a01b0319831681178455604051919092169283917f8be0079c531659141344cd1fd0a4f28419497f9722a3daafe3b4186f6b6457e09190a35050565b6100aa8161014260201b6101a01760201c565b6101205760405162461bcd60e51b815260206004820152603360248201527f5570677261646561626c65426561636f6e3a20696d706c656d656e746174696f60448201527f6e206973206e6f74206120636f6e747261637400000000000000000000000000606482015260840160405180910390fd5b600180546001600160a01b0319166001600160a01b0392909216919091179055565b6001600160a01b03163b151590565b60006020828403121561016357600080fd5b81516001600160a01b038116811461017a57600080fd5b9392505050565b610354806101906000396000f3fe608060405234801561001057600080fd5b50600436106100575760003560e01c80633659cfe61461005c5780635c60da1b14610071578063715018a61461009a5780638da5cb5b146100a2578063f2fde38b146100b3575b600080fd5b61006f61006a3660046102ee565b6100c6565b005b6001546001600160a01b03165b6040516001600160a01b03909116815260200160405180910390f35b61006f61010e565b6000546001600160a01b031661007e565b61006f6100c13660046102ee565b610122565b6100ce6101af565b6100d781610209565b6040516001600160a01b038216907fbc7cd75a20ee27fd9adebab32041f755214dbc6bffa90cc0225b39da2e5c2d3b90600090a250565b6101166101af565b610120600061029e565b565b61012a6101af565b6001600160a01b0381166101945760405162461bcd60e51b815260206004820152602660248201527f4f776e61626c653a206e6577206f776e657220697320746865207a65726f206160448201526564647265737360d01b60648201526084015b60405180910390fd5b61019d8161029e565b50565b6001600160a01b03163b151590565b6000546001600160a01b031633146101205760405162461bcd60e51b815260206004820181905260248201527f4f776e61626c653a2063616c6c6572206973206e6f7420746865206f776e6572604482015260640161018b565b6001600160a01b0381163b61027c5760405162461bcd60e51b815260206004820152603360248201527f5570677261646561626c65426561636f6e3a20696d706c656d656e746174696f6044820152721b881a5cc81b9bdd08184818dbdb9d1c9858dd606a1b606482015260840161018b565b600180546001600160a01b0319166001600160a01b0392909216919091179055565b600080546001600160a01b038381166001600160a01b0319831681178455604051919092169283917f8be0079c531659141344cd1fd0a4f28419497f9722a3daafe3b4186f6b6457e09190a35050565b60006020828403121561030057600080fd5b81356001600160a01b038116811461031757600080fd5b939250505056fea264697066735822122046de0e2736711d896422b3c51492e357495cbb76e5fdccdc78cc16cf74f410c064736f6c63430008110033608060405234801561001057600080fd5b5061001a3361001f565b61006f565b600080546001600160a01b038381166001600160a01b0319831681178455604051919092169283917f8be0079c531659141344cd1fd0a4f28419497f9722a3daafe3b4186f6b6457e09190a35050565b6107978061007e6000396000f3fe608060405234801561001057600080fd5b50600436106100935760003560e01c8063c93a6c8411610066578063c93a6c84146100ec578063cb65e505146100ff578063d49466a814610108578063f2fde38b1461011b578063fd9be5221461012e57600080fd5b8063084d2b9b146100985780634edeb834146100b4578063715018a6146100c75780638da5cb5b146100d1575b600080fd5b6100a161271081565b6040519081526020015b60405180910390f35b6100a16100c2366004610616565b610141565b6100cf6101a4565b005b6000546040516001600160a01b0390911681526020016100ab565b6100cf6100fa366004610642565b6101b8565b6100a160015481565b6100cf610116366004610616565b6101fb565b6100cf61012936600461065b565b61025b565b6100cf61013c366004610616565b6102d9565b6001600160a01b03821660009081526002602052604081205481901561017f576001600160a01b038416600090815260026020526040902054610183565b6001545b9050612710610192828561067f565b61019c91906106aa565b949350505050565b6101ac61030b565b6101b66000610365565b565b6101c061030b565b60018190556040518181527fe3c879f1bacd84281e6f3b2c940aee391b4ea5d58d41f2f9ae7808469ac381279060200160405180910390a150565b61020361030b565b6001600160a01b038216600081815260026020908152604091829020849055815192835282018390527f4bf35bdb30378ec45195e205e56c03a10f89b4ccde934846b966b834fa72d5ce910160405180910390a15050565b61026361030b565b6001600160a01b0381166102cd5760405162461bcd60e51b815260206004820152602660248201527f4f776e61626c653a206e6577206f776e657220697320746865207a65726f206160448201526564647265737360d01b60648201526084015b60405180910390fd5b6102d681610365565b50565b6102e161030b565b6103076102f66000546001600160a01b031690565b6001600160a01b03841690836103b5565b5050565b6000546001600160a01b031633146101b65760405162461bcd60e51b815260206004820181905260248201527f4f776e61626c653a2063616c6c6572206973206e6f7420746865206f776e657260448201526064016102c4565b600080546001600160a01b038381166001600160a01b0319831681178455604051919092169283917f8be0079c531659141344cd1fd0a4f28419497f9722a3daafe3b4186f6b6457e09190a35050565b604080516001600160a01b038416602482015260448082018490528251808303909101815260649091019091526020810180516001600160e01b031663a9059cbb60e01b17905261040790849061040c565b505050565b6000610461826040518060400160405280602081526020017f5361666545524332303a206c6f772d6c6576656c2063616c6c206661696c6564815250856001600160a01b03166104de9092919063ffffffff16565b805190915015610407578080602001905181019061047f91906106cc565b6104075760405162461bcd60e51b815260206004820152602a60248201527f5361666545524332303a204552433230206f7065726174696f6e20646964206e6044820152691bdd081cdd58d8d9595960b21b60648201526084016102c4565b606061019c848460008585600080866001600160a01b031685876040516105059190610712565b60006040518083038185875af1925050503d8060008114610542576040519150601f19603f3d011682016040523d82523d6000602084013e610547565b606091505b509150915061055887838387610563565b979650505050505050565b606083156105d25782516000036105cb576001600160a01b0385163b6105cb5760405162461bcd60e51b815260206004820152601d60248201527f416464726573733a2063616c6c20746f206e6f6e2d636f6e747261637400000060448201526064016102c4565b508161019c565b61019c83838151156105e75781518083602001fd5b8060405162461bcd60e51b81526004016102c4919061072e565b6001600160a01b03811681146102d657600080fd5b6000806040838503121561062957600080fd5b823561063481610601565b946020939093013593505050565b60006020828403121561065457600080fd5b5035919050565b60006020828403121561066d57600080fd5b813561067881610601565b9392505050565b80820281158282048414176106a457634e487b7160e01b600052601160045260246000fd5b92915050565b6000826106c757634e487b7160e01b600052601260045260246000fd5b500490565b6000602082840312156106de57600080fd5b8151801515811461067857600080fd5b60005b838110156107095781810151838201526020016106f1565b50506000910152565b600082516107248184602087016106ee565b9190910192915050565b602081526000825180602084015261074d8160408501602087016106ee565b601f01601f1916919091016040019291505056fea2646970667358221220da9363466db0b7946efe0adf48ef873f04912df87ad820526cab87fe486f392564736f6c63430008110033",
  "devdoc": {
    "kind": "dev",
    "methods": {
      "deployTTSuite(address,string,bool)": {
        "details": "Emits: TokenTableSuiteDeployed.",
        "params": {
          "disableAutoUpgrade": "When set to false, a Clone instead of a BeaconProxy is created to prevent future upgradeability.",
          "projectId": "A unique projectId (otherwise will revert).",
          "projectToken": "The project token."
        }
      },
      "owner()": {
        "details": "Returns the address of the current owner."
      },
      "renounceOwnership()": {
        "details": "Leaves the contract without owner. It will not be possible to call `onlyOwner` functions anymore. Can only be called by the current owner. NOTE: Renouncing ownership will leave the contract without an owner, thereby removing any functionality that is only available to the owner."
      },
      "transferOwnership(address)": {
        "details": "Transfers ownership of the contract to a new account (`newOwner`). Can only be called by the current owner."
      }
    },
    "version": 1
  },
  "userdoc": {
    "kind": "user",
    "methods": {
      "deployTTSuite(address,string,bool)": {
        "notice": "Deploys and configures a new set of TokenTable products."
      }
    },
    "version": 1
  },
  "storageLayout": {
    "storage": [
      {
        "astId": 707,
        "contract": "contracts/proxy/TTUDeployer.sol:TTUDeployer",
        "label": "_owner",
        "offset": 0,
        "slot": "0",
        "type": "t_address"
      },
      {
        "astId": 4617,
        "contract": "contracts/proxy/TTUDeployer.sol:TTUDeployer",
        "label": "feeCollector",
        "offset": 0,
        "slot": "1",
        "type": "t_contract(TTUFeeCollector)2766"
      },
      {
        "astId": 4621,
        "contract": "contracts/proxy/TTUDeployer.sol:TTUDeployer",
        "label": "registry",
        "offset": 0,
        "slot": "2",
        "type": "t_mapping(t_string_memory_ptr,t_bool)"
      }
    ],
    "types": {
      "t_address": {
        "encoding": "inplace",
        "label": "address",
        "numberOfBytes": "20"
      },
      "t_bool": {
        "encoding": "inplace",
        "label": "bool",
        "numberOfBytes": "1"
      },
      "t_contract(TTUFeeCollector)2766": {
        "encoding": "inplace",
        "label": "contract TTUFeeCollector",
        "numberOfBytes": "20"
      },
      "t_mapping(t_string_memory_ptr,t_bool)": {
        "encoding": "mapping",
        "key": "t_string_memory_ptr",
        "label": "mapping(string => bool)",
        "numberOfBytes": "32",
        "value": "t_bool"
      },
      "t_string_memory_ptr": {
        "encoding": "bytes",
        "label": "string",
        "numberOfBytes": "32"
      }
    }
  }
}