{
  "address": "0x4e4af2a21ebf62850fD99Eb6253E1eFBb56098cD",
  "abi": [
    {
      "inputs": [],
      "stateMutability": "nonpayable",
      "type": "constructor"
    },
    {
      "inputs": [],
      "name": "ApprovalCallerNotOwnerNorApproved",
      "type": "error"
    },
    {
      "inputs": [],
      "name": "ApprovalQueryForNonexistentToken",
      "type": "error"
    },
    {
      "inputs": [],
      "name": "BalanceQueryForZeroAddress",
      "type": "error"
    },
    {
      "inputs": [],
      "name": "InvalidQueryRange",
      "type": "error"
    },
    {
      "inputs": [],
      "name": "MintERC2309QuantityExceedsLimit",
      "type": "error"
    },
    {
      "inputs": [],
      "name": "MintToZeroAddress",
      "type": "error"
    },
    {
      "inputs": [],
      "name": "MintZeroQuantity",
      "type": "error"
    },
    {
      "inputs": [],
      "name": "OwnerQueryForNonexistentToken",
      "type": "error"
    },
    {
      "inputs": [],
      "name": "OwnershipNotInitializedForExtraData",
      "type": "error"
    },
    {
      "inputs": [],
      "name": "TransferCallerNotOwnerNorApproved",
      "type": "error"
    },
    {
      "inputs": [],
      "name": "TransferFromIncorrectOwner",
      "type": "error"
    },
    {
      "inputs": [],
      "name": "TransferToNonERC721ReceiverImplementer",
      "type": "error"
    },
    {
      "inputs": [],
      "name": "TransferToZeroAddress",
      "type": "error"
    },
    {
      "inputs": [],
      "name": "URIQueryForNonexistentToken",
      "type": "error"
    },
    {
      "inputs": [],
      "name": "Unauthorized",
      "type": "error"
    },
    {
      "anonymous": false,
      "inputs": [
        {
          "indexed": true,
          "internalType": "address",
          "name": "owner",
          "type": "address"
        },
        {
          "indexed": true,
          "internalType": "address",
          "name": "approved",
          "type": "address"
        },
        {
          "indexed": true,
          "internalType": "uint256",
          "name": "tokenId",
          "type": "uint256"
        }
      ],
      "name": "Approval",
      "type": "event"
    },
    {
      "anonymous": false,
      "inputs": [
        {
          "indexed": true,
          "internalType": "address",
          "name": "owner",
          "type": "address"
        },
        {
          "indexed": true,
          "internalType": "address",
          "name": "operator",
          "type": "address"
        },
        {
          "indexed": false,
          "internalType": "bool",
          "name": "approved",
          "type": "bool"
        }
      ],
      "name": "ApprovalForAll",
      "type": "event"
    },
    {
      "anonymous": false,
      "inputs": [
        {
          "indexed": true,
          "internalType": "uint256",
          "name": "fromTokenId",
          "type": "uint256"
        },
        {
          "indexed": false,
          "internalType": "uint256",
          "name": "toTokenId",
          "type": "uint256"
        },
        {
          "indexed": true,
          "internalType": "address",
          "name": "from",
          "type": "address"
        },
        {
          "indexed": true,
          "internalType": "address",
          "name": "to",
          "type": "address"
        }
      ],
      "name": "ConsecutiveTransfer",
      "type": "event"
    },
    {
      "anonymous": false,
      "inputs": [
        {
          "indexed": false,
          "internalType": "string",
          "name": "prevURI",
          "type": "string"
        },
        {
          "indexed": false,
          "internalType": "string",
          "name": "newURI",
          "type": "string"
        }
      ],
      "name": "DidSetBaseURI",
      "type": "event"
    },
    {
      "anonymous": false,
      "inputs": [
        {
          "indexed": true,
          "internalType": "address",
          "name": "from",
          "type": "address"
        },
        {
          "indexed": true,
          "internalType": "address",
          "name": "to",
          "type": "address"
        },
        {
          "indexed": true,
          "internalType": "uint256",
          "name": "tokenId",
          "type": "uint256"
        }
      ],
      "name": "Transfer",
      "type": "event"
    },
    {
      "inputs": [],
      "name": "allowTransfer",
      "outputs": [
        {
          "internalType": "bool",
          "name": "",
          "type": "bool"
        }
      ],
      "stateMutability": "view",
      "type": "function"
    },
    {
      "inputs": [
        {
          "internalType": "address",
          "name": "to",
          "type": "address"
        },
        {
          "internalType": "uint256",
          "name": "tokenId",
          "type": "uint256"
        }
      ],
      "name": "approve",
      "outputs": [],
      "stateMutability": "payable",
      "type": "function"
    },
    {
      "inputs": [],
      "name": "authorizedMinter",
      "outputs": [
        {
          "internalType": "address",
          "name": "",
          "type": "address"
        }
      ],
      "stateMutability": "view",
      "type": "function"
    },
    {
      "inputs": [
        {
          "internalType": "address",
          "name": "owner",
          "type": "address"
        }
      ],
      "name": "balanceOf",
      "outputs": [
        {
          "internalType": "uint256",
          "name": "",
          "type": "uint256"
        }
      ],
      "stateMutability": "view",
      "type": "function"
    },
    {
      "inputs": [],
      "name": "baseUri",
      "outputs": [
        {
          "internalType": "string",
          "name": "",
          "type": "string"
        }
      ],
      "stateMutability": "view",
      "type": "function"
    },
    {
      "inputs": [
        {
          "internalType": "uint256",
          "name": "tokenId",
          "type": "uint256"
        }
      ],
      "name": "explicitOwnershipOf",
      "outputs": [
        {
          "components": [
            {
              "internalType": "address",
              "name": "addr",
              "type": "address"
            },
            {
              "internalType": "uint64",
              "name": "startTimestamp",
              "type": "uint64"
            },
            {
              "internalType": "bool",
              "name": "burned",
              "type": "bool"
            },
            {
              "internalType": "uint24",
              "name": "extraData",
              "type": "uint24"
            }
          ],
          "internalType": "struct IERC721AUpgradeable.TokenOwnership",
          "name": "",
          "type": "tuple"
        }
      ],
      "stateMutability": "view",
      "type": "function"
    },
    {
      "inputs": [
        {
          "internalType": "uint256[]",
          "name": "tokenIds",
          "type": "uint256[]"
        }
      ],
      "name": "explicitOwnershipsOf",
      "outputs": [
        {
          "components": [
            {
              "internalType": "address",
              "name": "addr",
              "type": "address"
            },
            {
              "internalType": "uint64",
              "name": "startTimestamp",
              "type": "uint64"
            },
            {
              "internalType": "bool",
              "name": "burned",
              "type": "bool"
            },
            {
              "internalType": "uint24",
              "name": "extraData",
              "type": "uint24"
            }
          ],
          "internalType": "struct IERC721AUpgradeable.TokenOwnership[]",
          "name": "",
          "type": "tuple[]"
        }
      ],
      "stateMutability": "view",
      "type": "function"
    },
    {
      "inputs": [
        {
          "internalType": "uint256",
          "name": "tokenId",
          "type": "uint256"
        }
      ],
      "name": "getApproved",
      "outputs": [
        {
          "internalType": "address",
          "name": "",
          "type": "address"
        }
      ],
      "stateMutability": "view",
      "type": "function"
    },
    {
      "inputs": [
        {
          "internalType": "uint256",
          "name": "tokenId",
          "type": "uint256"
        }
      ],
      "name": "getClaimInfo",
      "outputs": [
        {
          "internalType": "uint256",
          "name": "deltaAmountClaimable",
          "type": "uint256"
        },
        {
          "internalType": "uint256",
          "name": "amountAlreadyClaimed",
          "type": "uint256"
        },
        {
          "internalType": "bool",
          "name": "isCancelable",
          "type": "bool"
        }
      ],
      "stateMutability": "view",
      "type": "function"
    },
    {
      "inputs": [
        {
          "internalType": "address",
          "name": "projectToken",
          "type": "address"
        },
        {
          "internalType": "bool",
          "name": "allowTransfer_",
          "type": "bool"
        }
      ],
      "name": "initialize",
      "outputs": [],
      "stateMutability": "nonpayable",
      "type": "function"
    },
    {
      "inputs": [
        {
          "internalType": "address",
          "name": "owner",
          "type": "address"
        },
        {
          "internalType": "address",
          "name": "operator",
          "type": "address"
        }
      ],
      "name": "isApprovedForAll",
      "outputs": [
        {
          "internalType": "bool",
          "name": "",
          "type": "bool"
        }
      ],
      "stateMutability": "view",
      "type": "function"
    },
    {
      "inputs": [],
      "name": "name",
      "outputs": [
        {
          "internalType": "string",
          "name": "",
          "type": "string"
        }
      ],
      "stateMutability": "view",
      "type": "function"
    },
    {
      "inputs": [
        {
          "internalType": "uint256",
          "name": "tokenId",
          "type": "uint256"
        }
      ],
      "name": "ownerOf",
      "outputs": [
        {
          "internalType": "address",
          "name": "",
          "type": "address"
        }
      ],
      "stateMutability": "view",
      "type": "function"
    },
    {
      "inputs": [
        {
          "internalType": "address",
          "name": "to",
          "type": "address"
        }
      ],
      "name": "safeMint",
      "outputs": [
        {
          "internalType": "uint256",
          "name": "tokenId",
          "type": "uint256"
        }
      ],
      "stateMutability": "nonpayable",
      "type": "function"
    },
    {
      "inputs": [
        {
          "internalType": "address",
          "name": "from",
          "type": "address"
        },
        {
          "internalType": "address",
          "name": "to",
          "type": "address"
        },
        {
          "internalType": "uint256",
          "name": "tokenId",
          "type": "uint256"
        }
      ],
      "name": "safeTransferFrom",
      "outputs": [],
      "stateMutability": "payable",
      "type": "function"
    },
    {
      "inputs": [
        {
          "internalType": "address",
          "name": "from",
          "type": "address"
        },
        {
          "internalType": "address",
          "name": "to",
          "type": "address"
        },
        {
          "internalType": "uint256",
          "name": "tokenId",
          "type": "uint256"
        },
        {
          "internalType": "bytes",
          "name": "_data",
          "type": "bytes"
        }
      ],
      "name": "safeTransferFrom",
      "outputs": [],
      "stateMutability": "payable",
      "type": "function"
    },
    {
      "inputs": [
        {
          "internalType": "address",
          "name": "operator",
          "type": "address"
        },
        {
          "internalType": "bool",
          "name": "approved",
          "type": "bool"
        }
      ],
      "name": "setApprovalForAll",
      "outputs": [],
      "stateMutability": "nonpayable",
      "type": "function"
    },
    {
      "inputs": [
        {
          "internalType": "address",
          "name": "authorizedMinter_",
          "type": "address"
        }
      ],
      "name": "setAuthorizedMinterSingleUse",
      "outputs": [],
      "stateMutability": "nonpayable",
      "type": "function"
    },
    {
      "inputs": [
        {
          "internalType": "string",
          "name": "uri",
          "type": "string"
        }
      ],
      "name": "setURI",
      "outputs": [],
      "stateMutability": "nonpayable",
      "type": "function"
    },
    {
      "inputs": [
        {
          "internalType": "bytes4",
          "name": "interfaceId",
          "type": "bytes4"
        }
      ],
      "name": "supportsInterface",
      "outputs": [
        {
          "internalType": "bool",
          "name": "",
          "type": "bool"
        }
      ],
      "stateMutability": "view",
      "type": "function"
    },
    {
      "inputs": [],
      "name": "symbol",
      "outputs": [
        {
          "internalType": "string",
          "name": "",
          "type": "string"
        }
      ],
      "stateMutability": "view",
      "type": "function"
    },
    {
      "inputs": [
        {
          "internalType": "uint256",
          "name": "tokenId",
          "type": "uint256"
        }
      ],
      "name": "tokenURI",
      "outputs": [
        {
          "internalType": "string",
          "name": "",
          "type": "string"
        }
      ],
      "stateMutability": "view",
      "type": "function"
    },
    {
      "inputs": [
        {
          "internalType": "address",
          "name": "owner",
          "type": "address"
        }
      ],
      "name": "tokensOfOwner",
      "outputs": [
        {
          "internalType": "uint256[]",
          "name": "",
          "type": "uint256[]"
        }
      ],
      "stateMutability": "view",
      "type": "function"
    },
    {
      "inputs": [
        {
          "internalType": "address",
          "name": "owner",
          "type": "address"
        },
        {
          "internalType": "uint256",
          "name": "start",
          "type": "uint256"
        },
        {
          "internalType": "uint256",
          "name": "stop",
          "type": "uint256"
        }
      ],
      "name": "tokensOfOwnerIn",
      "outputs": [
        {
          "internalType": "uint256[]",
          "name": "",
          "type": "uint256[]"
        }
      ],
      "stateMutability": "view",
      "type": "function"
    },
    {
      "inputs": [],
      "name": "totalSupply",
      "outputs": [
        {
          "internalType": "uint256",
          "name": "",
          "type": "uint256"
        }
      ],
      "stateMutability": "view",
      "type": "function"
    },
    {
      "inputs": [
        {
          "internalType": "address",
          "name": "from",
          "type": "address"
        },
        {
          "internalType": "address",
          "name": "to",
          "type": "address"
        },
        {
          "internalType": "uint256",
          "name": "tokenId",
          "type": "uint256"
        }
      ],
      "name": "transferFrom",
      "outputs": [],
      "stateMutability": "payable",
      "type": "function"
    },
    {
      "inputs": [],
      "name": "version",
      "outputs": [
        {
          "internalType": "string",
          "name": "",
          "type": "string"
        }
      ],
      "stateMutability": "pure",
      "type": "function"
    }
  ],
  "transactionHash": "0x6e6fafadbe7d8ebe0be3f545663cacaf3ae999eb4b13ac43ea260c48aecb26c6",
  "args": [],
  "numDeployments": 1,
  "solcInputHash": "8915dfa3afcef5825d01c7aea572878e",
  "bytecode": "0x60806040523480156200001157600080fd5b506200001c62000022565b620001be565b620000376200019a60201b6200122e1760201c565b54610100900460ff1662000065576200005a6200019a60201b6200122e1760201c565b5460ff161562000069565b303b155b620000e05760405162461bcd60e51b815260206004820152603760248201527f455243373231415f5f496e697469616c697a61626c653a20636f6e747261637460448201527f20697320616c726561647920696e697469616c697a6564000000000000000000606482015260840160405180910390fd5b6000620000f76200019a60201b6200122e1760201c565b54610100900460ff16159050801562000162576001620001216200019a60201b6200122e1760201c565b60000160016101000a81548160ff0219169083151502179055506001620001526200019a60201b6200122e1760201c565b805460ff19169115159190911790555b801562000197576000620001806200019a60201b6200122e1760201c565b80549115156101000261ff00199092169190911790555b50565b7fee151c8401928dc223602bb187aff91b9a56c7cae5476ef1b3287b085a16c85f90565b61249980620001ce6000396000f3fe60806040526004361061019c5760003560e01c80635bbb2177116100ec5780639b08a22f1161008a578063c23dc68f11610064578063c23dc68f14610494578063c87b56dd146104c1578063d2070193146104e1578063e985e9c51461051e57600080fd5b80639b08a22f14610440578063a22cb46514610461578063b88d4fde1461048157600080fd5b80638462151c116100c65780638462151c146103c957806395d89b41146103f657806399a2557a1461040b5780639abc83201461042b57600080fd5b80635bbb21771461035c5780636352211e1461038957806370a08231146103a957600080fd5b80631ba538cd1161015957806340d097c31161013357806340d097c3146102db57806342842e0e146102fb57806354fd4d501461030e578063558a47f81461033c57600080fd5b80631ba538cd1461028857806323b872dd146102a8578063400ada75146102bb57600080fd5b806301ffc9a7146101a157806302fe5305146101d657806306fdde03146101f8578063081812fc1461021a578063095ea7b31461025257806318160ddd14610265575b600080fd5b3480156101ad57600080fd5b506101c16101bc366004611b23565b61053e565b60405190151581526020015b60405180910390f35b3480156101e257600080fd5b506101f66101f1366004611b40565b610590565b005b34801561020457600080fd5b5061020d610683565b6040516101cd9190611c01565b34801561022657600080fd5b5061023a610235366004611c14565b61071e565b6040516001600160a01b0390911681526020016101cd565b6101f6610260366004611c42565b61076b565b34801561027157600080fd5b5061027a61077b565b6040519081526020016101cd565b34801561029457600080fd5b5060005461023a906001600160a01b031681565b6101f66102b6366004611c6e565b61079a565b3480156102c757600080fd5b506101f66102d6366004611cbd565b6107ce565b3480156102e757600080fd5b5061027a6102f6366004611cf6565b610a1a565b6101f6610309366004611c6e565b610a68565b34801561031a57600080fd5b50604080518082019091526005815264322e302e3160d81b602082015261020d565b34801561034857600080fd5b506101f6610357366004611cf6565b610a83565b34801561036857600080fd5b5061037c610377366004611d13565b610ace565b6040516101cd9190611db1565b34801561039557600080fd5b5061023a6103a4366004611c14565b610b99565b3480156103b557600080fd5b5061027a6103c4366004611cf6565b610ba4565b3480156103d557600080fd5b506103e96103e4366004611cf6565b610c0c565b6040516101cd9190611df3565b34801561040257600080fd5b5061020d610d14565b34801561041757600080fd5b506103e9610426366004611e2b565b610d2c565b34801561043757600080fd5b5061020d610ea4565b34801561044c57600080fd5b506000546101c190600160a01b900460ff1681565b34801561046d57600080fd5b506101f661047c366004611cbd565b610f32565b6101f661048f366004611ecd565b610faf565b3480156104a057600080fd5b506104b46104af366004611c14565b610fea565b6040516101cd9190611f7b565b3480156104cd57600080fd5b5061020d6104dc366004611c14565b611066565b3480156104ed57600080fd5b506105016104fc366004611c14565b6110e9565b6040805193845260208401929092521515908201526060016101cd565b34801561052a57600080fd5b506101c1610539366004611f89565b6111f1565b60006301ffc9a760e01b6001600160e01b03198316148061056f57506380ac58cd60e01b6001600160e01b03198316145b8061058a5750635b5e139f60e01b6001600160e01b03198316145b92915050565b60008054906101000a90046001600160a01b03166001600160a01b0316638da5cb5b6040518163ffffffff1660e01b8152600401602060405180830381865afa1580156105e1573d6000803e3d6000fd5b505050506040513d601f19601f820116820180604052508101906106059190611fb7565b6001600160a01b0316336001600160a01b031614610635576040516282b42960e81b815260040160405180910390fd5b7f2d10989014421a1340a8af4dc4de8d8581433a5cf59a2399aaef8a9450c1f6ef6001838360405161066993929190612037565b60405180910390a1600161067e82848361211e565b505050565b606061068d611252565b600201805461069b90611fd4565b80601f01602080910402602001604051908101604052809291908181526020018280546106c790611fd4565b80156107145780601f106106e957610100808354040283529160200191610714565b820191906000526020600020905b8154815290600101906020018083116106f757829003601f168201915b5050505050905090565b600061072982611276565b610746576040516333d1c03960e21b815260040160405180910390fd5b61074e611252565b60009283526006016020525060409020546001600160a01b031690565b610777828260016112b2565b5050565b600080610786611252565b60010154610792611252565b540303919050565b600054600160a01b900460ff166107c3576040516282b42960e81b815260040160405180910390fd5b61067e838383611367565b6107d661122e565b54610100900460ff166107f5576107eb61122e565b5460ff16156107f9565b303b155b6108705760405162461bcd60e51b815260206004820152603760248201527f455243373231415f5f496e697469616c697a61626c653a20636f6e747261637460448201527f20697320616c726561647920696e697469616c697a656400000000000000000060648201526084015b60405180910390fd5b600061087a61122e565b54610100900460ff1615905080156108c657600161089661122e565b80549115156101000261ff001990921691909117905560016108b661122e565b805460ff19169115159190911790555b6109d8836001600160a01b03166306fdde036040518163ffffffff1660e01b8152600401600060405180830381865afa158015610907573d6000803e3d6000fd5b505050506040513d6000823e601f3d908101601f1916820160405261092f91908101906121dd565b60405160200161093f9190612253565b604051602081830303815290604052846001600160a01b03166395d89b416040518163ffffffff1660e01b8152600401600060405180830381865afa15801561098c573d6000803e3d6000fd5b505050506040513d6000823e601f3d908101601f191682016040526109b491908101906121dd565b6040516020016109c49190612282565b60405160208183030381529060405261155e565b6000805460ff60a01b1916600160a01b84151502179055801561067e5760006109ff61122e565b80549115156101000261ff0019909216919091179055505050565b600080546001600160a01b0316336001600160a01b031614610a4e576040516282b42960e81b815260040160405180910390fd5b610a56611617565b9050610a63826001611627565b919050565b61067e83838360405180602001604052806000815250610faf565b6000546001600160a01b031615610aac576040516282b42960e81b815260040160405180910390fd5b600080546001600160a01b0319166001600160a01b0392909216919091179055565b6060816000816001600160401b03811115610aeb57610aeb611e60565b604051908082528060200260200182016040528015610b3d57816020015b604080516080810182526000808252602080830182905292820181905260608201528252600019909201910181610b095790505b50905060005b828114610b9057610b6b868683818110610b5f57610b5f6122ad565b90506020020135610fea565b828281518110610b7d57610b7d6122ad565b6020908102919091010152600101610b43565b50949350505050565b600061058a82611641565b60006001600160a01b038216610bcd576040516323d3ad8160e21b815260040160405180910390fd5b6001600160401b03610bdd611252565b6005016000846001600160a01b03166001600160a01b0316815260200190815260200160002054169050919050565b60606000806000610c1c85610ba4565b90506000816001600160401b03811115610c3857610c38611e60565b604051908082528060200260200182016040528015610c61578160200160208202803683370190505b509050610c8e60408051608081018252600080825260208201819052918101829052606081019190915290565b60005b838614610d0857610ca1816116e5565b91508160400151610d005781516001600160a01b031615610cc157815194505b876001600160a01b0316856001600160a01b031603610d005780838780600101985081518110610cf357610cf36122ad565b6020026020010181815250505b600101610c91565b50909695505050505050565b6060610d1e611252565b600301805461069b90611fd4565b6060818310610d4e57604051631960ccad60e11b815260040160405180910390fd5b600080610d59611617565b905080841115610d67578093505b6000610d7287610ba4565b905084861015610d915785850381811015610d8b578091505b50610d95565b5060005b6000816001600160401b03811115610daf57610daf611e60565b604051908082528060200260200182016040528015610dd8578160200160208202803683370190505b50905081600003610dee579350610e9d92505050565b6000610df988610fea565b905060008160400151610e0a575080515b885b888114158015610e1c5750848714155b15610e9157610e2a816116e5565b92508260400151610e895782516001600160a01b031615610e4a57825191505b8a6001600160a01b0316826001600160a01b031603610e895780848880600101995081518110610e7c57610e7c6122ad565b6020026020010181815250505b600101610e0c565b50505092835250909150505b9392505050565b60018054610eb190611fd4565b80601f0160208091040260200160405190810160405280929190818152602001828054610edd90611fd4565b8015610f2a5780601f10610eff57610100808354040283529160200191610f2a565b820191906000526020600020905b815481529060010190602001808311610f0d57829003601f168201915b505050505081565b80610f3b611252565b336000818152600792909201602090815260408084206001600160a01b03881680865290835293819020805460ff19169515159590951790945592518415158152919290917f17307eab39ab6107e8899845ad3d59bd9653f200f220920489ca2b5937696c31910160405180910390a35050565b600054600160a01b900460ff16610fd8576040516282b42960e81b815260040160405180910390fd5b610fe48484848461172c565b50505050565b6040805160808082018352600080835260208084018290528385018290526060808501839052855193840186528284529083018290529382018190529281019290925290611036611617565b83106110425792915050565b61104b836116e5565b905080604001511561105d5792915050565b610e9d83611770565b606061107182611276565b61108e57604051630a14c4b560e41b815260040160405180910390fd5b60006110986117a5565b905080516000036110b85760405180602001604052806000815250610e9d565b806110c2846117b4565b6040516020016110d39291906122c3565b6040516020818303038152906040529392505050565b600080546040516342734d4560e01b81526004810184905282918291829182916001600160a01b03909116906342734d45906024016040805180830381865afa15801561113a573d6000803e3d6000fd5b505050506040513d601f19601f8201168201806040525081019061115e91906122f2565b90955085925090506111708282612316565b935060008054906101000a90046001600160a01b03166001600160a01b0316631bffb4916040518163ffffffff1660e01b8152600401602060405180830381865afa1580156111c3573d6000803e3d6000fd5b505050506040513d601f19601f820116820180604052508101906111e79190612337565b9496939550505050565b60006111fb611252565b6001600160a01b039384166000908152600791909101602090815260408083209490951682529290925250205460ff1690565b7fee151c8401928dc223602bb187aff91b9a56c7cae5476ef1b3287b085a16c85f90565b7f2569078dfb4b0305704d3008e7403993ae9601b85f7ae5e742de3de8f8011c4090565b6000611280611252565b548210801561058a5750600160e01b611297611252565b60008481526004919091016020526040902054161592915050565b60006112bd83610b99565b905081156112fc57336001600160a01b038216146112fc576112df81336111f1565b6112fc576040516367d9dca160e11b815260040160405180910390fd5b83611305611252565b6000858152600691909101602052604080822080546001600160a01b0319166001600160a01b0394851617905551859287811692908516917f8c5be1e5ebec7d5bd14f71427d1e84f3dd0314c0f7b2291e5b200ac8c7c3b9259190a450505050565b600061137282611641565b9050836001600160a01b0316816001600160a01b0316146113a55760405162a1148160e81b815260040160405180910390fd5b6000806113b1846117f8565b915091506113d681876113c13390565b6001600160a01b039081169116811491141790565b611401576113e486336111f1565b61140157604051632ce44b5f60e11b815260040160405180910390fd5b6001600160a01b03851661142857604051633a954ecd60e21b815260040160405180910390fd5b801561143357600082555b61143b611252565b6001600160a01b0387166000908152600591909101602052604090208054600019019055611467611252565b6001600160a01b03861660008181526005929092016020526040909120805460010190554260a01b17600160e11b1761149e611252565b60008681526004919091016020526040812091909155600160e11b8416900361151457600184016114cd611252565b600082815260049190910160205260408120549003611512576114ee611252565b54811461151257836114fe611252565b600083815260049190910160205260409020555b505b83856001600160a01b0316876001600160a01b03167fddf252ad1be2c89b69c2b068fc378daa952ba7f163c4a11628f55a4df523b3ef60405160405180910390a45b505050505050565b61156661122e565b54610100900460ff166115d85760405162461bcd60e51b815260206004820152603460248201527f455243373231415f5f496e697469616c697a61626c653a20636f6e7472616374604482015273206973206e6f7420696e697469616c697a696e6760601b6064820152608401610867565b816115e1611252565b600201906115ef9082612354565b50806115f9611252565b600301906116079082612354565b506000611612611252565b555050565b6000611621611252565b54919050565b610777828260405180602001604052806000815250611820565b600061164b611252565b600083815260049190910160205260408120549150600160e01b821690036116cc5780600003610a635761167d611252565b54821061169d57604051636f96cda160e11b815260040160405180910390fd5b6116a5611252565b60001990920160008181526004939093016020526040909220549050801561169d57919050565b604051636f96cda160e11b815260040160405180910390fd5b60408051608081018252600080825260208201819052918101829052606081019190915261058a611714611252565b6000848152600491909101602052604090205461189d565b61173784848461079a565b6001600160a01b0383163b15610fe457611753848484846118e4565b610fe4576040516368d2bf6b60e11b815260040160405180910390fd5b60408051608081018252600080825260208201819052918101829052606081019190915261058a6117a083611641565b61189d565b60606001805461069b90611fd4565b606060a06040510180604052602081039150506000815280825b600183039250600a81066030018353600a9004806117ce5750819003601f19909101908152919050565b6000806000611805611252565b60009485526006016020525050604090912080549092909150565b61182a83836119cf565b6001600160a01b0383163b1561067e576000611844611252565b5490508281035b61185e60008683806001019450866118e4565b61187b576040516368d2bf6b60e11b815260040160405180910390fd5b81811061184b578161188b611252565b541461189657600080fd5b5050505050565b604080516080810182526001600160a01b038316815260a083901c6001600160401b03166020820152600160e01b831615159181019190915260e89190911c606082015290565b604051630a85bd0160e11b81526000906001600160a01b0385169063150b7a0290611919903390899088908890600401612413565b6020604051808303816000875af1925050508015611954575060408051601f3d908101601f1916820190925261195191810190612446565b60015b6119b2573d808015611982576040519150601f19603f3d011682016040523d82523d6000602084013e611987565b606091505b5080516000036119aa576040516368d2bf6b60e11b815260040160405180910390fd5b805181602001fd5b6001600160e01b031916630a85bd0160e11b149050949350505050565b60006119d9611252565b54905060008290036119fe5760405163b562e8dd60e01b815260040160405180910390fd5b680100000000000000018202611a12611252565b6001600160a01b038516600081815260059290920160205260409091208054929092019091554260a01b6001841460e11b1717611a4d611252565b600083815260049190910160205260408120919091556001600160a01b0384169083830190839083907fddf252ad1be2c89b69c2b068fc378daa952ba7f163c4a11628f55a4df523b3ef8180a4600183015b818114611ad757808360007fddf252ad1be2c89b69c2b068fc378daa952ba7f163c4a11628f55a4df523b3ef600080a4600101611a9f565b5081600003611af857604051622e076360e81b815260040160405180910390fd5b80611b01611252565b555061067e9050565b6001600160e01b031981168114611b2057600080fd5b50565b600060208284031215611b3557600080fd5b8135610e9d81611b0a565b60008060208385031215611b5357600080fd5b82356001600160401b0380821115611b6a57600080fd5b818501915085601f830112611b7e57600080fd5b813581811115611b8d57600080fd5b866020828501011115611b9f57600080fd5b60209290920196919550909350505050565b60005b83811015611bcc578181015183820152602001611bb4565b50506000910152565b60008151808452611bed816020860160208601611bb1565b601f01601f19169290920160200192915050565b602081526000610e9d6020830184611bd5565b600060208284031215611c2657600080fd5b5035919050565b6001600160a01b0381168114611b2057600080fd5b60008060408385031215611c5557600080fd5b8235611c6081611c2d565b946020939093013593505050565b600080600060608486031215611c8357600080fd5b8335611c8e81611c2d565b92506020840135611c9e81611c2d565b929592945050506040919091013590565b8015158114611b2057600080fd5b60008060408385031215611cd057600080fd5b8235611cdb81611c2d565b91506020830135611ceb81611caf565b809150509250929050565b600060208284031215611d0857600080fd5b8135610e9d81611c2d565b60008060208385031215611d2657600080fd5b82356001600160401b0380821115611d3d57600080fd5b818501915085601f830112611d5157600080fd5b813581811115611d6057600080fd5b8660208260051b8501011115611b9f57600080fd5b80516001600160a01b031682526020808201516001600160401b03169083015260408082015115159083015260609081015162ffffff16910152565b6020808252825182820181905260009190848201906040850190845b81811015610d0857611de0838551611d75565b9284019260809290920191600101611dcd565b6020808252825182820181905260009190848201906040850190845b81811015610d0857835183529284019291840191600101611e0f565b600080600060608486031215611e4057600080fd5b8335611e4b81611c2d565b95602085013595506040909401359392505050565b634e487b7160e01b600052604160045260246000fd5b604051601f8201601f191681016001600160401b0381118282101715611e9e57611e9e611e60565b604052919050565b60006001600160401b03821115611ebf57611ebf611e60565b50601f01601f191660200190565b60008060008060808587031215611ee357600080fd5b8435611eee81611c2d565b93506020850135611efe81611c2d565b92506040850135915060608501356001600160401b03811115611f2057600080fd5b8501601f81018713611f3157600080fd5b8035611f44611f3f82611ea6565b611e76565b818152886020838501011115611f5957600080fd5b8160208401602083013760006020838301015280935050505092959194509250565b6080810161058a8284611d75565b60008060408385031215611f9c57600080fd5b8235611fa781611c2d565b91506020830135611ceb81611c2d565b600060208284031215611fc957600080fd5b8151610e9d81611c2d565b600181811c90821680611fe857607f821691505b60208210810361200857634e487b7160e01b600052602260045260246000fd5b50919050565b81835281816020850137506000828201602090810191909152601f909101601f19169091010190565b60408152600080855461204981611fd4565b806040860152606060018084166000811461206b5760018114612085576120b6565b60ff1985168884015283151560051b8801830195506120b6565b8a60005260208060002060005b868110156120ad5781548b8201870152908401908201612092565b8a018501975050505b505050505082810360208401526120ce81858761200e565b9695505050505050565b601f82111561067e57600081815260208120601f850160051c810160208610156120ff5750805b601f850160051c820191505b818110156115565782815560010161210b565b6001600160401b0383111561213557612135611e60565b612149836121438354611fd4565b836120d8565b6000601f84116001811461217d57600085156121655750838201355b600019600387901b1c1916600186901b178355611896565b600083815260209020601f19861690835b828110156121ae578685013582556020948501946001909201910161218e565b50868210156121cb5760001960f88860031b161c19848701351681555b505060018560011b0183555050505050565b6000602082840312156121ef57600080fd5b81516001600160401b0381111561220557600080fd5b8201601f8101841361221657600080fd5b8051612224611f3f82611ea6565b81815285602083850101111561223957600080fd5b61224a826020830160208601611bb1565b95945050505050565b660233aba3ab932960cd1b815260008251612275816007850160208701611bb1565b9190910160070192915050565b6246542d60e81b8152600082516122a0816003850160208701611bb1565b9190910160030192915050565b634e487b7160e01b600052603260045260246000fd5b600083516122d5818460208801611bb1565b8351908301906122e9818360208801611bb1565b01949350505050565b6000806040838503121561230557600080fd5b505080516020909101519092909150565b8181038181111561058a57634e487b7160e01b600052601160045260246000fd5b60006020828403121561234957600080fd5b8151610e9d81611caf565b81516001600160401b0381111561236d5761236d611e60565b6123818161237b8454611fd4565b846120d8565b602080601f8311600181146123b6576000841561239e5750858301515b600019600386901b1c1916600185901b178555611556565b600085815260208120601f198616915b828110156123e5578886015182559484019460019091019084016123c6565b50858210156124035787850151600019600388901b60f8161c191681555b5050505050600190811b01905550565b6001600160a01b03858116825284166020820152604081018390526080606082018190526000906120ce90830184611bd5565b60006020828403121561245857600080fd5b8151610e9d81611b0a56fea264697066735822122081ed3df9debd9bf85ae2ffcdde1768e4023edcc8dae3fc03852c2752fa8534b164736f6c63430008110033",
  "devdoc": {
    "author": "Jack Xu @ EthSign",
    "details": "This is a redemption NFT minted to the stakeholder whenever an actual unlocking schedule is created by a founder. The holder of a future token can use it to claim unlocked tokens. A single instance of future token corresponds to a single instance of unlocker. This token is transferrable. The ID of this NFT is the ID of the actual unlocking schedule. The current claimable amount can be determined by calling TokenTableUnlockerV2.calculateAmountClaimable(uint256 actualId)",
    "kind": "dev",
    "methods": {
      "approve(address,uint256)": {
        "details": "Gives permission to `to` to transfer `tokenId` token to another account. See {ERC721A-_approve}. Requirements: - The caller must own the token or be an approved operator."
      },
      "balanceOf(address)": {
        "details": "Returns the number of tokens in `owner`'s account."
      },
      "explicitOwnershipOf(uint256)": {
        "details": "Returns the `TokenOwnership` struct at `tokenId` without reverting. If the `tokenId` is out of bounds: - `addr = address(0)` - `startTimestamp = 0` - `burned = false` - `extraData = 0` If the `tokenId` is burned: - `addr = <Address of owner before token was burned>` - `startTimestamp = <Timestamp when token was burned>` - `burned = true` - `extraData = <Extra data when token was burned>` Otherwise: - `addr = <Address of owner>` - `startTimestamp = <Timestamp of start of ownership>` - `burned = false` - `extraData = <Extra data at start of ownership>`"
      },
      "explicitOwnershipsOf(uint256[])": {
        "details": "Returns an array of `TokenOwnership` structs at `tokenIds` in order. See {ERC721AQueryable-explicitOwnershipOf}"
      },
      "getApproved(uint256)": {
        "details": "Returns the account approved for `tokenId` token. Requirements: - `tokenId` must exist."
      },
      "getClaimInfo(uint256)": {
        "details": "We assume the authorized minter is an instance of TTUV2.",
        "params": {
          "tokenId": "The actual ID created in TTUV2."
        },
        "returns": {
          "amountAlreadyClaimed": "The amount of tokens claimed as of now.",
          "deltaAmountClaimable": "The amount of tokens claimable as of now."
        }
      },
      "isApprovedForAll(address,address)": {
        "details": "Returns if the `operator` is allowed to manage all of the assets of `owner`. See {setApprovalForAll}."
      },
      "name()": {
        "details": "Returns the token collection name."
      },
      "ownerOf(uint256)": {
        "details": "Returns the owner of the `tokenId` token. Requirements: - `tokenId` must exist."
      },
      "safeMint(address)": {
        "details": "This function can only be called by the authorized minter. A future token with tokenId == actualId is minted."
      },
      "safeTransferFrom(address,address,uint256)": {
        "details": "Equivalent to `safeTransferFrom(from, to, tokenId, '')`."
      },
      "safeTransferFrom(address,address,uint256,bytes)": {
        "details": "Add a transfer lock"
      },
      "setApprovalForAll(address,bool)": {
        "details": "Approve or remove `operator` as an operator for the caller. Operators can call {transferFrom} or {safeTransferFrom} for any token owned by the caller. Requirements: - The `operator` cannot be the caller. Emits an {ApprovalForAll} event."
      },
      "setAuthorizedMinterSingleUse(address)": {
        "details": "This function can only be called once. It is called automatically when deployed using TTUDeployer. The authorized minter is usually the unlocker contract."
      },
      "supportsInterface(bytes4)": {
        "details": "Returns true if this contract implements the interface defined by `interfaceId`. See the corresponding [EIP section](https://eips.ethereum.org/EIPS/eip-165#how-interfaces-are-identified) to learn more about how these ids are created. This function call must use less than 30000 gas."
      },
      "symbol()": {
        "details": "Returns the token collection symbol."
      },
      "tokenURI(uint256)": {
        "details": "Returns the Uniform Resource Identifier (URI) for `tokenId` token."
      },
      "tokensOfOwner(address)": {
        "details": "Returns an array of token IDs owned by `owner`. This function scans the ownership mapping and is O(`totalSupply`) in complexity. It is meant to be called off-chain. See {ERC721AQueryable-tokensOfOwnerIn} for splitting the scan into multiple smaller scans if the collection is large enough to cause an out-of-gas error (10K collections should be fine)."
      },
      "tokensOfOwnerIn(address,uint256,uint256)": {
        "details": "Returns an array of token IDs owned by `owner`, in the range [`start`, `stop`) (i.e. `start <= tokenId < stop`). This function allows for tokens to be queried if the collection grows too big for a single call of {ERC721AQueryable-tokensOfOwner}. Requirements: - `start < stop`"
      },
      "totalSupply()": {
        "details": "Returns the total number of tokens in existence. Burned tokens will reduce the count. To get the total number of tokens minted, please see {_totalMinted}."
      },
      "transferFrom(address,address,uint256)": {
        "details": "Add a transfer lock"
      }
    },
    "title": "TTFutureTokenV2",
    "version": 1
  },
  "userdoc": {
    "errors": {
      "ApprovalCallerNotOwnerNorApproved()": [
        {
          "notice": "The caller must own the token or be an approved operator."
        }
      ],
      "ApprovalQueryForNonexistentToken()": [
        {
          "notice": "The token does not exist."
        }
      ],
      "BalanceQueryForZeroAddress()": [
        {
          "notice": "Cannot query the balance for the zero address."
        }
      ],
      "InvalidQueryRange()": [
        {
          "notice": "Invalid query range (`start` >= `stop`)."
        }
      ],
      "MintERC2309QuantityExceedsLimit()": [
        {
          "notice": "The `quantity` minted with ERC2309 exceeds the safety limit."
        }
      ],
      "MintToZeroAddress()": [
        {
          "notice": "Cannot mint to the zero address."
        }
      ],
      "MintZeroQuantity()": [
        {
          "notice": "The quantity of tokens minted must be more than zero."
        }
      ],
      "OwnerQueryForNonexistentToken()": [
        {
          "notice": "The token does not exist."
        }
      ],
      "OwnershipNotInitializedForExtraData()": [
        {
          "notice": "The `extraData` cannot be set on an unintialized ownership slot."
        }
      ],
      "TransferCallerNotOwnerNorApproved()": [
        {
          "notice": "The caller must own the token or be an approved operator."
        }
      ],
      "TransferFromIncorrectOwner()": [
        {
          "notice": "The token must be owned by `from`."
        }
      ],
      "TransferToNonERC721ReceiverImplementer()": [
        {
          "notice": "Cannot safely transfer to a contract that does not implement the ERC721Receiver interface."
        }
      ],
      "TransferToZeroAddress()": [
        {
          "notice": "Cannot transfer to the zero address."
        }
      ],
      "URIQueryForNonexistentToken()": [
        {
          "notice": "The token does not exist."
        }
      ]
    },
    "kind": "user",
    "methods": {
      "getClaimInfo(uint256)": {
        "notice": "Returns claim info for a given tokenId/actualId"
      },
      "safeMint(address)": {
        "notice": "Mints a future token to an address."
      },
      "setAuthorizedMinterSingleUse(address)": {
        "notice": "Sets who is authorized to mint future tokens."
      }
    },
    "version": 1
  },
  "storageLayout": {
    "storage": [
      {
        "astId": 2198,
        "contract": "contracts/core/TTFutureTokenV2.sol:TTFutureTokenV2",
        "label": "authorizedMinter",
        "offset": 0,
        "slot": "0",
        "type": "t_address"
      },
      {
        "astId": 2200,
        "contract": "contracts/core/TTFutureTokenV2.sol:TTFutureTokenV2",
        "label": "allowTransfer",
        "offset": 20,
        "slot": "0",
        "type": "t_bool"
      },
      {
        "astId": 2202,
        "contract": "contracts/core/TTFutureTokenV2.sol:TTFutureTokenV2",
        "label": "baseUri",
        "offset": 0,
        "slot": "1",
        "type": "t_string_storage"
      }
    ],
    "types": {
      "t_address": {
        "encoding": "inplace",
        "label": "address",
        "numberOfBytes": "20"
      },
      "t_bool": {
        "encoding": "inplace",
        "label": "bool",
        "numberOfBytes": "1"
      },
      "t_string_storage": {
        "encoding": "bytes",
        "label": "string",
        "numberOfBytes": "32"
      }
    }
  }
}