{
  "address": "0x074d2978Ed93686E41Fef7Df778FC7F2E07dA905",
  "abi": [
    {
      "inputs": [],
      "stateMutability": "nonpayable",
      "type": "constructor"
    },
    {
      "inputs": [],
      "name": "AlreadyDeployed",
      "type": "error"
    },
    {
      "inputs": [
        {
          "internalType": "address",
          "name": "owner",
          "type": "address"
        }
      ],
      "name": "OwnableInvalidOwner",
      "type": "error"
    },
    {
      "inputs": [
        {
          "internalType": "address",
          "name": "account",
          "type": "address"
        }
      ],
      "name": "OwnableUnauthorizedAccount",
      "type": "error"
    },
    {
      "anonymous": false,
      "inputs": [
        {
          "indexed": false,
          "internalType": "address",
          "name": "feeCollector",
          "type": "address"
        }
      ],
      "name": "FeeCollectorChanged",
      "type": "event"
    },
    {
      "anonymous": false,
      "inputs": [
        {
          "indexed": true,
          "internalType": "address",
          "name": "previousOwner",
          "type": "address"
        },
        {
          "indexed": true,
          "internalType": "address",
          "name": "newOwner",
          "type": "address"
        }
      ],
      "name": "OwnershipTransferred",
      "type": "event"
    },
    {
      "anonymous": false,
      "inputs": [
        {
          "indexed": false,
          "internalType": "address",
          "name": "unlockerImpl",
          "type": "address"
        },
        {
          "indexed": false,
          "internalType": "address",
          "name": "futureTokenImpl",
          "type": "address"
        },
        {
          "indexed": false,
          "internalType": "address",
          "name": "trackerTokenImpl",
          "type": "address"
        },
        {
          "indexed": false,
          "internalType": "address",
          "name": "beaconManagerImpl",
          "type": "address"
        },
        {
          "indexed": false,
          "internalType": "address",
          "name": "feeCollector",
          "type": "address"
        }
      ],
      "name": "TTUDeployerInitialized",
      "type": "event"
    },
    {
      "anonymous": false,
      "inputs": [
        {
          "indexed": false,
          "internalType": "address",
          "name": "by",
          "type": "address"
        },
        {
          "indexed": false,
          "internalType": "string",
          "name": "projectId",
          "type": "string"
        },
        {
          "indexed": false,
          "internalType": "address",
          "name": "unlocker",
          "type": "address"
        },
        {
          "indexed": false,
          "internalType": "address",
          "name": "futureToken",
          "type": "address"
        },
        {
          "indexed": false,
          "internalType": "address",
          "name": "trackerToken",
          "type": "address"
        }
      ],
      "name": "TokenTableSuiteDeployed",
      "type": "event"
    },
    {
      "inputs": [],
      "name": "beaconManager",
      "outputs": [
        {
          "internalType": "contract TTUV2BeaconManager",
          "name": "",
          "type": "address"
        }
      ],
      "stateMutability": "view",
      "type": "function"
    },
    {
      "inputs": [
        {
          "internalType": "address",
          "name": "projectToken",
          "type": "address"
        },
        {
          "internalType": "string",
          "name": "projectId",
          "type": "string"
        },
        {
          "internalType": "bool",
          "name": "isUpgradeable",
          "type": "bool"
        },
        {
          "internalType": "bool",
          "name": "isTransferable",
          "type": "bool"
        },
        {
          "internalType": "bool",
          "name": "isCancelable",
          "type": "bool"
        },
        {
          "internalType": "bool",
          "name": "isHookable",
          "type": "bool"
        },
        {
          "internalType": "bool",
          "name": "isWithdrawable",
          "type": "bool"
        }
      ],
      "name": "deployTTSuite",
      "outputs": [
        {
          "internalType": "contract ITokenTableUnlockerV2",
          "name": "",
          "type": "address"
        },
        {
          "internalType": "contract ITTFutureTokenV2",
          "name": "",
          "type": "address"
        },
        {
          "internalType": "contract ITTTrackerTokenV2",
          "name": "",
          "type": "address"
        }
      ],
      "stateMutability": "nonpayable",
      "type": "function"
    },
    {
      "inputs": [],
      "name": "feeCollector",
      "outputs": [
        {
          "internalType": "contract ITTUFeeCollector",
          "name": "",
          "type": "address"
        }
      ],
      "stateMutability": "view",
      "type": "function"
    },
    {
      "inputs": [],
      "name": "owner",
      "outputs": [
        {
          "internalType": "address",
          "name": "",
          "type": "address"
        }
      ],
      "stateMutability": "view",
      "type": "function"
    },
    {
      "inputs": [
        {
          "internalType": "string",
          "name": "",
          "type": "string"
        }
      ],
      "name": "registry",
      "outputs": [
        {
          "internalType": "bool",
          "name": "",
          "type": "bool"
        }
      ],
      "stateMutability": "view",
      "type": "function"
    },
    {
      "inputs": [],
      "name": "renounceOwnership",
      "outputs": [],
      "stateMutability": "nonpayable",
      "type": "function"
    },
    {
      "inputs": [
        {
          "internalType": "contract TTUV2BeaconManager",
          "name": "_beaconManager",
          "type": "address"
        }
      ],
      "name": "setBeaconManager",
      "outputs": [],
      "stateMutability": "nonpayable",
      "type": "function"
    },
    {
      "inputs": [
        {
          "internalType": "contract ITTUFeeCollector",
          "name": "feeCollector_",
          "type": "address"
        }
      ],
      "name": "setFeeCollector",
      "outputs": [],
      "stateMutability": "nonpayable",
      "type": "function"
    },
    {
      "inputs": [
        {
          "internalType": "address",
          "name": "newOwner",
          "type": "address"
        }
      ],
      "name": "transferOwnership",
      "outputs": [],
      "stateMutability": "nonpayable",
      "type": "function"
    },
    {
      "inputs": [],
      "name": "version",
      "outputs": [
        {
          "internalType": "string",
          "name": "",
          "type": "string"
        }
      ],
      "stateMutability": "pure",
      "type": "function"
    }
  ],
  "transactionHash": "0xb10186ab6daba6ffb6a0dc6e90ca8ba211e1a9b9ca1c6d5069bababe48097300",
  "args": [],
  "numDeployments": 2,
  "solcInputHash": "07f6844a18cac701e4fd9ebdfa0cd8e5",
  "bytecode": "0x608060405234801561001057600080fd5b50338061003757604051631e4fbdf760e01b81526000600482015260240160405180910390fd5b61004081610046565b50610096565b600080546001600160a01b038381166001600160a01b0319831681178455604051919092169283917f8be0079c531659141344cd1fd0a4f28419497f9722a3daafe3b4186f6b6457e09190a35050565b6114f8806100a56000396000f3fe60806040523480156200001157600080fd5b5060043610620000ab5760003560e01c806392a296c9116200006e57806392a296c9146200016a578063a42dce8014620001ac578063c415b95c14620001c3578063d30b5ef414620001d7578063f2fde38b14620001ee57600080fd5b80630a3a84fa14620000b057806354fd4d5014620000f65780635a4fba02146200011f578063715018a6146200014c5780638da5cb5b1462000158575b600080fd5b620000c7620000c136600462000bcf565b62000205565b604080516001600160a01b03948516815292841660208401529216918101919091526060015b60405180910390f35b60408051808201825260058152640322e352e360dc1b60208201529051620000ed919062000d00565b60015462000133906001600160a01b031681565b6040516001600160a01b039091168152602001620000ed565b6200015662000995565b005b6000546001600160a01b031662000133565b6200019b6200017b36600462000d32565b805160208183018101805160038252928201919093012091525460ff1681565b6040519015158152602001620000ed565b62000156620001bd36600462000ded565b620009ad565b60025462000133906001600160a01b031681565b62000156620001e836600462000ded565b62000a0b565b62000156620001ff36600462000ded565b62000a37565b600080600060038a8a6040516200021e92919062000e0d565b9081526040519081900360200190205460ff1615620002505760405163a6ef0ba160e01b815260040160405180910390fd5b600160038b8b6040516200026692919062000e0d565b908152604051908190036020019020805491151560ff19909216919091179055600080808a6200056d5760015460408051631e3997bf60e21b815290516200036d926001600160a01b0316916378e65efc9160048083019260209291908290030181865afa158015620002dd573d6000803e3d6000fd5b505050506040513d601f19601f8201168201806040525081019062000303919062000e1d565b6001600160a01b0316635c60da1b6040518163ffffffff1660e01b8152600401602060405180830381865afa15801562000341573d6000803e3d6000fd5b505050506040513d601f19601f8201168201806040525081019062000367919062000e1d565b62000a7f565b9250826001600160a01b031663400ada758f8c6040518363ffffffff1660e01b8152600401620003b49291906001600160a01b039290921682521515602082015260400190565b600060405180830381600087803b158015620003cf57600080fd5b505af1158015620003e4573d6000803e3d6000fd5b5050505062000440600160009054906101000a90046001600160a01b03166001600160a01b031663ec5319876040518163ffffffff1660e01b8152600401602060405180830381865afa158015620002dd573d6000803e3d6000fd5b9150816001600160a01b031663d597c4548f85308d8d8d6040518763ffffffff1660e01b81526004016200047a9695949392919062000e3d565b600060405180830381600087803b1580156200049557600080fd5b505af1158015620004aa573d6000803e3d6000fd5b5050505062000506600160009054906101000a90046001600160a01b03166001600160a01b031663d63ea2c56040518163ffffffff1660e01b8152600401602060405180830381865afa158015620002dd573d6000803e3d6000fd5b60405163189acdbd60e31b81526001600160a01b0384811660048301529192509082169063c4d66de890602401600060405180830381600087803b1580156200054e57600080fd5b505af115801562000563573d6000803e3d6000fd5b5050505062000887565b600160009054906101000a90046001600160a01b03166001600160a01b03166378e65efc6040518163ffffffff1660e01b8152600401602060405180830381865afa158015620005c1573d6000803e3d6000fd5b505050506040513d601f19601f82011682018060405250810190620005e7919062000e1d565b63400ada7560e01b8f8c604051602401620006199291906001600160a01b039290921682521515602082015260400190565b60408051601f198184030181529181526020820180516001600160e01b03166001600160e01b0319909416939093179092529051620006589062000b9a565b6200066592919062000e78565b604051809103906000f08015801562000682573d6000803e3d6000fd5b509250600160009054906101000a90046001600160a01b03166001600160a01b031663ec5319876040518163ffffffff1660e01b8152600401602060405180830381865afa158015620006d9573d6000803e3d6000fd5b505050506040513d601f19601f82011682018060405250810190620006ff919062000e1d565b63d597c45460e01b8f85308d8d8d604051602401620007249695949392919062000e3d565b60408051601f198184030181529181526020820180516001600160e01b03166001600160e01b0319909416939093179092529051620007639062000b9a565b6200077092919062000e78565b604051809103906000f0801580156200078d573d6000803e3d6000fd5b509150600160009054906101000a90046001600160a01b03166001600160a01b031663d63ea2c56040518163ffffffff1660e01b8152600401602060405180830381865afa158015620007e4573d6000803e3d6000fd5b505050506040513d601f19601f820116820180604052508101906200080a919062000e1d565b604080516001600160a01b03851660248083019190915282518083039091018152604490910182526020810180516001600160e01b031663189acdbd60e31b1790529051620008599062000b9a565b6200086692919062000e78565b604051809103906000f08015801562000883573d6000803e3d6000fd5b5090505b60405163f2fde38b60e01b81523360048201526001600160a01b0383169063f2fde38b90602401600060405180830381600087803b158015620008c957600080fd5b505af1158015620008de573d6000803e3d6000fd5b5050604051630ab148ff60e31b81526001600160a01b0385811660048301528616925063558a47f89150602401600060405180830381600087803b1580156200092657600080fd5b505af11580156200093b573d6000803e3d6000fd5b505050507f17df396a3d7d1aee90dda3191f7e75531702775925951ea64827321bbc37412c338e8e8587866040516200097a9695949392919062000ea6565b60405180910390a1909d919c509a5098505050505050505050565b6200099f62000b1b565b620009ab600062000b4a565b565b620009b762000b1b565b600280546001600160a01b0319166001600160a01b0383169081179091556040519081527f9c1996a14d26c3ecd833c10222d012447ef07b09b15000f3a34318ff039c0bdc9060200160405180910390a150565b62000a1562000b1b565b600180546001600160a01b0319166001600160a01b0392909216919091179055565b62000a4162000b1b565b6001600160a01b03811662000a7157604051631e4fbdf760e01b8152600060048201526024015b60405180910390fd5b62000a7c8162000b4a565b50565b6000763d602d80600a3d3981f3363d3d373d3d3d363d730000008260601b60e81c176000526e5af43d82803e903d91602b57fd5bf38260781b17602052603760096000f090506001600160a01b03811662000b165760405162461bcd60e51b8152602060048201526016602482015275115490cc4c4d8dce8818dc99585d194819985a5b195960521b604482015260640162000a68565b919050565b6000546001600160a01b03163314620009ab5760405163118cdaa760e01b815233600482015260240162000a68565b600080546001600160a01b038381166001600160a01b0319831681178455604051919092169283917f8be0079c531659141344cd1fd0a4f28419497f9722a3daafe3b4186f6b6457e09190a35050565b6105bf8062000f0483390190565b6001600160a01b038116811462000a7c57600080fd5b8035801515811462000b1657600080fd5b60008060008060008060008060e0898b03121562000bec57600080fd5b883562000bf98162000ba8565b9750602089013567ffffffffffffffff8082111562000c1757600080fd5b818b0191508b601f83011262000c2c57600080fd5b81358181111562000c3c57600080fd5b8c602082850101111562000c4f57600080fd5b60208301995080985050505062000c6960408a0162000bbe565b945062000c7960608a0162000bbe565b935062000c8960808a0162000bbe565b925062000c9960a08a0162000bbe565b915062000ca960c08a0162000bbe565b90509295985092959890939650565b6000815180845260005b8181101562000ce05760208185018101518683018201520162000cc2565b506000602082860101526020601f19601f83011685010191505092915050565b60208152600062000d15602083018462000cb8565b9392505050565b634e487b7160e01b600052604160045260246000fd5b60006020828403121562000d4557600080fd5b813567ffffffffffffffff8082111562000d5e57600080fd5b818401915084601f83011262000d7357600080fd5b81358181111562000d885762000d8862000d1c565b604051601f8201601f19908116603f0116810190838211818310171562000db35762000db362000d1c565b8160405282815287602084870101111562000dcd57600080fd5b826020860160208301376000928101602001929092525095945050505050565b60006020828403121562000e0057600080fd5b813562000d158162000ba8565b8183823760009101908152919050565b60006020828403121562000e3057600080fd5b815162000d158162000ba8565b6001600160a01b039687168152948616602086015292909416604084015215156060830152911515608082015290151560a082015260c00190565b6001600160a01b038316815260406020820181905260009062000e9e9083018462000cb8565b949350505050565b6001600160a01b03878116825260a0602083018190528201869052600090868860c0850137600060c0888501810191909152958116604084015293841660608301525091166080820152601f909201601f1916909101019291505056fe60a06040526040516105bf3803806105bf83398101604081905261002291610387565b61002c828261003e565b506001600160a01b031660805261047e565b610047826100fe565b6040516001600160a01b038316907f1cf3b03a6cf19fa2baba4df148e9dcabedea7f8a5c07840e207e5c089be95d3e90600090a28051156100f2576100ed826001600160a01b0316635c60da1b6040518163ffffffff1660e01b8152600401602060405180830381865afa1580156100c3573d6000803e3d6000fd5b505050506040513d601f19601f820116820180604052508101906100e79190610447565b82610211565b505050565b6100fa610288565b5050565b806001600160a01b03163b60000361013957604051631933b43b60e21b81526001600160a01b03821660048201526024015b60405180910390fd5b807fa3f0ad74e5423aebfd80d3ef4346578335a9a72aeaee59ff6cb3582b35133d5080546001600160a01b0319166001600160a01b0392831617905560408051635c60da1b60e01b81529051600092841691635c60da1b9160048083019260209291908290030181865afa1580156101b5573d6000803e3d6000fd5b505050506040513d601f19601f820116820180604052508101906101d99190610447565b9050806001600160a01b03163b6000036100fa57604051634c9c8ce360e01b81526001600160a01b0382166004820152602401610130565b6060600080846001600160a01b03168460405161022e9190610462565b600060405180830381855af49150503d8060008114610269576040519150601f19603f3d011682016040523d82523d6000602084013e61026e565b606091505b50909250905061027f8583836102a9565b95945050505050565b34156102a75760405163b398979f60e01b815260040160405180910390fd5b565b6060826102be576102b982610308565b610301565b81511580156102d557506001600160a01b0384163b155b156102fe57604051639996b31560e01b81526001600160a01b0385166004820152602401610130565b50805b9392505050565b8051156103185780518082602001fd5b604051630a12f52160e11b815260040160405180910390fd5b80516001600160a01b038116811461034857600080fd5b919050565b634e487b7160e01b600052604160045260246000fd5b60005b8381101561037e578181015183820152602001610366565b50506000910152565b6000806040838503121561039a57600080fd5b6103a383610331565b60208401519092506001600160401b03808211156103c057600080fd5b818501915085601f8301126103d457600080fd5b8151818111156103e6576103e661034d565b604051601f8201601f19908116603f0116810190838211818310171561040e5761040e61034d565b8160405282815288602084870101111561042757600080fd5b610438836020830160208801610363565b80955050505050509250929050565b60006020828403121561045957600080fd5b61030182610331565b60008251610474818460208701610363565b9190910192915050565b6080516101276104986000396000601e01526101276000f3fe6080604052600a600c565b005b60186014601a565b60a0565b565b60007f00000000000000000000000000000000000000000000000000000000000000006001600160a01b0316635c60da1b6040518163ffffffff1660e01b8152600401602060405180830381865afa1580156079573d6000803e3d6000fd5b505050506040513d601f19601f82011682018060405250810190609b919060c3565b905090565b3660008037600080366000845af43d6000803e80801560be573d6000f35b3d6000fd5b60006020828403121560d457600080fd5b81516001600160a01b038116811460ea57600080fd5b939250505056fea264697066735822122037166f4f2d476023197930b53ff67240236749f00fc39a993769be560cecebb764736f6c63430008140033a2646970667358221220d4732fc63b5a90f383e9be6f793e58a1b1bdeade81ed54d1edda0d47b8a8f5b264736f6c63430008140033",
  "devdoc": {
    "errors": {
      "AlreadyDeployed()": [
        {
          "details": "0xa6ef0ba1"
        }
      ],
      "OwnableInvalidOwner(address)": [
        {
          "details": "The owner is not a valid owner account. (eg. `address(0)`)"
        }
      ],
      "OwnableUnauthorizedAccount(address)": [
        {
          "details": "The caller account is not authorized to perform an operation."
        }
      ]
    },
    "kind": "dev",
    "methods": {
      "deployTTSuite(address,string,bool,bool,bool,bool,bool)": {
        "details": "Emits `TokenTableSuiteDeployed`. Throws: `AlreadyDeployed`.",
        "params": {
          "isCancelable": "Allow unlocking schedules to be cancelled in the Unlocker.",
          "isHookable": "Allow Unlocker to call an external hook.",
          "isTransferable": "Allow FutureToken to be transferable.",
          "isUpgradeable": "When set to false, a `Clone` instead of a `BeaconProxy` is created to prevent future upgradeability.",
          "isWithdrawable": "Allow the founder to withdraw deposited funds.",
          "projectId": "A unique projectId, otherwise it will revert.",
          "projectToken": "The project token address."
        }
      },
      "owner()": {
        "details": "Returns the address of the current owner."
      },
      "renounceOwnership()": {
        "details": "Leaves the contract without owner. It will not be possible to call `onlyOwner` functions. Can only be called by the current owner. NOTE: Renouncing ownership will leave the contract without an owner, thereby disabling any functionality that is only available to the owner."
      },
      "transferOwnership(address)": {
        "details": "Transfers ownership of the contract to a new account (`newOwner`). Can only be called by the current owner."
      }
    },
    "stateVariables": {
      "feeCollector": {
        "details": "Exposes the fee collector variable.",
        "return": "An instance of the fee collector.",
        "returns": {
          "_0": "An instance of the fee collector."
        }
      }
    },
    "version": 1
  },
  "userdoc": {
    "kind": "user",
    "methods": {
      "deployTTSuite(address,string,bool,bool,bool,bool,bool)": {
        "notice": "Deploys and configures a new set of TokenTable products."
      }
    },
    "version": 1
  },
  "storageLayout": {
    "storage": [
      {
        "astId": 624,
        "contract": "contracts/proxy/TTUDeployerLite.sol:TTUDeployerLite",
        "label": "_owner",
        "offset": 0,
        "slot": "0",
        "type": "t_address"
      },
      {
        "astId": 4924,
        "contract": "contracts/proxy/TTUDeployerLite.sol:TTUDeployerLite",
        "label": "beaconManager",
        "offset": 0,
        "slot": "1",
        "type": "t_contract(TTUV2BeaconManager)5357"
      },
      {
        "astId": 4928,
        "contract": "contracts/proxy/TTUDeployerLite.sol:TTUDeployerLite",
        "label": "feeCollector",
        "offset": 0,
        "slot": "2",
        "type": "t_contract(ITTUFeeCollector)4394"
      },
      {
        "astId": 4932,
        "contract": "contracts/proxy/TTUDeployerLite.sol:TTUDeployerLite",
        "label": "registry",
        "offset": 0,
        "slot": "3",
        "type": "t_mapping(t_string_memory_ptr,t_bool)"
      }
    ],
    "types": {
      "t_address": {
        "encoding": "inplace",
        "label": "address",
        "numberOfBytes": "20"
      },
      "t_bool": {
        "encoding": "inplace",
        "label": "bool",
        "numberOfBytes": "1"
      },
      "t_contract(ITTUFeeCollector)4394": {
        "encoding": "inplace",
        "label": "contract ITTUFeeCollector",
        "numberOfBytes": "20"
      },
      "t_contract(TTUV2BeaconManager)5357": {
        "encoding": "inplace",
        "label": "contract TTUV2BeaconManager",
        "numberOfBytes": "20"
      },
      "t_mapping(t_string_memory_ptr,t_bool)": {
        "encoding": "mapping",
        "key": "t_string_memory_ptr",
        "label": "mapping(string => bool)",
        "numberOfBytes": "32",
        "value": "t_bool"
      },
      "t_string_memory_ptr": {
        "encoding": "bytes",
        "label": "string",
        "numberOfBytes": "32"
      }
    }
  }
}