{
  "address": "0xF46467E6809e922a0907afE3132732f3918DdCF2",
  "abi": [
    {
      "inputs": [],
      "name": "InvalidInitialization",
      "type": "error"
    },
    {
      "inputs": [],
      "name": "InvalidPresetFormat",
      "type": "error"
    },
    {
      "inputs": [],
      "name": "InvalidSkipAmount",
      "type": "error"
    },
    {
      "inputs": [],
      "name": "NotInitializing",
      "type": "error"
    },
    {
      "inputs": [],
      "name": "NotPermissioned",
      "type": "error"
    },
    {
      "inputs": [
        {
          "internalType": "address",
          "name": "owner",
          "type": "address"
        }
      ],
      "name": "OwnableInvalidOwner",
      "type": "error"
    },
    {
      "inputs": [
        {
          "internalType": "address",
          "name": "account",
          "type": "address"
        }
      ],
      "name": "OwnableUnauthorizedAccount",
      "type": "error"
    },
    {
      "inputs": [],
      "name": "PresetDoesNotExist",
      "type": "error"
    },
    {
      "inputs": [],
      "name": "PresetExists",
      "type": "error"
    },
    {
      "inputs": [],
      "name": "ReentrancyGuardReentrantCall",
      "type": "error"
    },
    {
      "inputs": [],
      "name": "TokenSet",
      "type": "error"
    },
    {
      "anonymous": false,
      "inputs": [
        {
          "indexed": false,
          "internalType": "uint256",
          "name": "actualId",
          "type": "uint256"
        },
        {
          "indexed": false,
          "internalType": "uint256",
          "name": "pendingAmountClaimable",
          "type": "uint256"
        },
        {
          "indexed": false,
          "internalType": "bool",
          "name": "didWipeClaimableBalance",
          "type": "bool"
        },
        {
          "indexed": false,
          "internalType": "uint256",
          "name": "batchId",
          "type": "uint256"
        }
      ],
      "name": "ActualCancelled",
      "type": "event"
    },
    {
      "anonymous": false,
      "inputs": [
        {
          "indexed": false,
          "internalType": "bytes32",
          "name": "presetId",
          "type": "bytes32"
        },
        {
          "indexed": false,
          "internalType": "uint256",
          "name": "actualId",
          "type": "uint256"
        },
        {
          "indexed": false,
          "internalType": "address",
          "name": "recipient",
          "type": "address"
        },
        {
          "indexed": false,
          "internalType": "uint256",
          "name": "recipientId",
          "type": "uint256"
        },
        {
          "indexed": false,
          "internalType": "uint256",
          "name": "batchId",
          "type": "uint256"
        }
      ],
      "name": "ActualCreated",
      "type": "event"
    },
    {
      "anonymous": false,
      "inputs": [],
      "name": "CancelDisabled",
      "type": "event"
    },
    {
      "anonymous": false,
      "inputs": [
        {
          "indexed": false,
          "internalType": "address",
          "name": "delegate",
          "type": "address"
        }
      ],
      "name": "ClaimingDelegateSet",
      "type": "event"
    },
    {
      "anonymous": false,
      "inputs": [
        {
          "indexed": false,
          "internalType": "address",
          "name": "from",
          "type": "address"
        },
        {
          "indexed": false,
          "internalType": "uint256",
          "name": "amount",
          "type": "uint256"
        }
      ],
      "name": "DepositReceived",
      "type": "event"
    },
    {
      "anonymous": false,
      "inputs": [],
      "name": "HookDisabled",
      "type": "event"
    },
    {
      "anonymous": false,
      "inputs": [
        {
          "indexed": false,
          "internalType": "uint64",
          "name": "version",
          "type": "uint64"
        }
      ],
      "name": "Initialized",
      "type": "event"
    },
    {
      "anonymous": false,
      "inputs": [
        {
          "indexed": true,
          "internalType": "address",
          "name": "previousOwner",
          "type": "address"
        },
        {
          "indexed": true,
          "internalType": "address",
          "name": "newOwner",
          "type": "address"
        }
      ],
      "name": "OwnershipTransferred",
      "type": "event"
    },
    {
      "anonymous": false,
      "inputs": [
        {
          "indexed": false,
          "internalType": "bytes32",
          "name": "presetId",
          "type": "bytes32"
        },
        {
          "indexed": false,
          "internalType": "uint256",
          "name": "batchId",
          "type": "uint256"
        }
      ],
      "name": "PresetCreated",
      "type": "event"
    },
    {
      "anonymous": false,
      "inputs": [
        {
          "indexed": false,
          "internalType": "uint256",
          "name": "actualId",
          "type": "uint256"
        },
        {
          "indexed": false,
          "internalType": "address",
          "name": "caller",
          "type": "address"
        },
        {
          "indexed": false,
          "internalType": "address",
          "name": "to",
          "type": "address"
        },
        {
          "indexed": false,
          "internalType": "uint256",
          "name": "amount",
          "type": "uint256"
        },
        {
          "indexed": false,
          "internalType": "uint256",
          "name": "feesCharged",
          "type": "uint256"
        },
        {
          "indexed": false,
          "internalType": "uint256",
          "name": "batchId",
          "type": "uint256"
        }
      ],
      "name": "TokensClaimed",
      "type": "event"
    },
    {
      "anonymous": false,
      "inputs": [
        {
          "indexed": false,
          "internalType": "address",
          "name": "by",
          "type": "address"
        },
        {
          "indexed": false,
          "internalType": "uint256",
          "name": "amount",
          "type": "uint256"
        }
      ],
      "name": "TokensWithdrawn",
      "type": "event"
    },
    {
      "anonymous": false,
      "inputs": [],
      "name": "WithdrawDisabled",
      "type": "event"
    },
    {
      "inputs": [],
      "name": "BIPS_PRECISION",
      "outputs": [
        {
          "internalType": "uint256",
          "name": "",
          "type": "uint256"
        }
      ],
      "stateMutability": "view",
      "type": "function"
    },
    {
      "inputs": [
        {
          "internalType": "uint256",
          "name": "",
          "type": "uint256"
        }
      ],
      "name": "actuals",
      "outputs": [
        {
          "internalType": "bytes32",
          "name": "presetId",
          "type": "bytes32"
        },
        {
          "internalType": "uint256",
          "name": "startTimestampAbsolute",
          "type": "uint256"
        },
        {
          "internalType": "uint256",
          "name": "amountClaimed",
          "type": "uint256"
        },
        {
          "internalType": "uint256",
          "name": "totalAmount",
          "type": "uint256"
        }
      ],
      "stateMutability": "view",
      "type": "function"
    },
    {
      "inputs": [
        {
          "internalType": "uint256",
          "name": "actualId",
          "type": "uint256"
        }
      ],
      "name": "calculateAmountClaimable",
      "outputs": [
        {
          "internalType": "uint256",
          "name": "deltaAmountClaimable",
          "type": "uint256"
        },
        {
          "internalType": "uint256",
          "name": "updatedAmountClaimed",
          "type": "uint256"
        }
      ],
      "stateMutability": "view",
      "type": "function"
    },
    {
      "inputs": [
        {
          "internalType": "uint256[]",
          "name": "actualIds",
          "type": "uint256[]"
        },
        {
          "internalType": "bool[]",
          "name": "shouldWipeClaimableBalance",
          "type": "bool[]"
        },
        {
          "internalType": "uint256",
          "name": "batchId",
          "type": "uint256"
        },
        {
          "internalType": "bytes",
          "name": "",
          "type": "bytes"
        }
      ],
      "name": "cancel",
      "outputs": [
        {
          "internalType": "uint256[]",
          "name": "pendingAmountClaimables",
          "type": "uint256[]"
        }
      ],
      "stateMutability": "nonpayable",
      "type": "function"
    },
    {
      "inputs": [
        {
          "internalType": "uint256[]",
          "name": "actualIds",
          "type": "uint256[]"
        },
        {
          "internalType": "address[]",
          "name": "claimTos",
          "type": "address[]"
        },
        {
          "internalType": "uint256",
          "name": "batchId",
          "type": "uint256"
        },
        {
          "internalType": "bytes",
          "name": "",
          "type": "bytes"
        }
      ],
      "name": "claim",
      "outputs": [],
      "stateMutability": "nonpayable",
      "type": "function"
    },
    {
      "inputs": [],
      "name": "claimingDelegate",
      "outputs": [
        {
          "internalType": "address",
          "name": "",
          "type": "address"
        }
      ],
      "stateMutability": "view",
      "type": "function"
    },
    {
      "inputs": [
        {
          "internalType": "address[]",
          "name": "recipients",
          "type": "address[]"
        },
        {
          "components": [
            {
              "internalType": "bytes32",
              "name": "presetId",
              "type": "bytes32"
            },
            {
              "internalType": "uint256",
              "name": "startTimestampAbsolute",
              "type": "uint256"
            },
            {
              "internalType": "uint256",
              "name": "amountClaimed",
              "type": "uint256"
            },
            {
              "internalType": "uint256",
              "name": "totalAmount",
              "type": "uint256"
            }
          ],
          "internalType": "struct Actual[]",
          "name": "actuals_",
          "type": "tuple[]"
        },
        {
          "internalType": "uint256[]",
          "name": "recipientIds",
          "type": "uint256[]"
        },
        {
          "internalType": "uint256",
          "name": "batchId",
          "type": "uint256"
        },
        {
          "internalType": "bytes",
          "name": "",
          "type": "bytes"
        }
      ],
      "name": "createActuals",
      "outputs": [],
      "stateMutability": "nonpayable",
      "type": "function"
    },
    {
      "inputs": [
        {
          "internalType": "bytes32[]",
          "name": "presetIds",
          "type": "bytes32[]"
        },
        {
          "components": [
            {
              "internalType": "uint256[]",
              "name": "linearStartTimestampsRelative",
              "type": "uint256[]"
            },
            {
              "internalType": "uint256",
              "name": "linearEndTimestampRelative",
              "type": "uint256"
            },
            {
              "internalType": "uint256[]",
              "name": "linearBips",
              "type": "uint256[]"
            },
            {
              "internalType": "uint256[]",
              "name": "numOfUnlocksForEachLinear",
              "type": "uint256[]"
            },
            {
              "internalType": "bool",
              "name": "stream",
              "type": "bool"
            }
          ],
          "internalType": "struct Preset[]",
          "name": "presets",
          "type": "tuple[]"
        },
        {
          "internalType": "uint256",
          "name": "batchId",
          "type": "uint256"
        },
        {
          "internalType": "bytes",
          "name": "",
          "type": "bytes"
        }
      ],
      "name": "createPresets",
      "outputs": [],
      "stateMutability": "nonpayable",
      "type": "function"
    },
    {
      "inputs": [
        {
          "internalType": "uint256[]",
          "name": "actualIds",
          "type": "uint256[]"
        },
        {
          "internalType": "uint256",
          "name": "batchId",
          "type": "uint256"
        },
        {
          "internalType": "bytes",
          "name": "",
          "type": "bytes"
        }
      ],
      "name": "delegateClaim",
      "outputs": [],
      "stateMutability": "nonpayable",
      "type": "function"
    },
    {
      "inputs": [],
      "name": "deployer",
      "outputs": [
        {
          "internalType": "contract ITTUDeployer",
          "name": "",
          "type": "address"
        }
      ],
      "stateMutability": "view",
      "type": "function"
    },
    {
      "inputs": [],
      "name": "disableCancel",
      "outputs": [],
      "stateMutability": "nonpayable",
      "type": "function"
    },
    {
      "inputs": [],
      "name": "disableHook",
      "outputs": [],
      "stateMutability": "nonpayable",
      "type": "function"
    },
    {
      "inputs": [],
      "name": "disableWithdraw",
      "outputs": [],
      "stateMutability": "nonpayable",
      "type": "function"
    },
    {
      "inputs": [],
      "name": "futureToken",
      "outputs": [
        {
          "internalType": "contract ITTFutureTokenV2",
          "name": "",
          "type": "address"
        }
      ],
      "stateMutability": "view",
      "type": "function"
    },
    {
      "inputs": [
        {
          "internalType": "bytes32",
          "name": "presetId",
          "type": "bytes32"
        }
      ],
      "name": "getEncodedPreset",
      "outputs": [
        {
          "internalType": "bytes",
          "name": "",
          "type": "bytes"
        }
      ],
      "stateMutability": "view",
      "type": "function"
    },
    {
      "inputs": [],
      "name": "getProjectToken",
      "outputs": [
        {
          "internalType": "address",
          "name": "",
          "type": "address"
        }
      ],
      "stateMutability": "view",
      "type": "function"
    },
    {
      "inputs": [],
      "name": "hook",
      "outputs": [
        {
          "internalType": "contract ITTHook",
          "name": "",
          "type": "address"
        }
      ],
      "stateMutability": "view",
      "type": "function"
    },
    {
      "inputs": [
        {
          "internalType": "address",
          "name": "projectToken",
          "type": "address"
        },
        {
          "internalType": "address",
          "name": "futureToken_",
          "type": "address"
        },
        {
          "internalType": "address",
          "name": "deployer_",
          "type": "address"
        },
        {
          "internalType": "bool",
          "name": "isCancelable_",
          "type": "bool"
        },
        {
          "internalType": "bool",
          "name": "isHookable_",
          "type": "bool"
        },
        {
          "internalType": "bool",
          "name": "isWithdrawable_",
          "type": "bool"
        }
      ],
      "name": "initialize",
      "outputs": [],
      "stateMutability": "nonpayable",
      "type": "function"
    },
    {
      "inputs": [
        {
          "internalType": "address",
          "name": "projectToken",
          "type": "address"
        }
      ],
      "name": "initializeProjectToken",
      "outputs": [],
      "stateMutability": "nonpayable",
      "type": "function"
    },
    {
      "inputs": [],
      "name": "isCancelable",
      "outputs": [
        {
          "internalType": "bool",
          "name": "",
          "type": "bool"
        }
      ],
      "stateMutability": "view",
      "type": "function"
    },
    {
      "inputs": [],
      "name": "isHookable",
      "outputs": [
        {
          "internalType": "bool",
          "name": "",
          "type": "bool"
        }
      ],
      "stateMutability": "view",
      "type": "function"
    },
    {
      "inputs": [
        {
          "internalType": "address",
          "name": "forwarder",
          "type": "address"
        }
      ],
      "name": "isTrustedForwarder",
      "outputs": [
        {
          "internalType": "bool",
          "name": "",
          "type": "bool"
        }
      ],
      "stateMutability": "view",
      "type": "function"
    },
    {
      "inputs": [],
      "name": "isWithdrawable",
      "outputs": [
        {
          "internalType": "bool",
          "name": "",
          "type": "bool"
        }
      ],
      "stateMutability": "view",
      "type": "function"
    },
    {
      "inputs": [],
      "name": "owner",
      "outputs": [
        {
          "internalType": "address",
          "name": "",
          "type": "address"
        }
      ],
      "stateMutability": "view",
      "type": "function"
    },
    {
      "inputs": [
        {
          "internalType": "uint256",
          "name": "",
          "type": "uint256"
        }
      ],
      "name": "pendingAmountClaimableForCancelledActuals",
      "outputs": [
        {
          "internalType": "uint256",
          "name": "",
          "type": "uint256"
        }
      ],
      "stateMutability": "view",
      "type": "function"
    },
    {
      "inputs": [],
      "name": "renounceOwnership",
      "outputs": [],
      "stateMutability": "nonpayable",
      "type": "function"
    },
    {
      "inputs": [
        {
          "internalType": "address",
          "name": "delegate",
          "type": "address"
        }
      ],
      "name": "setClaimingDelegate",
      "outputs": [],
      "stateMutability": "nonpayable",
      "type": "function"
    },
    {
      "inputs": [
        {
          "internalType": "contract ITTHook",
          "name": "hook_",
          "type": "address"
        }
      ],
      "name": "setHook",
      "outputs": [],
      "stateMutability": "nonpayable",
      "type": "function"
    },
    {
      "inputs": [
        {
          "internalType": "address",
          "name": "forwarder",
          "type": "address"
        }
      ],
      "name": "setTrustedForwarder",
      "outputs": [],
      "stateMutability": "nonpayable",
      "type": "function"
    },
    {
      "inputs": [
        {
          "internalType": "uint256",
          "name": "actualId",
          "type": "uint256"
        },
        {
          "internalType": "uint256",
          "name": "claimTimestampAbsolute",
          "type": "uint256"
        }
      ],
      "name": "simulateAmountClaimable",
      "outputs": [
        {
          "internalType": "uint256",
          "name": "deltaAmountClaimable",
          "type": "uint256"
        },
        {
          "internalType": "uint256",
          "name": "updatedAmountClaimed",
          "type": "uint256"
        }
      ],
      "stateMutability": "view",
      "type": "function"
    },
    {
      "inputs": [
        {
          "internalType": "address",
          "name": "newOwner",
          "type": "address"
        }
      ],
      "name": "transferOwnership",
      "outputs": [],
      "stateMutability": "nonpayable",
      "type": "function"
    },
    {
      "inputs": [],
      "name": "trustedForwarder",
      "outputs": [
        {
          "internalType": "address",
          "name": "",
          "type": "address"
        }
      ],
      "stateMutability": "view",
      "type": "function"
    },
    {
      "inputs": [],
      "name": "version",
      "outputs": [
        {
          "internalType": "string",
          "name": "",
          "type": "string"
        }
      ],
      "stateMutability": "pure",
      "type": "function"
    },
    {
      "inputs": [
        {
          "internalType": "uint256",
          "name": "amount",
          "type": "uint256"
        },
        {
          "internalType": "bytes",
          "name": "",
          "type": "bytes"
        }
      ],
      "name": "withdrawDeposit",
      "outputs": [],
      "stateMutability": "nonpayable",
      "type": "function"
    },
    {
      "stateMutability": "payable",
      "type": "receive"
    }
  ],
  "transactionHash": "0xd7cea2444ec7342a174dd5c95c3870a7632526a91d944c7862e93490cc24f110",
  "args": [],
  "numDeployments": 2,
  "solcInputHash": "68bea47287cc598b617f3c7ce8e7f238",
  "bytecode": "0x60806040523480156200001157600080fd5b504661816d146200002657620000266200002c565b620000e0565b7ff0c57e16840df040f15088dc2f81fe391c3923bec73e23a9662efc9c229c6a00805468010000000000000000900460ff16156200007d5760405163f92ee8a960e01b815260040160405180910390fd5b80546001600160401b0390811614620000dd5780546001600160401b0319166001600160401b0390811782556040519081527fc7f505b2f371ae2175ee4913f4499e1f2633a7b5936321eed1cdaeb6115181d29060200160405180910390a15b50565b6129ac80620000f06000396000f3fe6080604052600436106101fd5760003560e01c8063662930491161010d5780638da5cb5b116100a0578063d5f394881161006f578063d5f394881461068a578063da742228146106aa578063e4393516146106ca578063f2fde38b146106ea578063f4c123291461070a57600080fd5b80638da5cb5b14610620578063ce8d388d14610635578063d57915591461064a578063d597c4541461066a57600080fd5b80637da0a877116100dc5780637da0a877146105515780637f5a7c7b146105715780637fe3b91f1461059157806385797051146105f357600080fd5b806366293049146104e6578063715018a6146105065780637733e0fb1461051b5780637d4e4e8c1461053057600080fd5b80633ac1db09116101905780634d840bcc1161015f5780634d840bcc14610428578063546e6df61461044957806354fd4d5014610469578063572b6c05146104975780635e55848b146104c657600080fd5b80633ac1db09146103aa5780633dfd3873146103ca57806342734d45146103ea5780634837c5961461040a57600080fd5b80631bffb491116101cc5780631bffb491146102f45780632de1d4311461032557806338616d8c146103525780633aa4327c1461037257600080fd5b80630577d4af14610252578063084d2b9b146102925780630cb95d2b146102a857806317a69da4146102dd57600080fd5b3661024d577f9936746a4565f9766fa768f88f56a7487c78780ac179562773d1c75c5269537e61022b61072a565b604080516001600160a01b0390921682523460208301520160405180910390a1005b600080fd5b34801561025e57600080fd5b5061027f61026d3660046120fe565b60076020526000908152604090205481565b6040519081526020015b60405180910390f35b34801561029e57600080fd5b5061027f61271081565b3480156102b457600080fd5b506102c86102c3366004612117565b610739565b60408051928352602083019190915201610289565b3480156102e957600080fd5b506102f2610c12565b005b34801561030057600080fd5b5060045461031590600160a01b900460ff1681565b6040519015158152602001610289565b34801561033157600080fd5b506103456103403660046120fe565b610c7a565b604051610289919061217f565b34801561035e57600080fd5b506102f261036d3660046121a7565b610df5565b34801561037e57600080fd5b50600254610392906001600160a01b031681565b6040516001600160a01b039091168152602001610289565b3480156103b657600080fd5b506102f26103c5366004612249565b610e41565b3480156103d657600080fd5b506102f26103e53660046121a7565b610f9f565b3480156103f657600080fd5b506102c86104053660046120fe565b611002565b34801561041657600080fd5b506000546001600160a01b0316610392565b34801561043457600080fd5b5060045461031590600160b01b900460ff1681565b34801561045557600080fd5b506102f26104643660046121a7565b611019565b34801561047557600080fd5b506040805180820190915260058152640c8b8d4b8d60da1b6020820152610345565b3480156104a357600080fd5b506103156104b23660046121a7565b6008546001600160a01b0391821691161490565b3480156104d257600080fd5b506102f26104e13660046122ec565b611075565b3480156104f257600080fd5b506102f26105013660046123ec565b61112a565b34801561051257600080fd5b506102f26111e0565b34801561052757600080fd5b506102f26111ea565b34801561053c57600080fd5b5060045461031590600160a81b900460ff1681565b34801561055d57600080fd5b50600854610392906001600160a01b031681565b34801561057d57600080fd5b50600354610392906001600160a01b031681565b34801561059d57600080fd5b506105d36105ac3660046120fe565b60066020526000908152604090208054600182015460028301546003909301549192909184565b604080519485526020850193909352918301526060820152608001610289565b3480156105ff57600080fd5b5061061361060e366004612249565b61123b565b60405161028991906124a0565b34801561062c57600080fd5b5061039261141d565b34801561064157600080fd5b506102f2611450565b34801561065657600080fd5b506102f2610665366004612249565b6114a1565b34801561067657600080fd5b506102f26106853660046124c8565b611529565b34801561069657600080fd5b50600154610392906001600160a01b031681565b3480156106b657600080fd5b506102f26106c53660046121a7565b6116db565b3480156106d657600080fd5b506102f26106e5366004612542565b611701565b3480156106f657600080fd5b506102f26107053660046121a7565b611819565b34801561071657600080fd5b50600454610392906001600160a01b031681565b6000610734611822565b905090565b6000828152600660209081526040808320815160808101835281548082526001830154948201949094526002820154928101929092526003015460608201528291620186a09190830361079f5760405163bd88ff7b60e01b815260040160405180910390fd5b805160009081526005602090815260408083208151815460c09481028201850190935260a0810183815290939192849284919084018282801561080157602002820191906000526020600020905b8154815260200190600101908083116107ed575b50505050508152602001600182015481526020016002820180548060200260200160405190810160405280929190818152602001828054801561086357602002820191906000526020600020905b81548152602001906001019080831161084f575b50505050508152602001600382018054806020026020016040519081016040528092919081815260200182805480156108bb57602002820191906000526020600020905b8154815260200190600101908083116108a7575b50505091835250506004919091015460ff16151560209091015260808101519091506000906108eb5760016108f0565b620186a05b62ffffff16905060008083600001516000815181106109115761091161258d565b6020026020010151856020015161092891906125b9565b891015610945576000856040015197509750505050505050610c0b565b600085602001518a61095791906125d2565b9050600092505b8451518310156109ab57808560000151848151811061097f5761097f61258d565b60200260200101511161099457829150610999565b6109ab565b826109a3816125e5565b93505061095e565b600092505b818310156109ff5786856040015184815181106109cf576109cf61258d565b60200260200101516109e191906125fe565b6109eb90896125b9565b9750826109f7816125e5565b9350506109b0565b845151600090610a11906001906125d2565b8303610a555785518051610a27906001906125d2565b81518110610a3757610a3761258d565b60200260200101518660200151610a4e91906125d2565b9050610aa8565b8551805184908110610a6957610a6961258d565b60200260200101518660000151846001610a8391906125b9565b81518110610a9357610a9361258d565b6020026020010151610aa591906125d2565b90505b80600003610ab4575060015b600086606001518481518110610acc57610acc61258d565b602002602001015182610adf9190612615565b9050600087600001518581518110610af957610af961258d565b602002602001015184610b0c91906125d2565b9050600082610b1b89846125fe565b610b259190612615565b90508789606001518781518110610b3e57610b3e61258d565b6020026020010151828d8c604001518a81518110610b5e57610b5e61258d565b6020026020010151610b7091906125fe565b610b7a91906125fe565b610b849190612615565b610b8e9190612615565b610b98908d6125b9565b9b508a6127108b606001518e610bae91906125fe565b610bb89190612615565b610bc29190612615565b9b5089606001518c1115610bd85789606001519b505b8b8a604001511115610bed5760009c50610bff565b60408a0151610bfc908d6125d2565b9c505b50505050505050505050505b9250929050565b610c1a611849565b6004805460ff60a81b191690556040517f4be5ee7c6a0a76b9209bebdd61b374e76803cfaa8e72886ee892b8dc972423f390600090a1610c686305e9a76960e21b610c6361189d565b6118b0565b600380546001600160a01b0319169055565b60008181526005602090815260408083208151815460c09481028201850190935260a081018381526060959491938492849190840182828015610cdc57602002820191906000526020600020905b815481526020019060010190808311610cc8575b505050505081526020016001820154815260200160028201805480602002602001604051908101604052809291908181526020018280548015610d3e57602002820191906000526020600020905b815481526020019060010190808311610d2a575b5050505050815260200160038201805480602002602001604051908101604052809291908181526020018280548015610d9657602002820191906000526020600020905b815481526020019060010190808311610d82575b50505091835250506004919091015460ff161515602091820152815182820151604080850151606086015160808701519251969750610dde9694959394919390929101612637565b604051602081830303815290604052915050919050565b6000546001600160a01b031615610e1f576040516311f9360560e31b815260040160405180910390fd5b600080546001600160a01b0319166001600160a01b0392909216919091179055565b610e4961192e565b60005b86811015610f6b57610e5c61072a565b6002546001600160a01b039182169116636352211e8a8a85818110610e8357610e8361258d565b905060200201356040518263ffffffff1660e01b8152600401610ea891815260200190565b602060405180830381865afa158015610ec5573d6000803e3d6000fd5b505050506040513d601f19601f82011682018060405250810190610ee9919061268b565b6001600160a01b031614610f1057604051637f63bd0f60e01b815260040160405180910390fd5b610f59888883818110610f2557610f2561258d565b90506020020135878784818110610f3e57610f3e61258d565b9050602002016020810190610f5391906121a7565b86611966565b80610f63816125e5565b915050610e4c565b50610f7f633ac1db0960e01b610c6361189d565b610f96600160008051602061295783398151915255565b50505050505050565b610fa7611849565b600454600160a81b900460ff16610fd157604051637f63bd0f60e01b815260040160405180910390fd5b600380546001600160a01b0319166001600160a01b038316179055610fff633dfd387360e01b610c6361189d565b50565b60008061100f8342610739565b9094909350915050565b611021611849565b600480546001600160a01b0319166001600160a01b0383169081179091556040519081527fee1bb493d7c23b025fa54ed4a0e75607c5b5038907b273223fc660f83dab365d9060200160405180910390a150565b61107d611849565b60005b8881101561110b576110f98a8a8381811061109d5761109d61258d565b90506020020160208101906110b291906121a7565b8989848181106110c4576110c461258d565b9050608002018036038101906110da91906126e6565b8888858181106110ec576110ec61258d565b9050602002013587611b25565b80611103816125e5565b915050611080565b5061111f635e55848b60e01b610c6361189d565b505050505050505050565b61113261192e565b6004546001600160a01b031661114661072a565b6001600160a01b03161461116d57604051637f63bd0f60e01b815260040160405180910390fd5b60005b848110156111ae5761119c86868381811061118d5761118d61258d565b90506020020135600086611966565b806111a6816125e5565b915050611170565b506111c2636629304960e01b610c6361189d565b6111d9600160008051602061295783398151915255565b5050505050565b6111e8611c83565b565b6111f2611849565b6004805460ff60a01b191690556040517f3a99ec168e67aaf838b65474d219f8c65d960d7a00ab5bea7c2f02fdc56a0cdb90600090a16111e8637733e0fb60e01b610c6361189d565b6060611245611849565b600454600160a01b900460ff1661126f57604051637f63bd0f60e01b815260040160405180910390fd5b866001600160401b03811115611287576112876126a8565b6040519080825280602002602001820160405280156112b0578160200160208202803683370190505b50905060005b878110156113fe5760008989838181106112d2576112d261258d565b90506020020135905060006112e682611002565b5090508888848181106112fb576112fb61258d565b9050602002016020810190611310919061274b565b61133857600082815260076020526040812080548392906113329084906125b9565b90915550505b8084848151811061134b5761134b61258d565b6020026020010181815250507f722bef2bf5e70d834c942d4d5afc99471963bfce84ada00ef3f8c7b880d6adb682828b8b8781811061138c5761138c61258d565b90506020020160208101906113a1919061274b565b6040805193845260208401929092521515908201526060810189905260800160405180910390a1506000908152600660205260408120818155600181018290556002810182905560030155806113f6816125e5565b9150506112b6565b50611412638579705160e01b610c6361189d565b979650505050505050565b60006107347f9016d09d72d40fdae2fd8ceac6b6234c7706214fd39c1cd1e609a0528c199300546001600160a01b031690565b611458611849565b6004805460ff60b01b191690556040517f37ae717bce398f7d557a36324e1fa87c0d2d1a4f1a51d7c0b8a19df8d99e29c890600090a16111e863ce8d388d60e01b610c6361189d565b6114a9611849565b60005b86811015611515576115038888838181106114c9576114c961258d565b905060200201358787848181106114e2576114e261258d565b90506020028101906114f49190612766565b6114fd90612815565b86611c95565b8061150d816125e5565b9150506114ac565b50610f9663d579155960e01b610c6361189d565b7ff0c57e16840df040f15088dc2f81fe391c3923bec73e23a9662efc9c229c6a008054600160401b810460ff1615906001600160401b031660008115801561156e5750825b90506000826001600160401b0316600114801561158a5750303b155b905081158015611598575080155b156115b65760405163f92ee8a960e01b815260040160405180910390fd5b845467ffffffffffffffff1916600117855583156115e057845460ff60401b1916600160401b1785555b6115f06115eb61072a565b611db8565b6115f98b611df3565b600280546001600160a01b03808d166001600160a01b03199283161790925560018054928c1692909116919091179055611631611dfb565b61163961141d565b600480546001600160a01b03929092166001600160a81b031990921691909117600160a01b8a1515021761ffff60a81b1916600160a81b8915150260ff60b01b191617600160b01b8815150217905583156116ce57845460ff60401b19168555604051600181527fc7f505b2f371ae2175ee4913f4499e1f2633a7b5936321eed1cdaeb6115181d29060200160405180910390a15b5050505050505050505050565b6116e3611849565b600880546001600160a01b0319166001600160a01b03831617905550565b611709611849565b600454600160b01b900460ff1661173357604051637f63bd0f60e01b815260040160405180910390fd5b60008061173e61072a565b6001600160a01b03168560405160006040518083038185875af1925050503d8060008114611788576040519150601f19603f3d011682016040523d82523d6000602084013e61178d565b606091505b50915091508181906117bb5760405162461bcd60e51b81526004016117b2919061217f565b60405180910390fd5b507f6352c5382c4a4578e712449ca65e83cdb392d045dfcf1cad9615189db2da244b6117e561072a565b604080516001600160a01b039092168252602082018890520160405180910390a16111d963721c9a8b60e11b610c6361189d565b61102181611e03565b6008546000906001600160a01b03163303611844575060131936013560601c90565b503390565b61185161072a565b6001600160a01b031661186261141d565b6001600160a01b0316146111e85761187861072a565b60405163118cdaa760e01b81526001600160a01b0390911660048201526024016117b2565b3660006118a8611e0b565b915091509091565b6003546001600160a01b03166118c557505050565b6003546001600160a01b03166374a14fd48484846118e161072a565b6040518563ffffffff1660e01b815260040161190094939291906128c1565b600060405180830381600087803b15801561191a57600080fd5b505af1158015610f96573d6000803e3d6000fd5b60008051602061295783398151915280546001190161196057604051633ee5aeb560e01b815260040160405180910390fd5b60029055565b6000806001600160a01b0384166119eb576002546040516331a9108f60e11b8152600481018790526001600160a01b0390911690636352211e90602401602060405180830381865afa1580156119c0573d6000803e3d6000fd5b505050506040513d601f19601f820116820180604052508101906119e4919061268b565b90506119ee565b50825b60008581526007602052604090205491508115611a91576000858152600760205260408082208290555181906001600160a01b0384169085908381818185875af1925050503d8060008114611a5f576040519150601f19603f3d011682016040523d82523d6000602084013e611a64565b606091505b5091509150818190611a895760405162461bcd60e51b81526004016117b2919061217f565b505050611a9e565b611a9b8582611e47565b91505b60007fbc6d6878a97806274fc49a58a7438505eb22cc99029fe9ce4f9926fe24a7848186611aca61072a565b604080519283526001600160a01b03918216602084015290851690820152606081018590526080810183905260a0810186905260c0015b60405180910390a1505050505050565b600160008051602061295783398151915255565b6002546040516340d097c360e01b81526001600160a01b03868116600483015260009216906340d097c3906024016020604051808303816000875af1158015611b72573d6000803e3d6000fd5b505050506040513d601f19601f82011682018060405250810190611b969190612913565b84516000908152600560205260409020909150611bb281611ef3565b15611bd0576040516303be3a3760e21b815260040160405180910390fd5b8460600151856040015110611bf8576040516378c0fc4360e01b815260040160405180910390fd5b60008281526006602090815260409182902087518082558883015160018301558884015160028301556060808a015160039093019290925583519081529182018590526001600160a01b03891692820192909252908101859052608081018490527fbfb1e0f8b9ebcc64e4f4ca88ad9d0077ee1847ad04abbf0b4e9f5c63ae34d3769060a001611b01565b611c8b611849565b6111e86000611f2d565b6000838152600560205260409020611cac90611ef3565b611cc957604051631f2ec56d60e21b815260040160405180910390fd5b611cd282611f9e565b1580611cdc575082155b15611cfa576040516303be3a3760e21b815260040160405180910390fd5b6000838152600560209081526040909120835180518593611d1f92849291019061209e565b50602082810151600183015560408301518051611d42926002850192019061209e565b5060608201518051611d5e91600384019160209091019061209e565b50608091909101516004909101805460ff191691151591909117905560408051848152602081018390527fd9e41d72fe3da30af98d3172c0ed1f85bf3951b4ef47a2fe1c1cde7a17a92515910160405180910390a1505050565b611dc0612055565b6001600160a01b038116611dea57604051631e4fbdf760e01b8152600060048201526024016117b2565b610fff81611f2d565b610e1f612055565b611b11612055565b611dc0611849565b60085436906000906001600160a01b03163303611e3e5760008036611e316014826125d2565b926118a89392919061292c565b50600091369150565b6000806000611e5585611002565b600087815260066020526040808220600281018490559051939550919350909181906001600160a01b0388169086908381818185875af1925050503d8060008114611ebc576040519150601f19603f3d011682016040523d82523d6000602084013e611ec1565b606091505b5091509150818190611ee65760405162461bcd60e51b81526004016117b2919061217f565b5093979650505050505050565b60018101546003820154825460028401546000939291611f12916125fe565b611f1c91906125fe565b611f2691906125fe565b1592915050565b7f9016d09d72d40fdae2fd8ceac6b6234c7706214fd39c1cd1e609a0528c19930080546001600160a01b031981166001600160a01b03848116918217845560405192169182907f8be0079c531659141344cd1fd0a4f28419497f9722a3daafe3b4186f6b6457e090600090a3505050565b60008060005b836040015151811015611fee5783604001518181518110611fc757611fc761258d565b602002602001015182611fda91906125b9565b915080611fe6816125e5565b915050611fa4565b50612710811480156120065750825151604084015151145b801561203c5750602083015183518051612022906001906125d2565b815181106120325761203261258d565b6020026020010151105b801561204e5750825151606084015151145b9392505050565b7ff0c57e16840df040f15088dc2f81fe391c3923bec73e23a9662efc9c229c6a0054600160401b900460ff166111e857604051631afcd79f60e31b815260040160405180910390fd5b8280548282559060005260206000209081019282156120d9579160200282015b828111156120d95782518255916020019190600101906120be565b506120e59291506120e9565b5090565b5b808211156120e557600081556001016120ea565b60006020828403121561211057600080fd5b5035919050565b6000806040838503121561212a57600080fd5b50508035926020909101359150565b6000815180845260005b8181101561215f57602081850181015186830182015201612143565b506000602082860101526020601f19601f83011685010191505092915050565b60208152600061204e6020830184612139565b6001600160a01b0381168114610fff57600080fd5b6000602082840312156121b957600080fd5b813561204e81612192565b60008083601f8401126121d657600080fd5b5081356001600160401b038111156121ed57600080fd5b6020830191508360208260051b8501011115610c0b57600080fd5b60008083601f84011261221a57600080fd5b5081356001600160401b0381111561223157600080fd5b602083019150836020828501011115610c0b57600080fd5b60008060008060008060006080888a03121561226457600080fd5b87356001600160401b038082111561227b57600080fd5b6122878b838c016121c4565b909950975060208a01359150808211156122a057600080fd5b6122ac8b838c016121c4565b909750955060408a0135945060608a01359150808211156122cc57600080fd5b506122d98a828b01612208565b989b979a50959850939692959293505050565b600080600080600080600080600060a08a8c03121561230a57600080fd5b89356001600160401b038082111561232157600080fd5b61232d8d838e016121c4565b909b50995060208c013591508082111561234657600080fd5b818c0191508c601f83011261235a57600080fd5b81358181111561236957600080fd5b8d60208260071b850101111561237e57600080fd5b6020830199508098505060408c013591508082111561239c57600080fd5b6123a88d838e016121c4565b909750955060608c0135945060808c01359150808211156123c857600080fd5b506123d58c828d01612208565b915080935050809150509295985092959850929598565b60008060008060006060868803121561240457600080fd5b85356001600160401b038082111561241b57600080fd5b61242789838a016121c4565b909750955060208801359450604088013591508082111561244757600080fd5b5061245488828901612208565b969995985093965092949392505050565b600081518084526020808501945080840160005b8381101561249557815187529582019590820190600101612479565b509495945050505050565b60208152600061204e6020830184612465565b803580151581146124c357600080fd5b919050565b60008060008060008060c087890312156124e157600080fd5b86356124ec81612192565b955060208701356124fc81612192565b9450604087013561250c81612192565b935061251a606088016124b3565b9250612528608088016124b3565b915061253660a088016124b3565b90509295509295509295565b60008060006040848603121561255757600080fd5b8335925060208401356001600160401b0381111561257457600080fd5b61258086828701612208565b9497909650939450505050565b634e487b7160e01b600052603260045260246000fd5b634e487b7160e01b600052601160045260246000fd5b808201808211156125cc576125cc6125a3565b92915050565b818103818111156125cc576125cc6125a3565b6000600182016125f7576125f76125a3565b5060010190565b80820281158282048414176125cc576125cc6125a3565b60008261263257634e487b7160e01b600052601260045260246000fd5b500490565b60a08152600061264a60a0830188612465565b86602084015282810360408401526126628187612465565b905082810360608401526126768186612465565b91505082151560808301529695505050505050565b60006020828403121561269d57600080fd5b815161204e81612192565b634e487b7160e01b600052604160045260246000fd5b60405160a081016001600160401b03811182821017156126e0576126e06126a8565b60405290565b6000608082840312156126f857600080fd5b604051608081018181106001600160401b038211171561271a5761271a6126a8565b8060405250823581526020830135602082015260408301356040820152606083013560608201528091505092915050565b60006020828403121561275d57600080fd5b61204e826124b3565b60008235609e1983360301811261277c57600080fd5b9190910192915050565b600082601f83011261279757600080fd5b813560206001600160401b03808311156127b3576127b36126a8565b8260051b604051601f19603f830116810181811084821117156127d8576127d86126a8565b6040529384528581018301938381019250878511156127f657600080fd5b83870191505b84821015611412578135835291830191908301906127fc565b600060a0823603121561282757600080fd5b61282f6126be565b82356001600160401b038082111561284657600080fd5b61285236838701612786565b835260208501356020840152604085013591508082111561287257600080fd5b61287e36838701612786565b6040840152606085013591508082111561289757600080fd5b506128a436828601612786565b6060830152506128b6608084016124b3565b608082015292915050565b63ffffffff60e01b85168152606060208201528260608201528284608083013760008184016080908101919091526001600160a01b03929092166040820152601f909201601f19169091010192915050565b60006020828403121561292557600080fd5b5051919050565b6000808585111561293c57600080fd5b8386111561294957600080fd5b505082019391909203915056fe9b779b17422d0df92223018b32b4d1fa46e071723d6817e2486d003becc55f00a2646970667358221220646e433073083100e1b55d83d651f532f48fe326c0705675db271c45d3774ade64736f6c63430008140033",
  "devdoc": {
    "errors": {
      "InvalidInitialization()": [
        {
          "details": "The contract is already initialized."
        }
      ],
      "InvalidPresetFormat()": [
        {
          "details": "0x0ef8e8dc"
        }
      ],
      "InvalidSkipAmount()": [
        {
          "details": "0x78c0fc43"
        }
      ],
      "NotInitializing()": [
        {
          "details": "The contract is not initializing."
        }
      ],
      "NotPermissioned()": [
        {
          "details": "0x7f63bd0f"
        }
      ],
      "OwnableInvalidOwner(address)": [
        {
          "details": "The owner is not a valid owner account. (eg. `address(0)`)"
        }
      ],
      "OwnableUnauthorizedAccount(address)": [
        {
          "details": "The caller account is not authorized to perform an operation."
        }
      ],
      "PresetDoesNotExist()": [
        {
          "details": "0xbd88ff7b"
        }
      ],
      "PresetExists()": [
        {
          "details": "0x7cbb15b4"
        }
      ],
      "ReentrancyGuardReentrantCall()": [
        {
          "details": "Unauthorized reentrant call."
        }
      ]
    },
    "events": {
      "Initialized(uint64)": {
        "details": "Triggered when the contract has been initialized or reinitialized."
      }
    },
    "kind": "dev",
    "methods": {
      "calculateAmountClaimable(uint256)": {
        "details": "This is the most complex part of the smart contract. Quite a bit of calculations are performed here.",
        "params": {
          "actualId": "The ID of the actual unlocking schedule that we are working with."
        },
        "returns": {
          "deltaAmountClaimable": "Amount of tokens claimable right now.",
          "updatedAmountClaimed": "New total amount of tokens claimed. This is the sum of all previously claimed tokens and `deltaAmountClaimable`."
        }
      },
      "disableCancel()": {
        "details": "Only callable by the owner."
      },
      "disableHook()": {
        "details": "Only callable by the owner."
      },
      "disableWithdraw()": {
        "details": "Only callable by the owner."
      },
      "getEncodedPreset(bytes32)": {
        "params": {
          "presetId": "The ID of the preset we are trying to read."
        },
        "returns": {
          "_0": "An ABI-encoded `Preset`, as nested objects cannot be returned directly in Solidity."
        }
      },
      "initialize(address,address,address,bool,bool,bool)": {
        "details": "This contract should be deployed with `TTUDeployerLite`, which calls this function with the correct parameters.",
        "params": {
          "deployer_": "The address of the deployer. It helps call the fee collector during claim.",
          "futureToken_": "The address of the associated FutureToken.",
          "isCancelable_": "If the founder is allowed to cancel schedules. Can be disabled later, but cannot be enabled again.",
          "isHookable_": "If the founder is allowed to attach external hooks to function calls. Can be disabled later, but cannot be enabled again.",
          "isWithdrawable_": "If the founder is allowed to withdraw deposited tokens. Can be disabled later, but cannot be enabled again.",
          "projectToken": "The address of the token that the founder intends to unlock and distribute."
        }
      },
      "setClaimingDelegate(address)": {
        "details": "Only callable by the owner."
      },
      "simulateAmountClaimable(uint256,uint256)": {
        "details": "This is the most complex part of the smart contract. Quite a bit of calculations are performed here.",
        "params": {
          "actualId": "The ID of the actual unlocking schedule that we are working with.",
          "claimTimestampAbsolute": "The simulated time of claim."
        },
        "returns": {
          "deltaAmountClaimable": "Amount of tokens claimable right now.",
          "updatedAmountClaimed": "New total amount of tokens claimed. This is the sum of all previously claimed tokens and `deltaAmountClaimable`."
        }
      }
    },
    "version": 1
  },
  "userdoc": {
    "kind": "user",
    "methods": {
      "actuals(uint256)": {
        "notice": "Returns the Actual struct based on the input ID."
      },
      "calculateAmountClaimable(uint256)": {
        "notice": "Calculates the amount of unlocked tokens that have yet to be claimed in an actual unlocking schedule."
      },
      "disableCancel()": {
        "notice": "Permanently disables the `cancel()` function."
      },
      "disableHook()": {
        "notice": "Permanently disables the hook."
      },
      "disableWithdraw()": {
        "notice": "Permanently prevents the founder from withdrawing deposits."
      },
      "getEncodedPreset(bytes32)": {
        "notice": "To decode in JS, use: ```js  ethers.utils.defaultAbiCoder.decode(      ['uint256[]', 'uint256', 'uint256[]', 'uint256[]', 'bool'],      encodedPreset  ) ```"
      },
      "setClaimingDelegate(address)": {
        "notice": "Sets the claiming delegate who can trigger claims on behalf of recipients."
      },
      "simulateAmountClaimable(uint256,uint256)": {
        "notice": "Simulates the amount of unlocked tokens that have yet to be claimed at a specific time in an actual unlocking schedule."
      }
    },
    "version": 1
  },
  "storageLayout": {
    "storage": [
      {
        "astId": 2604,
        "contract": "contracts/core/extensions/native-token/TTUV2Native.sol:TTUV2Native",
        "label": "_projectToken",
        "offset": 0,
        "slot": "0",
        "type": "t_address"
      },
      {
        "astId": 2693,
        "contract": "contracts/core/extensions/native-token/TTUV2Native.sol:TTUV2Native",
        "label": "deployer",
        "offset": 0,
        "slot": "1",
        "type": "t_contract(ITTUDeployer)4609"
      },
      {
        "astId": 2697,
        "contract": "contracts/core/extensions/native-token/TTUV2Native.sol:TTUV2Native",
        "label": "futureToken",
        "offset": 0,
        "slot": "2",
        "type": "t_contract(ITTFutureTokenV2)4505"
      },
      {
        "astId": 2701,
        "contract": "contracts/core/extensions/native-token/TTUV2Native.sol:TTUV2Native",
        "label": "hook",
        "offset": 0,
        "slot": "3",
        "type": "t_contract(ITTHook)4519"
      },
      {
        "astId": 2704,
        "contract": "contracts/core/extensions/native-token/TTUV2Native.sol:TTUV2Native",
        "label": "claimingDelegate",
        "offset": 0,
        "slot": "4",
        "type": "t_address"
      },
      {
        "astId": 2707,
        "contract": "contracts/core/extensions/native-token/TTUV2Native.sol:TTUV2Native",
        "label": "isCancelable",
        "offset": 20,
        "slot": "4",
        "type": "t_bool"
      },
      {
        "astId": 2710,
        "contract": "contracts/core/extensions/native-token/TTUV2Native.sol:TTUV2Native",
        "label": "isHookable",
        "offset": 21,
        "slot": "4",
        "type": "t_bool"
      },
      {
        "astId": 2713,
        "contract": "contracts/core/extensions/native-token/TTUV2Native.sol:TTUV2Native",
        "label": "isWithdrawable",
        "offset": 22,
        "slot": "4",
        "type": "t_bool"
      },
      {
        "astId": 2718,
        "contract": "contracts/core/extensions/native-token/TTUV2Native.sol:TTUV2Native",
        "label": "_presets",
        "offset": 0,
        "slot": "5",
        "type": "t_mapping(t_bytes32,t_struct(Preset)4988_storage)"
      },
      {
        "astId": 2724,
        "contract": "contracts/core/extensions/native-token/TTUV2Native.sol:TTUV2Native",
        "label": "actuals",
        "offset": 0,
        "slot": "6",
        "type": "t_mapping(t_uint256,t_struct(Actual)4998_storage)"
      },
      {
        "astId": 2729,
        "contract": "contracts/core/extensions/native-token/TTUV2Native.sol:TTUV2Native",
        "label": "pendingAmountClaimableForCancelledActuals",
        "offset": 0,
        "slot": "7",
        "type": "t_mapping(t_uint256,t_uint256)"
      },
      {
        "astId": 5082,
        "contract": "contracts/core/extensions/native-token/TTUV2Native.sol:TTUV2Native",
        "label": "trustedForwarder",
        "offset": 0,
        "slot": "8",
        "type": "t_address"
      }
    ],
    "types": {
      "t_address": {
        "encoding": "inplace",
        "label": "address",
        "numberOfBytes": "20"
      },
      "t_array(t_uint256)dyn_storage": {
        "base": "t_uint256",
        "encoding": "dynamic_array",
        "label": "uint256[]",
        "numberOfBytes": "32"
      },
      "t_bool": {
        "encoding": "inplace",
        "label": "bool",
        "numberOfBytes": "1"
      },
      "t_bytes32": {
        "encoding": "inplace",
        "label": "bytes32",
        "numberOfBytes": "32"
      },
      "t_contract(ITTFutureTokenV2)4505": {
        "encoding": "inplace",
        "label": "contract ITTFutureTokenV2",
        "numberOfBytes": "20"
      },
      "t_contract(ITTHook)4519": {
        "encoding": "inplace",
        "label": "contract ITTHook",
        "numberOfBytes": "20"
      },
      "t_contract(ITTUDeployer)4609": {
        "encoding": "inplace",
        "label": "contract ITTUDeployer",
        "numberOfBytes": "20"
      },
      "t_mapping(t_bytes32,t_struct(Preset)4988_storage)": {
        "encoding": "mapping",
        "key": "t_bytes32",
        "label": "mapping(bytes32 => struct Preset)",
        "numberOfBytes": "32",
        "value": "t_struct(Preset)4988_storage"
      },
      "t_mapping(t_uint256,t_struct(Actual)4998_storage)": {
        "encoding": "mapping",
        "key": "t_uint256",
        "label": "mapping(uint256 => struct Actual)",
        "numberOfBytes": "32",
        "value": "t_struct(Actual)4998_storage"
      },
      "t_mapping(t_uint256,t_uint256)": {
        "encoding": "mapping",
        "key": "t_uint256",
        "label": "mapping(uint256 => uint256)",
        "numberOfBytes": "32",
        "value": "t_uint256"
      },
      "t_struct(Actual)4998_storage": {
        "encoding": "inplace",
        "label": "struct Actual",
        "members": [
          {
            "astId": 4991,
            "contract": "contracts/core/extensions/native-token/TTUV2Native.sol:TTUV2Native",
            "label": "presetId",
            "offset": 0,
            "slot": "0",
            "type": "t_bytes32"
          },
          {
            "astId": 4993,
            "contract": "contracts/core/extensions/native-token/TTUV2Native.sol:TTUV2Native",
            "label": "startTimestampAbsolute",
            "offset": 0,
            "slot": "1",
            "type": "t_uint256"
          },
          {
            "astId": 4995,
            "contract": "contracts/core/extensions/native-token/TTUV2Native.sol:TTUV2Native",
            "label": "amountClaimed",
            "offset": 0,
            "slot": "2",
            "type": "t_uint256"
          },
          {
            "astId": 4997,
            "contract": "contracts/core/extensions/native-token/TTUV2Native.sol:TTUV2Native",
            "label": "totalAmount",
            "offset": 0,
            "slot": "3",
            "type": "t_uint256"
          }
        ],
        "numberOfBytes": "128"
      },
      "t_struct(Preset)4988_storage": {
        "encoding": "inplace",
        "label": "struct Preset",
        "members": [
          {
            "astId": 4977,
            "contract": "contracts/core/extensions/native-token/TTUV2Native.sol:TTUV2Native",
            "label": "linearStartTimestampsRelative",
            "offset": 0,
            "slot": "0",
            "type": "t_array(t_uint256)dyn_storage"
          },
          {
            "astId": 4979,
            "contract": "contracts/core/extensions/native-token/TTUV2Native.sol:TTUV2Native",
            "label": "linearEndTimestampRelative",
            "offset": 0,
            "slot": "1",
            "type": "t_uint256"
          },
          {
            "astId": 4982,
            "contract": "contracts/core/extensions/native-token/TTUV2Native.sol:TTUV2Native",
            "label": "linearBips",
            "offset": 0,
            "slot": "2",
            "type": "t_array(t_uint256)dyn_storage"
          },
          {
            "astId": 4985,
            "contract": "contracts/core/extensions/native-token/TTUV2Native.sol:TTUV2Native",
            "label": "numOfUnlocksForEachLinear",
            "offset": 0,
            "slot": "3",
            "type": "t_array(t_uint256)dyn_storage"
          },
          {
            "astId": 4987,
            "contract": "contracts/core/extensions/native-token/TTUV2Native.sol:TTUV2Native",
            "label": "stream",
            "offset": 0,
            "slot": "4",
            "type": "t_bool"
          }
        ],
        "numberOfBytes": "160"
      },
      "t_uint256": {
        "encoding": "inplace",
        "label": "uint256",
        "numberOfBytes": "32"
      }
    }
  }
}