{
  "address": "0x6c241FF6d5c3f074b49aC10872770529d9e27BA4",
  "abi": [
    {
      "inputs": [
        {
          "internalType": "address",
          "name": "unlockerImpl",
          "type": "address"
        },
        {
          "internalType": "address",
          "name": "futureTokenImpl",
          "type": "address"
        },
        {
          "internalType": "address",
          "name": "trackerTokenImpl",
          "type": "address"
        }
      ],
      "stateMutability": "nonpayable",
      "type": "constructor"
    },
    {
      "inputs": [
        {
          "internalType": "address",
          "name": "owner",
          "type": "address"
        }
      ],
      "name": "OwnableInvalidOwner",
      "type": "error"
    },
    {
      "inputs": [
        {
          "internalType": "address",
          "name": "account",
          "type": "address"
        }
      ],
      "name": "OwnableUnauthorizedAccount",
      "type": "error"
    },
    {
      "anonymous": false,
      "inputs": [
        {
          "indexed": true,
          "internalType": "address",
          "name": "previousOwner",
          "type": "address"
        },
        {
          "indexed": true,
          "internalType": "address",
          "name": "newOwner",
          "type": "address"
        }
      ],
      "name": "OwnershipTransferred",
      "type": "event"
    },
    {
      "inputs": [],
      "name": "futureTokenBeacon",
      "outputs": [
        {
          "internalType": "contract UpgradeableBeacon",
          "name": "",
          "type": "address"
        }
      ],
      "stateMutability": "view",
      "type": "function"
    },
    {
      "inputs": [],
      "name": "owner",
      "outputs": [
        {
          "internalType": "address",
          "name": "",
          "type": "address"
        }
      ],
      "stateMutability": "view",
      "type": "function"
    },
    {
      "inputs": [],
      "name": "renounceOwnership",
      "outputs": [],
      "stateMutability": "nonpayable",
      "type": "function"
    },
    {
      "inputs": [],
      "name": "trackerTokenBeacon",
      "outputs": [
        {
          "internalType": "contract UpgradeableBeacon",
          "name": "",
          "type": "address"
        }
      ],
      "stateMutability": "view",
      "type": "function"
    },
    {
      "inputs": [
        {
          "internalType": "address",
          "name": "newOwner",
          "type": "address"
        }
      ],
      "name": "transferOwnership",
      "outputs": [],
      "stateMutability": "nonpayable",
      "type": "function"
    },
    {
      "inputs": [],
      "name": "unlockerBeacon",
      "outputs": [
        {
          "internalType": "contract UpgradeableBeacon",
          "name": "",
          "type": "address"
        }
      ],
      "stateMutability": "view",
      "type": "function"
    },
    {
      "inputs": [
        {
          "internalType": "address",
          "name": "newImpl",
          "type": "address"
        }
      ],
      "name": "upgradeFutureToken",
      "outputs": [],
      "stateMutability": "nonpayable",
      "type": "function"
    },
    {
      "inputs": [
        {
          "internalType": "address",
          "name": "newImpl",
          "type": "address"
        }
      ],
      "name": "upgradePreviewToken",
      "outputs": [],
      "stateMutability": "nonpayable",
      "type": "function"
    },
    {
      "inputs": [
        {
          "internalType": "address",
          "name": "newImpl",
          "type": "address"
        }
      ],
      "name": "upgradeUnlocker",
      "outputs": [],
      "stateMutability": "nonpayable",
      "type": "function"
    },
    {
      "inputs": [],
      "name": "version",
      "outputs": [
        {
          "internalType": "string",
          "name": "",
          "type": "string"
        }
      ],
      "stateMutability": "pure",
      "type": "function"
    }
  ],
  "transactionHash": "0x6effeae82534e4f3d63a9d0c662bede1c990debaa1e549917e81f1b68047abb4",
  "args": [
    "0x2774d96a841E522549CE7ADd3825fC31075384Cf",
    "0x7915dA247674E430b2a4Dcf01e4471f709428Bc0",
    "0x2906d67A0929e1E6C9102AA4d97e1f1F9B112153"
  ],
  "numDeployments": 1,
  "solcInputHash": "8f7ddac5c7c5c41eec7534097194a27b",
  "bytecode": "0x60e060405234801561001057600080fd5b50604051610b10380380610b1083398101604081905261002f916101cf565b338061005557604051631e4fbdf760e01b81526000600482015260240160405180910390fd5b61005e81610156565b50823060405161006d906101a6565b6001600160a01b03928316815291166020820152604001604051809103906000f0801580156100a0573d6000803e3d6000fd5b506001600160a01b0316608052604051829030906100bd906101a6565b6001600160a01b03928316815291166020820152604001604051809103906000f0801580156100f0573d6000803e3d6000fd5b506001600160a01b031660a0526040518190309061010d906101a6565b6001600160a01b03928316815291166020820152604001604051809103906000f080158015610140573d6000803e3d6000fd5b506001600160a01b031660c05250610212915050565b600080546001600160a01b038381166001600160a01b0319831681178455604051919092169283917f8be0079c531659141344cd1fd0a4f28419497f9722a3daafe3b4186f6b6457e09190a35050565b610438806106d883390190565b80516001600160a01b03811681146101ca57600080fd5b919050565b6000806000606084860312156101e457600080fd5b6101ed846101b3565b92506101fb602085016101b3565b9150610209604085016101b3565b90509250925092565b60805160a05160c0516104826102566000396000818161016b015261027501526000818161010801526102df01526000818161019201526101ee01526104826000f3fe608060405234801561001057600080fd5b506004361061009e5760003560e01c80638da5cb5b116100665780638da5cb5b14610142578063a47bee7f14610153578063d63ea2c514610166578063ec5319871461018d578063f2fde38b146101b457600080fd5b8063182e5914146100a3578063468b6a49146100b857806354fd4d50146100cb578063715018a6146100fb57806378e65efc14610103575b600080fd5b6100b66100b13660046103ce565b6101c7565b005b6100b66100c63660046103ce565b61024e565b6040805180820182526005815264322e302e3160d81b602082015290516100f291906103fe565b60405180910390f35b6100b66102a4565b61012a7f000000000000000000000000000000000000000000000000000000000000000081565b6040516001600160a01b0390911681526020016100f2565b6000546001600160a01b031661012a565b6100b66101613660046103ce565b6102b8565b61012a7f000000000000000000000000000000000000000000000000000000000000000081565b61012a7f000000000000000000000000000000000000000000000000000000000000000081565b6100b66101c23660046103ce565b61030e565b6101cf610351565b604051631b2ce7f360e11b81526001600160a01b0382811660048301527f00000000000000000000000000000000000000000000000000000000000000001690633659cfe6906024015b600060405180830381600087803b15801561023357600080fd5b505af1158015610247573d6000803e3d6000fd5b5050505050565b610256610351565b604051631b2ce7f360e11b81526001600160a01b0382811660048301527f00000000000000000000000000000000000000000000000000000000000000001690633659cfe690602401610219565b6102ac610351565b6102b6600061037e565b565b6102c0610351565b604051631b2ce7f360e11b81526001600160a01b0382811660048301527f00000000000000000000000000000000000000000000000000000000000000001690633659cfe690602401610219565b610316610351565b6001600160a01b03811661034557604051631e4fbdf760e01b8152600060048201526024015b60405180910390fd5b61034e8161037e565b50565b6000546001600160a01b031633146102b65760405163118cdaa760e01b815233600482015260240161033c565b600080546001600160a01b038381166001600160a01b0319831681178455604051919092169283917f8be0079c531659141344cd1fd0a4f28419497f9722a3daafe3b4186f6b6457e09190a35050565b6000602082840312156103e057600080fd5b81356001600160a01b03811681146103f757600080fd5b9392505050565b600060208083528351808285015260005b8181101561042b5785810183015185820160400152820161040f565b506000604082860101526040601f19601f830116850101925050509291505056fea2646970667358221220b4dd63485a8d90083e9a1da81c89cb3c98a4b84eaa470937e3f243d983b9bdbf64736f6c63430008140033608060405234801561001057600080fd5b5060405161043838038061043883398101604081905261002f91610165565b806001600160a01b03811661005f57604051631e4fbdf760e01b8152600060048201526024015b60405180910390fd5b61006881610079565b50610072826100c9565b5050610198565b600080546001600160a01b038381166001600160a01b0319831681178455604051919092169283917f8be0079c531659141344cd1fd0a4f28419497f9722a3daafe3b4186f6b6457e09190a35050565b806001600160a01b03163b6000036100ff5760405163211eb15960e21b81526001600160a01b0382166004820152602401610056565b600180546001600160a01b0319166001600160a01b0383169081179091556040517fbc7cd75a20ee27fd9adebab32041f755214dbc6bffa90cc0225b39da2e5c2d3b90600090a250565b80516001600160a01b038116811461016057600080fd5b919050565b6000806040838503121561017857600080fd5b61018183610149565b915061018f60208401610149565b90509250929050565b610291806101a76000396000f3fe608060405234801561001057600080fd5b50600436106100575760003560e01c80633659cfe61461005c5780635c60da1b14610071578063715018a61461009a5780638da5cb5b146100a2578063f2fde38b146100b3575b600080fd5b61006f61006a36600461022b565b6100c6565b005b6001546001600160a01b03165b6040516001600160a01b03909116815260200160405180910390f35b61006f6100da565b6000546001600160a01b031661007e565b61006f6100c136600461022b565b6100ee565b6100ce61012e565b6100d78161015b565b50565b6100e261012e565b6100ec60006101db565b565b6100f661012e565b6001600160a01b03811661012557604051631e4fbdf760e01b8152600060048201526024015b60405180910390fd5b6100d7816101db565b6000546001600160a01b031633146100ec5760405163118cdaa760e01b815233600482015260240161011c565b806001600160a01b03163b6000036101915760405163211eb15960e21b81526001600160a01b038216600482015260240161011c565b600180546001600160a01b0319166001600160a01b0383169081179091556040517fbc7cd75a20ee27fd9adebab32041f755214dbc6bffa90cc0225b39da2e5c2d3b90600090a250565b600080546001600160a01b038381166001600160a01b0319831681178455604051919092169283917f8be0079c531659141344cd1fd0a4f28419497f9722a3daafe3b4186f6b6457e09190a35050565b60006020828403121561023d57600080fd5b81356001600160a01b038116811461025457600080fd5b939250505056fea2646970667358221220b0444140ba46af526d9100801e0762a0b652f6c42388ff909f0688b08bfa82b264736f6c63430008140033",
  "devdoc": {
    "author": "Jack Xu @ EthSign",
    "details": "This contract manages the upgradeable beacons that we use to seamlessly upgrade TokenTableUnlocker, TTFutureToken, and TTTrackerToken on behalf of our users in the future. This contract should be deployed using TTUDeployer.",
    "errors": {
      "OwnableInvalidOwner(address)": [
        {
          "details": "The owner is not a valid owner account. (eg. `address(0)`)"
        }
      ],
      "OwnableUnauthorizedAccount(address)": [
        {
          "details": "The caller account is not authorized to perform an operation."
        }
      ]
    },
    "kind": "dev",
    "methods": {
      "owner()": {
        "details": "Returns the address of the current owner."
      },
      "renounceOwnership()": {
        "details": "Leaves the contract without owner. It will not be possible to call `onlyOwner` functions. Can only be called by the current owner. NOTE: Renouncing ownership will leave the contract without an owner, thereby disabling any functionality that is only available to the owner."
      },
      "transferOwnership(address)": {
        "details": "Transfers ownership of the contract to a new account (`newOwner`). Can only be called by the current owner."
      }
    },
    "title": "TTUV2BeaconManager",
    "version": 1
  },
  "userdoc": {
    "kind": "user",
    "methods": {},
    "version": 1
  },
  "storageLayout": {
    "storage": [
      {
        "astId": 624,
        "contract": "contracts/proxy/TTUV2BeaconManager.sol:TTUV2BeaconManager",
        "label": "_owner",
        "offset": 0,
        "slot": "0",
        "type": "t_address"
      }
    ],
    "types": {
      "t_address": {
        "encoding": "inplace",
        "label": "address",
        "numberOfBytes": "20"
      }
    }
  }
}