{
  "address": "0x03688D459F172B058d39241456Ae213FC4E26941",
  "abi": [
    {
      "inputs": [
        {
          "internalType": "address",
          "name": "unlockerImpl",
          "type": "address"
        },
        {
          "internalType": "address",
          "name": "futureTokenImpl",
          "type": "address"
        },
        {
          "internalType": "address",
          "name": "trackerTokenImpl",
          "type": "address"
        }
      ],
      "stateMutability": "nonpayable",
      "type": "constructor"
    },
    {
      "anonymous": false,
      "inputs": [
        {
          "indexed": true,
          "internalType": "address",
          "name": "previousOwner",
          "type": "address"
        },
        {
          "indexed": true,
          "internalType": "address",
          "name": "newOwner",
          "type": "address"
        }
      ],
      "name": "OwnershipTransferred",
      "type": "event"
    },
    {
      "inputs": [],
      "name": "futureTokenBeacon",
      "outputs": [
        {
          "internalType": "contract UpgradeableBeacon",
          "name": "",
          "type": "address"
        }
      ],
      "stateMutability": "view",
      "type": "function"
    },
    {
      "inputs": [],
      "name": "owner",
      "outputs": [
        {
          "internalType": "address",
          "name": "",
          "type": "address"
        }
      ],
      "stateMutability": "view",
      "type": "function"
    },
    {
      "inputs": [],
      "name": "renounceOwnership",
      "outputs": [],
      "stateMutability": "nonpayable",
      "type": "function"
    },
    {
      "inputs": [],
      "name": "trackerTokenBeacon",
      "outputs": [
        {
          "internalType": "contract UpgradeableBeacon",
          "name": "",
          "type": "address"
        }
      ],
      "stateMutability": "view",
      "type": "function"
    },
    {
      "inputs": [
        {
          "internalType": "address",
          "name": "newOwner",
          "type": "address"
        }
      ],
      "name": "transferOwnership",
      "outputs": [],
      "stateMutability": "nonpayable",
      "type": "function"
    },
    {
      "inputs": [],
      "name": "unlockerBeacon",
      "outputs": [
        {
          "internalType": "contract UpgradeableBeacon",
          "name": "",
          "type": "address"
        }
      ],
      "stateMutability": "view",
      "type": "function"
    },
    {
      "inputs": [
        {
          "internalType": "address",
          "name": "newImpl",
          "type": "address"
        }
      ],
      "name": "upgradeFutureToken",
      "outputs": [],
      "stateMutability": "nonpayable",
      "type": "function"
    },
    {
      "inputs": [
        {
          "internalType": "address",
          "name": "newImpl",
          "type": "address"
        }
      ],
      "name": "upgradePreviewToken",
      "outputs": [],
      "stateMutability": "nonpayable",
      "type": "function"
    },
    {
      "inputs": [
        {
          "internalType": "address",
          "name": "newImpl",
          "type": "address"
        }
      ],
      "name": "upgradeUnlocker",
      "outputs": [],
      "stateMutability": "nonpayable",
      "type": "function"
    },
    {
      "inputs": [],
      "name": "version",
      "outputs": [
        {
          "internalType": "string",
          "name": "",
          "type": "string"
        }
      ],
      "stateMutability": "pure",
      "type": "function"
    }
  ],
  "transactionHash": "0x3d08c752e60ddc7aeef7a0b39178ee01aa35f73bc8b38e9d552fad2febcc3d3a",
  "args": [
    "0x8D92827CdB67A503e9FB21B28a58F9dAb36B4973",
    "0x4e4af2a21ebf62850fD99Eb6253E1eFBb56098cD",
    "0x2b3224D080452276a76690341e5Cfa81A945a985"
  ],
  "numDeployments": 1,
  "solcInputHash": "d7d0ccb09c750025187b8cc9cc8ff470",
  "bytecode": "0x60e060405234801561001057600080fd5b50604051610be3380380610be383398101604081905261002f9161018e565b61003833610115565b8260405161004590610165565b6001600160a01b039091168152602001604051809103906000f080158015610071573d6000803e3d6000fd5b506001600160a01b0316608052604051829061008c90610165565b6001600160a01b039091168152602001604051809103906000f0801580156100b8573d6000803e3d6000fd5b506001600160a01b031660a05260405181906100d390610165565b6001600160a01b039091168152602001604051809103906000f0801580156100ff573d6000803e3d6000fd5b506001600160a01b031660c052506101d1915050565b600080546001600160a01b038381166001600160a01b0319831681178455604051919092169283917f8be0079c531659141344cd1fd0a4f28419497f9722a3daafe3b4186f6b6457e09190a35050565b6104e4806106ff83390190565b80516001600160a01b038116811461018957600080fd5b919050565b6000806000606084860312156101a357600080fd5b6101ac84610172565b92506101ba60208501610172565b91506101c860408501610172565b90509250925092565b60805160a05160c0516104ea6102156000396000818161016b015261027501526000818161010801526102df01526000818161019201526101ee01526104ea6000f3fe608060405234801561001057600080fd5b506004361061009e5760003560e01c80638da5cb5b116100665780638da5cb5b14610142578063a47bee7f14610153578063d63ea2c514610166578063ec5319871461018d578063f2fde38b146101b457600080fd5b8063182e5914146100a3578063468b6a49146100b857806354fd4d50146100cb578063715018a6146100fb57806378e65efc14610103575b600080fd5b6100b66100b1366004610436565b6101c7565b005b6100b66100c6366004610436565b61024e565b6040805180820182526005815264322e302e3160d81b602082015290516100f29190610466565b60405180910390f35b6100b66102a4565b61012a7f000000000000000000000000000000000000000000000000000000000000000081565b6040516001600160a01b0390911681526020016100f2565b6000546001600160a01b031661012a565b6100b6610161366004610436565b6102b8565b61012a7f000000000000000000000000000000000000000000000000000000000000000081565b61012a7f000000000000000000000000000000000000000000000000000000000000000081565b6100b66101c2366004610436565b61030e565b6101cf61038c565b604051631b2ce7f360e11b81526001600160a01b0382811660048301527f00000000000000000000000000000000000000000000000000000000000000001690633659cfe6906024015b600060405180830381600087803b15801561023357600080fd5b505af1158015610247573d6000803e3d6000fd5b5050505050565b61025661038c565b604051631b2ce7f360e11b81526001600160a01b0382811660048301527f00000000000000000000000000000000000000000000000000000000000000001690633659cfe690602401610219565b6102ac61038c565b6102b660006103e6565b565b6102c061038c565b604051631b2ce7f360e11b81526001600160a01b0382811660048301527f00000000000000000000000000000000000000000000000000000000000000001690633659cfe690602401610219565b61031661038c565b6001600160a01b0381166103805760405162461bcd60e51b815260206004820152602660248201527f4f776e61626c653a206e6577206f776e657220697320746865207a65726f206160448201526564647265737360d01b60648201526084015b60405180910390fd5b610389816103e6565b50565b6000546001600160a01b031633146102b65760405162461bcd60e51b815260206004820181905260248201527f4f776e61626c653a2063616c6c6572206973206e6f7420746865206f776e65726044820152606401610377565b600080546001600160a01b038381166001600160a01b0319831681178455604051919092169283917f8be0079c531659141344cd1fd0a4f28419497f9722a3daafe3b4186f6b6457e09190a35050565b60006020828403121561044857600080fd5b81356001600160a01b038116811461045f57600080fd5b9392505050565b600060208083528351808285015260005b8181101561049357858101830151858201604001528201610477565b506000604082860101526040601f19601f830116850101925050509291505056fea2646970667358221220aee3e45ee843cd90f6c87327252b4b335d2a2e73c4ed5c0760da5c2600e409ac64736f6c63430008110033608060405234801561001057600080fd5b506040516104e43803806104e483398101604081905261002f91610151565b61003833610047565b61004181610097565b50610181565b600080546001600160a01b038381166001600160a01b0319831681178455604051919092169283917f8be0079c531659141344cd1fd0a4f28419497f9722a3daafe3b4186f6b6457e09190a35050565b6100aa8161014260201b6101a01760201c565b6101205760405162461bcd60e51b815260206004820152603360248201527f5570677261646561626c65426561636f6e3a20696d706c656d656e746174696f60448201527f6e206973206e6f74206120636f6e747261637400000000000000000000000000606482015260840160405180910390fd5b600180546001600160a01b0319166001600160a01b0392909216919091179055565b6001600160a01b03163b151590565b60006020828403121561016357600080fd5b81516001600160a01b038116811461017a57600080fd5b9392505050565b610354806101906000396000f3fe608060405234801561001057600080fd5b50600436106100575760003560e01c80633659cfe61461005c5780635c60da1b14610071578063715018a61461009a5780638da5cb5b146100a2578063f2fde38b146100b3575b600080fd5b61006f61006a3660046102ee565b6100c6565b005b6001546001600160a01b03165b6040516001600160a01b03909116815260200160405180910390f35b61006f61010e565b6000546001600160a01b031661007e565b61006f6100c13660046102ee565b610122565b6100ce6101af565b6100d781610209565b6040516001600160a01b038216907fbc7cd75a20ee27fd9adebab32041f755214dbc6bffa90cc0225b39da2e5c2d3b90600090a250565b6101166101af565b610120600061029e565b565b61012a6101af565b6001600160a01b0381166101945760405162461bcd60e51b815260206004820152602660248201527f4f776e61626c653a206e6577206f776e657220697320746865207a65726f206160448201526564647265737360d01b60648201526084015b60405180910390fd5b61019d8161029e565b50565b6001600160a01b03163b151590565b6000546001600160a01b031633146101205760405162461bcd60e51b815260206004820181905260248201527f4f776e61626c653a2063616c6c6572206973206e6f7420746865206f776e6572604482015260640161018b565b6001600160a01b0381163b61027c5760405162461bcd60e51b815260206004820152603360248201527f5570677261646561626c65426561636f6e3a20696d706c656d656e746174696f6044820152721b881a5cc81b9bdd08184818dbdb9d1c9858dd606a1b606482015260840161018b565b600180546001600160a01b0319166001600160a01b0392909216919091179055565b600080546001600160a01b038381166001600160a01b0319831681178455604051919092169283917f8be0079c531659141344cd1fd0a4f28419497f9722a3daafe3b4186f6b6457e09190a35050565b60006020828403121561030057600080fd5b81356001600160a01b038116811461031757600080fd5b939250505056fea264697066735822122046de0e2736711d896422b3c51492e357495cbb76e5fdccdc78cc16cf74f410c064736f6c63430008110033",
  "devdoc": {
    "author": "Jack Xu @ EthSign",
    "details": "This contract manages the upgradeable beacons that we use to seamlessly upgrade TokenTableUnlocker, TTFutureToken, and TTTrackerToken on behalf of our users in the future. This contract should be deployed using TTUDeployer.",
    "kind": "dev",
    "methods": {
      "owner()": {
        "details": "Returns the address of the current owner."
      },
      "renounceOwnership()": {
        "details": "Leaves the contract without owner. It will not be possible to call `onlyOwner` functions anymore. Can only be called by the current owner. NOTE: Renouncing ownership will leave the contract without an owner, thereby removing any functionality that is only available to the owner."
      },
      "transferOwnership(address)": {
        "details": "Transfers ownership of the contract to a new account (`newOwner`). Can only be called by the current owner."
      }
    },
    "title": "TTUV2BeaconManager",
    "version": 1
  },
  "userdoc": {
    "kind": "user",
    "methods": {},
    "version": 1
  },
  "storageLayout": {
    "storage": [
      {
        "astId": 707,
        "contract": "contracts/proxy/TTUV2BeaconManager.sol:TTUV2BeaconManager",
        "label": "_owner",
        "offset": 0,
        "slot": "0",
        "type": "t_address"
      }
    ],
    "types": {
      "t_address": {
        "encoding": "inplace",
        "label": "address",
        "numberOfBytes": "20"
      }
    }
  }
}