{
  "address": "0x8D92827CdB67A503e9FB21B28a58F9dAb36B4973",
  "abi": [
    {
      "inputs": [
        {
          "internalType": "uint256",
          "name": "deltaAmountClaimable",
          "type": "uint256"
        },
        {
          "internalType": "uint256",
          "name": "amountDeposited",
          "type": "uint256"
        }
      ],
      "name": "InsufficientDeposit",
      "type": "error"
    },
    {
      "inputs": [],
      "name": "InvalidPresetFormat",
      "type": "error"
    },
    {
      "inputs": [],
      "name": "InvalidSkipAmount",
      "type": "error"
    },
    {
      "inputs": [],
      "name": "NotPermissioned",
      "type": "error"
    },
    {
      "inputs": [],
      "name": "PresetDoesNotExist",
      "type": "error"
    },
    {
      "inputs": [],
      "name": "PresetExists",
      "type": "error"
    },
    {
      "inputs": [],
      "name": "TokenSet",
      "type": "error"
    },
    {
      "anonymous": false,
      "inputs": [
        {
          "indexed": false,
          "internalType": "uint256",
          "name": "actualId",
          "type": "uint256"
        },
        {
          "indexed": false,
          "internalType": "uint256",
          "name": "amountUnlockedLeftover",
          "type": "uint256"
        },
        {
          "indexed": false,
          "internalType": "uint256",
          "name": "amountRefunded",
          "type": "uint256"
        },
        {
          "indexed": false,
          "internalType": "address",
          "name": "refundFounderAddress",
          "type": "address"
        }
      ],
      "name": "ActualCancelled",
      "type": "event"
    },
    {
      "anonymous": false,
      "inputs": [
        {
          "indexed": false,
          "internalType": "bytes32",
          "name": "presetId",
          "type": "bytes32"
        },
        {
          "indexed": false,
          "internalType": "uint256",
          "name": "actualId",
          "type": "uint256"
        }
      ],
      "name": "ActualCreated",
      "type": "event"
    },
    {
      "anonymous": false,
      "inputs": [
        {
          "indexed": false,
          "internalType": "uint8",
          "name": "version",
          "type": "uint8"
        }
      ],
      "name": "Initialized",
      "type": "event"
    },
    {
      "anonymous": false,
      "inputs": [
        {
          "indexed": true,
          "internalType": "address",
          "name": "previousOwner",
          "type": "address"
        },
        {
          "indexed": true,
          "internalType": "address",
          "name": "newOwner",
          "type": "address"
        }
      ],
      "name": "OwnershipTransferred",
      "type": "event"
    },
    {
      "anonymous": false,
      "inputs": [
        {
          "indexed": false,
          "internalType": "bytes32",
          "name": "presetId",
          "type": "bytes32"
        }
      ],
      "name": "PresetCreated",
      "type": "event"
    },
    {
      "anonymous": false,
      "inputs": [
        {
          "indexed": false,
          "internalType": "uint256",
          "name": "actualId",
          "type": "uint256"
        },
        {
          "indexed": false,
          "internalType": "address",
          "name": "caller",
          "type": "address"
        },
        {
          "indexed": false,
          "internalType": "address",
          "name": "to",
          "type": "address"
        },
        {
          "indexed": false,
          "internalType": "uint256",
          "name": "amount",
          "type": "uint256"
        }
      ],
      "name": "TokensClaimed",
      "type": "event"
    },
    {
      "anonymous": false,
      "inputs": [
        {
          "indexed": false,
          "internalType": "uint256",
          "name": "actualId",
          "type": "uint256"
        },
        {
          "indexed": false,
          "internalType": "uint256",
          "name": "amount",
          "type": "uint256"
        }
      ],
      "name": "TokensDeposited",
      "type": "event"
    },
    {
      "anonymous": false,
      "inputs": [
        {
          "indexed": false,
          "internalType": "uint256",
          "name": "actualId",
          "type": "uint256"
        },
        {
          "indexed": false,
          "internalType": "address",
          "name": "by",
          "type": "address"
        },
        {
          "indexed": false,
          "internalType": "uint256",
          "name": "amount",
          "type": "uint256"
        }
      ],
      "name": "TokensWithdrawn",
      "type": "event"
    },
    {
      "inputs": [],
      "name": "BIPS_PRECISION",
      "outputs": [
        {
          "internalType": "uint256",
          "name": "",
          "type": "uint256"
        }
      ],
      "stateMutability": "view",
      "type": "function"
    },
    {
      "inputs": [],
      "name": "accessControlDelegate",
      "outputs": [
        {
          "internalType": "contract ITTAccessControlDelegate",
          "name": "",
          "type": "address"
        }
      ],
      "stateMutability": "view",
      "type": "function"
    },
    {
      "inputs": [
        {
          "internalType": "uint256",
          "name": "",
          "type": "uint256"
        }
      ],
      "name": "amountUnlockedLeftoverForActuals",
      "outputs": [
        {
          "internalType": "uint256",
          "name": "",
          "type": "uint256"
        }
      ],
      "stateMutability": "view",
      "type": "function"
    },
    {
      "inputs": [
        {
          "internalType": "uint256[]",
          "name": "actualId",
          "type": "uint256[]"
        },
        {
          "internalType": "address[]",
          "name": "overrideRecipient",
          "type": "address[]"
        }
      ],
      "name": "batchClaim",
      "outputs": [],
      "stateMutability": "nonpayable",
      "type": "function"
    },
    {
      "inputs": [
        {
          "internalType": "address[]",
          "name": "recipient",
          "type": "address[]"
        },
        {
          "internalType": "bytes32[]",
          "name": "presetId",
          "type": "bytes32[]"
        },
        {
          "internalType": "uint256[]",
          "name": "startTimestampAbsolute",
          "type": "uint256[]"
        },
        {
          "internalType": "uint256[]",
          "name": "amountSkipped",
          "type": "uint256[]"
        },
        {
          "internalType": "uint256[]",
          "name": "totalAmount",
          "type": "uint256[]"
        },
        {
          "internalType": "uint256[]",
          "name": "amountDepositingNow",
          "type": "uint256[]"
        }
      ],
      "name": "batchCreateActual",
      "outputs": [],
      "stateMutability": "nonpayable",
      "type": "function"
    },
    {
      "inputs": [
        {
          "internalType": "bytes32[]",
          "name": "presetId",
          "type": "bytes32[]"
        },
        {
          "internalType": "uint256[][]",
          "name": "linearStartTimestampsRelative",
          "type": "uint256[][]"
        },
        {
          "internalType": "uint256[]",
          "name": "linearEndTimestampRelative",
          "type": "uint256[]"
        },
        {
          "internalType": "uint256[][]",
          "name": "linearBips",
          "type": "uint256[][]"
        },
        {
          "internalType": "uint256[][]",
          "name": "numOfUnlocksForEachLinear",
          "type": "uint256[][]"
        }
      ],
      "name": "batchCreatePreset",
      "outputs": [],
      "stateMutability": "nonpayable",
      "type": "function"
    },
    {
      "inputs": [
        {
          "internalType": "uint256[]",
          "name": "actualId",
          "type": "uint256[]"
        },
        {
          "internalType": "uint256[]",
          "name": "amount",
          "type": "uint256[]"
        }
      ],
      "name": "batchDeposit",
      "outputs": [],
      "stateMutability": "nonpayable",
      "type": "function"
    },
    {
      "inputs": [
        {
          "internalType": "uint256",
          "name": "actualId",
          "type": "uint256"
        }
      ],
      "name": "calculateAmountClaimable",
      "outputs": [
        {
          "internalType": "uint256",
          "name": "deltaAmountClaimable",
          "type": "uint256"
        },
        {
          "internalType": "uint256",
          "name": "updatedAmountClaimed",
          "type": "uint256"
        }
      ],
      "stateMutability": "view",
      "type": "function"
    },
    {
      "inputs": [
        {
          "internalType": "uint256",
          "name": "actualId",
          "type": "uint256"
        },
        {
          "internalType": "address",
          "name": "refundFounderAddress",
          "type": "address"
        }
      ],
      "name": "cancel",
      "outputs": [
        {
          "internalType": "uint256",
          "name": "amountUnlockedLeftover",
          "type": "uint256"
        },
        {
          "internalType": "uint256",
          "name": "amountRefunded",
          "type": "uint256"
        }
      ],
      "stateMutability": "nonpayable",
      "type": "function"
    },
    {
      "inputs": [
        {
          "internalType": "uint256",
          "name": "actualId",
          "type": "uint256"
        },
        {
          "internalType": "address",
          "name": "overrideRecipient",
          "type": "address"
        }
      ],
      "name": "claim",
      "outputs": [],
      "stateMutability": "nonpayable",
      "type": "function"
    },
    {
      "inputs": [
        {
          "internalType": "uint256",
          "name": "actualId",
          "type": "uint256"
        },
        {
          "internalType": "address",
          "name": "overrideRecipient",
          "type": "address"
        }
      ],
      "name": "claimCancelledActual",
      "outputs": [],
      "stateMutability": "nonpayable",
      "type": "function"
    },
    {
      "inputs": [
        {
          "internalType": "address",
          "name": "recipient",
          "type": "address"
        },
        {
          "internalType": "bytes32",
          "name": "presetId",
          "type": "bytes32"
        },
        {
          "internalType": "uint256",
          "name": "startTimestampAbsolute",
          "type": "uint256"
        },
        {
          "internalType": "uint256",
          "name": "amountSkipped",
          "type": "uint256"
        },
        {
          "internalType": "uint256",
          "name": "totalAmount",
          "type": "uint256"
        },
        {
          "internalType": "uint256",
          "name": "amountDepositingNow",
          "type": "uint256"
        }
      ],
      "name": "createActual",
      "outputs": [],
      "stateMutability": "nonpayable",
      "type": "function"
    },
    {
      "inputs": [
        {
          "internalType": "bytes32",
          "name": "presetId",
          "type": "bytes32"
        },
        {
          "internalType": "uint256[]",
          "name": "linearStartTimestampsRelative",
          "type": "uint256[]"
        },
        {
          "internalType": "uint256",
          "name": "linearEndTimestampRelative",
          "type": "uint256"
        },
        {
          "internalType": "uint256[]",
          "name": "linearBips",
          "type": "uint256[]"
        },
        {
          "internalType": "uint256[]",
          "name": "numOfUnlocksForEachLinear",
          "type": "uint256[]"
        }
      ],
      "name": "createPreset",
      "outputs": [],
      "stateMutability": "nonpayable",
      "type": "function"
    },
    {
      "inputs": [],
      "name": "deployer",
      "outputs": [
        {
          "internalType": "contract ITTUDeployer",
          "name": "",
          "type": "address"
        }
      ],
      "stateMutability": "view",
      "type": "function"
    },
    {
      "inputs": [
        {
          "internalType": "uint256",
          "name": "actualId",
          "type": "uint256"
        },
        {
          "internalType": "uint256",
          "name": "amount",
          "type": "uint256"
        }
      ],
      "name": "deposit",
      "outputs": [],
      "stateMutability": "nonpayable",
      "type": "function"
    },
    {
      "inputs": [],
      "name": "disableAccessControlDelegate",
      "outputs": [],
      "stateMutability": "nonpayable",
      "type": "function"
    },
    {
      "inputs": [],
      "name": "disableCancel",
      "outputs": [],
      "stateMutability": "nonpayable",
      "type": "function"
    },
    {
      "inputs": [],
      "name": "disableHook",
      "outputs": [],
      "stateMutability": "nonpayable",
      "type": "function"
    },
    {
      "inputs": [],
      "name": "futureToken",
      "outputs": [
        {
          "internalType": "contract ITTFutureTokenV2",
          "name": "",
          "type": "address"
        }
      ],
      "stateMutability": "view",
      "type": "function"
    },
    {
      "inputs": [
        {
          "internalType": "bytes32",
          "name": "presetId",
          "type": "bytes32"
        }
      ],
      "name": "getEncodedPreset",
      "outputs": [
        {
          "internalType": "bytes",
          "name": "",
          "type": "bytes"
        }
      ],
      "stateMutability": "view",
      "type": "function"
    },
    {
      "inputs": [],
      "name": "getProjectToken",
      "outputs": [
        {
          "internalType": "address",
          "name": "",
          "type": "address"
        }
      ],
      "stateMutability": "view",
      "type": "function"
    },
    {
      "inputs": [],
      "name": "hook",
      "outputs": [
        {
          "internalType": "contract ITTHook",
          "name": "",
          "type": "address"
        }
      ],
      "stateMutability": "view",
      "type": "function"
    },
    {
      "inputs": [
        {
          "internalType": "address",
          "name": "projectToken",
          "type": "address"
        },
        {
          "internalType": "address",
          "name": "futureToken_",
          "type": "address"
        },
        {
          "internalType": "address",
          "name": "deployer_",
          "type": "address"
        }
      ],
      "name": "initialize",
      "outputs": [],
      "stateMutability": "nonpayable",
      "type": "function"
    },
    {
      "inputs": [
        {
          "internalType": "address",
          "name": "projectToken",
          "type": "address"
        }
      ],
      "name": "initializeProjectToken",
      "outputs": [],
      "stateMutability": "nonpayable",
      "type": "function"
    },
    {
      "inputs": [],
      "name": "isAccessControllable",
      "outputs": [
        {
          "internalType": "bool",
          "name": "",
          "type": "bool"
        }
      ],
      "stateMutability": "view",
      "type": "function"
    },
    {
      "inputs": [],
      "name": "isCancelable",
      "outputs": [
        {
          "internalType": "bool",
          "name": "",
          "type": "bool"
        }
      ],
      "stateMutability": "view",
      "type": "function"
    },
    {
      "inputs": [],
      "name": "isHookable",
      "outputs": [
        {
          "internalType": "bool",
          "name": "",
          "type": "bool"
        }
      ],
      "stateMutability": "view",
      "type": "function"
    },
    {
      "inputs": [
        {
          "internalType": "address",
          "name": "forwarder",
          "type": "address"
        }
      ],
      "name": "isTrustedForwarder",
      "outputs": [
        {
          "internalType": "bool",
          "name": "",
          "type": "bool"
        }
      ],
      "stateMutability": "view",
      "type": "function"
    },
    {
      "inputs": [],
      "name": "owner",
      "outputs": [
        {
          "internalType": "address",
          "name": "",
          "type": "address"
        }
      ],
      "stateMutability": "view",
      "type": "function"
    },
    {
      "inputs": [],
      "name": "renounceOwnership",
      "outputs": [],
      "stateMutability": "nonpayable",
      "type": "function"
    },
    {
      "inputs": [
        {
          "internalType": "address",
          "name": "accessControlDelegate_",
          "type": "address"
        }
      ],
      "name": "setAccessControlDelegate",
      "outputs": [],
      "stateMutability": "nonpayable",
      "type": "function"
    },
    {
      "inputs": [
        {
          "internalType": "address",
          "name": "hook_",
          "type": "address"
        }
      ],
      "name": "setHook",
      "outputs": [],
      "stateMutability": "nonpayable",
      "type": "function"
    },
    {
      "inputs": [
        {
          "internalType": "address",
          "name": "forwarder",
          "type": "address"
        }
      ],
      "name": "setTrustedForwarder",
      "outputs": [],
      "stateMutability": "nonpayable",
      "type": "function"
    },
    {
      "inputs": [
        {
          "internalType": "address",
          "name": "newOwner",
          "type": "address"
        }
      ],
      "name": "transferOwnership",
      "outputs": [],
      "stateMutability": "nonpayable",
      "type": "function"
    },
    {
      "inputs": [],
      "name": "trustedForwarder",
      "outputs": [
        {
          "internalType": "address",
          "name": "",
          "type": "address"
        }
      ],
      "stateMutability": "view",
      "type": "function"
    },
    {
      "inputs": [
        {
          "internalType": "uint256",
          "name": "",
          "type": "uint256"
        }
      ],
      "name": "unlockingScheduleActuals",
      "outputs": [
        {
          "internalType": "bytes32",
          "name": "presetId",
          "type": "bytes32"
        },
        {
          "internalType": "uint256",
          "name": "startTimestampAbsolute",
          "type": "uint256"
        },
        {
          "internalType": "uint256",
          "name": "amountClaimed",
          "type": "uint256"
        },
        {
          "internalType": "uint256",
          "name": "amountDeposited",
          "type": "uint256"
        },
        {
          "internalType": "uint256",
          "name": "totalAmount",
          "type": "uint256"
        }
      ],
      "stateMutability": "view",
      "type": "function"
    },
    {
      "inputs": [],
      "name": "version",
      "outputs": [
        {
          "internalType": "string",
          "name": "",
          "type": "string"
        }
      ],
      "stateMutability": "pure",
      "type": "function"
    },
    {
      "inputs": [
        {
          "internalType": "uint256",
          "name": "actualId",
          "type": "uint256"
        },
        {
          "internalType": "uint256",
          "name": "amount",
          "type": "uint256"
        }
      ],
      "name": "withdrawDeposit",
      "outputs": [],
      "stateMutability": "nonpayable",
      "type": "function"
    }
  ],
  "transactionHash": "0x2e92b1597ee752ea40d1fb3c6466694e5b3bb73607488e663d6a78d00bbe69d2",
  "args": [],
  "numDeployments": 1,
  "solcInputHash": "fc82edb6cf7d7f53c210846a2c2e7cc1",
  "bytecode": "0x60806040523480156200001157600080fd5b506200001c62000022565b620000e4565b600054610100900460ff16156200008f5760405162461bcd60e51b815260206004820152602760248201527f496e697469616c697a61626c653a20636f6e747261637420697320696e697469604482015266616c697a696e6760c81b606482015260840160405180910390fd5b60005460ff9081161015620000e2576000805460ff191660ff9081179091556040519081527f7f26b83ff96e1f2b6a682f133852f6798a09c465da95921460cefb38474024989060200160405180910390a15b565b61356980620000f46000396000f3fe608060405234801561001057600080fd5b50600436106102325760003560e01c80637733e0fb11610130578063bae04c9a116100b8578063da7422281161007c578063da742228146104f3578063ddd5e1b214610506578063e2bbb15814610519578063e301b8b51461052c578063f2fde38b1461059157600080fd5b8063bae04c9a14610494578063bfc56c3f146104a7578063c0c53b8b146104ba578063d5f39488146104cd578063d8fb068b146104e057600080fd5b8063882a0810116100ff578063882a08101461043e5780638d17c825146104465780638da5cb5b14610466578063a2c6df4f1461046e578063adad72f31461048157600080fd5b80637733e0fb146103fc5780637d4e4e8c146104045780637da0a877146104185780637f5a7c7b1461042b57600080fd5b80633aa4327c116101be5780635550ac47116101825780635550ac4714610399578063572b6c05146103ac57806357d682c4146103ce5780636efcc14e146103e1578063715018a6146103f457600080fd5b80633aa4327c146103015780633dfd38731461032c57806342734d451461033f5780634837c5961461036757806354fd4d501461037857600080fd5b80631bffb491116102055780631bffb491146102945780631f50e2ba146102a85780632788dbed146102bb5780632de1d431146102ce57806338616d8c146102ee57600080fd5b806301c3c86014610237578063084d2b9b146102605780631153352c1461027757806317a69da41461028c575b600080fd5b609b5461024b90600160a81b900460ff1681565b60405190151581526020015b60405180910390f35b61026961271081565b604051908152602001610257565b61028a610285366004612aa5565b6105a4565b005b61028a610607565b609b5461024b90600160a01b900460ff1681565b61028a6102b6366004612ac2565b610663565b61028a6102c9366004612b37565b6107f7565b6102e16102dc366004612ba3565b6108aa565b6040516102579190612c0c565b61028a6102fc366004612aa5565b610a0f565b609954610314906001600160a01b031681565b6040516001600160a01b039091168152602001610257565b61028a61033a366004612aa5565b610a5b565b61035261034d366004612ba3565b610ad6565b60408051928352602083019190915201610257565b6065546001600160a01b0316610314565b604080518082019091526005815264322e302e3360d81b60208201526102e1565b61028a6103a7366004612b37565b610f1c565b61024b6103ba366004612aa5565b609f546001600160a01b0391821691161490565b6103526103dc366004612ac2565b610fc0565b61028a6103ef366004612cf5565b6111b2565b61028a6112c0565b61028a6112ca565b609b5461024b90600160b01b900460ff1681565b609f54610314906001600160a01b031681565b609b54610314906001600160a01b031681565b61028a61130d565b610269610454366004612ba3565b609e6020526000908152604090205481565b610314611360565b61028a61047c366004612e0b565b611379565b61028a61048f366004612e57565b6113c5565b61028a6104a2366004612f04565b6114a7565b61028a6104b5366004612fa6565b61157d565b61028a6104c836600461308d565b6116df565b609854610314906001600160a01b031681565b609a54610314906001600160a01b031681565b61028a610501366004612aa5565b61184b565b61028a610514366004612ac2565b6118a8565b61028a610527366004612f04565b611907565b61056961053a366004612ba3565b609d60205260009081526040902080546001820154600283015460038401546004909401549293919290919085565b604080519586526020860194909452928401919091526060830152608082015260a001610257565b61028a61059f366004612aa5565b61194a565b6105ac611953565b609b54600160a81b900460ff166105d657604051637f63bd0f60e01b815260040160405180910390fd5b609a80546001600160a01b0319166001600160a01b038316179055610604630454cd4b60e21b6000366119c2565b50565b6106316317a69da460e01b6040518060200160405280600081525061062a611a49565b6001611a53565b609b805460ff60b01b191690556106516305e9a76960e21b6000366119c2565b609b80546001600160a01b0319169055565b61066b611d8f565b6106b9631f50e2ba60e01b838360405160200161069b9291909182526001600160a01b0316602082015260400190565b6040516020818303038152906040526106b2611a49565b6000611a53565b60006001600160a01b03821661073d576099546040516331a9108f60e11b8152600481018590526001600160a01b0390911690636352211e90602401602060405180830381865afa158015610712573d6000803e3d6000fd5b505050506040513d601f19601f8201168201806040525081019061073691906130d8565b9050610740565b50805b6000838152609e60205260408120805491905561077a828261076a6065546001600160a01b031690565b6001600160a01b03169190611de8565b7f9c4945d842cc8c6704877a0defcd9ab09f6d77b24a369a95c2610506c6c38ee7846107a4611a49565b604080519283526001600160a01b039182166020840152908516908201526060810183905260800160405180910390a16107e7630fa8715d60e11b6000366119c2565b50506107f36001606655565b5050565b6107ff611d8f565b610821632788dbed60e01b8585858560405160200161069b9493929190613127565b60005b83811015610886576108748585838181106108415761084161318c565b9050602002013584848481811061085a5761085a61318c565b905060200201602081019061086f9190612aa5565b611e52565b8061087e816131b8565b915050610824565b5061089a632788dbed60e01b6000366119c2565b6108a46001606655565b50505050565b6000818152609c602090815260408083208151815460a09481028201850190935260808101838152606095949193849284919084018282801561090c57602002820191906000526020600020905b8154815260200190600101908083116108f8575b50505050508152602001600182015481526020016002820180548060200260200160405190810160405280929190818152602001828054801561096e57602002820191906000526020600020905b81548152602001906001019080831161095a575b50505050508152602001600382018054806020026020016040519081016040528092919081815260200182805480156109c657602002820191906000526020600020905b8154815260200190600101908083116109b2575b505050505081525050905080600001518160200151826040015183606001516040516020016109f8949392919061320c565b604051602081830303815290604052915050919050565b6065546001600160a01b031615610a39576040516311f9360560e31b815260040160405180910390fd5b606580546001600160a01b0319166001600160a01b0392909216919091179055565b609b54600160b01b900460ff16610a8557604051637f63bd0f60e01b815260040160405180910390fd5b610aa8633dfd387360e01b6040518060200160405280600081525061062a611a49565b609b80546001600160a01b0319166001600160a01b038316179055610604633dfd387360e01b6000366119c2565b6000818152609d60209081526040808320815160a08082018452825480835260018401548387015260028401548386015260038401546060840152600490930154608080840191909152928652609c855283862084518154968702810183019095529284018581528695620186a0959394879493909284929091849190840182828015610b8257602002820191906000526020600020905b815481526020019060010190808311610b6e575b505050505081526020016001820154815260200160028201805480602002602001604051908101604052809291908181526020018280548015610be457602002820191906000526020600020905b815481526020019060010190808311610bd0575b5050505050815260200160038201805480602002602001604051908101604052809291908181526020018280548015610c3c57602002820191906000526020600020905b815481526020019060010190808311610c28575b50505050508152505090506000808360200151421015610c69575050506040015160009590945092505050565b6000846020015142610c7b919061324b565b9050600092505b835151831015610ccf578084600001518481518110610ca357610ca361318c565b602002602001015111610cb857829150610cbd565b610ccf565b82610cc7816131b8565b935050610c82565b600092505b81831015610d23578584604001518481518110610cf357610cf361318c565b6020026020010151610d059190613264565b610d0f908861327b565b965082610d1b816131b8565b935050610cd4565b835151600090610d359060019061324b565b8303610d795784518051610d4b9060019061324b565b81518110610d5b57610d5b61318c565b60200260200101518560200151610d72919061324b565b9050610dcc565b8451805184908110610d8d57610d8d61318c565b60200260200101518560000151846001610da7919061327b565b81518110610db757610db761318c565b6020026020010151610dc9919061324b565b90505b80600003610dd8575060015b600085606001518481518110610df057610df061318c565b602002602001015182610e03919061328e565b9050600086600001518581518110610e1d57610e1d61318c565b602002602001015184610e30919061324b565b90506000610e3e838361328e565b905087606001518681518110610e5657610e5661318c565b6020026020010151818b8a604001518981518110610e7657610e7661318c565b6020026020010151610e889190613264565b610e929190613264565b610e9c919061328e565b610ea6908c61327b565b9a50896127108a608001518d610ebc9190613264565b610ec6919061328e565b610ed0919061328e565b9a5088608001518b1115610ee65788608001519a505b8a89604001511115610efb5760009b50610f0d565b6040890151610f0a908c61324b565b9b505b50505050505050505050915091565b610f55635550ac4760e01b85858585604051602001610f3e94939291906132b0565b60405160208183030381529060405261062a611a49565b60005b83811015610fac57610f9a858583818110610f7557610f7561318c565b90506020020135848484818110610f8e57610f8e61318c565b90506020020135611eba565b80610fa4816131b8565b915050610f58565b506108a4635550ac4760e01b6000366119c2565b600080610fcb611d8f565b609b54600160a01b900460ff16610ff557604051637f63bd0f60e01b815260040160405180910390fd5b6110256357d682c460e01b8585604051602001610f3e9291909182526001600160a01b0316602082015260400190565b61102e84610ad6565b506000858152609e602052604081208054929450849290919061105290849061327b565b90915550506000848152609d6020908152604091829020825160a081018452815481526001820154928101929092526002810154928201929092526003820154606082018190526004909201546080820152908311156110de5760608101516040516312e1fa3760e11b81526110d5918591600401918252602082015260400190565b60405180910390fd5b82816060018181516110f0919061324b565b90525060608101519150611111848361076a6065546001600160a01b031690565b60408051868152602081018590529081018390526001600160a01b03851660608201527fd16afe7af99c1463a26fb2e837ad180ef355fe9e0810e2250f83d90f960b629c9060800160405180910390a16000858152609d602052604081208181556001810182905560028101829055600381018290556004018190556111a0906315f5a0b160e21b90366119c2565b506111ab6001606655565b9250929050565b6111d5636efcc14e60e01b6040518060200160405280600081525061062a611a49565b60005b8881101561129f5761128d8c8c838181106111f5576111f561318c565b905060200201602081019061120a9190612aa5565b8b8b8481811061121c5761121c61318c565b905060200201358a8a858181106112355761123561318c565b9050602002013589898681811061124e5761124e61318c565b905060200201358888878181106112675761126761318c565b905060200201358787815181106112805761128061318c565b6020026020010151611f4f565b80611297816131b8565b9150506111d8565b506112b363377e60a760e11b6000366119c2565b5050505050505050505050565b6112c86120e8565b565b6112ed637733e0fb60e01b6040518060200160405280600081525061062a611a49565b609b805460ff60a01b191690556112c8637733e0fb60e01b6000366119c2565b61133063882a081060e01b6040518060200160405280600081525061062a611a49565b609b805460ff60a81b19169055609a80546001600160a01b03191690556112c8630882a08160e41b6000366119c2565b60006113746033546001600160a01b031690565b905090565b61139c63a2c6df4f60e01b6040518060200160405280600081525061062a611a49565b6113aa868686868686611f4f565b6113bd63a2c6df4f60e01b6000366119c2565b505050505050565b6113e863adad72f360e01b6040518060200160405280600081525061062a611a49565b61148a8888888080602002602001604051908101604052809392919081815260200183836020028082843760009201919091525050604080516020808b0282810182019093528a82528c94509092508a918a9182919085019084908082843760009201919091525050604080516020808b0282810182019093528a82529093508a9250899182918501908490808284376000920191909152506120fa92505050565b61149d63adad72f360e01b6000366119c2565b5050505050505050565b60408051602081018490529081018290526114cd90635d70264d60e11b90606001610f3e565b6000828152609d60205260408120600381018054919284926114f090849061324b565b909155506115149050611501611a49565b8361076a6065546001600160a01b031690565b7f3f5fbaf86658fdadee77f1d46e7f8a72424ad9839eda6a1dc6eb0a4228e4226e8361153e611a49565b604080519283526001600160a01b039091166020830152810184905260600160405180910390a1611578635d70264d60e11b6000366119c2565b505050565b6115a063bfc56c3f60e01b6040518060200160405280600081525061062a611a49565b60005b888110156116c0576116ae8a8a838181106115c0576115c061318c565b905060200201358989848181106115d9576115d961318c565b90506020028101906115eb91906132d7565b808060200260200160405190810160405280939291908181526020018383602002808284376000920191909152508b92508a91508690508181106116315761163161318c565b9050602002013587878681811061164a5761164a61318c565b905060200281019061165c91906132d7565b8080602002602001604051908101604052809392919081815260200183836020028082843760009201919091525050885189925088915081106116a1576116a161318c565b60200260200101516120fa565b806116b8816131b8565b9150506115a3565b506116d463bfc56c3f60e01b6000366119c2565b505050505050505050565b600054610100900460ff16158080156116ff5750600054600160ff909116105b806117195750303b158015611719575060005460ff166001145b61177c5760405162461bcd60e51b815260206004820152602e60248201527f496e697469616c697a61626c653a20636f6e747261637420697320616c72656160448201526d191e481a5b9a5d1a585b1a5e995960921b60648201526084016110d5565b6000805460ff19166001179055801561179f576000805461ff0019166101001790555b6117a7612217565b6117b08461224e565b609980546001600160a01b038086166001600160a01b03199283161790925560988054928516929091169190911790556117e8612275565b609b805462ffffff60a01b19166201010160a01b17905580156108a4576000805461ff0019169055604051600181527f7f26b83ff96e1f2b6a682f133852f6798a09c465da95921460cefb3847402498906020015b60405180910390a150505050565b604080516001600160a01b038316602082015261188a917fda742228bd51a17c316ef260a9d4cf6f83a1cab439aa021efb5574275338d30f9101610f3e565b609f80546001600160a01b0319166001600160a01b03831617905550565b6118b0611d8f565b6118e063ddd5e1b260e01b838360405160200161069b9291909182526001600160a01b0316602082015260400190565b6118ea8282611e52565b6118fd636eeaf0d960e11b6000366119c2565b6107f36001606655565b604080516020810184905290810182905261192d90631c57762b60e31b90606001610f3e565b6119378282611eba565b6107f3631c57762b60e31b6000366119c2565b6106048161229c565b61195b611a49565b6001600160a01b031661196c611360565b6001600160a01b0316146112c85760405162461bcd60e51b815260206004820181905260248201527f4f776e61626c653a2063616c6c6572206973206e6f7420746865206f776e657260448201526064016110d5565b609b546001600160a01b03166119d757505050565b609b546001600160a01b03166374a14fd48484846119f3611a49565b6040518563ffffffff1660e01b8152600401611a129493929190613321565b600060405180830381600087803b158015611a2c57600080fd5b505af1158015611a40573d6000803e3d6000fd5b50505050505050565b6000611374612312565b609a546001600160a01b0316611cfd576001600160e01b03198416630fa8715d60e11b1480611a9257506001600160e01b03198416636eeaf0d960e11b145b15611b5657600083806020019051810190611aad9190613373565b509050611ab8611a49565b6099546040516331a9108f60e11b8152600481018490526001600160a01b039283169290911690636352211e90602401602060405180830381865afa158015611b05573d6000803e3d6000fd5b505050506040513d601f19601f82011682018060405250810190611b2991906130d8565b6001600160a01b031614611b5057604051637f63bd0f60e01b815260040160405180910390fd5b50611c7d565b63d877241360e01b6001600160e01b0319851601611c7d57600083806020019051810190611b8491906133f3565b50905060005b8151811015611c7a57611b9b611a49565b6001600160a01b0316609960009054906101000a90046001600160a01b03166001600160a01b0316636352211e848481518110611bda57611bda61318c565b60200260200101516040518263ffffffff1660e01b8152600401611c0091815260200190565b602060405180830381865afa158015611c1d573d6000803e3d6000fd5b505050506040513d601f19601f82011682018060405250810190611c4191906130d8565b6001600160a01b031614611c6857604051637f63bd0f60e01b815260040160405180910390fd5b80611c72816131b8565b915050611b8a565b50505b808015611ca95750611c8d611360565b6001600160a01b0316611c9e611a49565b6001600160a01b0316145b6108a457808015611cda5750611cbd611360565b6001600160a01b0316611cce611a49565b6001600160a01b031614155b15611cf857604051637f63bd0f60e01b815260040160405180910390fd5b6108a4565b609a5460405163d975021d60e01b81526001600160a01b039091169063d975021d90611d3190879087908790600401613457565b602060405180830381865afa158015611d4e573d6000803e3d6000fd5b505050506040513d601f19601f82011682018060405250810190611d729190613491565b6108a457604051637f63bd0f60e01b815260040160405180910390fd5b600260665403611de15760405162461bcd60e51b815260206004820152601f60248201527f5265656e7472616e637947756172643a207265656e7472616e742063616c6c0060448201526064016110d5565b6002606655565b6040516001600160a01b03831660248201526044810182905261157890849063a9059cbb60e01b906064015b60408051601f198184030181529190526020810180516001600160e01b03166001600160e01b031990931692909217909152612339565b6001606655565b600080611e5f848461240b565b915091507f9c4945d842cc8c6704877a0defcd9ab09f6d77b24a369a95c2610506c6c38ee784611e8d611a49565b604080519283526001600160a01b039182166020840152908416908201526060810184905260800161183d565b6000828152609d60205260409020611ef8611ed3611a49565b3084611ee76065546001600160a01b031690565b6001600160a01b0316929190612725565b81816003016000828254611f0c919061327b565b909155505060408051848152602081018490527f41fb7ad419fc7623dde1142cd095a12727aa6965ab1d484a6d0d9327403d98ba910160405180910390a1505050565b6099546040516340d097c360e01b81526001600160a01b03888116600483015260009216906340d097c3906024016020604051808303816000875af1158015611f9c573d6000803e3d6000fd5b505050506040513d601f19601f82011682018060405250810190611fc091906134b3565b6000818152609d602090815260408083208a8452609c90925290912091925090611fe98161275d565b15612007576040516303be3a3760e21b815260040160405180910390fd5b848610612027576040516378c0fc4360e01b815260040160405180910390fd5b87825560018201879055600282018690556004820185905560408051898152602081018590527f836cf6e4827fcb14b6226db1383bbae421b3ff8545414c8e5609bb709baae421910160405180910390a183156116d457600382018490556120a4612090611a49565b3086611ee76065546001600160a01b031690565b60408051848152602081018690527f41fb7ad419fc7623dde1142cd095a12727aa6965ab1d484a6d0d9327403d98ba910160405180910390a1505050505050505050565b6120f0611953565b6112c86000612797565b6000858152609c602052604090206121119061275d565b61212e57604051631f2ec56d60e21b815260040160405180910390fd5b604080516080810182528581526020810185905290810183905260608101829052612158816127e9565b612175576040516303be3a3760e21b815260040160405180910390fd5b6000868152609c6020908152604090912082518051849361219a928492910190612a30565b506020828101516001830155604083015180516121bd9260028501920190612a30565b50606082015180516121d9916003840191602090910190612a30565b50506040518781527fdb70f000fd1b55bab727e36e3adf29333c24708fae670635637944d26e8c579e915060200160405180910390a1505050505050565b600054610100900460ff1661223e5760405162461bcd60e51b81526004016110d5906134cc565b6112c8612249611a49565b612797565b600054610100900460ff16610a395760405162461bcd60e51b81526004016110d5906134cc565b600054610100900460ff16611e4b5760405162461bcd60e51b81526004016110d5906134cc565b6122a4611953565b6001600160a01b0381166123095760405162461bcd60e51b815260206004820152602660248201527f4f776e61626c653a206e6577206f776e657220697320746865207a65726f206160448201526564647265737360d01b60648201526084016110d5565b61060481612797565b609f546000906001600160a01b03163303612334575060131936013560601c90565b503390565b600061238e826040518060400160405280602081526020017f5361666545524332303a206c6f772d6c6576656c2063616c6c206661696c6564815250856001600160a01b03166128a09092919063ffffffff16565b80519091501561157857808060200190518101906123ac9190613491565b6115785760405162461bcd60e51b815260206004820152602a60248201527f5361666545524332303a204552433230206f7065726174696f6e20646964206e6044820152691bdd081cdd58d8d9595960b21b60648201526084016110d5565b60008060008061241a86610ad6565b6000888152609d602052604090206002810182905560038101549294509092509083111561246b5760038101546040516312e1fa3760e11b81526110d5918591600401918252602082015260400190565b8281600301600082825461247f919061324b565b90915550506001600160a01b038616612506576099546040516331a9108f60e11b8152600481018990526001600160a01b0390911690636352211e90602401602060405180830381865afa1580156124db573d6000803e3d6000fd5b505050506040513d601f19601f820116820180604052508101906124ff91906130d8565b935061250a565b8593505b6098546001600160a01b03161561270157609854604080516331056e5760e21b815290516000926001600160a01b03169163c415b95c916004808301926020929190829003018187875af1158015612566573d6000803e3d6000fd5b505050506040513d601f19601f8201168201806040525081019061258a91906130d8565b6040516313b7ae0d60e21b8152306004820152602481018690526001600160a01b039190911690634edeb83490604401602060405180830381865afa1580156125d7573d6000803e3d6000fd5b505050506040513d601f19601f820116820180604052508101906125fb91906134b3565b905080156126ff5761260d818561324b565b93506126ff609860009054906101000a90046001600160a01b03166001600160a01b031663c415b95c6040518163ffffffff1660e01b81526004016020604051808303816000875af1158015612667573d6000803e3d6000fd5b505050506040513d601f19601f8201168201806040525081019061268b91906130d8565b6001600160a01b0316638da5cb5b6040518163ffffffff1660e01b8152600401602060405180830381865afa1580156126c8573d6000803e3d6000fd5b505050506040513d601f19601f820116820180604052508101906126ec91906130d8565b8261076a6065546001600160a01b031690565b505b612718848461076a6065546001600160a01b031690565b8294505050509250929050565b6040516001600160a01b03808516602483015283166044820152606481018290526108a49085906323b872dd60e01b90608401611e14565b6001810154600382015482546002840154600093929161277c91613264565b6127869190613264565b6127909190613264565b1592915050565b603380546001600160a01b038381166001600160a01b0319831681179093556040519116919082907f8be0079c531659141344cd1fd0a4f28419497f9722a3daafe3b4186f6b6457e090600090a35050565b60008060005b83604001515181101561283957836040015181815181106128125761281261318c565b602002602001015182612825919061327b565b915080612831816131b8565b9150506127ef565b50612710811480156128515750825151604084015151145b8015612887575060208301518351805161286d9060019061324b565b8151811061287d5761287d61318c565b6020026020010151105b80156128995750825151606084015151145b9392505050565b60606128af84846000856128b7565b949350505050565b6060824710156129185760405162461bcd60e51b815260206004820152602660248201527f416464726573733a20696e73756666696369656e742062616c616e636520666f6044820152651c8818d85b1b60d21b60648201526084016110d5565b600080866001600160a01b031685876040516129349190613517565b60006040518083038185875af1925050503d8060008114612971576040519150601f19603f3d011682016040523d82523d6000602084013e612976565b606091505b509150915061298787838387612992565b979650505050505050565b60608315612a015782516000036129fa576001600160a01b0385163b6129fa5760405162461bcd60e51b815260206004820152601d60248201527f416464726573733a2063616c6c20746f206e6f6e2d636f6e747261637400000060448201526064016110d5565b50816128af565b6128af8383815115612a165781518083602001fd5b8060405162461bcd60e51b81526004016110d59190612c0c565b828054828255906000526020600020908101928215612a6b579160200282015b82811115612a6b578251825591602001919060010190612a50565b50612a77929150612a7b565b5090565b5b80821115612a775760008155600101612a7c565b6001600160a01b038116811461060457600080fd5b600060208284031215612ab757600080fd5b813561289981612a90565b60008060408385031215612ad557600080fd5b823591506020830135612ae781612a90565b809150509250929050565b60008083601f840112612b0457600080fd5b50813567ffffffffffffffff811115612b1c57600080fd5b6020830191508360208260051b85010111156111ab57600080fd5b60008060008060408587031215612b4d57600080fd5b843567ffffffffffffffff80821115612b6557600080fd5b612b7188838901612af2565b90965094506020870135915080821115612b8a57600080fd5b50612b9787828801612af2565b95989497509550505050565b600060208284031215612bb557600080fd5b5035919050565b60005b83811015612bd7578181015183820152602001612bbf565b50506000910152565b60008151808452612bf8816020860160208601612bbc565b601f01601f19169290920160200192915050565b6020815260006128996020830184612be0565b634e487b7160e01b600052604160045260246000fd5b604051601f8201601f1916810167ffffffffffffffff81118282101715612c5e57612c5e612c1f565b604052919050565b600067ffffffffffffffff821115612c8057612c80612c1f565b5060051b60200190565b600082601f830112612c9b57600080fd5b81356020612cb0612cab83612c66565b612c35565b82815260059290921b84018101918181019086841115612ccf57600080fd5b8286015b84811015612cea5780358352918301918301612cd3565b509695505050505050565b600080600080600080600080600080600060c08c8e031215612d1657600080fd5b67ffffffffffffffff808d351115612d2d57600080fd5b612d3a8e8e358f01612af2565b909c509a5060208d0135811015612d5057600080fd5b612d608e60208f01358f01612af2565b909a50985060408d0135811015612d7657600080fd5b612d868e60408f01358f01612af2565b909850965060608d0135811015612d9c57600080fd5b612dac8e60608f01358f01612af2565b909650945060808d0135811015612dc257600080fd5b612dd28e60808f01358f01612af2565b909450925060a08d0135811015612de857600080fd5b50612df98d60a08e01358e01612c8a565b90509295989b509295989b9093969950565b60008060008060008060c08789031215612e2457600080fd5b8635612e2f81612a90565b9860208801359850604088013597606081013597506080810135965060a00135945092505050565b60008060008060008060008060a0898b031215612e7357600080fd5b88359750602089013567ffffffffffffffff80821115612e9257600080fd5b612e9e8c838d01612af2565b909950975060408b0135965060608b0135915080821115612ebe57600080fd5b612eca8c838d01612af2565b909650945060808b0135915080821115612ee357600080fd5b50612ef08b828c01612af2565b999c989b5096995094979396929594505050565b60008060408385031215612f1757600080fd5b50508035926020909101359150565b600082601f830112612f3757600080fd5b81356020612f47612cab83612c66565b82815260059290921b84018101918181019086841115612f6657600080fd5b8286015b84811015612cea57803567ffffffffffffffff811115612f8a5760008081fd5b612f988986838b0101612c8a565b845250918301918301612f6a565b600080600080600080600080600060a08a8c031215612fc457600080fd5b893567ffffffffffffffff80821115612fdc57600080fd5b612fe88d838e01612af2565b909b50995060208c013591508082111561300157600080fd5b61300d8d838e01612af2565b909950975060408c013591508082111561302657600080fd5b6130328d838e01612af2565b909750955060608c013591508082111561304b57600080fd5b6130578d838e01612af2565b909550935060808c013591508082111561307057600080fd5b5061307d8c828d01612f26565b9150509295985092959850929598565b6000806000606084860312156130a257600080fd5b83356130ad81612a90565b925060208401356130bd81612a90565b915060408401356130cd81612a90565b809150509250925092565b6000602082840312156130ea57600080fd5b815161289981612a90565b81835260006001600160fb1b0383111561310e57600080fd5b8260051b80836020870137939093016020019392505050565b60408152600061313b6040830186886130f5565b8281036020848101919091528482528591810160005b8681101561317f57833561316481612a90565b6001600160a01b031682529282019290820190600101613151565b5098975050505050505050565b634e487b7160e01b600052603260045260246000fd5b634e487b7160e01b600052601160045260246000fd5b6000600182016131ca576131ca6131a2565b5060010190565b600081518084526020808501945080840160005b83811015613201578151875295820195908201906001016131e5565b509495945050505050565b60808152600061321f60808301876131d1565b856020840152828103604084015261323781866131d1565b9050828103606084015261298781856131d1565b8181038181111561325e5761325e6131a2565b92915050565b808202811582820484141761325e5761325e6131a2565b8082018082111561325e5761325e6131a2565b6000826132ab57634e487b7160e01b600052601260045260246000fd5b500490565b6040815260006132c46040830186886130f5565b82810360208401526129878185876130f5565b6000808335601e198436030181126132ee57600080fd5b83018035915067ffffffffffffffff82111561330957600080fd5b6020019150600581901b36038213156111ab57600080fd5b63ffffffff60e01b85168152606060208201528260608201528284608083013760008184016080908101919091526001600160a01b03929092166040820152601f909201601f19169091010192915050565b6000806040838503121561338657600080fd5b825191506020830151612ae781612a90565b600082601f8301126133a957600080fd5b815160206133b9612cab83612c66565b82815260059290921b840181019181810190868411156133d857600080fd5b8286015b84811015612cea57805183529183019183016133dc565b6000806040838503121561340657600080fd5b825167ffffffffffffffff8082111561341e57600080fd5b61342a86838701613398565b9350602085015191508082111561344057600080fd5b5061344d85828601613398565b9150509250929050565b63ffffffff60e01b841681526060602082015260006134796060830185612be0565b905060018060a01b0383166040830152949350505050565b6000602082840312156134a357600080fd5b8151801515811461289957600080fd5b6000602082840312156134c557600080fd5b5051919050565b6020808252602b908201527f496e697469616c697a61626c653a20636f6e7472616374206973206e6f74206960408201526a6e697469616c697a696e6760a81b606082015260800190565b60008251613529818460208701612bbc565b919091019291505056fea26469706673582212209ee68283868e3ba8c1b162e1421221c35fbf2fed6efbdfc7ea15a0ca847f90bd64736f6c63430008110033",
  "devdoc": {
    "kind": "dev",
    "methods": {
      "calculateAmountClaimable(uint256)": {
        "details": "This is the most complex part of the smart contract. Quite a bit of calculations are performed here.",
        "params": {
          "actualId": "The ID of the actual unlocking schedule that we are working with."
        },
        "returns": {
          "deltaAmountClaimable": "Amount of tokens claimable right now.",
          "updatedAmountClaimed": "New total amount of tokens claimed. This is the sum of all previously claimed tokens and deltaAmountClaimable."
        }
      },
      "cancel(uint256,address)": {
        "details": "Emits: ActualCancelled. - Only callable by the owner if no access control delegate is set. If delegate is set, access by anyone other than the owner depends on the return value of the delegate.",
        "params": {
          "actualId": "The ID of the actual unlocking schedule that we are intending to cancel.",
          "refundFounderAddress": "The address that the locked tokens will be sent to. This does not have to be a founder's address. Using the zero address means withdraw to sender's address."
        }
      },
      "claim(uint256,address)": {
        "details": "Emits: TokensClaimed. - Only callable by the owner of the FutureToken if no access control delegate is set. If delegate is set, access by anyone other than the FutureToken owner depends on the return value of the delegate.",
        "params": {
          "actualId": "The ID of the actual unlocking schedule that we are intending to claim from.",
          "overrideRecipient": "If we want to send the claimed tokens to an address other than the owner of the FutureToken. This MUST pass through access control, otherwise it will revert. If we want to send the claimed tokens to the owner of the FutureToken (default behavior), pass in `ethers.constants.AddressZero`."
        }
      },
      "claimCancelledActual(uint256,address)": {
        "details": "Emits: TokensClaimed. - Only callable by the owner of the FutureToken if no access control delegate is set. If delegate is set, access by anyone other than the FutureToken owner depends on the return value of the delegate.",
        "params": {
          "actualId": "The ID of the actual unlocking schedule that we are intending to claim from.",
          "overrideRecipient": "If we want to send the claimed tokens to an address other than the owner of the FutureToken. This MUST pass through access control, otherwise it will revert. If we want to send the claimed tokens to the owner of the FutureToken (default behavior), pass in `ethers.constants.AddressZero`."
        }
      },
      "createActual(address,bytes32,uint256,uint256,uint256,uint256)": {
        "details": "Emits: ActualCreated, TokensDeposited (only if amountDepositingNow > 0). - A FutureToken is minted in the process w/ tokenId == actualId; - If amountDepositingNow > 0, the caller must call approve() on the project token first so safeTransfer() does not revert - There is no minimum deposit - Only callable by the owner if no access control delegate is set. If delegate is set, access by anyone other than the owner depends on the return value of the delegate.",
        "params": {
          "amountDepositingNow": "You can deposit some amount of tokens when creating the actual schedule for convenience. If the amount deposited is insufficient when the stakeholder attempts to claim, the transaction will revert.",
          "amountSkipped": "If the project is being transferred into TokenTable from a different platform, we can skip over what's already been unlocked to keep the progress consistent.",
          "presetId": "The ID of the preset we are trying to create. This is determined off-chain and it can be anything that doesn't exist yet.",
          "recipient": "The address of the stakeholder. A FutureToken will be minted to that address.",
          "startTimestampAbsolute": "When the unlocking schedule should start in UNIX epoch timestamp (seconds). Cannot be in the past.",
          "totalAmount": "The total amount of tokens to be unlocked."
        }
      },
      "createPreset(bytes32,uint256[],uint256,uint256[],uint256[])": {
        "details": "Emits: PresetCreated. - Only callable by the owner if no access control delegate is set. If delegate is set, access by anyone other than the owner depends on the return value of the delegate.",
        "params": {
          "linearBips": "Basis points (percentage of the total amount unlocked) for each linear period. This must add up to BIPS_PRECISION.",
          "linearEndTimestampRelative": "The relative end timestamp of the entire linear unlocking schedule.",
          "linearStartTimestampsRelative": "The relative start timestamps of linear periods.",
          "numOfUnlocksForEachLinear": "The number of unlocks for each linear unlocking period. The minimum value is 1 (unchecked).",
          "presetId": "The ID of the preset we are trying to create. This is determined off-chain and it can be anything that doesn't exist yet."
        }
      },
      "deposit(uint256,uint256)": {
        "details": "Emits: TokensDeposited. - The caller must call approve() on the project token first so safeTransfer() does not revert. - There is no minimum deposit. - Only callable by the owner if no access control delegate is set. If delegate is set, access by anyone other than the owner depends on the return value of the delegate.",
        "params": {
          "actualId": "The ID of the actual unlocking schedule that we are intending to deposit into.",
          "amount": "The amount of project tokens to be deposited."
        }
      },
      "getEncodedPreset(bytes32)": {
        "details": "To decode in JS, use:  ethers.utils.defaultAbiCoder.decode(      ['uint256[]', 'uint256', 'uint256[]', 'uint256[]'],      encodedPreset  )",
        "params": {
          "presetId": "The ID of the preset we are trying to read."
        }
      },
      "initialize(address,address,address)": {
        "details": "Exposing the initializer."
      },
      "setAccessControlDelegate(address)": {
        "details": "Only callable by the owner."
      },
      "withdrawDeposit(uint256,uint256)": {
        "details": "Emits: TokensWithdrawn. - Only callable by the owner if no access control delegate is set. If delegate is set, access by anyone other than the owner depends on the return value of the delegate.",
        "params": {
          "actualId": "The ID of the actual unlocking schedule that we are intending to withdraw from.",
          "amount": "The amount of project tokens to be withdrawn."
        }
      }
    },
    "version": 1
  },
  "userdoc": {
    "kind": "user",
    "methods": {
      "calculateAmountClaimable(uint256)": {
        "notice": "Calculates the amount of unlocked tokens that have yet to be claimed in an actual unlocking schedule."
      },
      "cancel(uint256,address)": {
        "notice": "Cancels an actual unlocking schedule effective immediately. Tokens not yet claimed but already unlocked will be tallied."
      },
      "claim(uint256,address)": {
        "notice": "Claims claimable tokens for the specified actualId. If the caller is the owner of the actualId or has permission, then the tokens can be claimed to a different address (as specified in args)"
      },
      "claimCancelledActual(uint256,address)": {
        "notice": "Claims claimable tokens for the specified CANCELLED actualId. If the caller is the owner of the actualId or has permission, then the tokens can be claimed to a different address (as specified in args)"
      },
      "createActual(address,bytes32,uint256,uint256,uint256,uint256)": {
        "notice": "Creates an actual unlocking schedule based on a preset."
      },
      "createPreset(bytes32,uint256[],uint256,uint256[],uint256[])": {
        "notice": "Creates an unlocking schedule preset template."
      },
      "deposit(uint256,uint256)": {
        "notice": "Makes a deposit into an actual unlocking schedule."
      },
      "disableAccessControlDelegate()": {
        "notice": "Permanently disables the access control delegate."
      },
      "disableCancel()": {
        "notice": "Permanently disables the cancel() function."
      },
      "disableHook()": {
        "notice": "Permanently disables the hook."
      },
      "getEncodedPreset(bytes32)": {
        "notice": "Returns an ABI-encoded preset, as nested objects cannot be returned directly in Solidity."
      },
      "setAccessControlDelegate(address)": {
        "notice": "Sets the access control delegate used to control claim behavior."
      },
      "withdrawDeposit(uint256,uint256)": {
        "notice": "Withdraws existing locked deposit from an actual schedule."
      }
    },
    "version": 1
  },
  "storageLayout": {
    "storage": [
      {
        "astId": 138,
        "contract": "contracts/core/extensions/TTUV2Gasless.sol:TTUV2Gasless",
        "label": "_initialized",
        "offset": 0,
        "slot": "0",
        "type": "t_uint8"
      },
      {
        "astId": 141,
        "contract": "contracts/core/extensions/TTUV2Gasless.sol:TTUV2Gasless",
        "label": "_initializing",
        "offset": 1,
        "slot": "0",
        "type": "t_bool"
      },
      {
        "astId": 698,
        "contract": "contracts/core/extensions/TTUV2Gasless.sol:TTUV2Gasless",
        "label": "__gap",
        "offset": 0,
        "slot": "1",
        "type": "t_array(t_uint256)50_storage"
      },
      {
        "astId": 10,
        "contract": "contracts/core/extensions/TTUV2Gasless.sol:TTUV2Gasless",
        "label": "_owner",
        "offset": 0,
        "slot": "51",
        "type": "t_address"
      },
      {
        "astId": 130,
        "contract": "contracts/core/extensions/TTUV2Gasless.sol:TTUV2Gasless",
        "label": "__gap",
        "offset": 0,
        "slot": "52",
        "type": "t_array(t_uint256)49_storage"
      },
      {
        "astId": 2873,
        "contract": "contracts/core/extensions/TTUV2Gasless.sol:TTUV2Gasless",
        "label": "_projectToken",
        "offset": 0,
        "slot": "101",
        "type": "t_address"
      },
      {
        "astId": 314,
        "contract": "contracts/core/extensions/TTUV2Gasless.sol:TTUV2Gasless",
        "label": "_status",
        "offset": 0,
        "slot": "102",
        "type": "t_uint256"
      },
      {
        "astId": 372,
        "contract": "contracts/core/extensions/TTUV2Gasless.sol:TTUV2Gasless",
        "label": "__gap",
        "offset": 0,
        "slot": "103",
        "type": "t_array(t_uint256)49_storage"
      },
      {
        "astId": 2962,
        "contract": "contracts/core/extensions/TTUV2Gasless.sol:TTUV2Gasless",
        "label": "deployer",
        "offset": 0,
        "slot": "152",
        "type": "t_contract(ITTUDeployer)5077"
      },
      {
        "astId": 2965,
        "contract": "contracts/core/extensions/TTUV2Gasless.sol:TTUV2Gasless",
        "label": "futureToken",
        "offset": 0,
        "slot": "153",
        "type": "t_contract(ITTFutureTokenV2)4981"
      },
      {
        "astId": 2968,
        "contract": "contracts/core/extensions/TTUV2Gasless.sol:TTUV2Gasless",
        "label": "accessControlDelegate",
        "offset": 0,
        "slot": "154",
        "type": "t_contract(ITTAccessControlDelegate)4927"
      },
      {
        "astId": 2971,
        "contract": "contracts/core/extensions/TTUV2Gasless.sol:TTUV2Gasless",
        "label": "hook",
        "offset": 0,
        "slot": "155",
        "type": "t_contract(ITTHook)4995"
      },
      {
        "astId": 2974,
        "contract": "contracts/core/extensions/TTUV2Gasless.sol:TTUV2Gasless",
        "label": "isCancelable",
        "offset": 20,
        "slot": "155",
        "type": "t_bool"
      },
      {
        "astId": 2977,
        "contract": "contracts/core/extensions/TTUV2Gasless.sol:TTUV2Gasless",
        "label": "isAccessControllable",
        "offset": 21,
        "slot": "155",
        "type": "t_bool"
      },
      {
        "astId": 2980,
        "contract": "contracts/core/extensions/TTUV2Gasless.sol:TTUV2Gasless",
        "label": "isHookable",
        "offset": 22,
        "slot": "155",
        "type": "t_bool"
      },
      {
        "astId": 2985,
        "contract": "contracts/core/extensions/TTUV2Gasless.sol:TTUV2Gasless",
        "label": "_unlockingSchedulePresets",
        "offset": 0,
        "slot": "156",
        "type": "t_mapping(t_bytes32,t_struct(UnlockingSchedulePreset)5410_storage)"
      },
      {
        "astId": 2990,
        "contract": "contracts/core/extensions/TTUV2Gasless.sol:TTUV2Gasless",
        "label": "unlockingScheduleActuals",
        "offset": 0,
        "slot": "157",
        "type": "t_mapping(t_uint256,t_struct(UnlockingScheduleActual)5421_storage)"
      },
      {
        "astId": 2994,
        "contract": "contracts/core/extensions/TTUV2Gasless.sol:TTUV2Gasless",
        "label": "amountUnlockedLeftoverForActuals",
        "offset": 0,
        "slot": "158",
        "type": "t_mapping(t_uint256,t_uint256)"
      },
      {
        "astId": 5505,
        "contract": "contracts/core/extensions/TTUV2Gasless.sol:TTUV2Gasless",
        "label": "trustedForwarder",
        "offset": 0,
        "slot": "159",
        "type": "t_address"
      }
    ],
    "types": {
      "t_address": {
        "encoding": "inplace",
        "label": "address",
        "numberOfBytes": "20"
      },
      "t_array(t_uint256)49_storage": {
        "base": "t_uint256",
        "encoding": "inplace",
        "label": "uint256[49]",
        "numberOfBytes": "1568"
      },
      "t_array(t_uint256)50_storage": {
        "base": "t_uint256",
        "encoding": "inplace",
        "label": "uint256[50]",
        "numberOfBytes": "1600"
      },
      "t_array(t_uint256)dyn_storage": {
        "base": "t_uint256",
        "encoding": "dynamic_array",
        "label": "uint256[]",
        "numberOfBytes": "32"
      },
      "t_bool": {
        "encoding": "inplace",
        "label": "bool",
        "numberOfBytes": "1"
      },
      "t_bytes32": {
        "encoding": "inplace",
        "label": "bytes32",
        "numberOfBytes": "32"
      },
      "t_contract(ITTAccessControlDelegate)4927": {
        "encoding": "inplace",
        "label": "contract ITTAccessControlDelegate",
        "numberOfBytes": "20"
      },
      "t_contract(ITTFutureTokenV2)4981": {
        "encoding": "inplace",
        "label": "contract ITTFutureTokenV2",
        "numberOfBytes": "20"
      },
      "t_contract(ITTHook)4995": {
        "encoding": "inplace",
        "label": "contract ITTHook",
        "numberOfBytes": "20"
      },
      "t_contract(ITTUDeployer)5077": {
        "encoding": "inplace",
        "label": "contract ITTUDeployer",
        "numberOfBytes": "20"
      },
      "t_mapping(t_bytes32,t_struct(UnlockingSchedulePreset)5410_storage)": {
        "encoding": "mapping",
        "key": "t_bytes32",
        "label": "mapping(bytes32 => struct UnlockingSchedulePreset)",
        "numberOfBytes": "32",
        "value": "t_struct(UnlockingSchedulePreset)5410_storage"
      },
      "t_mapping(t_uint256,t_struct(UnlockingScheduleActual)5421_storage)": {
        "encoding": "mapping",
        "key": "t_uint256",
        "label": "mapping(uint256 => struct UnlockingScheduleActual)",
        "numberOfBytes": "32",
        "value": "t_struct(UnlockingScheduleActual)5421_storage"
      },
      "t_mapping(t_uint256,t_uint256)": {
        "encoding": "mapping",
        "key": "t_uint256",
        "label": "mapping(uint256 => uint256)",
        "numberOfBytes": "32",
        "value": "t_uint256"
      },
      "t_struct(UnlockingScheduleActual)5421_storage": {
        "encoding": "inplace",
        "label": "struct UnlockingScheduleActual",
        "members": [
          {
            "astId": 5412,
            "contract": "contracts/core/extensions/TTUV2Gasless.sol:TTUV2Gasless",
            "label": "presetId",
            "offset": 0,
            "slot": "0",
            "type": "t_bytes32"
          },
          {
            "astId": 5414,
            "contract": "contracts/core/extensions/TTUV2Gasless.sol:TTUV2Gasless",
            "label": "startTimestampAbsolute",
            "offset": 0,
            "slot": "1",
            "type": "t_uint256"
          },
          {
            "astId": 5416,
            "contract": "contracts/core/extensions/TTUV2Gasless.sol:TTUV2Gasless",
            "label": "amountClaimed",
            "offset": 0,
            "slot": "2",
            "type": "t_uint256"
          },
          {
            "astId": 5418,
            "contract": "contracts/core/extensions/TTUV2Gasless.sol:TTUV2Gasless",
            "label": "amountDeposited",
            "offset": 0,
            "slot": "3",
            "type": "t_uint256"
          },
          {
            "astId": 5420,
            "contract": "contracts/core/extensions/TTUV2Gasless.sol:TTUV2Gasless",
            "label": "totalAmount",
            "offset": 0,
            "slot": "4",
            "type": "t_uint256"
          }
        ],
        "numberOfBytes": "160"
      },
      "t_struct(UnlockingSchedulePreset)5410_storage": {
        "encoding": "inplace",
        "label": "struct UnlockingSchedulePreset",
        "members": [
          {
            "astId": 5401,
            "contract": "contracts/core/extensions/TTUV2Gasless.sol:TTUV2Gasless",
            "label": "linearStartTimestampsRelative",
            "offset": 0,
            "slot": "0",
            "type": "t_array(t_uint256)dyn_storage"
          },
          {
            "astId": 5403,
            "contract": "contracts/core/extensions/TTUV2Gasless.sol:TTUV2Gasless",
            "label": "linearEndTimestampRelative",
            "offset": 0,
            "slot": "1",
            "type": "t_uint256"
          },
          {
            "astId": 5406,
            "contract": "contracts/core/extensions/TTUV2Gasless.sol:TTUV2Gasless",
            "label": "linearBips",
            "offset": 0,
            "slot": "2",
            "type": "t_array(t_uint256)dyn_storage"
          },
          {
            "astId": 5409,
            "contract": "contracts/core/extensions/TTUV2Gasless.sol:TTUV2Gasless",
            "label": "numOfUnlocksForEachLinear",
            "offset": 0,
            "slot": "3",
            "type": "t_array(t_uint256)dyn_storage"
          }
        ],
        "numberOfBytes": "128"
      },
      "t_uint256": {
        "encoding": "inplace",
        "label": "uint256",
        "numberOfBytes": "32"
      },
      "t_uint8": {
        "encoding": "inplace",
        "label": "uint8",
        "numberOfBytes": "1"
      }
    }
  }
}