{
  "address": "0x945C44803E92a3495C32be951052a62E45A5D964",
  "abi": [
    {
      "inputs": [],
      "stateMutability": "nonpayable",
      "type": "constructor"
    },
    {
      "inputs": [],
      "name": "ApprovalCallerNotOwnerNorApproved",
      "type": "error"
    },
    {
      "inputs": [],
      "name": "ApprovalQueryForNonexistentToken",
      "type": "error"
    },
    {
      "inputs": [],
      "name": "BalanceQueryForZeroAddress",
      "type": "error"
    },
    {
      "inputs": [],
      "name": "InvalidQueryRange",
      "type": "error"
    },
    {
      "inputs": [],
      "name": "MintERC2309QuantityExceedsLimit",
      "type": "error"
    },
    {
      "inputs": [],
      "name": "MintToZeroAddress",
      "type": "error"
    },
    {
      "inputs": [],
      "name": "MintZeroQuantity",
      "type": "error"
    },
    {
      "inputs": [],
      "name": "OwnerQueryForNonexistentToken",
      "type": "error"
    },
    {
      "inputs": [],
      "name": "OwnershipNotInitializedForExtraData",
      "type": "error"
    },
    {
      "inputs": [],
      "name": "TransferCallerNotOwnerNorApproved",
      "type": "error"
    },
    {
      "inputs": [],
      "name": "TransferFromIncorrectOwner",
      "type": "error"
    },
    {
      "inputs": [],
      "name": "TransferToNonERC721ReceiverImplementer",
      "type": "error"
    },
    {
      "inputs": [],
      "name": "TransferToZeroAddress",
      "type": "error"
    },
    {
      "inputs": [],
      "name": "URIQueryForNonexistentToken",
      "type": "error"
    },
    {
      "inputs": [],
      "name": "Unauthorized",
      "type": "error"
    },
    {
      "anonymous": false,
      "inputs": [
        {
          "indexed": true,
          "internalType": "address",
          "name": "owner",
          "type": "address"
        },
        {
          "indexed": true,
          "internalType": "address",
          "name": "approved",
          "type": "address"
        },
        {
          "indexed": true,
          "internalType": "uint256",
          "name": "tokenId",
          "type": "uint256"
        }
      ],
      "name": "Approval",
      "type": "event"
    },
    {
      "anonymous": false,
      "inputs": [
        {
          "indexed": true,
          "internalType": "address",
          "name": "owner",
          "type": "address"
        },
        {
          "indexed": true,
          "internalType": "address",
          "name": "operator",
          "type": "address"
        },
        {
          "indexed": false,
          "internalType": "bool",
          "name": "approved",
          "type": "bool"
        }
      ],
      "name": "ApprovalForAll",
      "type": "event"
    },
    {
      "anonymous": false,
      "inputs": [
        {
          "indexed": true,
          "internalType": "uint256",
          "name": "fromTokenId",
          "type": "uint256"
        },
        {
          "indexed": false,
          "internalType": "uint256",
          "name": "toTokenId",
          "type": "uint256"
        },
        {
          "indexed": true,
          "internalType": "address",
          "name": "from",
          "type": "address"
        },
        {
          "indexed": true,
          "internalType": "address",
          "name": "to",
          "type": "address"
        }
      ],
      "name": "ConsecutiveTransfer",
      "type": "event"
    },
    {
      "anonymous": false,
      "inputs": [
        {
          "indexed": true,
          "internalType": "address",
          "name": "from",
          "type": "address"
        },
        {
          "indexed": true,
          "internalType": "address",
          "name": "to",
          "type": "address"
        },
        {
          "indexed": true,
          "internalType": "uint256",
          "name": "tokenId",
          "type": "uint256"
        }
      ],
      "name": "Transfer",
      "type": "event"
    },
    {
      "inputs": [],
      "name": "allowTransfer",
      "outputs": [
        {
          "internalType": "bool",
          "name": "",
          "type": "bool"
        }
      ],
      "stateMutability": "view",
      "type": "function"
    },
    {
      "inputs": [
        {
          "internalType": "address",
          "name": "to",
          "type": "address"
        },
        {
          "internalType": "uint256",
          "name": "tokenId",
          "type": "uint256"
        }
      ],
      "name": "approve",
      "outputs": [],
      "stateMutability": "payable",
      "type": "function"
    },
    {
      "inputs": [],
      "name": "authorizedMinter",
      "outputs": [
        {
          "internalType": "address",
          "name": "",
          "type": "address"
        }
      ],
      "stateMutability": "view",
      "type": "function"
    },
    {
      "inputs": [
        {
          "internalType": "address",
          "name": "owner",
          "type": "address"
        }
      ],
      "name": "balanceOf",
      "outputs": [
        {
          "internalType": "uint256",
          "name": "",
          "type": "uint256"
        }
      ],
      "stateMutability": "view",
      "type": "function"
    },
    {
      "inputs": [
        {
          "internalType": "uint256",
          "name": "tokenId",
          "type": "uint256"
        }
      ],
      "name": "explicitOwnershipOf",
      "outputs": [
        {
          "components": [
            {
              "internalType": "address",
              "name": "addr",
              "type": "address"
            },
            {
              "internalType": "uint64",
              "name": "startTimestamp",
              "type": "uint64"
            },
            {
              "internalType": "bool",
              "name": "burned",
              "type": "bool"
            },
            {
              "internalType": "uint24",
              "name": "extraData",
              "type": "uint24"
            }
          ],
          "internalType": "struct IERC721AUpgradeable.TokenOwnership",
          "name": "",
          "type": "tuple"
        }
      ],
      "stateMutability": "view",
      "type": "function"
    },
    {
      "inputs": [
        {
          "internalType": "uint256[]",
          "name": "tokenIds",
          "type": "uint256[]"
        }
      ],
      "name": "explicitOwnershipsOf",
      "outputs": [
        {
          "components": [
            {
              "internalType": "address",
              "name": "addr",
              "type": "address"
            },
            {
              "internalType": "uint64",
              "name": "startTimestamp",
              "type": "uint64"
            },
            {
              "internalType": "bool",
              "name": "burned",
              "type": "bool"
            },
            {
              "internalType": "uint24",
              "name": "extraData",
              "type": "uint24"
            }
          ],
          "internalType": "struct IERC721AUpgradeable.TokenOwnership[]",
          "name": "",
          "type": "tuple[]"
        }
      ],
      "stateMutability": "view",
      "type": "function"
    },
    {
      "inputs": [
        {
          "internalType": "uint256",
          "name": "tokenId",
          "type": "uint256"
        }
      ],
      "name": "getApproved",
      "outputs": [
        {
          "internalType": "address",
          "name": "",
          "type": "address"
        }
      ],
      "stateMutability": "view",
      "type": "function"
    },
    {
      "inputs": [
        {
          "internalType": "uint256",
          "name": "tokenId",
          "type": "uint256"
        }
      ],
      "name": "getClaimInfo",
      "outputs": [
        {
          "internalType": "uint256",
          "name": "deltaAmountClaimable",
          "type": "uint256"
        },
        {
          "internalType": "uint256",
          "name": "amountAlreadyClaimed",
          "type": "uint256"
        },
        {
          "internalType": "bool",
          "name": "isCancelable",
          "type": "bool"
        }
      ],
      "stateMutability": "view",
      "type": "function"
    },
    {
      "inputs": [
        {
          "internalType": "address",
          "name": "projectToken",
          "type": "address"
        },
        {
          "internalType": "bool",
          "name": "allowTransfer_",
          "type": "bool"
        }
      ],
      "name": "initialize",
      "outputs": [],
      "stateMutability": "nonpayable",
      "type": "function"
    },
    {
      "inputs": [
        {
          "internalType": "address",
          "name": "owner",
          "type": "address"
        },
        {
          "internalType": "address",
          "name": "operator",
          "type": "address"
        }
      ],
      "name": "isApprovedForAll",
      "outputs": [
        {
          "internalType": "bool",
          "name": "",
          "type": "bool"
        }
      ],
      "stateMutability": "view",
      "type": "function"
    },
    {
      "inputs": [],
      "name": "name",
      "outputs": [
        {
          "internalType": "string",
          "name": "",
          "type": "string"
        }
      ],
      "stateMutability": "view",
      "type": "function"
    },
    {
      "inputs": [
        {
          "internalType": "uint256",
          "name": "tokenId",
          "type": "uint256"
        }
      ],
      "name": "ownerOf",
      "outputs": [
        {
          "internalType": "address",
          "name": "",
          "type": "address"
        }
      ],
      "stateMutability": "view",
      "type": "function"
    },
    {
      "inputs": [
        {
          "internalType": "address",
          "name": "to",
          "type": "address"
        }
      ],
      "name": "safeMint",
      "outputs": [
        {
          "internalType": "uint256",
          "name": "tokenId",
          "type": "uint256"
        }
      ],
      "stateMutability": "nonpayable",
      "type": "function"
    },
    {
      "inputs": [
        {
          "internalType": "address",
          "name": "from",
          "type": "address"
        },
        {
          "internalType": "address",
          "name": "to",
          "type": "address"
        },
        {
          "internalType": "uint256",
          "name": "tokenId",
          "type": "uint256"
        }
      ],
      "name": "safeTransferFrom",
      "outputs": [],
      "stateMutability": "payable",
      "type": "function"
    },
    {
      "inputs": [
        {
          "internalType": "address",
          "name": "from",
          "type": "address"
        },
        {
          "internalType": "address",
          "name": "to",
          "type": "address"
        },
        {
          "internalType": "uint256",
          "name": "tokenId",
          "type": "uint256"
        },
        {
          "internalType": "bytes",
          "name": "_data",
          "type": "bytes"
        }
      ],
      "name": "safeTransferFrom",
      "outputs": [],
      "stateMutability": "payable",
      "type": "function"
    },
    {
      "inputs": [
        {
          "internalType": "address",
          "name": "operator",
          "type": "address"
        },
        {
          "internalType": "bool",
          "name": "approved",
          "type": "bool"
        }
      ],
      "name": "setApprovalForAll",
      "outputs": [],
      "stateMutability": "nonpayable",
      "type": "function"
    },
    {
      "inputs": [
        {
          "internalType": "address",
          "name": "authorizedMinter_",
          "type": "address"
        }
      ],
      "name": "setAuthorizedMinterSingleUse",
      "outputs": [],
      "stateMutability": "nonpayable",
      "type": "function"
    },
    {
      "inputs": [
        {
          "internalType": "bytes4",
          "name": "interfaceId",
          "type": "bytes4"
        }
      ],
      "name": "supportsInterface",
      "outputs": [
        {
          "internalType": "bool",
          "name": "",
          "type": "bool"
        }
      ],
      "stateMutability": "view",
      "type": "function"
    },
    {
      "inputs": [],
      "name": "symbol",
      "outputs": [
        {
          "internalType": "string",
          "name": "",
          "type": "string"
        }
      ],
      "stateMutability": "view",
      "type": "function"
    },
    {
      "inputs": [
        {
          "internalType": "uint256",
          "name": "tokenId",
          "type": "uint256"
        }
      ],
      "name": "tokenURI",
      "outputs": [
        {
          "internalType": "string",
          "name": "",
          "type": "string"
        }
      ],
      "stateMutability": "view",
      "type": "function"
    },
    {
      "inputs": [
        {
          "internalType": "address",
          "name": "owner",
          "type": "address"
        }
      ],
      "name": "tokensOfOwner",
      "outputs": [
        {
          "internalType": "uint256[]",
          "name": "",
          "type": "uint256[]"
        }
      ],
      "stateMutability": "view",
      "type": "function"
    },
    {
      "inputs": [
        {
          "internalType": "address",
          "name": "owner",
          "type": "address"
        },
        {
          "internalType": "uint256",
          "name": "start",
          "type": "uint256"
        },
        {
          "internalType": "uint256",
          "name": "stop",
          "type": "uint256"
        }
      ],
      "name": "tokensOfOwnerIn",
      "outputs": [
        {
          "internalType": "uint256[]",
          "name": "",
          "type": "uint256[]"
        }
      ],
      "stateMutability": "view",
      "type": "function"
    },
    {
      "inputs": [],
      "name": "totalSupply",
      "outputs": [
        {
          "internalType": "uint256",
          "name": "",
          "type": "uint256"
        }
      ],
      "stateMutability": "view",
      "type": "function"
    },
    {
      "inputs": [
        {
          "internalType": "address",
          "name": "from",
          "type": "address"
        },
        {
          "internalType": "address",
          "name": "to",
          "type": "address"
        },
        {
          "internalType": "uint256",
          "name": "tokenId",
          "type": "uint256"
        }
      ],
      "name": "transferFrom",
      "outputs": [],
      "stateMutability": "payable",
      "type": "function"
    }
  ],
  "transactionHash": "0x8be641de64ce2c84770ce1875d922ec34ccb29db27141296f70606f50ac91c68",
  "args": [],
  "numDeployments": 1,
  "solcInputHash": "4e221f7596cee85728a1e5db80ff7a95",
  "bytecode": "0x60806040523480156200001157600080fd5b506200001c62000022565b620001be565b620000376200019a60201b620010061760201c565b54610100900460ff1662000065576200005a6200019a60201b620010061760201c565b5460ff161562000069565b303b155b620000e05760405162461bcd60e51b815260206004820152603760248201527f455243373231415f5f496e697469616c697a61626c653a20636f6e747261637460448201527f20697320616c726561647920696e697469616c697a6564000000000000000000606482015260840160405180910390fd5b6000620000f76200019a60201b620010061760201c565b54610100900460ff16159050801562000162576001620001216200019a60201b620010061760201c565b60000160016101000a81548160ff0219169083151502179055506001620001526200019a60201b620010061760201c565b805460ff19169115159190911790555b801562000197576000620001806200019a60201b620010061760201c565b80549115156101000261ff00199092169190911790555b50565b7fee151c8401928dc223602bb187aff91b9a56c7cae5476ef1b3287b085a16c85f90565b61206580620001ce6000396000f3fe60806040526004361061014b5760003560e01c80636352211e116100b6578063a22cb4651161006f578063a22cb465146103ad578063b88d4fde146103cd578063c23dc68f146103e0578063c87b56dd1461040d578063d20701931461042d578063e985e9c51461046a57600080fd5b80636352211e146102ea57806370a082311461030a5780638462151c1461032a57806395d89b411461035757806399a2557a1461036c5780639b08a22f1461038c57600080fd5b806323b872dd1161010857806323b872dd14610237578063400ada751461024a57806340d097c31461026a57806342842e0e1461028a578063558a47f81461029d5780635bbb2177146102bd57600080fd5b806301ffc9a71461015057806306fdde0314610185578063081812fc146101a7578063095ea7b3146101df57806318160ddd146101f45780631ba538cd14610217575b600080fd5b34801561015c57600080fd5b5061017061016b3660046118ed565b61048a565b60405190151581526020015b60405180910390f35b34801561019157600080fd5b5061019a6104dc565b60405161017c919061195a565b3480156101b357600080fd5b506101c76101c236600461196d565b610577565b6040516001600160a01b03909116815260200161017c565b6101f26101ed36600461199d565b6105c4565b005b34801561020057600080fd5b506102096105d4565b60405190815260200161017c565b34801561022357600080fd5b506000546101c7906001600160a01b031681565b6101f26102453660046119c7565b6105f3565b34801561025657600080fd5b506101f2610265366004611a11565b61062c565b34801561027657600080fd5b50610209610285366004611a48565b610878565b6101f26102983660046119c7565b6108bd565b3480156102a957600080fd5b506101f26102b8366004611a48565b6108d8565b3480156102c957600080fd5b506102dd6102d8366004611a63565b610923565b60405161017c9190611b15565b3480156102f657600080fd5b506101c761030536600461196d565b6109ef565b34801561031657600080fd5b50610209610325366004611a48565b6109fa565b34801561033657600080fd5b5061034a610345366004611a48565b610a63565b60405161017c9190611b57565b34801561036357600080fd5b5061019a610b6c565b34801561037857600080fd5b5061034a610387366004611b8f565b610b84565b34801561039857600080fd5b5060005461017090600160a01b900460ff1681565b3480156103b957600080fd5b506101f26103c8366004611a11565b610cfd565b6101f26103db366004611c31565b610d7a565b3480156103ec57600080fd5b506104006103fb36600461196d565b610db5565b60405161017c9190611cdc565b34801561041957600080fd5b5061019a61042836600461196d565b610e31565b34801561043957600080fd5b5061044d61044836600461196d565b610ec1565b60408051938452602084019290925215159082015260600161017c565b34801561047657600080fd5b50610170610485366004611cea565b610fc9565b60006301ffc9a760e01b6001600160e01b0319831614806104bb57506380ac58cd60e01b6001600160e01b03198316145b806104d65750635b5e139f60e01b6001600160e01b03198316145b92915050565b60606104e661102a565b60020180546104f490611d1d565b80601f016020809104026020016040519081016040528092919081815260200182805461052090611d1d565b801561056d5780601f106105425761010080835404028352916020019161056d565b820191906000526020600020905b81548152906001019060200180831161055057829003601f168201915b5050505050905090565b60006105828261104e565b61059f576040516333d1c03960e21b815260040160405180910390fd5b6105a761102a565b60009283526006016020525060409020546001600160a01b031690565b6105d08282600161108a565b5050565b6000806105df61102a565b600101546105eb61102a565b540303919050565b600054600160a01b900460ff1661061c576040516282b42960e81b815260040160405180910390fd5b61062783838361113f565b505050565b610634611006565b54610100900460ff1661065357610649611006565b5460ff1615610657565b303b155b6106ce5760405162461bcd60e51b815260206004820152603760248201527f455243373231415f5f496e697469616c697a61626c653a20636f6e747261637460448201527f20697320616c726561647920696e697469616c697a656400000000000000000060648201526084015b60405180910390fd5b60006106d8611006565b54610100900460ff1615905080156107245760016106f4611006565b80549115156101000261ff00199092169190911790556001610714611006565b805460ff19169115159190911790555b610836836001600160a01b03166306fdde036040518163ffffffff1660e01b8152600401600060405180830381865afa158015610765573d6000803e3d6000fd5b505050506040513d6000823e601f3d908101601f1916820160405261078d9190810190611d57565b60405160200161079d9190611dce565b604051602081830303815290604052846001600160a01b03166395d89b416040518163ffffffff1660e01b8152600401600060405180830381865afa1580156107ea573d6000803e3d6000fd5b505050506040513d6000823e601f3d908101601f191682016040526108129190810190611d57565b6040516020016108229190611dfd565b604051602081830303815290604052611336565b6000805460ff60a01b1916600160a01b84151502179055801561062757600061085d611006565b80549115156101000261ff0019909216919091179055505050565b600080546001600160a01b031633146108a3576040516282b42960e81b815260040160405180910390fd5b6108ab6113ef565b90506108b88260016113ff565b919050565b61062783838360405180602001604052806000815250610d7a565b6000546001600160a01b031615610901576040516282b42960e81b815260040160405180910390fd5b600080546001600160a01b0319166001600160a01b0392909216919091179055565b60608160008167ffffffffffffffff81111561094157610941611bc2565b60405190808252806020026020018201604052801561099357816020015b60408051608081018252600080825260208083018290529282018190526060820152825260001990920191018161095f5790505b50905060005b8281146109e6576109c18686838181106109b5576109b5611e28565b90506020020135610db5565b8282815181106109d3576109d3611e28565b6020908102919091010152600101610999565b50949350505050565b60006104d682611419565b60006001600160a01b038216610a23576040516323d3ad8160e21b815260040160405180910390fd5b67ffffffffffffffff610a3461102a565b6005016000846001600160a01b03166001600160a01b0316815260200190815260200160002054169050919050565b60606000806000610a73856109fa565b905060008167ffffffffffffffff811115610a9057610a90611bc2565b604051908082528060200260200182016040528015610ab9578160200160208202803683370190505b509050610ae660408051608081018252600080825260208201819052918101829052606081019190915290565b60005b838614610b6057610af9816114bd565b91508160400151610b585781516001600160a01b031615610b1957815194505b876001600160a01b0316856001600160a01b031603610b585780838780600101985081518110610b4b57610b4b611e28565b6020026020010181815250505b600101610ae9565b50909695505050505050565b6060610b7661102a565b60030180546104f490611d1d565b6060818310610ba657604051631960ccad60e11b815260040160405180910390fd5b600080610bb16113ef565b905080841115610bbf578093505b6000610bca876109fa565b905084861015610be95785850381811015610be3578091505b50610bed565b5060005b60008167ffffffffffffffff811115610c0857610c08611bc2565b604051908082528060200260200182016040528015610c31578160200160208202803683370190505b50905081600003610c47579350610cf692505050565b6000610c5288610db5565b905060008160400151610c63575080515b885b888114158015610c755750848714155b15610cea57610c83816114bd565b92508260400151610ce25782516001600160a01b031615610ca357825191505b8a6001600160a01b0316826001600160a01b031603610ce25780848880600101995081518110610cd557610cd5611e28565b6020026020010181815250505b600101610c65565b50505092835250909150505b9392505050565b80610d0661102a565b336000818152600792909201602090815260408084206001600160a01b03881680865290835293819020805460ff19169515159590951790945592518415158152919290917f17307eab39ab6107e8899845ad3d59bd9653f200f220920489ca2b5937696c31910160405180910390a35050565b600054600160a01b900460ff16610da3576040516282b42960e81b815260040160405180910390fd5b610daf84848484611504565b50505050565b6040805160808082018352600080835260208084018290528385018290526060808501839052855193840186528284529083018290529382018190529281019290925290610e016113ef565b8310610e0d5792915050565b610e16836114bd565b9050806040015115610e285792915050565b610cf683611548565b6060610e3c8261104e565b610e5957604051630a14c4b560e41b815260040160405180910390fd5b6000610e7060408051602081019091526000815290565b90508051600003610e905760405180602001604052806000815250610cf6565b80610e9a8461157d565b604051602001610eab929190611e3e565b6040516020818303038152906040529392505050565b600080546040516342734d4560e01b81526004810184905282918291829182916001600160a01b03909116906342734d45906024016040805180830381865afa158015610f12573d6000803e3d6000fd5b505050506040513d601f19601f82011682018060405250810190610f369190611e6d565b9095508592509050610f488282611e91565b935060008054906101000a90046001600160a01b03166001600160a01b0316631bffb4916040518163ffffffff1660e01b8152600401602060405180830381865afa158015610f9b573d6000803e3d6000fd5b505050506040513d601f19601f82011682018060405250810190610fbf9190611eb2565b9496939550505050565b6000610fd361102a565b6001600160a01b039384166000908152600791909101602090815260408083209490951682529290925250205460ff1690565b7fee151c8401928dc223602bb187aff91b9a56c7cae5476ef1b3287b085a16c85f90565b7f2569078dfb4b0305704d3008e7403993ae9601b85f7ae5e742de3de8f8011c4090565b600061105861102a565b54821080156104d65750600160e01b61106f61102a565b60008481526004919091016020526040902054161592915050565b6000611095836109ef565b905081156110d457336001600160a01b038216146110d4576110b78133610fc9565b6110d4576040516367d9dca160e11b815260040160405180910390fd5b836110dd61102a565b6000858152600691909101602052604080822080546001600160a01b0319166001600160a01b0394851617905551859287811692908516917f8c5be1e5ebec7d5bd14f71427d1e84f3dd0314c0f7b2291e5b200ac8c7c3b9259190a450505050565b600061114a82611419565b9050836001600160a01b0316816001600160a01b03161461117d5760405162a1148160e81b815260040160405180910390fd5b600080611189846115c1565b915091506111ae81876111993390565b6001600160a01b039081169116811491141790565b6111d9576111bc8633610fc9565b6111d957604051632ce44b5f60e11b815260040160405180910390fd5b6001600160a01b03851661120057604051633a954ecd60e21b815260040160405180910390fd5b801561120b57600082555b61121361102a565b6001600160a01b038716600090815260059190910160205260409020805460001901905561123f61102a565b6001600160a01b03861660008181526005929092016020526040909120805460010190554260a01b17600160e11b1761127661102a565b60008681526004919091016020526040812091909155600160e11b841690036112ec57600184016112a561102a565b6000828152600491909101602052604081205490036112ea576112c661102a565b5481146112ea57836112d661102a565b600083815260049190910160205260409020555b505b83856001600160a01b0316876001600160a01b03167fddf252ad1be2c89b69c2b068fc378daa952ba7f163c4a11628f55a4df523b3ef60405160405180910390a45b505050505050565b61133e611006565b54610100900460ff166113b05760405162461bcd60e51b815260206004820152603460248201527f455243373231415f5f496e697469616c697a61626c653a20636f6e7472616374604482015273206973206e6f7420696e697469616c697a696e6760601b60648201526084016106c5565b816113b961102a565b600201906113c79082611f15565b50806113d161102a565b600301906113df9082611f15565b5060006113ea61102a565b555050565b60006113f961102a565b54919050565b6105d08282604051806020016040528060008152506115e9565b600061142361102a565b600083815260049190910160205260408120549150600160e01b821690036114a457806000036108b85761145561102a565b54821061147557604051636f96cda160e11b815260040160405180910390fd5b61147d61102a565b60001990920160008181526004939093016020526040909220549050801561147557919050565b604051636f96cda160e11b815260040160405180910390fd5b6040805160808101825260008082526020820181905291810182905260608101919091526104d66114ec61102a565b60008481526004919091016020526040902054611666565b61150f8484846105f3565b6001600160a01b0383163b15610daf5761152b848484846116ae565b610daf576040516368d2bf6b60e11b815260040160405180910390fd5b6040805160808101825260008082526020820181905291810182905260608101919091526104d661157883611419565b611666565b606060a06040510180604052602081039150506000815280825b600183039250600a81066030018353600a9004806115975750819003601f19909101908152919050565b60008060006115ce61102a565b60009485526006016020525050604090912080549092909150565b6115f38383611799565b6001600160a01b0383163b1561062757600061160d61102a565b5490508281035b61162760008683806001019450866116ae565b611644576040516368d2bf6b60e11b815260040160405180910390fd5b818110611614578161165461102a565b541461165f57600080fd5b5050505050565b604080516080810182526001600160a01b038316815260a083901c67ffffffffffffffff166020820152600160e01b831615159181019190915260e89190911c606082015290565b604051630a85bd0160e11b81526000906001600160a01b0385169063150b7a02906116e3903390899088908890600401611fd5565b6020604051808303816000875af192505050801561171e575060408051601f3d908101601f1916820190925261171b91810190612012565b60015b61177c573d80801561174c576040519150601f19603f3d011682016040523d82523d6000602084013e611751565b606091505b508051600003611774576040516368d2bf6b60e11b815260040160405180910390fd5b805181602001fd5b6001600160e01b031916630a85bd0160e11b149050949350505050565b60006117a361102a565b54905060008290036117c85760405163b562e8dd60e01b815260040160405180910390fd5b6801000000000000000182026117dc61102a565b6001600160a01b038516600081815260059290920160205260409091208054929092019091554260a01b6001841460e11b171761181761102a565b600083815260049190910160205260408120919091556001600160a01b0384169083830190839083907fddf252ad1be2c89b69c2b068fc378daa952ba7f163c4a11628f55a4df523b3ef8180a4600183015b8181146118a157808360007fddf252ad1be2c89b69c2b068fc378daa952ba7f163c4a11628f55a4df523b3ef600080a4600101611869565b50816000036118c257604051622e076360e81b815260040160405180910390fd5b806118cb61102a565b55506106279050565b6001600160e01b0319811681146118ea57600080fd5b50565b6000602082840312156118ff57600080fd5b8135610cf6816118d4565b60005b8381101561192557818101518382015260200161190d565b50506000910152565b6000815180845261194681602086016020860161190a565b601f01601f19169290920160200192915050565b602081526000610cf6602083018461192e565b60006020828403121561197f57600080fd5b5035919050565b80356001600160a01b03811681146108b857600080fd5b600080604083850312156119b057600080fd5b6119b983611986565b946020939093013593505050565b6000806000606084860312156119dc57600080fd5b6119e584611986565b92506119f360208501611986565b9150604084013590509250925092565b80151581146118ea57600080fd5b60008060408385031215611a2457600080fd5b611a2d83611986565b91506020830135611a3d81611a03565b809150509250929050565b600060208284031215611a5a57600080fd5b610cf682611986565b60008060208385031215611a7657600080fd5b823567ffffffffffffffff80821115611a8e57600080fd5b818501915085601f830112611aa257600080fd5b813581811115611ab157600080fd5b8660208260051b8501011115611ac657600080fd5b60209290920196919550909350505050565b80516001600160a01b0316825260208082015167ffffffffffffffff169083015260408082015115159083015260609081015162ffffff16910152565b6020808252825182820181905260009190848201906040850190845b81811015610b6057611b44838551611ad8565b9284019260809290920191600101611b31565b6020808252825182820181905260009190848201906040850190845b81811015610b6057835183529284019291840191600101611b73565b600080600060608486031215611ba457600080fd5b611bad84611986565b95602085013595506040909401359392505050565b634e487b7160e01b600052604160045260246000fd5b604051601f8201601f1916810167ffffffffffffffff81118282101715611c0157611c01611bc2565b604052919050565b600067ffffffffffffffff821115611c2357611c23611bc2565b50601f01601f191660200190565b60008060008060808587031215611c4757600080fd5b611c5085611986565b9350611c5e60208601611986565b925060408501359150606085013567ffffffffffffffff811115611c8157600080fd5b8501601f81018713611c9257600080fd5b8035611ca5611ca082611c09565b611bd8565b818152886020838501011115611cba57600080fd5b8160208401602083013760006020838301015280935050505092959194509250565b608081016104d68284611ad8565b60008060408385031215611cfd57600080fd5b611d0683611986565b9150611d1460208401611986565b90509250929050565b600181811c90821680611d3157607f821691505b602082108103611d5157634e487b7160e01b600052602260045260246000fd5b50919050565b600060208284031215611d6957600080fd5b815167ffffffffffffffff811115611d8057600080fd5b8201601f81018413611d9157600080fd5b8051611d9f611ca082611c09565b818152856020838501011115611db457600080fd5b611dc582602083016020860161190a565b95945050505050565b660233aba3ab932960cd1b815260008251611df081600785016020870161190a565b9190910160070192915050565b6246542d60e81b815260008251611e1b81600385016020870161190a565b9190910160030192915050565b634e487b7160e01b600052603260045260246000fd5b60008351611e5081846020880161190a565b835190830190611e6481836020880161190a565b01949350505050565b60008060408385031215611e8057600080fd5b505080516020909101519092909150565b818103818111156104d657634e487b7160e01b600052601160045260246000fd5b600060208284031215611ec457600080fd5b8151610cf681611a03565b601f82111561062757600081815260208120601f850160051c81016020861015611ef65750805b601f850160051c820191505b8181101561132e57828155600101611f02565b815167ffffffffffffffff811115611f2f57611f2f611bc2565b611f4381611f3d8454611d1d565b84611ecf565b602080601f831160018114611f785760008415611f605750858301515b600019600386901b1c1916600185901b17855561132e565b600085815260208120601f198616915b82811015611fa757888601518255948401946001909101908401611f88565b5085821015611fc55787850151600019600388901b60f8161c191681555b5050505050600190811b01905550565b6001600160a01b03858116825284166020820152604081018390526080606082018190526000906120089083018461192e565b9695505050505050565b60006020828403121561202457600080fd5b8151610cf6816118d456fea2646970667358221220c88057f434b603366545fc68501e423ecff929149975a5ce2003de95fc57e64464736f6c63430008110033",
  "devdoc": {
    "author": "Jack Xu @ EthSign",
    "details": "This is a redemption NFT minted to the stakeholder whenever an actual unlocking schedule is created by a founder. The holder of a future token can use it to claim unlocked tokens. A single instance of future token corresponds to a single instance of unlocker. This token is transferrable. The ID of this NFT is the ID of the actual unlocking schedule. The current claimable amount can be determined by calling TokenTableUnlockerV2.calculateAmountClaimable(uint256 actualId)",
    "kind": "dev",
    "methods": {
      "approve(address,uint256)": {
        "details": "Gives permission to `to` to transfer `tokenId` token to another account. See {ERC721A-_approve}. Requirements: - The caller must own the token or be an approved operator."
      },
      "balanceOf(address)": {
        "details": "Returns the number of tokens in `owner`'s account."
      },
      "explicitOwnershipOf(uint256)": {
        "details": "Returns the `TokenOwnership` struct at `tokenId` without reverting. If the `tokenId` is out of bounds: - `addr = address(0)` - `startTimestamp = 0` - `burned = false` - `extraData = 0` If the `tokenId` is burned: - `addr = <Address of owner before token was burned>` - `startTimestamp = <Timestamp when token was burned>` - `burned = true` - `extraData = <Extra data when token was burned>` Otherwise: - `addr = <Address of owner>` - `startTimestamp = <Timestamp of start of ownership>` - `burned = false` - `extraData = <Extra data at start of ownership>`"
      },
      "explicitOwnershipsOf(uint256[])": {
        "details": "Returns an array of `TokenOwnership` structs at `tokenIds` in order. See {ERC721AQueryable-explicitOwnershipOf}"
      },
      "getApproved(uint256)": {
        "details": "Returns the account approved for `tokenId` token. Requirements: - `tokenId` must exist."
      },
      "getClaimInfo(uint256)": {
        "details": "We assume the authorized minter is an instance of TTUV2.",
        "params": {
          "tokenId": "The actual ID created in TTUV2."
        },
        "returns": {
          "amountAlreadyClaimed": "The amount of tokens claimed as of now.",
          "deltaAmountClaimable": "The amount of tokens claimable as of now."
        }
      },
      "isApprovedForAll(address,address)": {
        "details": "Returns if the `operator` is allowed to manage all of the assets of `owner`. See {setApprovalForAll}."
      },
      "name()": {
        "details": "Returns the token collection name."
      },
      "ownerOf(uint256)": {
        "details": "Returns the owner of the `tokenId` token. Requirements: - `tokenId` must exist."
      },
      "safeMint(address)": {
        "details": "This function can only be called by the authorized minter. A future token with tokenId == actualId is minted."
      },
      "safeTransferFrom(address,address,uint256)": {
        "details": "Equivalent to `safeTransferFrom(from, to, tokenId, '')`."
      },
      "safeTransferFrom(address,address,uint256,bytes)": {
        "details": "Add a transfer lock"
      },
      "setApprovalForAll(address,bool)": {
        "details": "Approve or remove `operator` as an operator for the caller. Operators can call {transferFrom} or {safeTransferFrom} for any token owned by the caller. Requirements: - The `operator` cannot be the caller. Emits an {ApprovalForAll} event."
      },
      "setAuthorizedMinterSingleUse(address)": {
        "details": "This function can only be called once. It is called automatically when deployed using TTUDeployer. The authorized minter is usually the unlocker contract."
      },
      "supportsInterface(bytes4)": {
        "details": "Returns true if this contract implements the interface defined by `interfaceId`. See the corresponding [EIP section](https://eips.ethereum.org/EIPS/eip-165#how-interfaces-are-identified) to learn more about how these ids are created. This function call must use less than 30000 gas."
      },
      "symbol()": {
        "details": "Returns the token collection symbol."
      },
      "tokenURI(uint256)": {
        "details": "Returns the Uniform Resource Identifier (URI) for `tokenId` token."
      },
      "tokensOfOwner(address)": {
        "details": "Returns an array of token IDs owned by `owner`. This function scans the ownership mapping and is O(`totalSupply`) in complexity. It is meant to be called off-chain. See {ERC721AQueryable-tokensOfOwnerIn} for splitting the scan into multiple smaller scans if the collection is large enough to cause an out-of-gas error (10K collections should be fine)."
      },
      "tokensOfOwnerIn(address,uint256,uint256)": {
        "details": "Returns an array of token IDs owned by `owner`, in the range [`start`, `stop`) (i.e. `start <= tokenId < stop`). This function allows for tokens to be queried if the collection grows too big for a single call of {ERC721AQueryable-tokensOfOwner}. Requirements: - `start < stop`"
      },
      "totalSupply()": {
        "details": "Returns the total number of tokens in existence. Burned tokens will reduce the count. To get the total number of tokens minted, please see {_totalMinted}."
      },
      "transferFrom(address,address,uint256)": {
        "details": "Add a transfer lock"
      }
    },
    "title": "TTFutureTokenV2",
    "version": 1
  },
  "userdoc": {
    "errors": {
      "ApprovalCallerNotOwnerNorApproved()": [
        {
          "notice": "The caller must own the token or be an approved operator."
        }
      ],
      "ApprovalQueryForNonexistentToken()": [
        {
          "notice": "The token does not exist."
        }
      ],
      "BalanceQueryForZeroAddress()": [
        {
          "notice": "Cannot query the balance for the zero address."
        }
      ],
      "InvalidQueryRange()": [
        {
          "notice": "Invalid query range (`start` >= `stop`)."
        }
      ],
      "MintERC2309QuantityExceedsLimit()": [
        {
          "notice": "The `quantity` minted with ERC2309 exceeds the safety limit."
        }
      ],
      "MintToZeroAddress()": [
        {
          "notice": "Cannot mint to the zero address."
        }
      ],
      "MintZeroQuantity()": [
        {
          "notice": "The quantity of tokens minted must be more than zero."
        }
      ],
      "OwnerQueryForNonexistentToken()": [
        {
          "notice": "The token does not exist."
        }
      ],
      "OwnershipNotInitializedForExtraData()": [
        {
          "notice": "The `extraData` cannot be set on an unintialized ownership slot."
        }
      ],
      "TransferCallerNotOwnerNorApproved()": [
        {
          "notice": "The caller must own the token or be an approved operator."
        }
      ],
      "TransferFromIncorrectOwner()": [
        {
          "notice": "The token must be owned by `from`."
        }
      ],
      "TransferToNonERC721ReceiverImplementer()": [
        {
          "notice": "Cannot safely transfer to a contract that does not implement the ERC721Receiver interface."
        }
      ],
      "TransferToZeroAddress()": [
        {
          "notice": "Cannot transfer to the zero address."
        }
      ],
      "URIQueryForNonexistentToken()": [
        {
          "notice": "The token does not exist."
        }
      ]
    },
    "kind": "user",
    "methods": {
      "getClaimInfo(uint256)": {
        "notice": "Returns claim info for a given tokenId/actualId"
      },
      "safeMint(address)": {
        "notice": "Mints a future token to an address."
      },
      "setAuthorizedMinterSingleUse(address)": {
        "notice": "Sets who is authorized to mint future tokens."
      }
    },
    "version": 1
  },
  "storageLayout": {
    "storage": [
      {
        "astId": 2278,
        "contract": "contracts/core/TTFutureTokenV2.sol:TTFutureTokenV2",
        "label": "authorizedMinter",
        "offset": 0,
        "slot": "0",
        "type": "t_address"
      },
      {
        "astId": 2280,
        "contract": "contracts/core/TTFutureTokenV2.sol:TTFutureTokenV2",
        "label": "allowTransfer",
        "offset": 20,
        "slot": "0",
        "type": "t_bool"
      }
    ],
    "types": {
      "t_address": {
        "encoding": "inplace",
        "label": "address",
        "numberOfBytes": "20"
      },
      "t_bool": {
        "encoding": "inplace",
        "label": "bool",
        "numberOfBytes": "1"
      }
    }
  }
}