{
  "address": "0x91eEC742c970eF28CE307B53f0b6A7704D63b209",
  "abi": [
    {
      "inputs": [],
      "stateMutability": "nonpayable",
      "type": "constructor"
    },
    {
      "inputs": [],
      "name": "AlreadyDeployed",
      "type": "error"
    },
    {
      "anonymous": false,
      "inputs": [
        {
          "indexed": false,
          "internalType": "address",
          "name": "feeCollector",
          "type": "address"
        }
      ],
      "name": "FeeCollectorChanged",
      "type": "event"
    },
    {
      "anonymous": false,
      "inputs": [
        {
          "indexed": true,
          "internalType": "address",
          "name": "previousOwner",
          "type": "address"
        },
        {
          "indexed": true,
          "internalType": "address",
          "name": "newOwner",
          "type": "address"
        }
      ],
      "name": "OwnershipTransferred",
      "type": "event"
    },
    {
      "anonymous": false,
      "inputs": [
        {
          "indexed": false,
          "internalType": "address",
          "name": "unlockerImpl",
          "type": "address"
        },
        {
          "indexed": false,
          "internalType": "address",
          "name": "futureTokenImpl",
          "type": "address"
        },
        {
          "indexed": false,
          "internalType": "address",
          "name": "trackerTokenImpl",
          "type": "address"
        },
        {
          "indexed": false,
          "internalType": "address",
          "name": "beaconManagerImpl",
          "type": "address"
        },
        {
          "indexed": false,
          "internalType": "address",
          "name": "feeCollector",
          "type": "address"
        }
      ],
      "name": "TTUDeployerInitialized",
      "type": "event"
    },
    {
      "anonymous": false,
      "inputs": [
        {
          "indexed": false,
          "internalType": "address",
          "name": "by",
          "type": "address"
        },
        {
          "indexed": false,
          "internalType": "string",
          "name": "projectId",
          "type": "string"
        },
        {
          "indexed": false,
          "internalType": "address",
          "name": "unlocker",
          "type": "address"
        },
        {
          "indexed": false,
          "internalType": "address",
          "name": "futureToken",
          "type": "address"
        },
        {
          "indexed": false,
          "internalType": "address",
          "name": "trackerToken",
          "type": "address"
        }
      ],
      "name": "TokenTableSuiteDeployed",
      "type": "event"
    },
    {
      "inputs": [],
      "name": "beaconManager",
      "outputs": [
        {
          "internalType": "contract TTUV2BeaconManager",
          "name": "",
          "type": "address"
        }
      ],
      "stateMutability": "view",
      "type": "function"
    },
    {
      "inputs": [
        {
          "internalType": "contract IERC20Metadata",
          "name": "projectToken",
          "type": "address"
        },
        {
          "internalType": "string",
          "name": "projectId",
          "type": "string"
        },
        {
          "internalType": "bool",
          "name": "disableAutoUpgrade",
          "type": "bool"
        },
        {
          "internalType": "bool",
          "name": "allowTransferableFT",
          "type": "bool"
        }
      ],
      "name": "deployTTSuite",
      "outputs": [
        {
          "internalType": "contract TokenTableUnlockerV2",
          "name": "",
          "type": "address"
        },
        {
          "internalType": "contract TTFutureTokenV2",
          "name": "",
          "type": "address"
        },
        {
          "internalType": "contract TTTrackerTokenV2",
          "name": "",
          "type": "address"
        }
      ],
      "stateMutability": "nonpayable",
      "type": "function"
    },
    {
      "inputs": [],
      "name": "feeCollector",
      "outputs": [
        {
          "internalType": "contract TTUFeeCollector",
          "name": "",
          "type": "address"
        }
      ],
      "stateMutability": "view",
      "type": "function"
    },
    {
      "inputs": [],
      "name": "owner",
      "outputs": [
        {
          "internalType": "address",
          "name": "",
          "type": "address"
        }
      ],
      "stateMutability": "view",
      "type": "function"
    },
    {
      "inputs": [
        {
          "internalType": "string",
          "name": "",
          "type": "string"
        }
      ],
      "name": "registry",
      "outputs": [
        {
          "internalType": "bool",
          "name": "",
          "type": "bool"
        }
      ],
      "stateMutability": "view",
      "type": "function"
    },
    {
      "inputs": [],
      "name": "renounceOwnership",
      "outputs": [],
      "stateMutability": "nonpayable",
      "type": "function"
    },
    {
      "inputs": [
        {
          "internalType": "contract TTUFeeCollector",
          "name": "feeCollector_",
          "type": "address"
        }
      ],
      "name": "setFeeCollector",
      "outputs": [],
      "stateMutability": "nonpayable",
      "type": "function"
    },
    {
      "inputs": [
        {
          "internalType": "address",
          "name": "newOwner",
          "type": "address"
        }
      ],
      "name": "transferOwnership",
      "outputs": [],
      "stateMutability": "nonpayable",
      "type": "function"
    }
  ],
  "transactionHash": "0xa80571cc691a7bbe219e6eddef52087c304e423b7d93ebca4e1841950f3674e1",
  "args": [],
  "numDeployments": 2,
  "solcInputHash": "47ee0b5cb1b188be548a5ef6f0a24259",
  "bytecode": "0x60a06040523480156200001157600080fd5b506200001d3362000266565b60006040516200002d90620002b6565b604051809103906000f0801580156200004a573d6000803e3d6000fd5b50905060006040516200005d90620002c4565b604051809103906000f0801580156200007a573d6000803e3d6000fd5b50905060006040516200008d90620002d2565b604051809103906000f080158015620000aa573d6000803e3d6000fd5b509050828282604051620000be90620002e0565b6001600160a01b03938416815291831660208301529091166040820152606001604051809103906000f080158015620000fb573d6000803e3d6000fd5b506001600160a01b0316608081905260405163f2fde38b60e01b815233600482015263f2fde38b90602401600060405180830381600087803b1580156200014157600080fd5b505af115801562000156573d6000803e3d6000fd5b505050506040516200016890620002ee565b604051809103906000f08015801562000185573d6000803e3d6000fd5b50600180546001600160a01b0319166001600160a01b0392909216918217905560405163f2fde38b60e01b815233600482015263f2fde38b90602401600060405180830381600087803b158015620001dc57600080fd5b505af1158015620001f1573d6000803e3d6000fd5b505060808051600154604080516001600160a01b03808b168252808a16602083015280891692820192909252928116606084015216918101919091527fd08459a68d1cdb2ba9364289f79498efec4aea7eb78ca84f2beee05ccfa7454c925060a001905060405180910390a1505050620002fc565b600080546001600160a01b038381166001600160a01b0319831681178455604051919092169283917f8be0079c531659141344cd1fd0a4f28419497f9722a3daafe3b4186f6b6457e09190a35050565b6130c98062001aee83390190565b6121a58062004bb783390190565b610d618062006d5c83390190565b610b5d8062007abd83390190565b610807806200861a83390190565b6080516117ad6200034160003960008181609e0152818161026b015281816103c7015281816104990152818161055f01528181610668015261077701526117ad6000f3fe60806040523480156200001157600080fd5b5060043610620000935760003560e01c8063a29e2d991162000062578063a29e2d99146200013d578063a42dce80146200017f578063c415b95c1462000196578063f2fde38b14620001aa57600080fd5b80635a4fba021462000098578063715018a614620000dd5780638da5cb5b14620000e957806392a296c914620000fb575b600080fd5b620000c07f000000000000000000000000000000000000000000000000000000000000000081565b6040516001600160a01b0390911681526020015b60405180910390f35b620000e7620001c1565b005b6000546001600160a01b0316620000c0565b6200012c6200010c36600462000bcf565b805160208183018101805160028252928201919093012091525460ff1681565b6040519015158152602001620000d4565b620001546200014e36600462000cb1565b620001d9565b604080516001600160a01b0394851681529284166020840152921691810191909152606001620000d4565b620000e76200019036600462000d63565b62000982565b600154620000c0906001600160a01b031681565b620000e7620001bb36600462000d63565b620009e0565b620001cb62000a63565b620001d7600062000abf565b565b600080600060028787604051620001f292919062000d8a565b9081526040519081900360200190205460ff1615620002245760405163a6ef0ba160e01b815260040160405180910390fd5b6001600288886040516200023a92919062000d8a565b908152604051908190036020019020805491151560ff199092169190911790556000808087156200055d57620003587f00000000000000000000000000000000000000000000000000000000000000006001600160a01b03166378e65efc6040518163ffffffff1660e01b8152600401602060405180830381865afa158015620002c8573d6000803e3d6000fd5b505050506040513d601f19601f82011682018060405250810190620002ee919062000d9a565b6001600160a01b0316635c60da1b6040518163ffffffff1660e01b8152600401602060405180830381865afa1580156200032c573d6000803e3d6000fd5b505050506040513d601f19601f8201168201806040525081019062000352919062000d9a565b62000b0f565b60405163400ada7560e01b81526001600160a01b038d8116600483015289151560248301529194509084169063400ada7590604401600060405180830381600087803b158015620003a857600080fd5b505af1158015620003bd573d6000803e3d6000fd5b50505050620004247f00000000000000000000000000000000000000000000000000000000000000006001600160a01b031663ec5319876040518163ffffffff1660e01b8152600401602060405180830381865afa158015620002c8573d6000803e3d6000fd5b60405163c0c53b8b60e01b81526001600160a01b038d8116600483015285811660248301523060448301529193509083169063c0c53b8b90606401600060405180830381600087803b1580156200047a57600080fd5b505af11580156200048f573d6000803e3d6000fd5b50505050620004f67f00000000000000000000000000000000000000000000000000000000000000006001600160a01b031663d63ea2c56040518163ffffffff1660e01b8152600401602060405180830381865afa158015620002c8573d6000803e3d6000fd5b60405163189acdbd60e31b81526001600160a01b0384811660048301529192509082169063c4d66de890602401600060405180830381600087803b1580156200053e57600080fd5b505af115801562000553573d6000803e3d6000fd5b5050505062000877565b7f00000000000000000000000000000000000000000000000000000000000000006001600160a01b03166378e65efc6040518163ffffffff1660e01b8152600401602060405180830381865afa158015620005bc573d6000803e3d6000fd5b505050506040513d601f19601f82011682018060405250810190620005e2919062000d9a565b604080516001600160a01b038e16602482015289151560448083019190915282518083039091018152606490910182526020810180516001600160e01b031663400ada7560e01b1790529051620006399062000bab565b6200064692919062000dba565b604051809103906000f08015801562000663573d6000803e3d6000fd5b5092507f00000000000000000000000000000000000000000000000000000000000000006001600160a01b031663ec5319876040518163ffffffff1660e01b8152600401602060405180830381865afa158015620006c5573d6000803e3d6000fd5b505050506040513d601f19601f82011682018060405250810190620006eb919062000d9a565b604080516001600160a01b038e81166024830152861660448201523060648083019190915282518083039091018152608490910182526020810180516001600160e01b031663c0c53b8b60e01b1790529051620007489062000bab565b6200075592919062000dba565b604051809103906000f08015801562000772573d6000803e3d6000fd5b5091507f00000000000000000000000000000000000000000000000000000000000000006001600160a01b031663d63ea2c56040518163ffffffff1660e01b8152600401602060405180830381865afa158015620007d4573d6000803e3d6000fd5b505050506040513d601f19601f82011682018060405250810190620007fa919062000d9a565b604080516001600160a01b03851660248083019190915282518083039091018152604490910182526020810180516001600160e01b031663189acdbd60e31b1790529051620008499062000bab565b6200085692919062000dba565b604051809103906000f08015801562000873573d6000803e3d6000fd5b5090505b60405163f2fde38b60e01b81523360048201526001600160a01b0383169063f2fde38b90602401600060405180830381600087803b158015620008b957600080fd5b505af1158015620008ce573d6000803e3d6000fd5b5050604051630ab148ff60e31b81526001600160a01b0385811660048301528616925063558a47f89150602401600060405180830381600087803b1580156200091657600080fd5b505af11580156200092b573d6000803e3d6000fd5b505050507f17df396a3d7d1aee90dda3191f7e75531702775925951ea64827321bbc37412c338b8b8587866040516200096a9695949392919062000e1a565b60405180910390a1909a919950975095505050505050565b6200098c62000a63565b600180546001600160a01b0319166001600160a01b0383169081179091556040519081527f9c1996a14d26c3ecd833c10222d012447ef07b09b15000f3a34318ff039c0bdc9060200160405180910390a150565b620009ea62000a63565b6001600160a01b03811662000a555760405162461bcd60e51b815260206004820152602660248201527f4f776e61626c653a206e6577206f776e657220697320746865207a65726f206160448201526564647265737360d01b60648201526084015b60405180910390fd5b62000a608162000abf565b50565b6000546001600160a01b03163314620001d75760405162461bcd60e51b815260206004820181905260248201527f4f776e61626c653a2063616c6c6572206973206e6f7420746865206f776e6572604482015260640162000a4c565b600080546001600160a01b038381166001600160a01b0319831681178455604051919092169283917f8be0079c531659141344cd1fd0a4f28419497f9722a3daafe3b4186f6b6457e09190a35050565b6000763d602d80600a3d3981f3363d3d373d3d3d363d730000008260601b60e81c176000526e5af43d82803e903d91602b57fd5bf38260781b17602052603760096000f090506001600160a01b03811662000ba65760405162461bcd60e51b8152602060048201526016602482015275115490cc4c4d8dce8818dc99585d194819985a5b195960521b604482015260640162000a4c565b919050565b6109008062000e7883390190565b634e487b7160e01b600052604160045260246000fd5b60006020828403121562000be257600080fd5b813567ffffffffffffffff8082111562000bfb57600080fd5b818401915084601f83011262000c1057600080fd5b81358181111562000c255762000c2562000bb9565b604051601f8201601f19908116603f0116810190838211818310171562000c505762000c5062000bb9565b8160405282815287602084870101111562000c6a57600080fd5b826020860160208301376000928101602001929092525095945050505050565b6001600160a01b038116811462000a6057600080fd5b8035801515811462000ba657600080fd5b60008060008060006080868803121562000cca57600080fd5b853562000cd78162000c8a565b9450602086013567ffffffffffffffff8082111562000cf557600080fd5b818801915088601f83011262000d0a57600080fd5b81358181111562000d1a57600080fd5b89602082850101111562000d2d57600080fd5b60208301965080955050505062000d476040870162000ca0565b915062000d576060870162000ca0565b90509295509295909350565b60006020828403121562000d7657600080fd5b813562000d838162000c8a565b9392505050565b8183823760009101908152919050565b60006020828403121562000dad57600080fd5b815162000d838162000c8a565b60018060a01b038316815260006020604081840152835180604085015260005b8181101562000df85785810183015185820160600152820162000dda565b506000606082860101526060601f19601f830116850101925050509392505050565b6001600160a01b03878116825260a0602083018190528201869052600090868860c0850137600060c0888501810191909152958116604084015293841660608301525091166080820152601f909201601f1916909101019291505056fe60806040526040516109003803806109008339810160408190526100229161045b565b61002e82826000610035565b5050610585565b61003e83610100565b6040516001600160a01b038416907f1cf3b03a6cf19fa2baba4df148e9dcabedea7f8a5c07840e207e5c089be95d3e90600090a260008251118061007f5750805b156100fb576100f9836001600160a01b0316635c60da1b6040518163ffffffff1660e01b8152600401602060405180830381865afa1580156100c5573d6000803e3d6000fd5b505050506040513d601f19601f820116820180604052508101906100e9919061051b565b836102a360201b6100291760201c565b505b505050565b610113816102cf60201b6100551760201c565b6101725760405162461bcd60e51b815260206004820152602560248201527f455243313936373a206e657720626561636f6e206973206e6f74206120636f6e6044820152641d1c9858dd60da1b60648201526084015b60405180910390fd5b6101e6816001600160a01b0316635c60da1b6040518163ffffffff1660e01b8152600401602060405180830381865afa1580156101b3573d6000803e3d6000fd5b505050506040513d601f19601f820116820180604052508101906101d7919061051b565b6102cf60201b6100551760201c565b61024b5760405162461bcd60e51b815260206004820152603060248201527f455243313936373a20626561636f6e20696d706c656d656e746174696f6e206960448201526f1cc81b9bdd08184818dbdb9d1c9858dd60821b6064820152608401610169565b806102827fa3f0ad74e5423aebfd80d3ef4346578335a9a72aeaee59ff6cb3582b35133d5060001b6102de60201b6100641760201c565b80546001600160a01b0319166001600160a01b039290921691909117905550565b60606102c883836040518060600160405280602781526020016108d9602791396102e1565b9392505050565b6001600160a01b03163b151590565b90565b6060600080856001600160a01b0316856040516102fe9190610536565b600060405180830381855af49150503d8060008114610339576040519150601f19603f3d011682016040523d82523d6000602084013e61033e565b606091505b5090925090506103508683838761035a565b9695505050505050565b606083156103c95782516000036103c2576001600160a01b0385163b6103c25760405162461bcd60e51b815260206004820152601d60248201527f416464726573733a2063616c6c20746f206e6f6e2d636f6e74726163740000006044820152606401610169565b50816103d3565b6103d383836103db565b949350505050565b8151156103eb5781518083602001fd5b8060405162461bcd60e51b81526004016101699190610552565b80516001600160a01b038116811461041c57600080fd5b919050565b634e487b7160e01b600052604160045260246000fd5b60005b8381101561045257818101518382015260200161043a565b50506000910152565b6000806040838503121561046e57600080fd5b61047783610405565b60208401519092506001600160401b038082111561049457600080fd5b818501915085601f8301126104a857600080fd5b8151818111156104ba576104ba610421565b604051601f8201601f19908116603f011681019083821181831017156104e2576104e2610421565b816040528281528860208487010111156104fb57600080fd5b61050c836020830160208801610437565b80955050505050509250929050565b60006020828403121561052d57600080fd5b6102c882610405565b60008251610548818460208701610437565b9190910192915050565b6020815260008251806020840152610571816040850160208701610437565b601f01601f19169190910160400192915050565b610345806105946000396000f3fe60806040523661001357610011610017565b005b6100115b610027610022610067565b610100565b565b606061004e83836040518060600160405280602781526020016102e960279139610124565b9392505050565b6001600160a01b03163b151590565b90565b600061009a7fa3f0ad74e5423aebfd80d3ef4346578335a9a72aeaee59ff6cb3582b35133d50546001600160a01b031690565b6001600160a01b0316635c60da1b6040518163ffffffff1660e01b8152600401602060405180830381865afa1580156100d7573d6000803e3d6000fd5b505050506040513d601f19601f820116820180604052508101906100fb919061024c565b905090565b3660008037600080366000845af43d6000803e80801561011f573d6000f35b3d6000fd5b6060600080856001600160a01b0316856040516101419190610299565b600060405180830381855af49150503d806000811461017c576040519150601f19603f3d011682016040523d82523d6000602084013e610181565b606091505b50915091506101928683838761019c565b9695505050505050565b60608315610210578251600003610209576001600160a01b0385163b6102095760405162461bcd60e51b815260206004820152601d60248201527f416464726573733a2063616c6c20746f206e6f6e2d636f6e747261637400000060448201526064015b60405180910390fd5b508161021a565b61021a8383610222565b949350505050565b8151156102325781518083602001fd5b8060405162461bcd60e51b815260040161020091906102b5565b60006020828403121561025e57600080fd5b81516001600160a01b038116811461004e57600080fd5b60005b83811015610290578181015183820152602001610278565b50506000910152565b600082516102ab818460208701610275565b9190910192915050565b60208152600082518060208401526102d4816040850160208701610275565b601f01601f1916919091016040019291505056fe416464726573733a206c6f772d6c6576656c2064656c65676174652063616c6c206661696c6564a264697066735822122022a6bf5ebbb7518c40e703958b5c8e4d70ca6715c1e1ccf9e9591bfc86e066d164736f6c63430008110033416464726573733a206c6f772d6c6576656c2064656c65676174652063616c6c206661696c6564a26469706673582212202c47001e6f1fd8113e6b4f492f74d2e714765c7fa5e664d328e63075e020c47764736f6c6343000811003360806040523480156200001157600080fd5b506200001c62000022565b620000e4565b600054610100900460ff16156200008f5760405162461bcd60e51b815260206004820152602760248201527f496e697469616c697a61626c653a20636f6e747261637420697320696e697469604482015266616c697a696e6760c81b606482015260840160405180910390fd5b60005460ff9081161015620000e2576000805460ff191660ff9081179091556040519081527f7f26b83ff96e1f2b6a682f133852f6798a09c465da95921460cefb38474024989060200160405180910390a15b565b612fd580620000f46000396000f3fe608060405234801561001057600080fd5b50600436106101cf5760003560e01c80638d17c82511610104578063bfc56c3f116100a2578063ddd5e1b211610071578063ddd5e1b2146103ee578063e2bbb15814610401578063e301b8b514610414578063f2fde38b1461047957600080fd5b8063bfc56c3f146103a2578063c0c53b8b146103b5578063d5f39488146103c8578063d8fb068b146103db57600080fd5b80639a8a0592116100de5780639a8a059214610360578063a2c6df4f14610369578063adad72f31461037c578063bae04c9a1461038f57600080fd5b80638d17c825146103275780638da3cb45146103475780638da5cb5b1461034f57600080fd5b80633aa4327c116101715780635550ac471161014b5780635550ac47146102e657806357d682c4146102f95780636efcc14e1461030c578063715018a61461031f57600080fd5b80633aa4327c1461028257806342734d45146102ad5780634837c596146102d557600080fd5b80631f50e2ba116101ad5780631f50e2ba146102295780632788dbed1461023c5780632de1d4311461024f57806338616d8c1461026f57600080fd5b8063084d2b9b146101d45780631153352c146101f05780631bffb49114610205575b600080fd5b6101dd61271081565b6040519081526020015b60405180910390f35b6102036101fe366004612563565b61048c565b005b609b5461021990600160a01b900460ff1681565b60405190151581526020016101e7565b610203610237366004612580565b6104b6565b61020361024a3660046125f5565b61062a565b61026261025d366004612661565b6106ca565b6040516101e791906126ca565b61020361027d366004612563565b61082f565b609a54610295906001600160a01b031681565b6040516001600160a01b0390911681526020016101e7565b6102c06102bb366004612661565b61087b565b604080519283526020830191909152016101e7565b6066546001600160a01b0316610295565b6102036102f43660046125f5565b610c8d565b6102c0610307366004612580565b610d2a565b61020361031a3660046127b3565b610f07565b610203611001565b6101dd610335366004612661565b609e6020526000908152604090205481565b610203611015565b6033546001600160a01b0316610295565b6101dd60655481565b6102036103773660046128c9565b611046565b61020361038a366004612915565b61107e565b61020361039d3660046129c2565b61114c565b6102036103b0366004612a64565b6111f8565b6102036103c3366004612b4b565b611346565b609954610295906001600160a01b031681565b609b54610295906001600160a01b031681565b6102036103fc366004612580565b6114ae565b61020361040f3660046129c2565b6114fa565b610451610422366004612661565b609d60205260009081526040902080546001820154600283015460038401546004909401549293919290919085565b604080519586526020860194909452928401919091526060830152608082015260a0016101e7565b610203610487366004612563565b61152a565b6104946115a3565b609b80546001600160a01b0319166001600160a01b0392909216919091179055565b6104be6115fd565b61050b631f50e2ba60e01b83836040516020016104ee9291909182526001600160a01b0316602082015260400190565b6040516020818303038152906040526105043390565b6000611656565b60006001600160a01b03821661058f57609a546040516331a9108f60e11b8152600481018590526001600160a01b0390911690636352211e90602401602060405180830381865afa158015610564573d6000803e3d6000fd5b505050506040513d601f19601f820116820180604052508101906105889190612b96565b9050610592565b50805b6000838152609e6020526040812080549190556105cc82826105bc6066546001600160a01b031690565b6001600160a01b03169190611943565b604080518581523360208201526001600160a01b038416818301526060810183905290517f9c4945d842cc8c6704877a0defcd9ab09f6d77b24a369a95c2610506c6c38ee79181900360800190a150506106266001606755565b5050565b6106326115fd565b610654632788dbed60e01b858585856040516020016104ee9493929190612be5565b60005b838110156106b9576106a785858381811061067457610674612c4a565b9050602002013584848481811061068d5761068d612c4a565b90506020020160208101906106a29190612563565b6119b2565b806106b181612c76565b915050610657565b506106c46001606755565b50505050565b6000818152609c602090815260408083208151815460a09481028201850190935260808101838152606095949193849284919084018282801561072c57602002820191906000526020600020905b815481526020019060010190808311610718575b50505050508152602001600182015481526020016002820180548060200260200160405190810160405280929190818152602001828054801561078e57602002820191906000526020600020905b81548152602001906001019080831161077a575b50505050508152602001600382018054806020026020016040519081016040528092919081815260200182805480156107e657602002820191906000526020600020905b8154815260200190600101908083116107d2575b505050505081525050905080600001518160200151826040015183606001516040516020016108189493929190612cca565b604051602081830303815290604052915050919050565b6066546001600160a01b031615610859576040516311f9360560e31b815260040160405180910390fd5b606680546001600160a01b0319166001600160a01b0392909216919091179055565b6000818152609d60209081526040808320815160a08082018452825480835260018401548387015260028401548386015260038401546060840152600490930154608080840191909152928652609c8552838620845181549687028101830190955292840185815286959294869490939092849291849184018282801561092157602002820191906000526020600020905b81548152602001906001019080831161090d575b50505050508152602001600182015481526020016002820180548060200260200160405190810160405280929190818152602001828054801561098357602002820191906000526020600020905b81548152602001906001019080831161096f575b50505050508152602001600382018054806020026020016040519081016040528092919081815260200182805480156109db57602002820191906000526020600020905b8154815260200190600101908083116109c7575b50505050508152505090506000808360200151421015610a075750505060400151600094909350915050565b6000846020015142610a199190612d09565b9050600092505b835151831015610a6d578084600001518481518110610a4157610a41612c4a565b602002602001015111610a5657829150610a5b565b610a6d565b82610a6581612c76565b935050610a20565b600092505b81831015610ab75783604001518381518110610a9057610a90612c4a565b602002602001015186610aa39190612d22565b955082610aaf81612c76565b935050610a72565b835151600090610ac990600190612d09565b8303610b0d5784518051610adf90600190612d09565b81518110610aef57610aef612c4a565b60200260200101518560200151610b069190612d09565b9050610b60565b8451805184908110610b2157610b21612c4a565b60200260200101518560000151846001610b3b9190612d22565b81518110610b4b57610b4b612c4a565b6020026020010151610b5d9190612d09565b90505b600085606001518481518110610b7857610b78612c4a565b602002602001015182610b8b9190612d35565b9050600086600001518581518110610ba557610ba5612c4a565b602002602001015184610bb89190612d09565b90506000610bc68383612d35565b905087606001518681518110610bde57610bde612c4a565b60200260200101518189604001518881518110610bfd57610bfd612c4a565b6020026020010151610c0f9190612d57565b610c199190612d35565b610c23908b612d22565b995061271089608001518b610c389190612d57565b610c429190612d35565b995088608001518a1115610c5857886080015199505b8989604001511115610c6d5760009a50610c7f565b6040890151610c7c908b612d09565b9a505b505050505050505050915091565b610ccc635550ac4760e01b85858585604051602001610caf9493929190612d6e565b604051602081830303815290604052610cc53390565b6001611656565b60005b83811015610d2357610d11858583818110610cec57610cec612c4a565b90506020020135848484818110610d0557610d05612c4a565b90506020020135611a19565b80610d1b81612c76565b915050610ccf565b5050505050565b600080610d356115fd565b609b54600160a01b900460ff16610d5f57604051637f63bd0f60e01b815260040160405180910390fd5b610d8f6357d682c460e01b8585604051602001610caf9291909182526001600160a01b0316602082015260400190565b610d988461087b565b506000858152609e6020526040812080549294508492909190610dbc908490612d22565b90915550506000848152609d6020908152604091829020825160a08101845281548152600182015492810192909252600281015492820192909252600382015460608201819052600490920154608082015290831115610e485760608101516040516312e1fa3760e11b8152610e3f918591600401918252602082015260400190565b60405180910390fd5b8281606001818151610e5a9190612d09565b90525060608101519150610e7b84836105bc6066546001600160a01b031690565b60408051868152602081018590529081018390526001600160a01b03851660608201527fd16afe7af99c1463a26fb2e837ad180ef355fe9e0810e2250f83d90f960b629c9060800160405180910390a1506000848152609d6020526040812081815560018101829055600281018290556003810182905560040155610f006001606755565b9250929050565b604080516020810190915260008152610f299063377e60a760e11b9033610cc5565b60005b88811015610ff357610fe18c8c83818110610f4957610f49612c4a565b9050602002016020810190610f5e9190612563565b8b8b84818110610f7057610f70612c4a565b905060200201358a8a85818110610f8957610f89612c4a565b90506020020135898986818110610fa257610fa2612c4a565b90506020020135888887818110610fbb57610fbb612c4a565b90506020020135878781518110610fd457610fd4612c4a565b6020026020010151611a9f565b80610feb81612c76565b915050610f2c565b505050505050505050505050565b6110096115a3565b6110136000611c32565b565b60408051602081019091526000815261103790638da3cb4560e01b9033610cc5565b609b805460ff60a01b19169055565b6040805160208101909152600081526110689063a2c6df4f60e01b9033610cc5565b611076868686868686611a9f565b505050505050565b6040805160208101909152600081526110a09063adad72f360e01b9033610cc5565b6111428888888080602002602001604051908101604052809392919081815260200183836020028082843760009201919091525050604080516020808b0282810182019093528a82528c94509092508a918a9182919085019084908082843760009201919091525050604080516020808b0282810182019093528a82529093508a925089918291850190849080828437600092019190915250611c8492505050565b5050505050505050565b604080516020810184905290810182905261117290635d70264d60e11b90606001610caf565b6000828152609d6020526040812060038101805491928492611195908490612d09565b909155506111b2905033836105bc6066546001600160a01b031690565b604080518481523360208201529081018390527f3f5fbaf86658fdadee77f1d46e7f8a72424ad9839eda6a1dc6eb0a4228e4226e906060015b60405180910390a1505050565b60408051602081019091526000815261121a9063bfc56c3f60e01b9033610cc5565b60005b8881101561133a576113288a8a8381811061123a5761123a612c4a565b9050602002013589898481811061125357611253612c4a565b90506020028101906112659190612d95565b808060200260200160405190810160405280939291908181526020018383602002808284376000920191909152508b92508a91508690508181106112ab576112ab612c4a565b905060200201358787868181106112c4576112c4612c4a565b90506020028101906112d69190612d95565b80806020026020016040519081016040528093929190818152602001838360200280828437600092019190915250508851899250889150811061131b5761131b612c4a565b6020026020010151611c84565b8061133281612c76565b91505061121d565b50505050505050505050565b600054610100900460ff16158080156113665750600054600160ff909116105b806113805750303b158015611380575060005460ff166001145b6113e35760405162461bcd60e51b815260206004820152602e60248201527f496e697469616c697a61626c653a20636f6e747261637420697320616c72656160448201526d191e481a5b9a5d1a585b1a5e995960921b6064820152608401610e3f565b6000805460ff191660011790558015611406576000805461ff0019166101001790555b61140e611da1565b61141784611dd4565b609a80546001600160a01b038086166001600160a01b031992831617909255609980549285169290911691909117905561144f611dfb565b609b805460ff60a01b1916600160a01b17905580156106c4576000805461ff0019169055604051600181527f7f26b83ff96e1f2b6a682f133852f6798a09c465da95921460cefb3847402498906020015b60405180910390a150505050565b6114b66115fd565b6114e663ddd5e1b260e01b83836040516020016104ee9291909182526001600160a01b0316602082015260400190565b6114f082826119b2565b6106266001606755565b604080516020810184905290810182905261152090631c57762b60e31b90606001610caf565b6106268282611a19565b6115326115a3565b6001600160a01b0381166115975760405162461bcd60e51b815260206004820152602660248201527f4f776e61626c653a206e6577206f776e657220697320746865207a65726f206160448201526564647265737360d01b6064820152608401610e3f565b6115a081611c32565b50565b6033546001600160a01b031633146110135760405162461bcd60e51b815260206004820181905260248201527f4f776e61626c653a2063616c6c6572206973206e6f7420746865206f776e65726044820152606401610e3f565b60026067540361164f5760405162461bcd60e51b815260206004820152601f60248201527f5265656e7472616e637947756172643a207265656e7472616e742063616c6c006044820152606401610e3f565b6002606755565b609b546001600160a01b03166118b1576001600160e01b03198416630fa8715d60e11b148061169557506001600160e01b03198416636eeaf0d960e11b145b15611752576000838060200190518101906116b09190612ddf565b50905033609a546040516331a9108f60e11b8152600481018490526001600160a01b039283169290911690636352211e90602401602060405180830381865afa158015611701573d6000803e3d6000fd5b505050506040513d601f19601f820116820180604052508101906117259190612b96565b6001600160a01b03161461174c57604051637f63bd0f60e01b815260040160405180910390fd5b5061185b565b63d877241360e01b6001600160e01b031985160161185b576000838060200190518101906117809190612e5f565b50905060005b815181101561185857609a54825133916001600160a01b031690636352211e908590859081106117b8576117b8612c4a565b60200260200101516040518263ffffffff1660e01b81526004016117de91815260200190565b602060405180830381865afa1580156117fb573d6000803e3d6000fd5b505050506040513d601f19601f8201168201806040525081019061181f9190612b96565b6001600160a01b03161461184657604051637f63bd0f60e01b815260040160405180910390fd5b8061185081612c76565b915050611786565b50505b80801561187257506033546001600160a01b031633145b6106c45780801561188e57506033546001600160a01b03163314155b156118ac57604051637f63bd0f60e01b815260040160405180910390fd5b6106c4565b609b5460405163d975021d60e01b81526001600160a01b039091169063d975021d906118e590879087908790600401612ec3565b602060405180830381865afa158015611902573d6000803e3d6000fd5b505050506040513d601f19601f820116820180604052508101906119269190612efd565b6106c457604051637f63bd0f60e01b815260040160405180910390fd5b6040516001600160a01b0383166024820152604481018290526119a690849063a9059cbb60e01b906064015b60408051601f198184030181529190526020810180516001600160e01b03166001600160e01b031990931692909217909152611e22565b505050565b6001606755565b6000806119bf8484611ef4565b915091507f9c4945d842cc8c6704877a0defcd9ab09f6d77b24a369a95c2610506c6c38ee7846119ec3390565b604080519283526001600160a01b03918216602084015290841690820152606081018490526080016114a0565b6000828152609d60205260409020611a50333084611a3f6066546001600160a01b031690565b6001600160a01b0316929190612205565b81816003016000828254611a649190612d22565b909155505060408051848152602081018490527f41fb7ad419fc7623dde1142cd095a12727aa6965ab1d484a6d0d9327403d98ba91016111eb565b609a546040516340d097c360e01b81526001600160a01b03888116600483015260009216906340d097c3906024016020604051808303816000875af1158015611aec573d6000803e3d6000fd5b505050506040513d601f19601f82011682018060405250810190611b109190612f1f565b6000818152609d602090815260408083208a8452609c90925290912091925090611b398161223d565b15611b57576040516303be3a3760e21b815260040160405180910390fd5b848610611b77576040516378c0fc4360e01b815260040160405180910390fd5b87825560018201879055600282018690556004820185905560408051898152602081018590527f836cf6e4827fcb14b6226db1383bbae421b3ff8545414c8e5609bb709baae421910160405180910390a18315611c275760038201849055611bed333086611a3f6066546001600160a01b031690565b60408051848152602081018690527f41fb7ad419fc7623dde1142cd095a12727aa6965ab1d484a6d0d9327403d98ba910160405180910390a15b505050505050505050565b603380546001600160a01b038381166001600160a01b0319831681179093556040519116919082907f8be0079c531659141344cd1fd0a4f28419497f9722a3daafe3b4186f6b6457e090600090a35050565b6000858152609c60205260409020611c9b9061223d565b611cb857604051631f2ec56d60e21b815260040160405180910390fd5b604080516080810182528581526020810185905290810183905260608101829052611ce281612277565b611cff576040516303be3a3760e21b815260040160405180910390fd5b6000868152609c60209081526040909120825180518493611d249284929101906124ee565b50602082810151600183015560408301518051611d4792600285019201906124ee565b5060608201518051611d639160038401916020909101906124ee565b50506040518781527fdb70f000fd1b55bab727e36e3adf29333c24708fae670635637944d26e8c579e915060200160405180910390a1505050505050565b600054610100900460ff16611dc85760405162461bcd60e51b8152600401610e3f90612f38565b4660655561101361232e565b600054610100900460ff166108595760405162461bcd60e51b8152600401610e3f90612f38565b600054610100900460ff166119ab5760405162461bcd60e51b8152600401610e3f90612f38565b6000611e77826040518060400160405280602081526020017f5361666545524332303a206c6f772d6c6576656c2063616c6c206661696c6564815250856001600160a01b031661235e9092919063ffffffff16565b8051909150156119a65780806020019051810190611e959190612efd565b6119a65760405162461bcd60e51b815260206004820152602a60248201527f5361666545524332303a204552433230206f7065726174696f6e20646964206e6044820152691bdd081cdd58d8d9595960b21b6064820152608401610e3f565b600080600080611f038661087b565b6000888152609d6020526040902060028101829055600381015492945090925090831115611f545760038101546040516312e1fa3760e11b8152610e3f918591600401918252602082015260400190565b82816003016000828254611f689190612d09565b90915550506001600160a01b038616611fef57609a546040516331a9108f60e11b8152600481018990526001600160a01b0390911690636352211e90602401602060405180830381865afa158015611fc4573d6000803e3d6000fd5b505050506040513d601f19601f82011682018060405250810190611fe89190612b96565b9350611ff3565b8593505b6099546001600160a01b0316156121e157609954604080516331056e5760e21b815290516000926001600160a01b03169163c415b95c9160048083019260209291908290030181865afa15801561204e573d6000803e3d6000fd5b505050506040513d601f19601f820116820180604052508101906120729190612b96565b6040516313b7ae0d60e21b8152306004820152602481018690526001600160a01b039190911690634edeb83490604401602060405180830381865afa1580156120bf573d6000803e3d6000fd5b505050506040513d601f19601f820116820180604052508101906120e39190612f1f565b90506120ef8185612d09565b93506121df609960009054906101000a90046001600160a01b03166001600160a01b031663c415b95c6040518163ffffffff1660e01b8152600401602060405180830381865afa158015612147573d6000803e3d6000fd5b505050506040513d601f19601f8201168201806040525081019061216b9190612b96565b6001600160a01b0316638da5cb5b6040518163ffffffff1660e01b8152600401602060405180830381865afa1580156121a8573d6000803e3d6000fd5b505050506040513d601f19601f820116820180604052508101906121cc9190612b96565b826105bc6066546001600160a01b031690565b505b6121f884846105bc6066546001600160a01b031690565b8294505050509250929050565b6040516001600160a01b03808516602483015283166044820152606481018290526106c49085906323b872dd60e01b9060840161196f565b6001810154600382015482546002840154600093929161225c91612d57565b6122669190612d57565b6122709190612d57565b1592915050565b60008060005b8360400151518110156122c757836040015181815181106122a0576122a0612c4a565b6020026020010151826122b39190612d22565b9150806122bf81612c76565b91505061227d565b50612710811480156122df5750825151604084015151145b801561231557506020830151835180516122fb90600190612d09565b8151811061230b5761230b612c4a565b6020026020010151105b80156123275750825151606084015151145b9392505050565b600054610100900460ff166123555760405162461bcd60e51b8152600401610e3f90612f38565b61101333611c32565b606061236d8484600085612375565b949350505050565b6060824710156123d65760405162461bcd60e51b815260206004820152602660248201527f416464726573733a20696e73756666696369656e742062616c616e636520666f6044820152651c8818d85b1b60d21b6064820152608401610e3f565b600080866001600160a01b031685876040516123f29190612f83565b60006040518083038185875af1925050503d806000811461242f576040519150601f19603f3d011682016040523d82523d6000602084013e612434565b606091505b509150915061244587838387612450565b979650505050505050565b606083156124bf5782516000036124b8576001600160a01b0385163b6124b85760405162461bcd60e51b815260206004820152601d60248201527f416464726573733a2063616c6c20746f206e6f6e2d636f6e74726163740000006044820152606401610e3f565b508161236d565b61236d83838151156124d45781518083602001fd5b8060405162461bcd60e51b8152600401610e3f91906126ca565b828054828255906000526020600020908101928215612529579160200282015b8281111561252957825182559160200191906001019061250e565b50612535929150612539565b5090565b5b80821115612535576000815560010161253a565b6001600160a01b03811681146115a057600080fd5b60006020828403121561257557600080fd5b81356123278161254e565b6000806040838503121561259357600080fd5b8235915060208301356125a58161254e565b809150509250929050565b60008083601f8401126125c257600080fd5b50813567ffffffffffffffff8111156125da57600080fd5b6020830191508360208260051b8501011115610f0057600080fd5b6000806000806040858703121561260b57600080fd5b843567ffffffffffffffff8082111561262357600080fd5b61262f888389016125b0565b9096509450602087013591508082111561264857600080fd5b50612655878288016125b0565b95989497509550505050565b60006020828403121561267357600080fd5b5035919050565b60005b8381101561269557818101518382015260200161267d565b50506000910152565b600081518084526126b681602086016020860161267a565b601f01601f19169290920160200192915050565b602081526000612327602083018461269e565b634e487b7160e01b600052604160045260246000fd5b604051601f8201601f1916810167ffffffffffffffff8111828210171561271c5761271c6126dd565b604052919050565b600067ffffffffffffffff82111561273e5761273e6126dd565b5060051b60200190565b600082601f83011261275957600080fd5b8135602061276e61276983612724565b6126f3565b82815260059290921b8401810191818101908684111561278d57600080fd5b8286015b848110156127a85780358352918301918301612791565b509695505050505050565b600080600080600080600080600080600060c08c8e0312156127d457600080fd5b67ffffffffffffffff808d3511156127eb57600080fd5b6127f88e8e358f016125b0565b909c509a5060208d013581101561280e57600080fd5b61281e8e60208f01358f016125b0565b909a50985060408d013581101561283457600080fd5b6128448e60408f01358f016125b0565b909850965060608d013581101561285a57600080fd5b61286a8e60608f01358f016125b0565b909650945060808d013581101561288057600080fd5b6128908e60808f01358f016125b0565b909450925060a08d01358110156128a657600080fd5b506128b78d60a08e01358e01612748565b90509295989b509295989b9093969950565b60008060008060008060c087890312156128e257600080fd5b86356128ed8161254e565b9860208801359850604088013597606081013597506080810135965060a00135945092505050565b60008060008060008060008060a0898b03121561293157600080fd5b88359750602089013567ffffffffffffffff8082111561295057600080fd5b61295c8c838d016125b0565b909950975060408b0135965060608b013591508082111561297c57600080fd5b6129888c838d016125b0565b909650945060808b01359150808211156129a157600080fd5b506129ae8b828c016125b0565b999c989b5096995094979396929594505050565b600080604083850312156129d557600080fd5b50508035926020909101359150565b600082601f8301126129f557600080fd5b81356020612a0561276983612724565b82815260059290921b84018101918181019086841115612a2457600080fd5b8286015b848110156127a857803567ffffffffffffffff811115612a485760008081fd5b612a568986838b0101612748565b845250918301918301612a28565b600080600080600080600080600060a08a8c031215612a8257600080fd5b893567ffffffffffffffff80821115612a9a57600080fd5b612aa68d838e016125b0565b909b50995060208c0135915080821115612abf57600080fd5b612acb8d838e016125b0565b909950975060408c0135915080821115612ae457600080fd5b612af08d838e016125b0565b909750955060608c0135915080821115612b0957600080fd5b612b158d838e016125b0565b909550935060808c0135915080821115612b2e57600080fd5b50612b3b8c828d016129e4565b9150509295985092959850929598565b600080600060608486031215612b6057600080fd5b8335612b6b8161254e565b92506020840135612b7b8161254e565b91506040840135612b8b8161254e565b809150509250925092565b600060208284031215612ba857600080fd5b81516123278161254e565b81835260006001600160fb1b03831115612bcc57600080fd5b8260051b80836020870137939093016020019392505050565b604081526000612bf9604083018688612bb3565b8281036020848101919091528482528591810160005b86811015612c3d578335612c228161254e565b6001600160a01b031682529282019290820190600101612c0f565b5098975050505050505050565b634e487b7160e01b600052603260045260246000fd5b634e487b7160e01b600052601160045260246000fd5b600060018201612c8857612c88612c60565b5060010190565b600081518084526020808501945080840160005b83811015612cbf57815187529582019590820190600101612ca3565b509495945050505050565b608081526000612cdd6080830187612c8f565b8560208401528281036040840152612cf58186612c8f565b905082810360608401526124458185612c8f565b81810381811115612d1c57612d1c612c60565b92915050565b80820180821115612d1c57612d1c612c60565b600082612d5257634e487b7160e01b600052601260045260246000fd5b500490565b8082028115828204841417612d1c57612d1c612c60565b604081526000612d82604083018688612bb3565b8281036020840152612445818587612bb3565b6000808335601e19843603018112612dac57600080fd5b83018035915067ffffffffffffffff821115612dc757600080fd5b6020019150600581901b3603821315610f0057600080fd5b60008060408385031215612df257600080fd5b8251915060208301516125a58161254e565b600082601f830112612e1557600080fd5b81516020612e2561276983612724565b82815260059290921b84018101918181019086841115612e4457600080fd5b8286015b848110156127a85780518352918301918301612e48565b60008060408385031215612e7257600080fd5b825167ffffffffffffffff80821115612e8a57600080fd5b612e9686838701612e04565b93506020850151915080821115612eac57600080fd5b50612eb985828601612e04565b9150509250929050565b63ffffffff60e01b84168152606060208201526000612ee5606083018561269e565b905060018060a01b0383166040830152949350505050565b600060208284031215612f0f57600080fd5b8151801515811461232757600080fd5b600060208284031215612f3157600080fd5b5051919050565b6020808252602b908201527f496e697469616c697a61626c653a20636f6e7472616374206973206e6f74206960408201526a6e697469616c697a696e6760a81b606082015260800190565b60008251612f9581846020870161267a565b919091019291505056fea2646970667358221220b694524b67e05a13da7a53affcbac26bd0d1c77b847155fa72298196eddd872264736f6c6343000811003360806040523480156200001157600080fd5b506200001c62000022565b620001be565b620000376200019a60201b62000f821760201c565b54610100900460ff1662000065576200005a6200019a60201b62000f821760201c565b5460ff161562000069565b303b155b620000e05760405162461bcd60e51b815260206004820152603760248201527f455243373231415f5f496e697469616c697a61626c653a20636f6e747261637460448201527f20697320616c726561647920696e697469616c697a6564000000000000000000606482015260840160405180910390fd5b6000620000f76200019a60201b62000f821760201c565b54610100900460ff16159050801562000162576001620001216200019a60201b62000f821760201c565b60000160016101000a81548160ff0219169083151502179055506001620001526200019a60201b62000f821760201c565b805460ff19169115159190911790555b801562000197576000620001806200019a60201b62000f821760201c565b80549115156101000261ff00199092169190911790555b50565b7fee151c8401928dc223602bb187aff91b9a56c7cae5476ef1b3287b085a16c85f90565b611fd780620001ce6000396000f3fe60806040526004361061014b5760003560e01c80636352211e116100b6578063a22cb4651161006f578063a22cb465146103ad578063b88d4fde146103cd578063c23dc68f146103e0578063c87b56dd1461040d578063d20701931461042d578063e985e9c51461046257600080fd5b80636352211e146102ea57806370a082311461030a5780638462151c1461032a57806395d89b411461035757806399a2557a1461036c5780639b08a22f1461038c57600080fd5b806323b872dd1161010857806323b872dd14610237578063400ada751461024a57806340d097c31461026a57806342842e0e1461028a578063558a47f81461029d5780635bbb2177146102bd57600080fd5b806301ffc9a71461015057806306fdde0314610185578063081812fc146101a7578063095ea7b3146101df57806318160ddd146101f45780631ba538cd14610217575b600080fd5b34801561015c57600080fd5b5061017061016b366004611869565b610482565b60405190151581526020015b60405180910390f35b34801561019157600080fd5b5061019a6104d4565b60405161017c91906118d6565b3480156101b357600080fd5b506101c76101c23660046118e9565b61056f565b6040516001600160a01b03909116815260200161017c565b6101f26101ed366004611917565b6105bc565b005b34801561020057600080fd5b506102096105cc565b60405190815260200161017c565b34801561022357600080fd5b506000546101c7906001600160a01b031681565b6101f2610245366004611943565b6105eb565b34801561025657600080fd5b506101f2610265366004611994565b610624565b34801561027657600080fd5b506102096102853660046119c9565b610870565b6101f2610298366004611943565b6108b5565b3480156102a957600080fd5b506101f26102b83660046119c9565b6108d0565b3480156102c957600080fd5b506102dd6102d83660046119e6565b61091b565b60405161017c9190611a98565b3480156102f657600080fd5b506101c76103053660046118e9565b6109e7565b34801561031657600080fd5b506102096103253660046119c9565b6109f2565b34801561033657600080fd5b5061034a6103453660046119c9565b610a5b565b60405161017c9190611ada565b34801561036357600080fd5b5061019a610b64565b34801561037857600080fd5b5061034a610387366004611b12565b610b7c565b34801561039857600080fd5b5060005461017090600160a01b900460ff1681565b3480156103b957600080fd5b506101f26103c8366004611994565b610cf5565b6101f26103db366004611bb6565b610d72565b3480156103ec57600080fd5b506104006103fb3660046118e9565b610dad565b60405161017c9190611c65565b34801561041957600080fd5b5061019a6104283660046118e9565b610e29565b34801561043957600080fd5b5061044d6104483660046118e9565b610eb9565b6040805192835260208301919091520161017c565b34801561046e57600080fd5b5061017061047d366004611c73565b610f45565b60006301ffc9a760e01b6001600160e01b0319831614806104b357506380ac58cd60e01b6001600160e01b03198316145b806104ce5750635b5e139f60e01b6001600160e01b03198316145b92915050565b60606104de610fa6565b60020180546104ec90611cac565b80601f016020809104026020016040519081016040528092919081815260200182805461051890611cac565b80156105655780601f1061053a57610100808354040283529160200191610565565b820191906000526020600020905b81548152906001019060200180831161054857829003601f168201915b5050505050905090565b600061057a82610fca565b610597576040516333d1c03960e21b815260040160405180910390fd5b61059f610fa6565b60009283526006016020525060409020546001600160a01b031690565b6105c882826001611006565b5050565b6000806105d7610fa6565b600101546105e3610fa6565b540303919050565b600054600160a01b900460ff16610614576040516282b42960e81b815260040160405180910390fd5b61061f8383836110bb565b505050565b61062c610f82565b54610100900460ff1661064b57610641610f82565b5460ff161561064f565b303b155b6106c65760405162461bcd60e51b815260206004820152603760248201527f455243373231415f5f496e697469616c697a61626c653a20636f6e747261637460448201527f20697320616c726561647920696e697469616c697a656400000000000000000060648201526084015b60405180910390fd5b60006106d0610f82565b54610100900460ff16159050801561071c5760016106ec610f82565b80549115156101000261ff0019909216919091179055600161070c610f82565b805460ff19169115159190911790555b61082e836001600160a01b03166306fdde036040518163ffffffff1660e01b8152600401600060405180830381865afa15801561075d573d6000803e3d6000fd5b505050506040513d6000823e601f3d908101601f191682016040526107859190810190611ce6565b6040516020016107959190611d5d565b604051602081830303815290604052846001600160a01b03166395d89b416040518163ffffffff1660e01b8152600401600060405180830381865afa1580156107e2573d6000803e3d6000fd5b505050506040513d6000823e601f3d908101601f1916820160405261080a9190810190611ce6565b60405160200161081a9190611d8c565b6040516020818303038152906040526112b2565b6000805460ff60a01b1916600160a01b84151502179055801561061f576000610855610f82565b80549115156101000261ff0019909216919091179055505050565b600080546001600160a01b0316331461089b576040516282b42960e81b815260040160405180910390fd5b6108a361136b565b90506108b082600161137b565b919050565b61061f83838360405180602001604052806000815250610d72565b6000546001600160a01b0316156108f9576040516282b42960e81b815260040160405180910390fd5b600080546001600160a01b0319166001600160a01b0392909216919091179055565b60608160008167ffffffffffffffff81111561093957610939611b47565b60405190808252806020026020018201604052801561098b57816020015b6040805160808101825260008082526020808301829052928201819052606082015282526000199092019101816109575790505b50905060005b8281146109de576109b98686838181106109ad576109ad611db7565b90506020020135610dad565b8282815181106109cb576109cb611db7565b6020908102919091010152600101610991565b50949350505050565b60006104ce82611395565b60006001600160a01b038216610a1b576040516323d3ad8160e21b815260040160405180910390fd5b67ffffffffffffffff610a2c610fa6565b6005016000846001600160a01b03166001600160a01b0316815260200190815260200160002054169050919050565b60606000806000610a6b856109f2565b905060008167ffffffffffffffff811115610a8857610a88611b47565b604051908082528060200260200182016040528015610ab1578160200160208202803683370190505b509050610ade60408051608081018252600080825260208201819052918101829052606081019190915290565b60005b838614610b5857610af181611439565b91508160400151610b505781516001600160a01b031615610b1157815194505b876001600160a01b0316856001600160a01b031603610b505780838780600101985081518110610b4357610b43611db7565b6020026020010181815250505b600101610ae1565b50909695505050505050565b6060610b6e610fa6565b60030180546104ec90611cac565b6060818310610b9e57604051631960ccad60e11b815260040160405180910390fd5b600080610ba961136b565b905080841115610bb7578093505b6000610bc2876109f2565b905084861015610be15785850381811015610bdb578091505b50610be5565b5060005b60008167ffffffffffffffff811115610c0057610c00611b47565b604051908082528060200260200182016040528015610c29578160200160208202803683370190505b50905081600003610c3f579350610cee92505050565b6000610c4a88610dad565b905060008160400151610c5b575080515b885b888114158015610c6d5750848714155b15610ce257610c7b81611439565b92508260400151610cda5782516001600160a01b031615610c9b57825191505b8a6001600160a01b0316826001600160a01b031603610cda5780848880600101995081518110610ccd57610ccd611db7565b6020026020010181815250505b600101610c5d565b50505092835250909150505b9392505050565b80610cfe610fa6565b336000818152600792909201602090815260408084206001600160a01b03881680865290835293819020805460ff19169515159590951790945592518415158152919290917f17307eab39ab6107e8899845ad3d59bd9653f200f220920489ca2b5937696c31910160405180910390a35050565b600054600160a01b900460ff16610d9b576040516282b42960e81b815260040160405180910390fd5b610da784848484611480565b50505050565b6040805160808082018352600080835260208084018290528385018290526060808501839052855193840186528284529083018290529382018190529281019290925290610df961136b565b8310610e055792915050565b610e0e83611439565b9050806040015115610e205792915050565b610cee836114c4565b6060610e3482610fca565b610e5157604051630a14c4b560e41b815260040160405180910390fd5b6000610e6860408051602081019091526000815290565b90508051600003610e885760405180602001604052806000815250610cee565b80610e92846114f9565b604051602001610ea3929190611dcd565b6040516020818303038152906040529392505050565b600080546040516342734d4560e01b8152600481018490528291829182916001600160a01b0316906342734d45906024016040805180830381865afa158015610f06573d6000803e3d6000fd5b505050506040513d601f19601f82011682018060405250810190610f2a9190611dfc565b9094508492509050610f3c8282611e20565b92505050915091565b6000610f4f610fa6565b6001600160a01b039384166000908152600791909101602090815260408083209490951682529290925250205460ff1690565b7fee151c8401928dc223602bb187aff91b9a56c7cae5476ef1b3287b085a16c85f90565b7f2569078dfb4b0305704d3008e7403993ae9601b85f7ae5e742de3de8f8011c4090565b6000610fd4610fa6565b54821080156104ce5750600160e01b610feb610fa6565b60008481526004919091016020526040902054161592915050565b6000611011836109e7565b9050811561105057336001600160a01b03821614611050576110338133610f45565b611050576040516367d9dca160e11b815260040160405180910390fd5b83611059610fa6565b6000858152600691909101602052604080822080546001600160a01b0319166001600160a01b0394851617905551859287811692908516917f8c5be1e5ebec7d5bd14f71427d1e84f3dd0314c0f7b2291e5b200ac8c7c3b9259190a450505050565b60006110c682611395565b9050836001600160a01b0316816001600160a01b0316146110f95760405162a1148160e81b815260040160405180910390fd5b6000806111058461153d565b9150915061112a81876111153390565b6001600160a01b039081169116811491141790565b611155576111388633610f45565b61115557604051632ce44b5f60e11b815260040160405180910390fd5b6001600160a01b03851661117c57604051633a954ecd60e21b815260040160405180910390fd5b801561118757600082555b61118f610fa6565b6001600160a01b03871660009081526005919091016020526040902080546000190190556111bb610fa6565b6001600160a01b03861660008181526005929092016020526040909120805460010190554260a01b17600160e11b176111f2610fa6565b60008681526004919091016020526040812091909155600160e11b841690036112685760018401611221610fa6565b60008281526004919091016020526040812054900361126657611242610fa6565b5481146112665783611252610fa6565b600083815260049190910160205260409020555b505b83856001600160a01b0316876001600160a01b03167fddf252ad1be2c89b69c2b068fc378daa952ba7f163c4a11628f55a4df523b3ef60405160405180910390a45b505050505050565b6112ba610f82565b54610100900460ff1661132c5760405162461bcd60e51b815260206004820152603460248201527f455243373231415f5f496e697469616c697a61626c653a20636f6e7472616374604482015273206973206e6f7420696e697469616c697a696e6760601b60648201526084016106bd565b81611335610fa6565b600201906113439082611e87565b508061134d610fa6565b6003019061135b9082611e87565b506000611366610fa6565b555050565b6000611375610fa6565b54919050565b6105c8828260405180602001604052806000815250611565565b600061139f610fa6565b600083815260049190910160205260408120549150600160e01b8216900361142057806000036108b0576113d1610fa6565b5482106113f157604051636f96cda160e11b815260040160405180910390fd5b6113f9610fa6565b6000199092016000818152600493909301602052604090922054905080156113f157919050565b604051636f96cda160e11b815260040160405180910390fd5b6040805160808101825260008082526020820181905291810182905260608101919091526104ce611468610fa6565b600084815260049190910160205260409020546115e2565b61148b8484846105eb565b6001600160a01b0383163b15610da7576114a78484848461162a565b610da7576040516368d2bf6b60e11b815260040160405180910390fd5b6040805160808101825260008082526020820181905291810182905260608101919091526104ce6114f483611395565b6115e2565b606060a06040510180604052602081039150506000815280825b600183039250600a81066030018353600a9004806115135750819003601f19909101908152919050565b600080600061154a610fa6565b60009485526006016020525050604090912080549092909150565b61156f8383611715565b6001600160a01b0383163b1561061f576000611589610fa6565b5490508281035b6115a3600086838060010194508661162a565b6115c0576040516368d2bf6b60e11b815260040160405180910390fd5b81811061159057816115d0610fa6565b54146115db57600080fd5b5050505050565b604080516080810182526001600160a01b038316815260a083901c67ffffffffffffffff166020820152600160e01b831615159181019190915260e89190911c606082015290565b604051630a85bd0160e11b81526000906001600160a01b0385169063150b7a029061165f903390899088908890600401611f47565b6020604051808303816000875af192505050801561169a575060408051601f3d908101601f1916820190925261169791810190611f84565b60015b6116f8573d8080156116c8576040519150601f19603f3d011682016040523d82523d6000602084013e6116cd565b606091505b5080516000036116f0576040516368d2bf6b60e11b815260040160405180910390fd5b805181602001fd5b6001600160e01b031916630a85bd0160e11b149050949350505050565b600061171f610fa6565b54905060008290036117445760405163b562e8dd60e01b815260040160405180910390fd5b680100000000000000018202611758610fa6565b6001600160a01b038516600081815260059290920160205260409091208054929092019091554260a01b6001841460e11b1717611793610fa6565b600083815260049190910160205260408120919091556001600160a01b0384169083830190839083907fddf252ad1be2c89b69c2b068fc378daa952ba7f163c4a11628f55a4df523b3ef8180a4600183015b81811461181d57808360007fddf252ad1be2c89b69c2b068fc378daa952ba7f163c4a11628f55a4df523b3ef600080a46001016117e5565b508160000361183e57604051622e076360e81b815260040160405180910390fd5b80611847610fa6565b555061061f9050565b6001600160e01b03198116811461186657600080fd5b50565b60006020828403121561187b57600080fd5b8135610cee81611850565b60005b838110156118a1578181015183820152602001611889565b50506000910152565b600081518084526118c2816020860160208601611886565b601f01601f19169290920160200192915050565b602081526000610cee60208301846118aa565b6000602082840312156118fb57600080fd5b5035919050565b6001600160a01b038116811461186657600080fd5b6000806040838503121561192a57600080fd5b823561193581611902565b946020939093013593505050565b60008060006060848603121561195857600080fd5b833561196381611902565b9250602084013561197381611902565b929592945050506040919091013590565b803580151581146108b057600080fd5b600080604083850312156119a757600080fd5b82356119b281611902565b91506119c060208401611984565b90509250929050565b6000602082840312156119db57600080fd5b8135610cee81611902565b600080602083850312156119f957600080fd5b823567ffffffffffffffff80821115611a1157600080fd5b818501915085601f830112611a2557600080fd5b813581811115611a3457600080fd5b8660208260051b8501011115611a4957600080fd5b60209290920196919550909350505050565b80516001600160a01b0316825260208082015167ffffffffffffffff169083015260408082015115159083015260609081015162ffffff16910152565b6020808252825182820181905260009190848201906040850190845b81811015610b5857611ac7838551611a5b565b9284019260809290920191600101611ab4565b6020808252825182820181905260009190848201906040850190845b81811015610b5857835183529284019291840191600101611af6565b600080600060608486031215611b2757600080fd5b8335611b3281611902565b95602085013595506040909401359392505050565b634e487b7160e01b600052604160045260246000fd5b604051601f8201601f1916810167ffffffffffffffff81118282101715611b8657611b86611b47565b604052919050565b600067ffffffffffffffff821115611ba857611ba8611b47565b50601f01601f191660200190565b60008060008060808587031215611bcc57600080fd5b8435611bd781611902565b93506020850135611be781611902565b925060408501359150606085013567ffffffffffffffff811115611c0a57600080fd5b8501601f81018713611c1b57600080fd5b8035611c2e611c2982611b8e565b611b5d565b818152886020838501011115611c4357600080fd5b8160208401602083013760006020838301015280935050505092959194509250565b608081016104ce8284611a5b565b60008060408385031215611c8657600080fd5b8235611c9181611902565b91506020830135611ca181611902565b809150509250929050565b600181811c90821680611cc057607f821691505b602082108103611ce057634e487b7160e01b600052602260045260246000fd5b50919050565b600060208284031215611cf857600080fd5b815167ffffffffffffffff811115611d0f57600080fd5b8201601f81018413611d2057600080fd5b8051611d2e611c2982611b8e565b818152856020838501011115611d4357600080fd5b611d54826020830160208601611886565b95945050505050565b660233aba3ab932960cd1b815260008251611d7f816007850160208701611886565b9190910160070192915050565b6246542d60e81b815260008251611daa816003850160208701611886565b9190910160030192915050565b634e487b7160e01b600052603260045260246000fd5b60008351611ddf818460208801611886565b835190830190611df3818360208801611886565b01949350505050565b60008060408385031215611e0f57600080fd5b505080516020909101519092909150565b818103818111156104ce57634e487b7160e01b600052601160045260246000fd5b601f82111561061f57600081815260208120601f850160051c81016020861015611e685750805b601f850160051c820191505b818110156112aa57828155600101611e74565b815167ffffffffffffffff811115611ea157611ea1611b47565b611eb581611eaf8454611cac565b84611e41565b602080601f831160018114611eea5760008415611ed25750858301515b600019600386901b1c1916600185901b1785556112aa565b600085815260208120601f198616915b82811015611f1957888601518255948401946001909101908401611efa565b5085821015611f375787850151600019600388901b60f8161c191681555b5050505050600190811b01905550565b6001600160a01b0385811682528416602082015260408101839052608060608201819052600090611f7a908301846118aa565b9695505050505050565b600060208284031215611f9657600080fd5b8151610cee8161185056fea2646970667358221220b44ebc63b8e729ecca7b49d22c98b147f89710322640d7814282e150505ffde664736f6c63430008110033608060405234801561001057600080fd5b5061001961001e565b6100de565b600054610100900460ff161561008a5760405162461bcd60e51b815260206004820152602760248201527f496e697469616c697a61626c653a20636f6e747261637420697320696e697469604482015266616c697a696e6760c81b606482015260840160405180910390fd5b60005460ff90811610156100dc576000805460ff191660ff9081179091556040519081527f7f26b83ff96e1f2b6a682f133852f6798a09c465da95921460cefb38474024989060200160405180910390a15b565b610c74806100ed6000396000f3fe608060405234801561001057600080fd5b50600436106100a95760003560e01c806370a082311161007157806370a082311461013657806395d89b4114610149578063a9059cbb146100cc578063ae2dd74314610151578063c4d66de814610182578063dd62ed3e1461019757600080fd5b806306fdde03146100ae578063095ea7b3146100cc57806318160ddd146100ef57806323b872dd14610105578063313ce5671461011c575b600080fd5b6100b66101a5565b6040516100c39190610879565b60405180910390f35b6100df6100da3660046108c4565b6102a7565b60405190151581526020016100c3565b6100f76102b0565b6040519081526020016100c3565b6100df6101133660046108f0565b60009392505050565b610124610397565b60405160ff90911681526020016100c3565b6100f7610144366004610931565b610470565b6100b6610637565b60005461016a906201000090046001600160a01b031681565b6040516001600160a01b0390911681526020016100c3565b610195610190366004610931565b610725565b005b6100f76100da366004610955565b6060600060029054906101000a90046001600160a01b03166001600160a01b0316634837c5966040518163ffffffff1660e01b8152600401602060405180830381865afa1580156101fa573d6000803e3d6000fd5b505050506040513d601f19601f8201168201806040525081019061021e919061098e565b6001600160a01b03166306fdde036040518163ffffffff1660e01b8152600401600060405180830381865afa15801561025b573d6000803e3d6000fd5b505050506040513d6000823e601f3d908101601f1916820160405261028391908101906109f2565b6040516020016102939190610a86565b604051602081830303815290604052905090565b60005b92915050565b60008060029054906101000a90046001600160a01b03166001600160a01b0316634837c5966040518163ffffffff1660e01b8152600401602060405180830381865afa158015610304573d6000803e3d6000fd5b505050506040513d601f19601f82011682018060405250810190610328919061098e565b6040516370a0823160e01b81523060048201526001600160a01b0391909116906370a0823190602401602060405180830381865afa15801561036e573d6000803e3d6000fd5b505050506040513d601f19601f820116820180604052508101906103929190610ab6565b905090565b60008060029054906101000a90046001600160a01b03166001600160a01b0316634837c5966040518163ffffffff1660e01b8152600401602060405180830381865afa1580156103eb573d6000803e3d6000fd5b505050506040513d601f19601f8201168201806040525081019061040f919061098e565b6001600160a01b031663313ce5676040518163ffffffff1660e01b8152600401602060405180830381865afa15801561044c573d6000803e3d6000fd5b505050506040513d601f19601f820116820180604052508101906103929190610acf565b60008060008060029054906101000a90046001600160a01b03166001600160a01b0316633aa4327c6040518163ffffffff1660e01b8152600401602060405180830381865afa1580156104c7573d6000803e3d6000fd5b505050506040513d601f19601f820116820180604052508101906104eb919061098e565b604051632118854760e21b81526001600160a01b038681166004830152919250600091831690638462151c90602401600060405180830381865afa158015610537573d6000803e3d6000fd5b505050506040513d6000823e601f3d908101601f1916820160405261055f9190810190610af2565b905060005b815181101561062d5760008060029054906101000a90046001600160a01b03166001600160a01b03166342734d458484815181106105a4576105a4610b98565b60200260200101516040518263ffffffff1660e01b81526004016105ca91815260200190565b6040805180830381865afa1580156105e6573d6000803e3d6000fd5b505050506040513d601f19601f8201168201806040525081019061060a9190610bae565b5090506106178186610be8565b945050808061062590610bfb565b915050610564565b5091949350505050565b6060600060029054906101000a90046001600160a01b03166001600160a01b0316634837c5966040518163ffffffff1660e01b8152600401602060405180830381865afa15801561068c573d6000803e3d6000fd5b505050506040513d601f19601f820116820180604052508101906106b0919061098e565b6001600160a01b03166395d89b416040518163ffffffff1660e01b8152600401600060405180830381865afa1580156106ed573d6000803e3d6000fd5b505050506040513d6000823e601f3d908101601f1916820160405261071591908101906109f2565b6040516020016102939190610c14565b600054610100900460ff16158080156107455750600054600160ff909116105b8061075f5750303b15801561075f575060005460ff166001145b6107c65760405162461bcd60e51b815260206004820152602e60248201527f496e697469616c697a61626c653a20636f6e747261637420697320616c72656160448201526d191e481a5b9a5d1a585b1a5e995960921b606482015260840160405180910390fd5b6000805460ff1916600117905580156107e9576000805461ff0019166101001790555b6000805462010000600160b01b031916620100006001600160a01b038516021790558015610851576000805461ff0019169055604051600181527f7f26b83ff96e1f2b6a682f133852f6798a09c465da95921460cefb38474024989060200160405180910390a15b5050565b60005b83811015610870578181015183820152602001610858565b50506000910152565b6020815260008251806020840152610898816040850160208701610855565b601f01601f19169190910160400192915050565b6001600160a01b03811681146108c157600080fd5b50565b600080604083850312156108d757600080fd5b82356108e2816108ac565b946020939093013593505050565b60008060006060848603121561090557600080fd5b8335610910816108ac565b92506020840135610920816108ac565b929592945050506040919091013590565b60006020828403121561094357600080fd5b813561094e816108ac565b9392505050565b6000806040838503121561096857600080fd5b8235610973816108ac565b91506020830135610983816108ac565b809150509250929050565b6000602082840312156109a057600080fd5b815161094e816108ac565b634e487b7160e01b600052604160045260246000fd5b604051601f8201601f1916810167ffffffffffffffff811182821017156109ea576109ea6109ab565b604052919050565b600060208284031215610a0457600080fd5b815167ffffffffffffffff80821115610a1c57600080fd5b818401915084601f830112610a3057600080fd5b815181811115610a4257610a426109ab565b610a55601f8201601f19166020016109c1565b9150808252856020828501011115610a6c57600080fd5b610a7d816020840160208601610855565b50949350505050565b6702a3930b1b5b2b9160c51b815260008251610aa9816008850160208701610855565b9190910160080192915050565b600060208284031215610ac857600080fd5b5051919050565b600060208284031215610ae157600080fd5b815160ff8116811461094e57600080fd5b60006020808385031215610b0557600080fd5b825167ffffffffffffffff80821115610b1d57600080fd5b818501915085601f830112610b3157600080fd5b815181811115610b4357610b436109ab565b8060051b9150610b548483016109c1565b8181529183018401918481019088841115610b6e57600080fd5b938501935b83851015610b8c57845182529385019390850190610b73565b98975050505050505050565b634e487b7160e01b600052603260045260246000fd5b60008060408385031215610bc157600080fd5b505080516020909101519092909150565b634e487b7160e01b600052601160045260246000fd5b808201808211156102aa576102aa610bd2565b600060018201610c0d57610c0d610bd2565b5060010190565b61542d60f01b815260008251610c31816002850160208701610855565b919091016002019291505056fea2646970667358221220b42263d3a2e2df6fe146228e5eeb457d67bae950ea6d10de315b350c3bc5a41164736f6c6343000811003360e060405234801561001057600080fd5b50604051610b5d380380610b5d83398101604081905261002f9161018e565b61003833610115565b8260405161004590610165565b6001600160a01b039091168152602001604051809103906000f080158015610071573d6000803e3d6000fd5b506001600160a01b0316608052604051829061008c90610165565b6001600160a01b039091168152602001604051809103906000f0801580156100b8573d6000803e3d6000fd5b506001600160a01b031660a05260405181906100d390610165565b6001600160a01b039091168152602001604051809103906000f0801580156100ff573d6000803e3d6000fd5b506001600160a01b031660c052506101d1915050565b600080546001600160a01b038381166001600160a01b0319831681178455604051919092169283917f8be0079c531659141344cd1fd0a4f28419497f9722a3daafe3b4186f6b6457e09190a35050565b6104e48061067983390190565b80516001600160a01b038116811461018957600080fd5b919050565b6000806000606084860312156101a357600080fd5b6101ac84610172565b92506101ba60208501610172565b91506101c860408501610172565b90509250925092565b60805160a05160c05161046561021460003960008181610134015261023e01526000818160cd01526102a801526000818161015b01526101b701526104656000f3fe608060405234801561001057600080fd5b50600436106100935760003560e01c80638da5cb5b116100665780638da5cb5b1461010b578063a47bee7f1461011c578063d63ea2c51461012f578063ec53198714610156578063f2fde38b1461017d57600080fd5b8063182e591414610098578063468b6a49146100ad578063715018a6146100c057806378e65efc146100c8575b600080fd5b6100ab6100a63660046103ff565b610190565b005b6100ab6100bb3660046103ff565b610217565b6100ab61026d565b6100ef7f000000000000000000000000000000000000000000000000000000000000000081565b6040516001600160a01b03909116815260200160405180910390f35b6000546001600160a01b03166100ef565b6100ab61012a3660046103ff565b610281565b6100ef7f000000000000000000000000000000000000000000000000000000000000000081565b6100ef7f000000000000000000000000000000000000000000000000000000000000000081565b6100ab61018b3660046103ff565b6102d7565b610198610355565b604051631b2ce7f360e11b81526001600160a01b0382811660048301527f00000000000000000000000000000000000000000000000000000000000000001690633659cfe6906024015b600060405180830381600087803b1580156101fc57600080fd5b505af1158015610210573d6000803e3d6000fd5b5050505050565b61021f610355565b604051631b2ce7f360e11b81526001600160a01b0382811660048301527f00000000000000000000000000000000000000000000000000000000000000001690633659cfe6906024016101e2565b610275610355565b61027f60006103af565b565b610289610355565b604051631b2ce7f360e11b81526001600160a01b0382811660048301527f00000000000000000000000000000000000000000000000000000000000000001690633659cfe6906024016101e2565b6102df610355565b6001600160a01b0381166103495760405162461bcd60e51b815260206004820152602660248201527f4f776e61626c653a206e6577206f776e657220697320746865207a65726f206160448201526564647265737360d01b60648201526084015b60405180910390fd5b610352816103af565b50565b6000546001600160a01b0316331461027f5760405162461bcd60e51b815260206004820181905260248201527f4f776e61626c653a2063616c6c6572206973206e6f7420746865206f776e65726044820152606401610340565b600080546001600160a01b038381166001600160a01b0319831681178455604051919092169283917f8be0079c531659141344cd1fd0a4f28419497f9722a3daafe3b4186f6b6457e09190a35050565b60006020828403121561041157600080fd5b81356001600160a01b038116811461042857600080fd5b939250505056fea2646970667358221220a6bc4809c9f0e3e46f61dc5b9d2e98b2dc02839220dcc350ba9eda37828474fc64736f6c63430008110033608060405234801561001057600080fd5b506040516104e43803806104e483398101604081905261002f91610151565b61003833610047565b61004181610097565b50610181565b600080546001600160a01b038381166001600160a01b0319831681178455604051919092169283917f8be0079c531659141344cd1fd0a4f28419497f9722a3daafe3b4186f6b6457e09190a35050565b6100aa8161014260201b6101a01760201c565b6101205760405162461bcd60e51b815260206004820152603360248201527f5570677261646561626c65426561636f6e3a20696d706c656d656e746174696f60448201527f6e206973206e6f74206120636f6e747261637400000000000000000000000000606482015260840160405180910390fd5b600180546001600160a01b0319166001600160a01b0392909216919091179055565b6001600160a01b03163b151590565b60006020828403121561016357600080fd5b81516001600160a01b038116811461017a57600080fd5b9392505050565b610354806101906000396000f3fe608060405234801561001057600080fd5b50600436106100575760003560e01c80633659cfe61461005c5780635c60da1b14610071578063715018a61461009a5780638da5cb5b146100a2578063f2fde38b146100b3575b600080fd5b61006f61006a3660046102ee565b6100c6565b005b6001546001600160a01b03165b6040516001600160a01b03909116815260200160405180910390f35b61006f61010e565b6000546001600160a01b031661007e565b61006f6100c13660046102ee565b610122565b6100ce6101af565b6100d781610209565b6040516001600160a01b038216907fbc7cd75a20ee27fd9adebab32041f755214dbc6bffa90cc0225b39da2e5c2d3b90600090a250565b6101166101af565b610120600061029e565b565b61012a6101af565b6001600160a01b0381166101945760405162461bcd60e51b815260206004820152602660248201527f4f776e61626c653a206e6577206f776e657220697320746865207a65726f206160448201526564647265737360d01b60648201526084015b60405180910390fd5b61019d8161029e565b50565b6001600160a01b03163b151590565b6000546001600160a01b031633146101205760405162461bcd60e51b815260206004820181905260248201527f4f776e61626c653a2063616c6c6572206973206e6f7420746865206f776e6572604482015260640161018b565b6001600160a01b0381163b61027c5760405162461bcd60e51b815260206004820152603360248201527f5570677261646561626c65426561636f6e3a20696d706c656d656e746174696f6044820152721b881a5cc81b9bdd08184818dbdb9d1c9858dd606a1b606482015260840161018b565b600180546001600160a01b0319166001600160a01b0392909216919091179055565b600080546001600160a01b038381166001600160a01b0319831681178455604051919092169283917f8be0079c531659141344cd1fd0a4f28419497f9722a3daafe3b4186f6b6457e09190a35050565b60006020828403121561030057600080fd5b81356001600160a01b038116811461031757600080fd5b939250505056fea264697066735822122046de0e2736711d896422b3c51492e357495cbb76e5fdccdc78cc16cf74f410c064736f6c63430008110033608060405234801561001057600080fd5b5061001a3361001f565b61006f565b600080546001600160a01b038381166001600160a01b0319831681178455604051919092169283917f8be0079c531659141344cd1fd0a4f28419497f9722a3daafe3b4186f6b6457e09190a35050565b6107898061007e6000396000f3fe608060405234801561001057600080fd5b50600436106100935760003560e01c8063c93a6c8411610066578063c93a6c84146100ec578063cb65e505146100ff578063d49466a814610108578063f2fde38b1461011b578063fd9be5221461012e57600080fd5b8063084d2b9b146100985780634edeb834146100b4578063715018a6146100c75780638da5cb5b146100d1575b600080fd5b6100a161271081565b6040519081526020015b60405180910390f35b6100a16100c2366004610608565b610141565b6100cf610196565b005b6000546040516001600160a01b0390911681526020016100ab565b6100cf6100fa366004610634565b6101aa565b6100a160015481565b6100cf610116366004610608565b6101ed565b6100cf61012936600461064d565b61024d565b6100cf61013c366004610608565b6102cb565b6001600160a01b03821660009081526002602052604081205480820361016a5750600154610177565b6127108103610177575060005b6127106101848285610671565b61018e919061069c565b949350505050565b61019e6102fd565b6101a86000610357565b565b6101b26102fd565b60018190556040518181527fe3c879f1bacd84281e6f3b2c940aee391b4ea5d58d41f2f9ae7808469ac381279060200160405180910390a150565b6101f56102fd565b6001600160a01b038216600081815260026020908152604091829020849055815192835282018390527f4bf35bdb30378ec45195e205e56c03a10f89b4ccde934846b966b834fa72d5ce910160405180910390a15050565b6102556102fd565b6001600160a01b0381166102bf5760405162461bcd60e51b815260206004820152602660248201527f4f776e61626c653a206e6577206f776e657220697320746865207a65726f206160448201526564647265737360d01b60648201526084015b60405180910390fd5b6102c881610357565b50565b6102d36102fd565b6102f96102e86000546001600160a01b031690565b6001600160a01b03841690836103a7565b5050565b6000546001600160a01b031633146101a85760405162461bcd60e51b815260206004820181905260248201527f4f776e61626c653a2063616c6c6572206973206e6f7420746865206f776e657260448201526064016102b6565b600080546001600160a01b038381166001600160a01b0319831681178455604051919092169283917f8be0079c531659141344cd1fd0a4f28419497f9722a3daafe3b4186f6b6457e09190a35050565b604080516001600160a01b038416602482015260448082018490528251808303909101815260649091019091526020810180516001600160e01b031663a9059cbb60e01b1790526103f99084906103fe565b505050565b6000610453826040518060400160405280602081526020017f5361666545524332303a206c6f772d6c6576656c2063616c6c206661696c6564815250856001600160a01b03166104d09092919063ffffffff16565b8051909150156103f9578080602001905181019061047191906106be565b6103f95760405162461bcd60e51b815260206004820152602a60248201527f5361666545524332303a204552433230206f7065726174696f6e20646964206e6044820152691bdd081cdd58d8d9595960b21b60648201526084016102b6565b606061018e848460008585600080866001600160a01b031685876040516104f79190610704565b60006040518083038185875af1925050503d8060008114610534576040519150601f19603f3d011682016040523d82523d6000602084013e610539565b606091505b509150915061054a87838387610555565b979650505050505050565b606083156105c45782516000036105bd576001600160a01b0385163b6105bd5760405162461bcd60e51b815260206004820152601d60248201527f416464726573733a2063616c6c20746f206e6f6e2d636f6e747261637400000060448201526064016102b6565b508161018e565b61018e83838151156105d95781518083602001fd5b8060405162461bcd60e51b81526004016102b69190610720565b6001600160a01b03811681146102c857600080fd5b6000806040838503121561061b57600080fd5b8235610626816105f3565b946020939093013593505050565b60006020828403121561064657600080fd5b5035919050565b60006020828403121561065f57600080fd5b813561066a816105f3565b9392505050565b808202811582820484141761069657634e487b7160e01b600052601160045260246000fd5b92915050565b6000826106b957634e487b7160e01b600052601260045260246000fd5b500490565b6000602082840312156106d057600080fd5b8151801515811461066a57600080fd5b60005b838110156106fb5781810151838201526020016106e3565b50506000910152565b600082516107168184602087016106e0565b9190910192915050565b602081526000825180602084015261073f8160408501602087016106e0565b601f01601f1916919091016040019291505056fea2646970667358221220662338dc867a5001fa6759b3cd729a1a4d2c44fb6fde13298801da88e770797364736f6c63430008110033",
  "devdoc": {
    "kind": "dev",
    "methods": {
      "deployTTSuite(address,string,bool,bool)": {
        "details": "Emits: TokenTableSuiteDeployed. Throws: AlreadyDeployed().",
        "params": {
          "allowTransferableFT": "Allow FutureToken to be transferable.",
          "disableAutoUpgrade": "When set to false, a Clone instead of a BeaconProxy is created to prevent future upgradeability.",
          "projectId": "A unique projectId (otherwise will revert).",
          "projectToken": "The project token."
        }
      },
      "owner()": {
        "details": "Returns the address of the current owner."
      },
      "renounceOwnership()": {
        "details": "Leaves the contract without owner. It will not be possible to call `onlyOwner` functions anymore. Can only be called by the current owner. NOTE: Renouncing ownership will leave the contract without an owner, thereby removing any functionality that is only available to the owner."
      },
      "transferOwnership(address)": {
        "details": "Transfers ownership of the contract to a new account (`newOwner`). Can only be called by the current owner."
      }
    },
    "version": 1
  },
  "userdoc": {
    "kind": "user",
    "methods": {
      "deployTTSuite(address,string,bool,bool)": {
        "notice": "Deploys and configures a new set of TokenTable products."
      }
    },
    "version": 1
  },
  "storageLayout": {
    "storage": [
      {
        "astId": 707,
        "contract": "contracts/proxy/TTUDeployer.sol:TTUDeployer",
        "label": "_owner",
        "offset": 0,
        "slot": "0",
        "type": "t_address"
      },
      {
        "astId": 5495,
        "contract": "contracts/proxy/TTUDeployer.sol:TTUDeployer",
        "label": "feeCollector",
        "offset": 0,
        "slot": "1",
        "type": "t_contract(TTUFeeCollector)3453"
      },
      {
        "astId": 5499,
        "contract": "contracts/proxy/TTUDeployer.sol:TTUDeployer",
        "label": "registry",
        "offset": 0,
        "slot": "2",
        "type": "t_mapping(t_string_memory_ptr,t_bool)"
      }
    ],
    "types": {
      "t_address": {
        "encoding": "inplace",
        "label": "address",
        "numberOfBytes": "20"
      },
      "t_bool": {
        "encoding": "inplace",
        "label": "bool",
        "numberOfBytes": "1"
      },
      "t_contract(TTUFeeCollector)3453": {
        "encoding": "inplace",
        "label": "contract TTUFeeCollector",
        "numberOfBytes": "20"
      },
      "t_mapping(t_string_memory_ptr,t_bool)": {
        "encoding": "mapping",
        "key": "t_string_memory_ptr",
        "label": "mapping(string => bool)",
        "numberOfBytes": "32",
        "value": "t_bool"
      },
      "t_string_memory_ptr": {
        "encoding": "bytes",
        "label": "string",
        "numberOfBytes": "32"
      }
    }
  }
}