{
  "address": "0x3885E8F809Cb190C703779D90e0347F14866B03A",
  "abi": [
    {
      "inputs": [],
      "stateMutability": "nonpayable",
      "type": "constructor"
    },
    {
      "inputs": [
        {
          "internalType": "address",
          "name": "target",
          "type": "address"
        }
      ],
      "name": "AddressEmptyCode",
      "type": "error"
    },
    {
      "inputs": [
        {
          "internalType": "address",
          "name": "account",
          "type": "address"
        }
      ],
      "name": "AddressInsufficientBalance",
      "type": "error"
    },
    {
      "inputs": [],
      "name": "FailedInnerCall",
      "type": "error"
    },
    {
      "inputs": [
        {
          "internalType": "address",
          "name": "owner",
          "type": "address"
        }
      ],
      "name": "OwnableInvalidOwner",
      "type": "error"
    },
    {
      "inputs": [
        {
          "internalType": "address",
          "name": "account",
          "type": "address"
        }
      ],
      "name": "OwnableUnauthorizedAccount",
      "type": "error"
    },
    {
      "inputs": [
        {
          "internalType": "address",
          "name": "token",
          "type": "address"
        }
      ],
      "name": "SafeERC20FailedOperation",
      "type": "error"
    },
    {
      "anonymous": false,
      "inputs": [
        {
          "indexed": false,
          "internalType": "address",
          "name": "unlockerAddress",
          "type": "address"
        },
        {
          "indexed": false,
          "internalType": "uint256",
          "name": "bips",
          "type": "uint256"
        }
      ],
      "name": "CustomFeeSet",
      "type": "event"
    },
    {
      "anonymous": false,
      "inputs": [
        {
          "indexed": false,
          "internalType": "uint256",
          "name": "bips",
          "type": "uint256"
        }
      ],
      "name": "DefaultFeeSet",
      "type": "event"
    },
    {
      "anonymous": false,
      "inputs": [
        {
          "indexed": true,
          "internalType": "address",
          "name": "previousOwner",
          "type": "address"
        },
        {
          "indexed": true,
          "internalType": "address",
          "name": "newOwner",
          "type": "address"
        }
      ],
      "name": "OwnershipTransferred",
      "type": "event"
    },
    {
      "inputs": [],
      "name": "BIPS_PRECISION",
      "outputs": [
        {
          "internalType": "uint256",
          "name": "",
          "type": "uint256"
        }
      ],
      "stateMutability": "view",
      "type": "function"
    },
    {
      "inputs": [],
      "name": "defaultFeesBips",
      "outputs": [
        {
          "internalType": "uint256",
          "name": "",
          "type": "uint256"
        }
      ],
      "stateMutability": "view",
      "type": "function"
    },
    {
      "inputs": [
        {
          "internalType": "address",
          "name": "unlockerAddress",
          "type": "address"
        },
        {
          "internalType": "uint256",
          "name": "tokenTransferred",
          "type": "uint256"
        }
      ],
      "name": "getFee",
      "outputs": [
        {
          "internalType": "uint256",
          "name": "tokensCollected",
          "type": "uint256"
        }
      ],
      "stateMutability": "view",
      "type": "function"
    },
    {
      "inputs": [],
      "name": "owner",
      "outputs": [
        {
          "internalType": "address",
          "name": "",
          "type": "address"
        }
      ],
      "stateMutability": "view",
      "type": "function"
    },
    {
      "inputs": [],
      "name": "renounceOwnership",
      "outputs": [],
      "stateMutability": "nonpayable",
      "type": "function"
    },
    {
      "inputs": [
        {
          "internalType": "address",
          "name": "unlockerAddress",
          "type": "address"
        },
        {
          "internalType": "uint256",
          "name": "bips",
          "type": "uint256"
        }
      ],
      "name": "setCustomFee",
      "outputs": [],
      "stateMutability": "nonpayable",
      "type": "function"
    },
    {
      "inputs": [
        {
          "internalType": "uint256",
          "name": "bips",
          "type": "uint256"
        }
      ],
      "name": "setDefaultFee",
      "outputs": [],
      "stateMutability": "nonpayable",
      "type": "function"
    },
    {
      "inputs": [
        {
          "internalType": "address",
          "name": "newOwner",
          "type": "address"
        }
      ],
      "name": "transferOwnership",
      "outputs": [],
      "stateMutability": "nonpayable",
      "type": "function"
    },
    {
      "inputs": [],
      "name": "version",
      "outputs": [
        {
          "internalType": "string",
          "name": "",
          "type": "string"
        }
      ],
      "stateMutability": "pure",
      "type": "function"
    },
    {
      "inputs": [
        {
          "internalType": "contract IERC20",
          "name": "token",
          "type": "address"
        },
        {
          "internalType": "uint256",
          "name": "amount",
          "type": "uint256"
        }
      ],
      "name": "withdrawFee",
      "outputs": [],
      "stateMutability": "nonpayable",
      "type": "function"
    }
  ],
  "transactionHash": "0xa7ce0d787a498e7ca87616d6fc58a5b797984acbd6c31219f4e5f1a95fb1384a",
  "args": [],
  "numDeployments": 1,
  "solcInputHash": "8f7ddac5c7c5c41eec7534097194a27b",
  "bytecode": "0x608060405234801561001057600080fd5b50338061003757604051631e4fbdf760e01b81526000600482015260240160405180910390fd5b61004081610046565b50610096565b600080546001600160a01b038381166001600160a01b0319831681178455604051919092169283917f8be0079c531659141344cd1fd0a4f28419497f9722a3daafe3b4186f6b6457e09190a35050565b610700806100a56000396000f3fe608060405234801561001057600080fd5b506004361061009e5760003560e01c8063c93a6c8411610066578063c93a6c841461011e578063cb65e50514610131578063d49466a81461013a578063f2fde38b1461014d578063fd9be5221461016057600080fd5b8063084d2b9b146100a35780634edeb834146100bf57806354fd4d50146100d2578063715018a6146100f95780638da5cb5b14610103575b600080fd5b6100ac61271081565b6040519081526020015b60405180910390f35b6100ac6100cd36600461058c565b610173565b6040805180820182526005815264322e302e3160d81b602082015290516100b691906105dc565b6101016101c8565b005b6000546040516001600160a01b0390911681526020016100b6565b61010161012c36600461060f565b6101d2565b6100ac60015481565b61010161014836600461058c565b610215565b61010161015b366004610628565b610275565b61010161016e36600461058c565b610281565b6001600160a01b03821660009081526002602052604081205480820361019c57506001546101a9565b61271081036101a9575060005b6127106101b68285610645565b6101c0919061066a565b949350505050565b6101d06102b3565b565b6101da6102c5565b60018190556040518181527fe3c879f1bacd84281e6f3b2c940aee391b4ea5d58d41f2f9ae7808469ac381279060200160405180910390a150565b61021d6102c5565b6001600160a01b038216600081815260026020908152604091829020849055815192835282018390527f4bf35bdb30378ec45195e205e56c03a10f89b4ccde934846b966b834fa72d5ce910160405180910390a15050565b61027e816102f7565b50565b6102896102c5565b6102af61029e6000546001600160a01b031690565b6001600160a01b0384169083610332565b5050565b6102bb6102c5565b6101d06000610389565b6000546001600160a01b031633146101d05760405163118cdaa760e01b81523360048201526024015b60405180910390fd5b6102ff6102c5565b6001600160a01b03811661032957604051631e4fbdf760e01b8152600060048201526024016102ee565b61027e81610389565b604080516001600160a01b038416602482015260448082018490528251808303909101815260649091019091526020810180516001600160e01b031663a9059cbb60e01b1790526103849084906103d9565b505050565b600080546001600160a01b038381166001600160a01b0319831681178455604051919092169283917f8be0079c531659141344cd1fd0a4f28419497f9722a3daafe3b4186f6b6457e09190a35050565b60006103ee6001600160a01b0384168361043c565b90508051600014158015610413575080806020019051810190610411919061068c565b155b1561038457604051635274afe760e01b81526001600160a01b03841660048201526024016102ee565b606061044a83836000610453565b90505b92915050565b6060814710156104785760405163cd78605960e01b81523060048201526024016102ee565b600080856001600160a01b0316848660405161049491906106ae565b60006040518083038185875af1925050503d80600081146104d1576040519150601f19603f3d011682016040523d82523d6000602084013e6104d6565b606091505b50915091506104e68683836104f2565b925050505b9392505050565b606082610507576105028261054e565b6104eb565b815115801561051e57506001600160a01b0384163b155b1561054757604051639996b31560e01b81526001600160a01b03851660048201526024016102ee565b50806104eb565b80511561055e5780518082602001fd5b604051630a12f52160e11b815260040160405180910390fd5b6001600160a01b038116811461027e57600080fd5b6000806040838503121561059f57600080fd5b82356105aa81610577565b946020939093013593505050565b60005b838110156105d35781810151838201526020016105bb565b50506000910152565b60208152600082518060208401526105fb8160408501602087016105b8565b601f01601f19169190910160400192915050565b60006020828403121561062157600080fd5b5035919050565b60006020828403121561063a57600080fd5b81356104eb81610577565b808202811582820484141761044d57634e487b7160e01b600052601160045260246000fd5b60008261068757634e487b7160e01b600052601260045260246000fd5b500490565b60006020828403121561069e57600080fd5b815180151581146104eb57600080fd5b600082516106c08184602087016105b8565b919091019291505056fea264697066735822122012bce395cb54b94316332bc35cf6453d23be27260df4aed04fba0b453b79cd8664736f6c63430008140033",
  "devdoc": {
    "errors": {
      "AddressEmptyCode(address)": [
        {
          "details": "There's no code at `target` (it is not a contract)."
        }
      ],
      "AddressInsufficientBalance(address)": [
        {
          "details": "The ETH balance of the account is not enough to perform the operation."
        }
      ],
      "FailedInnerCall()": [
        {
          "details": "A call to an address target failed. The target may have reverted."
        }
      ],
      "OwnableInvalidOwner(address)": [
        {
          "details": "The owner is not a valid owner account. (eg. `address(0)`)"
        }
      ],
      "OwnableUnauthorizedAccount(address)": [
        {
          "details": "The caller account is not authorized to perform an operation."
        }
      ],
      "SafeERC20FailedOperation(address)": [
        {
          "details": "An operation with an ERC20 token failed."
        }
      ]
    },
    "kind": "dev",
    "methods": {
      "getFee(address,uint256)": {
        "params": {
          "tokenTransferred": "The number of tokens transferred.",
          "unlockerAddress": "The address of the Unlocker. Used to fetch pricing."
        },
        "returns": {
          "tokensCollected": "The number of tokens to collect as fees."
        }
      }
    },
    "version": 1
  },
  "userdoc": {
    "kind": "user",
    "methods": {
      "getFee(address,uint256)": {
        "notice": "Returns the amount of fees to collect."
      }
    },
    "version": 1
  },
  "storageLayout": {
    "storage": [
      {
        "astId": 624,
        "contract": "contracts/core/TTUFeeCollector.sol:TTUFeeCollector",
        "label": "_owner",
        "offset": 0,
        "slot": "0",
        "type": "t_address"
      },
      {
        "astId": 2622,
        "contract": "contracts/core/TTUFeeCollector.sol:TTUFeeCollector",
        "label": "defaultFeesBips",
        "offset": 0,
        "slot": "1",
        "type": "t_uint256"
      },
      {
        "astId": 2626,
        "contract": "contracts/core/TTUFeeCollector.sol:TTUFeeCollector",
        "label": "_customFeesBips",
        "offset": 0,
        "slot": "2",
        "type": "t_mapping(t_address,t_uint256)"
      }
    ],
    "types": {
      "t_address": {
        "encoding": "inplace",
        "label": "address",
        "numberOfBytes": "20"
      },
      "t_mapping(t_address,t_uint256)": {
        "encoding": "mapping",
        "key": "t_address",
        "label": "mapping(address => uint256)",
        "numberOfBytes": "32",
        "value": "t_uint256"
      },
      "t_uint256": {
        "encoding": "inplace",
        "label": "uint256",
        "numberOfBytes": "32"
      }
    }
  }
}