{
  "address": "0x2906d67A0929e1E6C9102AA4d97e1f1F9B112153",
  "abi": [
    {
      "inputs": [],
      "stateMutability": "nonpayable",
      "type": "constructor"
    },
    {
      "anonymous": false,
      "inputs": [
        {
          "indexed": true,
          "internalType": "address",
          "name": "owner",
          "type": "address"
        },
        {
          "indexed": true,
          "internalType": "address",
          "name": "spender",
          "type": "address"
        },
        {
          "indexed": false,
          "internalType": "uint256",
          "name": "value",
          "type": "uint256"
        }
      ],
      "name": "Approval",
      "type": "event"
    },
    {
      "anonymous": false,
      "inputs": [
        {
          "indexed": false,
          "internalType": "uint8",
          "name": "version",
          "type": "uint8"
        }
      ],
      "name": "Initialized",
      "type": "event"
    },
    {
      "anonymous": false,
      "inputs": [
        {
          "indexed": true,
          "internalType": "address",
          "name": "from",
          "type": "address"
        },
        {
          "indexed": true,
          "internalType": "address",
          "name": "to",
          "type": "address"
        },
        {
          "indexed": false,
          "internalType": "uint256",
          "name": "value",
          "type": "uint256"
        }
      ],
      "name": "Transfer",
      "type": "event"
    },
    {
      "inputs": [
        {
          "internalType": "address",
          "name": "owner",
          "type": "address"
        },
        {
          "internalType": "address",
          "name": "spender",
          "type": "address"
        }
      ],
      "name": "allowance",
      "outputs": [
        {
          "internalType": "uint256",
          "name": "",
          "type": "uint256"
        }
      ],
      "stateMutability": "view",
      "type": "function"
    },
    {
      "inputs": [
        {
          "internalType": "address",
          "name": "spender",
          "type": "address"
        },
        {
          "internalType": "uint256",
          "name": "amount",
          "type": "uint256"
        }
      ],
      "name": "approve",
      "outputs": [
        {
          "internalType": "bool",
          "name": "",
          "type": "bool"
        }
      ],
      "stateMutability": "nonpayable",
      "type": "function"
    },
    {
      "inputs": [
        {
          "internalType": "address",
          "name": "account",
          "type": "address"
        }
      ],
      "name": "balanceOf",
      "outputs": [
        {
          "internalType": "uint256",
          "name": "",
          "type": "uint256"
        }
      ],
      "stateMutability": "view",
      "type": "function"
    },
    {
      "inputs": [],
      "name": "decimals",
      "outputs": [
        {
          "internalType": "uint8",
          "name": "",
          "type": "uint8"
        }
      ],
      "stateMutability": "view",
      "type": "function"
    },
    {
      "inputs": [
        {
          "internalType": "address",
          "name": "ttuInstance_",
          "type": "address"
        }
      ],
      "name": "initialize",
      "outputs": [],
      "stateMutability": "nonpayable",
      "type": "function"
    },
    {
      "inputs": [],
      "name": "name",
      "outputs": [
        {
          "internalType": "string",
          "name": "",
          "type": "string"
        }
      ],
      "stateMutability": "view",
      "type": "function"
    },
    {
      "inputs": [],
      "name": "symbol",
      "outputs": [
        {
          "internalType": "string",
          "name": "",
          "type": "string"
        }
      ],
      "stateMutability": "view",
      "type": "function"
    },
    {
      "inputs": [],
      "name": "totalSupply",
      "outputs": [
        {
          "internalType": "uint256",
          "name": "",
          "type": "uint256"
        }
      ],
      "stateMutability": "view",
      "type": "function"
    },
    {
      "inputs": [
        {
          "internalType": "address",
          "name": "to",
          "type": "address"
        },
        {
          "internalType": "uint256",
          "name": "amount",
          "type": "uint256"
        }
      ],
      "name": "transfer",
      "outputs": [
        {
          "internalType": "bool",
          "name": "",
          "type": "bool"
        }
      ],
      "stateMutability": "nonpayable",
      "type": "function"
    },
    {
      "inputs": [
        {
          "internalType": "address",
          "name": "from",
          "type": "address"
        },
        {
          "internalType": "address",
          "name": "to",
          "type": "address"
        },
        {
          "internalType": "uint256",
          "name": "amount",
          "type": "uint256"
        }
      ],
      "name": "transferFrom",
      "outputs": [
        {
          "internalType": "bool",
          "name": "",
          "type": "bool"
        }
      ],
      "stateMutability": "nonpayable",
      "type": "function"
    },
    {
      "inputs": [],
      "name": "ttuInstance",
      "outputs": [
        {
          "internalType": "contract TokenTableUnlockerV2",
          "name": "",
          "type": "address"
        }
      ],
      "stateMutability": "view",
      "type": "function"
    },
    {
      "inputs": [],
      "name": "version",
      "outputs": [
        {
          "internalType": "string",
          "name": "",
          "type": "string"
        }
      ],
      "stateMutability": "pure",
      "type": "function"
    }
  ],
  "transactionHash": "0xf3409472b0330cd6c91a4a995a31bae19c05a525593d783115208c601374ea11",
  "args": [],
  "numDeployments": 2,
  "solcInputHash": "8915dfa3afcef5825d01c7aea572878e",
  "bytecode": "0x608060405234801561001057600080fd5b5061001961001e565b6100de565b600054610100900460ff161561008a5760405162461bcd60e51b815260206004820152602760248201527f496e697469616c697a61626c653a20636f6e747261637420697320696e697469604482015266616c697a696e6760c81b606482015260840160405180910390fd5b60005460ff90811610156100dc576000805460ff191660ff9081179091556040519081527f7f26b83ff96e1f2b6a682f133852f6798a09c465da95921460cefb38474024989060200160405180910390a15b565b610ca0806100ed6000396000f3fe608060405234801561001057600080fd5b50600436106100b45760003560e01c806370a082311161007157806370a082311461016257806395d89b4114610175578063a9059cbb146100d7578063ae2dd7431461017d578063c4d66de8146101ae578063dd62ed3e146101c357600080fd5b806306fdde03146100b9578063095ea7b3146100d757806318160ddd146100fa57806323b872dd14610110578063313ce5671461012757806354fd4d5014610141575b600080fd5b6100c16101d1565b6040516100ce91906108a5565b60405180910390f35b6100ea6100e53660046108f0565b6102d3565b60405190151581526020016100ce565b6101026102dc565b6040519081526020016100ce565b6100ea61011e36600461091c565b60009392505050565b61012f6103c3565b60405160ff90911681526020016100ce565b604080518082019091526005815264322e302e3160d81b60208201526100c1565b61010261017036600461095d565b61049c565b6100c1610663565b600054610196906201000090046001600160a01b031681565b6040516001600160a01b0390911681526020016100ce565b6101c16101bc36600461095d565b610751565b005b6101026100e5366004610981565b6060600060029054906101000a90046001600160a01b03166001600160a01b0316634837c5966040518163ffffffff1660e01b8152600401602060405180830381865afa158015610226573d6000803e3d6000fd5b505050506040513d601f19601f8201168201806040525081019061024a91906109ba565b6001600160a01b03166306fdde036040518163ffffffff1660e01b8152600401600060405180830381865afa158015610287573d6000803e3d6000fd5b505050506040513d6000823e601f3d908101601f191682016040526102af9190810190610a1e565b6040516020016102bf9190610ab2565b604051602081830303815290604052905090565b60005b92915050565b60008060029054906101000a90046001600160a01b03166001600160a01b0316634837c5966040518163ffffffff1660e01b8152600401602060405180830381865afa158015610330573d6000803e3d6000fd5b505050506040513d601f19601f8201168201806040525081019061035491906109ba565b6040516370a0823160e01b81523060048201526001600160a01b0391909116906370a0823190602401602060405180830381865afa15801561039a573d6000803e3d6000fd5b505050506040513d601f19601f820116820180604052508101906103be9190610ae2565b905090565b60008060029054906101000a90046001600160a01b03166001600160a01b0316634837c5966040518163ffffffff1660e01b8152600401602060405180830381865afa158015610417573d6000803e3d6000fd5b505050506040513d601f19601f8201168201806040525081019061043b91906109ba565b6001600160a01b031663313ce5676040518163ffffffff1660e01b8152600401602060405180830381865afa158015610478573d6000803e3d6000fd5b505050506040513d601f19601f820116820180604052508101906103be9190610afb565b60008060008060029054906101000a90046001600160a01b03166001600160a01b0316633aa4327c6040518163ffffffff1660e01b8152600401602060405180830381865afa1580156104f3573d6000803e3d6000fd5b505050506040513d601f19601f8201168201806040525081019061051791906109ba565b604051632118854760e21b81526001600160a01b038681166004830152919250600091831690638462151c90602401600060405180830381865afa158015610563573d6000803e3d6000fd5b505050506040513d6000823e601f3d908101601f1916820160405261058b9190810190610b1e565b905060005b81518110156106595760008060029054906101000a90046001600160a01b03166001600160a01b03166342734d458484815181106105d0576105d0610bc4565b60200260200101516040518263ffffffff1660e01b81526004016105f691815260200190565b6040805180830381865afa158015610612573d6000803e3d6000fd5b505050506040513d601f19601f820116820180604052508101906106369190610bda565b5090506106438186610c14565b945050808061065190610c27565b915050610590565b5091949350505050565b6060600060029054906101000a90046001600160a01b03166001600160a01b0316634837c5966040518163ffffffff1660e01b8152600401602060405180830381865afa1580156106b8573d6000803e3d6000fd5b505050506040513d601f19601f820116820180604052508101906106dc91906109ba565b6001600160a01b03166395d89b416040518163ffffffff1660e01b8152600401600060405180830381865afa158015610719573d6000803e3d6000fd5b505050506040513d6000823e601f3d908101601f191682016040526107419190810190610a1e565b6040516020016102bf9190610c40565b600054610100900460ff16158080156107715750600054600160ff909116105b8061078b5750303b15801561078b575060005460ff166001145b6107f25760405162461bcd60e51b815260206004820152602e60248201527f496e697469616c697a61626c653a20636f6e747261637420697320616c72656160448201526d191e481a5b9a5d1a585b1a5e995960921b606482015260840160405180910390fd5b6000805460ff191660011790558015610815576000805461ff0019166101001790555b6000805462010000600160b01b031916620100006001600160a01b03851602179055801561087d576000805461ff0019169055604051600181527f7f26b83ff96e1f2b6a682f133852f6798a09c465da95921460cefb38474024989060200160405180910390a15b5050565b60005b8381101561089c578181015183820152602001610884565b50506000910152565b60208152600082518060208401526108c4816040850160208701610881565b601f01601f19169190910160400192915050565b6001600160a01b03811681146108ed57600080fd5b50565b6000806040838503121561090357600080fd5b823561090e816108d8565b946020939093013593505050565b60008060006060848603121561093157600080fd5b833561093c816108d8565b9250602084013561094c816108d8565b929592945050506040919091013590565b60006020828403121561096f57600080fd5b813561097a816108d8565b9392505050565b6000806040838503121561099457600080fd5b823561099f816108d8565b915060208301356109af816108d8565b809150509250929050565b6000602082840312156109cc57600080fd5b815161097a816108d8565b634e487b7160e01b600052604160045260246000fd5b604051601f8201601f1916810167ffffffffffffffff81118282101715610a1657610a166109d7565b604052919050565b600060208284031215610a3057600080fd5b815167ffffffffffffffff80821115610a4857600080fd5b818401915084601f830112610a5c57600080fd5b815181811115610a6e57610a6e6109d7565b610a81601f8201601f19166020016109ed565b9150808252856020828501011115610a9857600080fd5b610aa9816020840160208601610881565b50949350505050565b6702a3930b1b5b2b9160c51b815260008251610ad5816008850160208701610881565b9190910160080192915050565b600060208284031215610af457600080fd5b5051919050565b600060208284031215610b0d57600080fd5b815160ff8116811461097a57600080fd5b60006020808385031215610b3157600080fd5b825167ffffffffffffffff80821115610b4957600080fd5b818501915085601f830112610b5d57600080fd5b815181811115610b6f57610b6f6109d7565b8060051b9150610b808483016109ed565b8181529183018401918481019088841115610b9a57600080fd5b938501935b83851015610bb857845182529385019390850190610b9f565b98975050505050505050565b634e487b7160e01b600052603260045260246000fd5b60008060408385031215610bed57600080fd5b505080516020909101519092909150565b634e487b7160e01b600052601160045260246000fd5b808201808211156102d6576102d6610bfe565b600060018201610c3957610c39610bfe565b5060010190565b61542d60f01b815260008251610c5d816002850160208701610881565b919091016002019291505056fea26469706673582212209d720f9b675142d5a06f51415970908075b68a6bc68591ee90e67d297e29d48864736f6c63430008110033",
  "devdoc": {
    "author": "Jack Xu @ EthSign",
    "details": "An ERC20 token that represents the number of currently claimable unlocked tokens. This token can be added into the investor's wallet, making it easy for them to check on this information without having to go through TokenTable's website.",
    "kind": "dev",
    "methods": {
      "allowance(address,address)": {
        "details": "This operation is not allowed/implemented on purpose."
      },
      "approve(address,uint256)": {
        "details": "This operation is not allowed/implemented on purpose."
      },
      "balanceOf(address)": {
        "details": "Number of currently claimable tokens of the given address."
      },
      "decimals()": {
        "details": "Returns the decimals places of the token."
      },
      "name()": {
        "details": "Returns the name of the token."
      },
      "symbol()": {
        "details": "Returns the symbol of the token."
      },
      "totalSupply()": {
        "details": "Total number of tokens deposited into the unlocker awaiting claim."
      },
      "transfer(address,uint256)": {
        "details": "This operation is not allowed/implemented on purpose."
      },
      "transferFrom(address,address,uint256)": {
        "details": "This operation is not allowed/implemented on purpose."
      }
    },
    "title": "TTTrackerTokenV2",
    "version": 1
  },
  "userdoc": {
    "kind": "user",
    "methods": {},
    "version": 1
  },
  "storageLayout": {
    "storage": [
      {
        "astId": 138,
        "contract": "contracts/core/TTTrackerTokenV2.sol:TTTrackerTokenV2",
        "label": "_initialized",
        "offset": 0,
        "slot": "0",
        "type": "t_uint8"
      },
      {
        "astId": 141,
        "contract": "contracts/core/TTTrackerTokenV2.sol:TTTrackerTokenV2",
        "label": "_initializing",
        "offset": 1,
        "slot": "0",
        "type": "t_bool"
      },
      {
        "astId": 2473,
        "contract": "contracts/core/TTTrackerTokenV2.sol:TTTrackerTokenV2",
        "label": "ttuInstance",
        "offset": 2,
        "slot": "0",
        "type": "t_contract(TokenTableUnlockerV2)4807"
      }
    ],
    "types": {
      "t_bool": {
        "encoding": "inplace",
        "label": "bool",
        "numberOfBytes": "1"
      },
      "t_contract(TokenTableUnlockerV2)4807": {
        "encoding": "inplace",
        "label": "contract TokenTableUnlockerV2",
        "numberOfBytes": "20"
      },
      "t_uint8": {
        "encoding": "inplace",
        "label": "uint8",
        "numberOfBytes": "1"
      }
    }
  }
}