{
  "address": "0xe2C15B97F628B7Ad279D6b002cEDd414390b6D63",
  "abi": [
    {
      "anonymous": false,
      "inputs": [
        {
          "indexed": false,
          "internalType": "address",
          "name": "unlockerAddress",
          "type": "address"
        },
        {
          "indexed": false,
          "internalType": "uint256",
          "name": "bips",
          "type": "uint256"
        }
      ],
      "name": "CustomFeeSet",
      "type": "event"
    },
    {
      "anonymous": false,
      "inputs": [
        {
          "indexed": false,
          "internalType": "uint256",
          "name": "bips",
          "type": "uint256"
        }
      ],
      "name": "DefaultFeeSet",
      "type": "event"
    },
    {
      "anonymous": false,
      "inputs": [
        {
          "indexed": true,
          "internalType": "address",
          "name": "previousOwner",
          "type": "address"
        },
        {
          "indexed": true,
          "internalType": "address",
          "name": "newOwner",
          "type": "address"
        }
      ],
      "name": "OwnershipTransferred",
      "type": "event"
    },
    {
      "inputs": [],
      "name": "BIPS_PRECISION",
      "outputs": [
        {
          "internalType": "uint256",
          "name": "",
          "type": "uint256"
        }
      ],
      "stateMutability": "view",
      "type": "function"
    },
    {
      "inputs": [],
      "name": "defaultFeesBips",
      "outputs": [
        {
          "internalType": "uint256",
          "name": "",
          "type": "uint256"
        }
      ],
      "stateMutability": "view",
      "type": "function"
    },
    {
      "inputs": [
        {
          "internalType": "address",
          "name": "unlockerAddress",
          "type": "address"
        },
        {
          "internalType": "uint256",
          "name": "tokenTransferred",
          "type": "uint256"
        }
      ],
      "name": "getFee",
      "outputs": [
        {
          "internalType": "uint256",
          "name": "tokensCollected",
          "type": "uint256"
        }
      ],
      "stateMutability": "view",
      "type": "function"
    },
    {
      "inputs": [],
      "name": "owner",
      "outputs": [
        {
          "internalType": "address",
          "name": "",
          "type": "address"
        }
      ],
      "stateMutability": "view",
      "type": "function"
    },
    {
      "inputs": [],
      "name": "renounceOwnership",
      "outputs": [],
      "stateMutability": "nonpayable",
      "type": "function"
    },
    {
      "inputs": [
        {
          "internalType": "address",
          "name": "unlockerAddress",
          "type": "address"
        },
        {
          "internalType": "uint256",
          "name": "bips",
          "type": "uint256"
        }
      ],
      "name": "setCustomFee",
      "outputs": [],
      "stateMutability": "nonpayable",
      "type": "function"
    },
    {
      "inputs": [
        {
          "internalType": "uint256",
          "name": "bips",
          "type": "uint256"
        }
      ],
      "name": "setDefaultFee",
      "outputs": [],
      "stateMutability": "nonpayable",
      "type": "function"
    },
    {
      "inputs": [
        {
          "internalType": "address",
          "name": "newOwner",
          "type": "address"
        }
      ],
      "name": "transferOwnership",
      "outputs": [],
      "stateMutability": "nonpayable",
      "type": "function"
    },
    {
      "inputs": [],
      "name": "version",
      "outputs": [
        {
          "internalType": "string",
          "name": "",
          "type": "string"
        }
      ],
      "stateMutability": "pure",
      "type": "function"
    },
    {
      "inputs": [
        {
          "internalType": "contract IERC20",
          "name": "token",
          "type": "address"
        },
        {
          "internalType": "uint256",
          "name": "amount",
          "type": "uint256"
        }
      ],
      "name": "withdrawFee",
      "outputs": [],
      "stateMutability": "nonpayable",
      "type": "function"
    }
  ],
  "transactionHash": "0x4d18c10f87d0f52289325aa39631296b5dca2c0f0ef2d8d3f0f5cf2d33cd28bb",
  "args": [],
  "numDeployments": 2,
  "solcInputHash": "e7fd2ca5954334d8583b7047be74740c",
  "bytecode": "0x608060405234801561001057600080fd5b5061001a3361001f565b61006f565b600080546001600160a01b038381166001600160a01b0319831681178455604051919092169283917f8be0079c531659141344cd1fd0a4f28419497f9722a3daafe3b4186f6b6457e09190a35050565b6107cc8061007e6000396000f3fe608060405234801561001057600080fd5b506004361061009e5760003560e01c8063c93a6c8411610066578063c93a6c841461011e578063cb65e50514610131578063d49466a81461013a578063f2fde38b1461014d578063fd9be5221461016057600080fd5b8063084d2b9b146100a35780634edeb834146100bf57806354fd4d50146100d2578063715018a6146100f95780638da5cb5b14610103575b600080fd5b6100ac61271081565b6040519081526020015b60405180910390f35b6100ac6100cd36600461064b565b610173565b6040805180820182526005815264322e302e3160d81b602082015290516100b6919061069b565b6101016101c8565b005b6000546040516001600160a01b0390911681526020016100b6565b61010161012c3660046106ce565b6101d2565b6100ac60015481565b61010161014836600461064b565b610215565b61010161015b3660046106e7565b610275565b61010161016e36600461064b565b610281565b6001600160a01b03821660009081526002602052604081205480820361019c57506001546101a9565b61271081036101a9575060005b6127106101b6828561070b565b6101c09190610736565b949350505050565b6101d06102b3565b565b6101da6102c5565b60018190556040518181527fe3c879f1bacd84281e6f3b2c940aee391b4ea5d58d41f2f9ae7808469ac381279060200160405180910390a150565b61021d6102c5565b6001600160a01b038216600081815260026020908152604091829020849055815192835282018390527f4bf35bdb30378ec45195e205e56c03a10f89b4ccde934846b966b834fa72d5ce910160405180910390a15050565b61027e81610324565b50565b6102896102c5565b6102af61029e6000546001600160a01b031690565b6001600160a01b038416908361039a565b5050565b6102bb6102c5565b6101d060006103f1565b6000546001600160a01b031633146101d05760405162461bcd60e51b815260206004820181905260248201527f4f776e61626c653a2063616c6c6572206973206e6f7420746865206f776e657260448201526064015b60405180910390fd5b61032c6102c5565b6001600160a01b0381166103915760405162461bcd60e51b815260206004820152602660248201527f4f776e61626c653a206e6577206f776e657220697320746865207a65726f206160448201526564647265737360d01b606482015260840161031b565b61027e816103f1565b604080516001600160a01b038416602482015260448082018490528251808303909101815260649091019091526020810180516001600160e01b031663a9059cbb60e01b1790526103ec908490610441565b505050565b600080546001600160a01b038381166001600160a01b0319831681178455604051919092169283917f8be0079c531659141344cd1fd0a4f28419497f9722a3daafe3b4186f6b6457e09190a35050565b6000610496826040518060400160405280602081526020017f5361666545524332303a206c6f772d6c6576656c2063616c6c206661696c6564815250856001600160a01b03166105139092919063ffffffff16565b8051909150156103ec57808060200190518101906104b49190610758565b6103ec5760405162461bcd60e51b815260206004820152602a60248201527f5361666545524332303a204552433230206f7065726174696f6e20646964206e6044820152691bdd081cdd58d8d9595960b21b606482015260840161031b565b60606101c0848460008585600080866001600160a01b0316858760405161053a919061077a565b60006040518083038185875af1925050503d8060008114610577576040519150601f19603f3d011682016040523d82523d6000602084013e61057c565b606091505b509150915061058d87838387610598565b979650505050505050565b60608315610607578251600003610600576001600160a01b0385163b6106005760405162461bcd60e51b815260206004820152601d60248201527f416464726573733a2063616c6c20746f206e6f6e2d636f6e7472616374000000604482015260640161031b565b50816101c0565b6101c0838381511561061c5781518083602001fd5b8060405162461bcd60e51b815260040161031b919061069b565b6001600160a01b038116811461027e57600080fd5b6000806040838503121561065e57600080fd5b823561066981610636565b946020939093013593505050565b60005b8381101561069257818101518382015260200161067a565b50506000910152565b60208152600082518060208401526106ba816040850160208701610677565b601f01601f19169190910160400192915050565b6000602082840312156106e057600080fd5b5035919050565b6000602082840312156106f957600080fd5b813561070481610636565b9392505050565b808202811582820484141761073057634e487b7160e01b600052601160045260246000fd5b92915050565b60008261075357634e487b7160e01b600052601260045260246000fd5b500490565b60006020828403121561076a57600080fd5b8151801515811461070457600080fd5b6000825161078c818460208701610677565b919091019291505056fea2646970667358221220d95598f93775331f3c48c995d2475a39dcfd496c66deb64bad4863fb2f8268a264736f6c63430008110033",
  "devdoc": {
    "kind": "dev",
    "methods": {},
    "version": 1
  },
  "userdoc": {
    "kind": "user",
    "methods": {
      "getFee(address,uint256)": {
        "notice": "Returns the amount of tokens deducted as fees."
      }
    },
    "version": 1
  },
  "storageLayout": {
    "storage": [
      {
        "astId": 707,
        "contract": "contracts/core/TTUFeeCollector.sol:TTUFeeCollector",
        "label": "_owner",
        "offset": 0,
        "slot": "0",
        "type": "t_address"
      },
      {
        "astId": 3304,
        "contract": "contracts/core/TTUFeeCollector.sol:TTUFeeCollector",
        "label": "defaultFeesBips",
        "offset": 0,
        "slot": "1",
        "type": "t_uint256"
      },
      {
        "astId": 3308,
        "contract": "contracts/core/TTUFeeCollector.sol:TTUFeeCollector",
        "label": "_customFeesBips",
        "offset": 0,
        "slot": "2",
        "type": "t_mapping(t_address,t_uint256)"
      }
    ],
    "types": {
      "t_address": {
        "encoding": "inplace",
        "label": "address",
        "numberOfBytes": "20"
      },
      "t_mapping(t_address,t_uint256)": {
        "encoding": "mapping",
        "key": "t_address",
        "label": "mapping(address => uint256)",
        "numberOfBytes": "32",
        "value": "t_uint256"
      },
      "t_uint256": {
        "encoding": "inplace",
        "label": "uint256",
        "numberOfBytes": "32"
      }
    }
  }
}